:020000040000FA
:2000000000500020E1000000FDAD0000C9000000FFAD0000FFAD0000FFAD00000000000018
:20002000000000000000000000000000FFAD0000FFAD000000000000FFAD0000FFAD000010
:20004000FFAD0000FFAD0000DD350000FFAD000055250000752D0000FFAD0000FFAD000016
:20006000FFAD000039360000FFAD0000FFAD0000FFAD0000FFAD0000FFAD0000FFAD00005D
:20008000FFAD0000FFAD0000FFAD0000FFAD0000FFAD0000FFAD0000FFAD0000FFAD000000
:2000A000FFAD0000FFAD0000FFAD0000FFAD0000FFAD0000FFAD0000FFAD0000FFAD0000E0
:2000C000FFAD000085380000044B1A68B2F5806F03D01B689B0500D4FEE7704728ED00E0F5
:2000E00008B506F091FE0C4A0C4B0D498B4204D252F8041F43F8041BF7E70A480A494FF08F
:2001000000028842B8BF40F8042BFADB01F084FAFFF7DAFF08BD00BFB8D2000000000020F4
:20012000F8020020F8020020AF2B002010B50D4C2378ABB10C480AF0BBFE0C4B01221A6081
:2001400022780B4B0B491868013206F0D3F8BDE8104009484FF48071084A002304F002B84A
:2001600010BD00BF7F2200206CC800001000002078030020FF210020280300208101000026
:2001800010B51E4B1E4819788378C12B15D004D8422B07D0C02B0BD010BDC32B12D0C42BFC
:2001A0001CD010BD03300239BDE8104001F01CB814484FF4F051144A1AE014484FF4F05146
:2001C000134A15E00120022101F0C0FB012002F031FFBDE81040002001F014B80D480AF079
:2001E00067FE012004F02AFB08480B4A4FF470610023BDE8104003F0B5BF00BF7F220020A8
:20020000FF2100205803002011AE00002803002015AE000085C800009D080000064B10B54E
:200220003F221A70054C50225A700223238002F0AFFB0023238010BD642800205428002007
:200240002DE9FF4140F22D2504880646AC421BD00ED8ACB96F4B20461C706F4B5B699847BF
:200260006E4B85211868224604F09AF935806BE040F235239C4262D040F24A239C4265D064
:20028000002333800320C2E085295DD1614B1B7843B9634880210AF083FEFFF7BFFF40F2FF
:2002A00035234AE041F6FF63ADF800304FF40943ADF80C304CF6AB5300224BF60B11684671
:2002C000ADF80220ADF80420ADF80620ADF80820ADF80A20ADF80E3006F03AF8514B524CE2
:2002E00018604D4B01205B69984750480AF0E0FD04F1600514F8022C237C52B1012B08D879
:20030000202002F049FA204605F0A4FF0A2002F043FA2034AC42EDD1002043F622510246FD
:2003200006F016F8424B186010B9308002206EE042F61663038240F24A23338004E03848DF
:200340000AF040FE0028A1D1012060E0394B1B788B42F0D1384B1B789B07ECD54AF6AA2240
:20036000364B0024D3F80080354B98F800701F70344B1A804FF400725C809C80DC801C81BF
:200380005C819C81DA81304BDB8A9342D3D12F4D2146802228460AF0B5FC41467A1C284686
:2003A0000AF0D6FB2A486978AA7803F0C7FAAB78C32B06D127480AF07BFD2046FFF7E0FE46
:2003C00006E002F08FFE3B2802D92046FFF7AEFEAB78422BAFD101F0A3F8012807D101F0E4
:2003E000ABF809280FDC1C4801F0DCF8A3E702F0EFFE0028F7D002F0EBFE01289BD102F05B
:2004000071FE3B2897D80020FFF790FE93E704B0BDE8F081FE21002010C800003408002040
:2004200048030020780300200227002090C800007C030020A52B0020F0280020FC2800200A
:200440007F2200208C1E002064280020FF210020A7C80000B8C800002D010000034630B5DA
:20046000164A85B000F1100553F8041BAB4242F8041BF9D103466C46224618685968083388
:2004800003C2AB421446F7D10D4B012468460D491C700AF040FE00216846224604F084FA9A
:2004A0001E20694606F0CAF930B1044940220AF0F4FE05480AF0FCFC05B030BD9C1E00205F
:2004C000FE2100205C280020C6C8000008B50548054910220AF00AFB08B102F059FA002004
:2004E00008BD00BFAC1E00206C28002008B54FF4E13002F08BF90448002104F07DF8BDE8D8
:200500000840024802F03EBA800000201105000030B5254C85B023782146212B12D1234B7F
:20052000002119806378502B2ED1684610220AF0E9FB6B4654F8020F616803C36846FFF7AD
:200540008DFF21E03F2B1FD163784D2B19D1212323700023164A01331A4412F8012C1548F7
:20056000150902F00F022D5C125C01EB4304082B01F813506270EDD10C4B12221A8002F0FA
:2005800007FA0A4B00221A800B4C0C4A04F11005234603CBAB42106051601C4602F10802EE
:2005A000F6D105B030BD00BF64280020542800205C280020EAC800006C280020AC1E0020D7
:2005C00038B50E4B0E4A1D4603F1100153F8040B8B4242F8040BF9D11B880A48138003F060
:2005E000ADF90024295D0848013403F0A7F9122CF8D10A20BDE8384002F0CEB88222002009
:2006000094220020FBC8000017C9000000B517488BB00AF04DFC164B0DF10E001B788DF84A
:200620000C30144B1B688DF80D3002F051FD124B0DF1110203F1100153F8040B8B4242F8C6
:20064000040BF9D11B8803A913800C4B1A221B88ADF824304DF217630093094B1868094B3C
:200660000AF0ADFD0BB05DF804FB00BF1BC90000EA0200202800002082220020E81E0020E6
:200680000C040020D61E002030B5334C8FB02368FE2B5BDC31480AF00BFC314A00231360FD
:2006A00030484FF47061304A03F05CFD02F01AFD04284ED92D4B0DF11E001B788DF81C3094
:2006C00023688DF81D3002F003FD294B0DF1210203F1100153F8040B8B4242F8040BF9D1F7
:2006E0001B880EAD1380234B9DF81E101B889DF81F20ADF8343040F2FF23ADF80C30002300
:20070000ADF80E30ADF81030ADF81230ADF81430ADF81630ADF818304FF48073ADF81A3044
:2007200015489DF8203003F009F915F81C1D2268124803F003F94DF217730093104B294643
:2007400018681A2203AB0AF03AFD02E00D480AF0AFFB0FB030BD00BF280000202BC900007C
:20076000F4030020B0030020C1050000EA02002082220020E81E00203DC9000052C90000B2
:200780000804002068C9000008B5064A06481378013313700AF08CFBBDE808400020FFF7DB
:2007A00073BF00BFEA02002083C90000034B1868FE28CCBF00200120704700BF2800002072
:2007C000054B00F1100250F8041B904243F8041BF9D102881A8070478222002038B5044693
:2007E00011480AF065FB2346104A04F1100153F8040B8B4242F8040BF9D11B880C481380B9
:2008000003F09CF8651E1134A54205D015F8011F084803F093F8F7E70A2001F0BDFFBDE878
:20082000384005480AF044BB98C9000094220020AFC9000017C90000C4C90000054B03F19A
:20084000100253F8041B934240F8041BF9D11B8803807047942200201FB5019003A802F071
:2008600037FC9DF80C309DF804103C205A1A9DF805109DF80D305B1A43434FF4616101FB83
:2008800002319DF80E209DF80630D31A024A0B44136005B05DF804FBF003002000B516486D
:2008A0008BB00AF005FB154B0DF10E001B788DF80C30FF238DF80D3002F00AFC104B0DF10E
:2008C000110203F1100153F8040B8B4242F8040BF9D11B8803A913800A4B1A221B88ADF80B
:2008E00024304DF217630093074B1868074B0AF066FC0BB05DF804FBD0C90000EA02002024
:2009000094220020E81E00200C040020D61E00202DE9F041028898B0B2F5417F06460C4679
:200920000CD040F20D339A4233D062BB954B8521186803F035FE4FF4417322E0852926D1A3
:2009400000204DF21771024605F002FD8E4B4DF2176118604DF2177303820020024605F0C1
:20096000F7FC8A4B18604DF617030382884B1B68FE2B04DD87484FF4F0510AF011FB40F26A
:200980000D33338003E0002303800320F7E00120F5E080480AF016FB58B17D4B1B68FE2B9B
:2009A00007DD7C484FF4F0510AF0FAFA0020FFF775FF794B1B78A342E1D1784B1B789B07AD
:2009C000DDD57748774910220AF090F808BB764C764823681A7859798DF80C205A788DF8F8
:2009E0000D209A788DF80E20DA788DF80F201A796F4B8DF81020196000F0E4FB2068062304
:200A000018AA1A44C15C0133182B02F8551CF7D112E005F079FC0028B1D0634B03AA1B680C
:200A200003F11805144618685968083303C4AB422246F7D11B8823800A2001F0ADFE9DF84A
:200A40000D809DF80E109DF80F209DF81030CDF8008058480AAC03AD02F070FF0FCD0FC462
:200A600095E8070003C44E4822804E4910220AF03DF8074600286ED1454C236898453FF718
:200A80007EAF9DF82C00BDF82A3043EA004307F07F401843FFF7E0FE474B1B680433082B85
:200AA00007D946480AF004FA45484FF4C071454A39E018AB33F8362D0AAD9B78ADF808203F
:200AC0008DF80A30029802F0F5FA0DF12D00FFF777FE0FCD4FF0010EC4F800E011AC0FC4F0
:200AE00095E8070003C4384B22809DF829209DF828005A7018AA187032F81A0DBDF8401081
:200B0000927858801A71314A19831378734413702F4B1C787CB102F0E5FA3C2807D92848CC
:200B20002C4A4FF4F0613B4603F01CFB27E72A480AF0BEF923E7204683F800E0FFF740FDF1
:200B4000204B1A488DE81800194B0B2116221B6800F08EFA13E7B8F1FF0F7FF410AF0C4B3E
:200B60001B68FE2B3FF70BAF1C4A1368002B7FF406AF0121116012488021164AD4E718B034
:200B8000BDE8F08134080020080400200C04002028000020F8030020A52B0020F0280020FC
:200BA0006C280020D61E0020FC2800208003002024000020E3C90000F0030020FEC90000BC
:200BC000D00300200D060000BC1E0020EA020020812200208906000023CA0000F4030020B3
:200BE00070B5154B1C68002CB8BF6442A4B2052C21D8124A13780133DBB213F001051370EF
:200C000019D10F4B1B68022B15D10AF0B0F94FF44073B0FBF3F24FF4C06102FB13006143B9
:200C200083B201F58061194406482B46BDE87040054A03F097BA70BDF003002080220020A2
:200C400028000020D0030020890700004AF6AA22064B1A8000225A809A80DA801A815A81EC
:200C60009A814FF40072DA81704700BFD61E002000487047D61E00200023054A9A5CFF2A1B
:200C800004D10133122BF8D101207047002070479422002008B50023094AFF21995401334C
:200CA000122BF9D10AF063F9064B1870FFF7CEFF0548002103F0A0FCBDE8084000F006B8A3
:200CC00094220020EA020020140000200248002114220AF017B800BF100400202DE9F0415A
:200CE00003880546174633B1442B0CD0002303800320BDE8F081194B01221A7044232B8090
:200D00000120BDE8F0818829FAD115480AF084F90446002CF2D0231D9F421CD1636A162BF8
:200D200019D1104E6369D6F800803360A3690BB1E0699847236AC6F800800B2B05D1636A2A
:200D4000162B08D11723636205E00C2B03D1044821460AF06BF92468DBE700BFA622002084
:200D600048040020340800202DE9F04F8F4B85B01878002800F017818D480AF04DF90646A6
:200D800000252EB1736A3668162B08BF0135F8E7884BDFF83C921C689846874F0CB902350B
:200DA0002BE002F09FF9201AC001B0F5F05F04D282480AF07DF801351FE0F5B9FC69D9F887
:200DC00000A0A047054602F0CBF98346A04702F0C7F90AF0CCF88146A047400099FBF0F306
:200DE00000FB13990AF00CF800FB09F0AD000BFB050505EB0A04354665E0012D16D1FC6965
:200E0000D9F80060A047814602F0AAF98246A047834602F0A5F94FF4FA7202FB0BF300FBB1
:200E200003604FEAC9090AFB090617E0022D23D1FC69D9F800A0A047064602F091F98346C8
:200E4000A047814602F08CF940F2DC5309FB03F900FB09F0B6000BFB060656440AF087F83D
:200E60008146A047400099FBF0F300FB139409F0C7FF00FB046426E051480AF019F8FC693A
:200E8000D9F800A0A047814602F06AF98346A0474FF4FA73584305FB000602F061F97043DE
:200EA0004FEA89090BFB090000EB0A090AF05FF80646A047400096FBF0F300FB136409F0B7
:200EC0009FFF00FB049402F00DF9C8F8000002F009F9FE698046B047074602F041F97D23F8
:200EE0007B435843B0EBC81F1BD902F0FBF88146B0478346B0476FF0F907784300FB05F8AE
:200F000002F02EF9824602F0EDF8FA2304EBC0100AFB080003FB0BF3029000950193294808
:200F200030E002F0DFF80746B047804602F018F96FF07C0202FB08F3FF0100FB03708442C2
:200F400005D22148214602F0F9FC20462BE002F0C9F88146B0478346B0476FF0F907784347
:200F600000FB05F802F0FCF8824602F0BBF804EBC0100AFB0800FA2303FB0BF30290134854
:200F80000095019321464A46802302F0D7FCB0477843454302F0E4F8064602F0A3F804EBF9
:200FA000C01006FB050005B0BDE8F08FA622002048040020240400202CC8000057CA0000D1
:200FC0005ECA000077CA00009DCA0000B2CA00002C00002070B5164B1B783BB3FFF7E6FB9B
:200FE000034638B9BDE8704012484FF48071124A03F0B8B8114D124B12482E682B600AF0E5
:201000000BF8044664B1636A182B07D1FFF7ACFE0146201D09F0C4FF162363622468F1E744
:201020002E600448BDE8704003F0C2B870BD00BFA622002028040020D50F000034080020B4
:20104000300000204804002010B5064B002406481C7009F0DEFF2146BDE81040034803F050
:20106000CBBA00BFA62200204804002030000020F8B5836200231646164D069AC362164BEE
:201080002F6882611B78079A04464761C261016283B1124B2B60FFF789FB38B1FFF764FE53
:2010A0000146201D09F07CFF666201E0182363622F6003E0FFF758FE6662A0600848214652
:2010C00009F0C8FFFFF772FB18B9BDE8F840FFF781BFF8BD34080020A622002030000020C0
:2010E000480400202DE9F8432D4B1B78002B55D0FFF7C2FD002851D108F0A0F8044638B116
:20110000FFF76EFDBDE8F8434FF4705000F07ABA244B254FD3F81C90C8477D235843234D53
:20112000234B244E386024483460D5F800802B6009F072FF0446DCB1236A0B2B16D1636AA7
:20114000172B13D1E36AA16A013393FBF1F2E36201FB123353B9194809F0AAFEFFF704FEE0
:201160000146201D09F01CFF162363622468E2E7134B1C88C84764BA2522A4B2B4FBF2F324
:2011800002FB1344A4B2444309F0F1FEC0B204443C6001F0A7FFC5F800803060BDE8F8835C
:2011A000A62200202CC800002C00002034080020300000202404002048040020D8CA000005
:2011C000E81E002038B5064B04461B780D462BB1044802F0B3FB0023A562E36238BD00BF90
:2011E000A6220020F2CA00001229034605D103484FF40071024A02F0B5BF70474C04002019
:20120000DD0700007FB5002101A8142209F07AFD0E4B1A78511C11F0FF0104BF02321A706C
:201220000B4A18BF197012881878ADF80420022301A904228DF806008DF8073000F0B2F830
:20124000002000F013F807B05DF804FBA7220020E61E0020034B00221A7041F23422024B8B
:201260001A807047A7220020E61E002010B586B000F0A6F8837F044623B3134809F018FEFB
:20128000012000F0DBF840F2FF23ADF808300023ADF80A30ADF80C30ADF80E30ADF810308E
:2012A000ADF81230ADF814304FF48073ADF8163044F21653A27F0093044B2146186802AB07
:2012C00009F07DFF06B010BD19CB00006C040020F7B50446008828B1862811D000232380F6
:2012E000032048E044F21651024605F031F8234B186044F2165303828623238001203AE00F
:201300001F4B1B788B42F7D11E4B1B789B07F3D504F0FAFF0028EFD01B4D1C4809F0C8FD77
:201320002B681B481B88ADF80630BDF80660314602F004FB41F234239E42DDD12B689E78F5
:20134000DF7800F03DF890F82030B342D4D03946104802F0F3FA3946012000F0F7FA012048
:2013600001F068FE30462968042200F01BF80020FFF77CFFC0E703B0F0BD00BF6C040020FF
:20138000A52B0020F0280020FC28002027CB000039CB000044CB00000148002103F02CB99A
:2013A0004000002010B5054B002483F820009A77DC771846BDE8104009F0CABBA9220020D9
:2013C00000487047A9220020184A002310B51370032826D8DFE800F025022528144AD37F52
:2013E0001944C9B20A29D17701D900231AE0032988BF042101248C40631E4FF428645C432B
:2014000007D009F0B4FDB0FBF4F101FB140000F5A8642146BDE810400648074A002302F09A
:20142000A1BE034A9377D37710BD00BFA8220020A9220020700400206D120000014B187064
:20144000704700BFA8220020014B1878704700BFA822002008B5074A00231370064A9377E2
:20146000D37782F82030FFF7F5FEBDE80840FFF793BF00BFA8220020A922002073B50190ED
:2014800001F0A6FE1F4C204E204D90BB204A9DF805301278B3FBF2F29DF8043003EB4303D9
:2014A00002EB43031B4ADBB21178994212D01A491370012309783370184B2170187007F020
:2014C00097FD4FF4803393FBF0F080B207F05AFD00F04CF83278012A0BD10F499DF806308C
:2014E0000978B3FBF1F323B923782A70013B237005E00A4A00232370137033702B702878A9
:2015000002B070BDCA220020CD220020CB220020ED020020EE020020EB020020EC0200208A
:20152000014B1878704700BFCB220020014B1870704700BFEC020020014B93F90000704765
:20154000CA220020014B1870704700BFCC220020014B1878704700BFCC220020024B1A68F8
:201560000AB100221A6070479004002010B5094B1A6872B108484FF40071002302F0F2FDE3
:20158000BDE8104005484FF42071054A002302F0E9BD10BD90040020B4040020940400201A
:2015A0005D15000008B1014B186070479004002008B505F027F940B9FFF7F8F828B10348FC
:2015C00009F076FC024B01221A7008BD69CB0000CE220020014B00221A707047CE220020DE
:2015E000014B1878704700BFCE220020014B1860704700BF50000020014B1868704700BF9D
:20160000500000200146024A0248002302F0AABDB1150000D40400202DE9F0436D4C85B00C
:2016200023686D485B6801219847236801211B680A46694898470AF087F901F051FC01F0ED
:2016400033FC00F02FF9654809F032FC644809F02FFC644809F02CFC00F098F901F0F0FC74
:20166000012803D00120022100F070F95E4C00F08DF900F00BFA208802AF013080B2208060
:2016800000F0EEF92188594802F058F900F0BEF900F0A0F900F0A8F90AF05AF900F0DEFE0C
:2016A00000F07CFE09F099FC01F050F802F008FF41F2342009F060FC01F0F8FA03F038F81E
:2016C00000214B4802F098FF02F016FD02F086FD09F0E8FB474B01221860474B47481A709F
:2016E00002F02CF9464B0024186809F0E1FB454802F024F9444B454D186809F0D9FB444833
:2017000002F01CF9434BA946186809F0D1FB06F0B7FB38460821019401F05AF89DF80F3005
:201720009DF80E8043EA08283B4603CB28606960404600F005F9384B3848198802F0FEF889
:20174000374802F0FBF8395D3648013402F0F6F8082CF8D1344D0A2001F01EF8EE6A4AF6B5
:20176000CD310220B04741460320B0472F4B01201978B04722466B6B39460B209847AB6AB2
:2017800001A9012098470221294802F0D7F8294AD9F800301360D9F80430536006F09CF821
:2017A0000021254802F028FFFFF754FEFFF772FA07F018FFFFF748FC02F010FD6B6A9847DD
:2017C0001E4809F0E3FB00F0D7FF02F091FE00F0C9FFFAE7D8010010004003407ACB00003B
:2017E00093CB0000ACCB0000482B0020C0CB0000F0000020A426002094260020D2CB000085
:20180000F8C70000D9CB000010C80000A72B0020E0CB00002CC80000E81E0020E7CB000024
:20182000F4CB000017C9000050BE0000462B0020FECB00005C28002030010020CCBD000023
:2018400008B5064B04201B685B699847034B04201B685B6B98470128F8D108BDB801001016
:2018600010B5064B1C6844B901221A60044B11201B68DB6B9847034B1C7010BDF40400204D
:20188000B401001011200240044B00221870044B1A70C20744BF01221A707047CF220020FD
:2018A00011200240F0B59DB00AF04EF80746FFF7C7FF1C4B4FF4A0601B68DB6998471A4BC5
:2018C00001221A60194B1B689A07FBD5184801F0DFFA01A817496C2209F03AF96E4656F824
:2018E000045F154C6B1C0AD0236828469B6B9847236828469B694FF400519847EFE70FB9D7
:201900000AF026F823680E20DB6B98470B4B00221A7002F089FF23681D20DB6B1DB0BDE8D5
:20192000F0401847B8010010282008602820084054000020DCBD0000B40100100E200240CD
:20194000014B1880704700BFE81E002037B505460C460B48294601F0F1FF2146094801F032
:20196000EDFFFF2301A8084903228DF804508DF805408DF8063007F097FF03B030BD00BFF0
:201980000BCC00002BCC000002E0010037B5022201A90B4807F06AFF0A4D9DF805309DF873
:2019A0000400094C2880237001F044FB2988074801F0C4FF2178064801F0C0FF03B030BD78
:2019C00002E00100442B0020462B00204DCC000065CC0000024803491E2207F047BF00BF28
:2019E00005E001004A2B0020064B70B51D461E780024B44205DA0134295D034801F09EFF70
:201A0000F7E770BD4A2B00207ECC000010B51E2488B022466846002109F074F905238DF853
:201A2000003010238DF801305B238DF80230FE238DF8033059238DF804302146162306485C
:201A40008DF8053001F07AFF68460449224607F02BFF002008B010BD84CC000005E0010003
:201A600007B5002301468DF8040007488DF8053001F064FF01A84FF4F031022207F014FF1F
:201A800003B05DF804FB00BFA1CC000007B5022201A94FF4F03007F0E9FE9DF80410044B50
:201AA0000448198001F04AFF03B05DF804FB00BF482B0020C8CC00000B4B032210B51A6060
:201AC0003222642300BF013BFCD1013AF9D1074B4FF47A711B68044C1812DBB24B43226044
:201AE0001B1201FB003010BD00500940285009404FF6FF70094A4FF47A71D389128A4B43AB
:201B000001FB0200A3F5D323A3F55A7303EB2043C820B3FBF0F0C0B2704700BFF80100200C
:201B20000023074AD8B2013302EBC30232F8041C4FF6FF729142F4D10138C0B2704700BF08
:201B4000C8C7000008B501F073FB20B1024B5888831E5842584108BDC801002013B501F0A1
:201B600093FC044601F064FB50B1064801A901F067FB012804D1638803F44063002BFAD078
:201B800002B010BD0100010408B50346B32994BF0A46B4220248194608F0DAFF002008BD06
:201BA00012050020084B70B51D461C6800262379032B03D10548013602F036FD24682B6803
:201BC0009C42F4D1304670BD04050020A4000020F8B5114B1D681E462A79032A19D12C8971
:201BE000023C002C10DD8C4205F10A0703DC3946224608F0ADFF3957042089B206F016F95B
:201C000003207F2106F012F92B68336000232B7100E000242046F8BD0C05002037B5FFF7E9
:201C200091FF48BB174C01A96080A37F20465BB2C3F5FF6307339BB2238301F001FB012832
:201C40001CD109F02FF9054663889BB2022B0BD163889BB2022B11D109F024F90A4BD861FF
:201C60000A4B0120D8710AE009F01CF96FF03F035B1BC342E8D4EBE7012000E0002003B02F
:201C800030BD00BFC8010020A42600209426002037B5FFF757FF20B3134801A901F0D0FA20
:201CA000FFF750FF04460028FAD1104B5B88A3F55053043B9BB2012B11D80D4DEB796BB1AE
:201CC00009F0F0F80B4B0C49DB69EC71C01AD1E90E23121843F10003C1E90E23012420464B
:201CE00000E0012003B030BD01000104C801002094260020A42600201826002013B50F4C0F
:201D00000A2384F824300E4B20461B6801A99B886383237E03F0F80343F00803237601F07A
:201D20008FFA012806D1204601F0CAFA431E5842584100E0002002B010BD00BF10020020FB
:201D40007C00002007B5084801A901F079FA012806D1054801F0B4FA431E5842584100E06D
:201D6000002003B05DF804FBF80100202DE9F04101F0ACFC012802D10120BDE8F08109F017
:201D8000C9F8FFF7DFFE0028F6D101F051FA0546002869D101F0AAFA0128044602D001F00C
:201DA000B9FB80E001F002FB4FF423724348444908F0CEFE434B022203F81B2C032203F859
:201DC000192C04229A770522DA76062203F80F2C3D4A1D7003F8174C1A633C4C2368002B85
:201DE000FBD0002323603A4A3A4B52F8201C52F81C8C52F818CC52F8147C52F8106C52F8D9
:201E00000C5C12E9014019603349C3F80480C3F808C0DF601E615D619861C3F81CE02033E8
:201E20008B4202F12002E0D12C4B2D4A01201A622C4A5A622C4A9A622C4ADA622C4A1A633B
:201E4000002323602B4A2C4B1A6005F0FFFB2B4805F070FB2368002BFCD01C4B00221A602F
:201E600001F018FB01289AD1002001F0BBFA244B194603F50C701C4600221A715A790225B9
:201E800002F0FC0265F383025A718422DA808C3383422360EFD1C1F8A41101F04BF8FFF74B
:201EA0002DFF012802D00020BDE8F081FFF74AFF0128F8D1BDE8F041FFF7B0BE1C04002119
:201EC0003CC5000090030021BD0500211C100440A8BE000000C00021A0C6002180C60021C5
:201EE000603953632010101A136F236E11161216546B007001010E0400100440100200200E
:201F0000C805002010B501F0E1FB01281AD00E4CFFF7BEFE01F0FEFAE37973B108F0C2FF01
:201F20000A4B0B49DB69C01AD1E90E23121843F10003C1E90E230023E37101F015F8054BEE
:201F400000225A80012010BD94260020A426002018260020C801002038B50C46072805D841
:201F6000DFE800F00611040467042F4C012038BD012905D1FFF7FAFE01285AD0032038BD36
:201F8000002958D152E00A2955D8FFF7B1FDE3B298424ED0C820604300F5D32000F55A70FA
:201FA0004FF47A75B0FBF5F3254C99B204FB03031B04B3FBF5F3234A1184234AD181138290
:201FC0001EE0FFF7ADFD214D55F830309C4232DB2B689C422FDCFFF7C1FDFFF7A1FD55F84C
:201FE000303005EBC0029C4202DC194B1A6002E010F1FF30F3D208F022FF1AE0154B197062
:20200000FFF7A0FD28B9FFF7B1FE0128B6D1054600E00025FFF73CFE012814BF0324002430
:2020200008F00DFF012818BF032435B1FFF76AFF03E0002038BD022038BD204638BD00BF07
:2020400018FCFFFF10020020F8010020C8C700007C000020F0020020F7B50C46002959D096
:20206000102859D8DFE800F0090F5858585814171B58585858474A4C5200FFF763FD00306D
:2020800018BF012001E0FFF733FD2060002044E0234B1B683BE0234B93F9003038E0FFF739
:2020A00051FD28B9FFF762FE01281CD1064600E000260A278025013F17F0FF070ED000230F
:2020C000019340F2034301A86946ADF8043001F0B7F818B19DF802506B06ECD00EB1FFF791
:2020E00011FF6DB201E06FF07F05256080350CBF0320002011E0002008600EE00A2307E02A
:20210000FFF70EFD084B53F8303001E0064B1B682360BBE7022000E0012003B0F0BD00BFA4
:202120007C000020F0020020C8C700002DE9F3410446FFF707FD28B9FFF718FE012867D186
:20214000054600E00025354A231D354E9BB202341370A4B21B0A53703482F261FFF798FD15
:202160000020014601F070F9304601A901F068F82C4FDFF8B88038B3FB7973B108F092FE98
:20218000D8F81C302849C01AD1E90E23121843F10003C1E90E230023FB7108F083FE012385
:2021A000C8F81800BB7100F0DDFA738803F4406313B900F027FEF8E7194B5C88A4B2B4F5B8
:2021C000505418BF012400E00124BB797BB108F069FED8F818301449C01AD1E90C23121839
:2021E00043F10003C1E90C230E4B00229A7108F059FE0123C8F81C000020FB7101F038F94C
:2022000000237380FFF70AFD25B1FFF77BFE01E0012000E0204602B0BDE8F0811005002021
:20222000380200209426002018260020A426002037B501F04BFA01282AD000F0F9FF30B90C
:20224000FFF794FD012808D0FFF75CFE1FE0114B5B88022B1BD0002500E0054680240E4806
:2022600001A900F0EDFF012803D19DF806406306F5D00DB1FFF746FE084B60B21C70084B96
:2022800093F900308342D4BF0020012000E0012003B030BD3802002001000304EF020020D5
:2022A000F002002038B51B4800F0F2FD05F0DCF9012801D000242BE0174C002120464FF4BD
:2022C0000C7208F01FFD154A154B1460154A00251C6093625D60144BD36240F2B112134BA0
:2022E0001A84134BDA8146F266621A82FFF73EFD01280446DED108F0D5FD0E4BD8610E4BE3
:202300000E48DC7101F064F90D48294602F074F9204638BD68000020C80500200C050020A8
:2023200004050020C8010020F804002010020020F8010020A42600209426002048BE00005A
:20234000A4000020014B93F900007047F002002008B5064B04201B685B699847034B04204E
:202360001B685B6B98470128F8D108BDB80100100749084A0B68126809688B42F8D1DB0143
:20238000054903EB52620023C1E90023704700BF082009400C200940F802002010B51A4BBD
:2023A00000200021C3E90001184C042023685B6B9847012801D0FFF7CBFF23680020DB69CE
:2023C0009847134B01221A60124B1B689B07FBD5114A124C1368204623F4807323F0010316
:2023E00013600F4B0F491B681B689847042323600D4B31221A6040F2212243F8342C0B4B9E
:2024000001221A6010BD00BFF8020020B801001028200860282008400C00014000000140E2
:20242000C8010010002100043C0001400400244308B5FFF79DFF024BD3E9000108BD00BFD9
:20244000F802002010B509F07FFA034B1C6808B909F07EFA204610BD082009402DE9F0413C
:2024600009F072FA214F224B012400254FF480723D60204E1C601A604FF480321A60336890
:2024800080461B68284623219847336820461B6824219847336825211B6802209847164AF5
:2024A000136843F4E0231360144B1D6005F080F9134B00F50070186005F07AF9114B00F5B6
:2024C0007F40F4301860104B14201C601C620F4B3C601B681B699847B8F1000F03D1BDE80B
:2024E000F04109F035BABDE8F08100BF0000244304200940840100100020094008200940AB
:202500001C20094020200940A0022443B0010010431E012B15D810F001031CBF094A1160C6
:2025200010F0020006D0084A116023B9074B01221A6070472BB1064B01221A600028F5D1C6
:2025400070477047182009401C200940A0022443800224432DE9F34708F0A4FC584E594FDF
:202560000123BB70B06008F09DFC574B1860574B1B68002B72D0564B4FF480321A6000F0BF
:2025800023FD00F025FE534D534C287000F05EFD00F056FD012811D1DFF86881404600F062
:2025A00097FD98F8010098F8003043EA002398F8020043EA0040FEF761FF207000F008FE0C
:2025C0002B78834214D000F003FE95F80090824694F80080FEF7BCFF514600904A464346DD
:2025E0003E4801F0ABF900F0F3FD012817D106E094F80080FEF7ACFF8045E4D124E0354B3F
:202600001B7863B9364B00221A60FEF7AFFF354808F04EFC00F0DCFD012815D107E0237832
:20262000012B09D1FEF794FF0028EBD004E02B7853B9FEF757FD07E000F0CAFD20B923783B
:2026400013B9294808F034FC2078FEF77BFF05F0AFF8264B00F57F40F4301860244B1B68BF
:202660007BB11B4B4FF480721A6008F00BFC05F09FF800F2052020F4FF701E4B20F001007A
:2026800018601D4B1B683BB11C4B00221A60104B01221A6001F0E6FFBB7873B108F002FCCD
:2026A000B3681749C01AD1E90423121843F10003C1E90423034B00229A7002B0BDE8F0876A
:2026C000A426002094260020FC070020C000244304200940D4220020D3220020E2CC0000A6
:2026E000F80700200BCD00003ACD000020200940A00024431C2009408000244380022443F7
:2027000018260020D0220020820742BF034B01221A60C30701D509F01BB97047000C08405C
:2027200008B509F011F9074B1A68012A09BF064A00231A600223002814BF184643F0010073
:2027400008BD00BF000C084051E5CC1A034A044B1A600122C3F8002C704700BFFFFF0F00E2
:2027600000000840024A034B1A600122DA607047FFFF0F000000084010B5FFF7D1FF0446BF
:20278000FFF7F0FF034B01221A602046BDE81040FFF7BABF0401004338B50C4C054623782C
:2027A0003BB9C02000F096FA0D2000F093FA01232370E8B200F08EFA0A2D04D1C02000F076
:2027C00089FA00232370284638BD00BFD52200200A4B13F8012FFF2A04D1094A9342F8D108
:2027E000084B00E0084B19440138994204D001390A7800F8012FF8E7704700BFC7FF01000E
:20280000CFFF0100F0120050C8FF0100014800F075BA00BFED2900002DE9F74F038807465E
:2028200033B1B3F5827F11D00023038003208EE0484A1380484A1380484A1380484B0122CE
:202840001A704FF482733B80012080E082294FF00106F9D1DFF804914248B9F80050424B3B
:20286000425D1E70432ADFF8EC8082462BD1DFF8E8B0BBF80020954225D2521B052A22DD0C
:2028800000EB050C604639490622CDF804C008F02DF9DDF804C00446A8B9604621460622CC
:2028A00008F030FA2E4BA8F80040ABF80040A9F800401E702E4B185D013408F029FB0D2CD3
:2028C000F8D1002438E0B8F80060B542F9D00AD2741BA4B28C2C20D80AEB050122462548E2
:2028E00008F036F91AE006F19C04641BA4B28C2C13D82B461F4A591B9B2B114405D81AF850
:202900000310521BD1540133F4E70023B34205D21AF80320CA540133F8E700240F4B1E8092
:202920000F4B1A7842B90C4A13481288A8F8002001221A7001F078FE104B1C80002C80D01E
:202940000F4B1B6803B1984703F022FD79E703B0BDE8F08FEC1E0020EA1E0020EE1E002040
:2029600072230020D6220020A22B002069CD000070CD000064280020800000205428002042
:2029800000080020014B1860704700BF0008002038B5C02008F0BCFA114B00241149A2B204
:2029A0000988914216D93C2A04BF0F4B1B6818785D1CC02804D1DB2008F0AAFADC2004E081
:2029C000DB2802D108F0A4FADD2008F0A1FA01342B46E3E7C02008F09BFA002038BD00BF4A
:2029E0006428002054280020FC28002038B5284B1A78032A31D8DFE802F048170602C0281B
:202A000043D1012213E0DC2808D0DD2808D003221A70204B1A88204B1A8036E0C02000E03C
:202A2000DB2001221A7018E0DB2802D102221A702BE0C02811D1184A1188164A10888142E7
:202A400023D0164C2488844216BF002211801A70134801F0E9FD012038BD0F490F4C0D880D
:202A600024886A1C9C2A08BF0022A24205D103221A70084B1B880B8007E00A4B5428585526
:202A80000A8002D11B5D432BE2D0002038BD00BF72230020EC1E0020EA1E0020EE1E00203A
:202AA00080000020D622002038B50C4B02201B685B699847094D02202B685B6B98470128F9
:202AC0000446F7D12B684FF40070DB699847044B1C60044B1B689B07FBD538BDB8010010AE
:202AE000282008602820084008B5064B02201B685B6B9847012803BF034B186800F0010094
:202B0000002008BDB80100106C20084008B5084B15201B685B699847064A136823F4FE6385
:202B200023F00203136040F2F272034B1A6008BDB0010010381000404410004037B5284CAA
:202B4000FFF7B2FF2368274DDB6827489847FFF7DDFF2B681B20DB6B9847244B4FF0006269
:202B60001A602A684FF0FF330093156C1E481C211B22A84723681C485C681D494FF4E13286
:202B80006023A0471B4B14221A601B4A1B49136843F01003136040F2011240F2013308689D
:202BA000002808BF134602F1804202F62F72136040F2F272124B1A600B687BB102F180424B
:202BC00002F646021368152043F0500313600D4B1B681B6903B0BDE83040184703B030BDE6
:202BE000D0010010B40100100010004090200240006CDC02341000402C1000400408002077
:202C000044100040B001001038B50546FFF76CFF18B11F4B1B681A07FBD4032D03D01D4BB5
:202C20001B68002B32D1FFF75FFF30B11A4B1B481B68DB689847FFF769FF194C4FF40070CB
:202C400023681B6A9847032D09D123684FF400709B6A984723684FF400701B6B9847114B5A
:202C600001221A60104B1B689B07FBD51B2000F021F91C2000F01EF94FF0FF3000F01AF96E
:202C8000BDE838404FF0FF3000F014B938BD00BF1810004004080020D00100100010004073
:202CA000B8010010282008602820084010B508F04BFE0446054800F0EBF8054B00221A60AF
:202CC0001CB9BDE8104008F043BE10BD900000200408002010B50446FFF706FF08B9FFF7C7
:202CE0002DFF044B2146BDE810401B680248DB69184700BFD001001000100040124B10B57B
:202D00001860124C124B40B9186123684FF400709B6A984723681B6B08E002221A612368C9
:202D20004FF400705B6A98472368DB6A4FF400709847084B01221A60074B1B689B07FBD5A3
:202D4000BDE81040FFF7FABE04080020B801001090000020282008602820084008B5FFF738
:202D6000C3FE18B1024B1868C0F3C00008BD00BF1810004038B508F095F8194D194C01233C
:202D8000A370A860FFF790FE40F2F271164B174A1B68116013F0500F1BD1A378F3B108F044
:202DA00081F8AB681249C01AD1E90423121843F10003C1E904230B4B00229A700EE00D4B77
:202DC0000D481B681B6998470C4B1B680BB1C0B298470B4B1B68DB06F1D5DEE738BD00BFD8
:202DE000A426002094260020401000404410004018260020D0010010001000400408002030
:202E000018100040F8B51D4C08F04CF823781C4D5BB12B681B4EC11AD6E90023521843F191
:202E20000003C6E9002300232370174F01230026686063703A683346022001F009FA134A2E
:202E4000136823F00403136030BF022001F0DEF9386008F027F8637863B1094B094F596886
:202E6000D7E90223411A521843F10003C7E90223024B5E70012328602370F8BD94260020B3
:202E8000A4260020182600200C08002010ED00E00146014808F0DEB80808002001460148FB
:202EA00008F0C4B808080020014808F0B2B800BF08080020431C10B504460BD0064B4FF4F7
:202EC000C0421B6800211B689847044BA400234300221A6010BD00BFB4010010001A444204
:202EE0001FB50023029302A84123039306F066FD042004F009F8032812D00420032103F0E8
:202F0000D5FF042004F000F80328FAD1074B00211B6800905C6806484FF040521C23A04748
:202F200002A806F0A1FD04B010BD00BFA401001000A00C4007B54123002268468DE80C0001
:202F400006F03CFD012003F0DFFF012803D0054B986B04F0FDFB684606F086FD03B05DF8E6
:202F600004FB00BF4800001013B54123002468460193009406F022FD0320214603F096FFEE
:202F8000012003F0C1FF18B1044B986B04F0E0FB684606F069FD02B010BD00BF48000010D3
:202FA000084B01221A701A46002181424FF0000306DA8B4202DA00BF0133FAE70131F4E721
:202FC000137070470E20024010B5174B9A780132D2B23B2A9A7082BF5A7801325A70597807
:202FE00084BF00229A70104A3B2982BF1178013111701B7884BF00215170172B06D90A4BF9
:2030000000221A70094A138801331380084C2368B3F5967F04D30F20FFF7C2FF0023236050
:2030200023680133236010BD73230020F01E002010080020014B1880704700BFE802002001
:20304000014B188880B27047E802002010B5154A0A24137852781448B2FBF4F2062404FBD2
:203060000324FDF7EBFBFEF7C7FAA04204D0FEF7B1FA2046FEF7BAFAFEF7B2FA0B4908B186
:2030800000230CE00A4B08481A88E310C35C04F00704C4F107042341134003F0FF030B70E2
:2030A00010BD00BF7323002076230020F1020020E8020020054BC0F30722187082B0C0F35F
:2030C00007405A70987002B0704700BF73230020034B1A7802705A789B7842708370704766
:2030E0007323002030B51B4B1B7803F0FF007BB319480A2245780178B5FBF2F2062303FB9E
:203100000122014601320023144CD010205C02F00704C4F107042041C00709D5902001328D
:2031200092FBF0F40133DBB2834200FB1422EBD10A20B5FBF0F4434300FB145003F1090209
:20314000C0B2131A88783C22C0F13C0002FB030030BD00BFF1020020732300207623002057
:2031600010B5174B1B7803F0FF003BB3154B0A211A785B780024B3FBF1F3062101FB0233B7
:2031800001331149DA108A5C03F00701C1F107010A41D20709D59022013393FBF2F101348E
:2031A000E4B2944202FB1133EBD1611C074800F0C5FB022C28BF0224601CC0B210BD00BF75
:2031C000F102002073230020762300208ACD0000014B1878704700BFF102002010B5038861
:2031E000044633B1B3F5097F07D000230380032010BD4FF40973238001E0822901D0012024
:2032000010BDFFF7AFFA04F0AFFD04F04BFD064B80211B6998470028EBDD80B204F03CFDC2
:20322000024B1B699847ECE750BE00002CC80000024B186800F00100704700BF9C210840D0
:20324000F8B510F0030504460F4605D103881A0503D54580012500E0002508F075FB061C48
:2032600018BF0126FFF7E4FF20B90EB907F069FE0020F8BD55B1238813F4405F06D003F480
:203280004063B3F5006F04BF0A4B1C600A4B1C604CF25133094A013B12683A60E5D012F0F3
:2032A000FF0FF7D00EB907F04CFE3878431E58425841F8BD14080020001004400410044050
:2032C000094B013B0DD0428802F44062B2F5806FF7D1408800F44060A0F5806358425841BA
:2032E00070471846704700BF21A1070037B508F02BFB254C0546236819201B6A9847236801
:2033000012201B6A9847236819205B699847236812205B6998471D4B01201B685B699847A1
:203320001A4B01201B685B6B98470128F8D1184B186003F10053043B1860164B1B689A078F
:20334000FBD5154A0023104C13605360236819201B699847236812201B6998470DB907F095
:20336000F0FD40F2FF320D4B01A91A600C4B00221A600C4A0C4843F81C2CFFF761FF431EAA
:203380005842584103B030BDB0010010B80100102C200840282008401010046000000460C4
:2033A0001C100440510007060100060408B504F081F9052802D10A4B186007E0032801D158
:2033C000022201E020B90322054B1A60012008BD012803BF024B05221A60002008BD00BFBD
:2033E000D021084038B50028144C18BF0024FFF71FFF08B308F0A8FA0546114B4FF0004293
:203400001A6043F8044C00220E4C43F8082C236819201B6A9847236812201B6A98472368E8
:2034200019201B699847236812201B6998471DB9BDE8384007F085BD38BD00BF00008080F0
:2034400018100460B0010010002814BF08220222044B0029044918BF00230B601343034A09
:2034600013607047000080801010046014100460034B0028034A18BF00231360704700BF70
:203480000000808014100460014B1868704700BF140800207FB5142101A840F60A0207F0DB
:2034A00057FD0A4B01A81B6869460593FFF7C8FE012806D101A8FFF703FF431E58425841FF
:2034C00000E0002007B05DF804FB00BF1C0800207FB5142101A840F6090207F039FD01A8B5
:2034E0006946FFF7ADFE012804D101A8FFF7E8FE012801D0C0B206E0044B1A781AB918706B
:20350000059A034B1A6007B05DF804FB882300201C08002030B587B008F016FA274C054648
:20352000236819205B699847236812205B699847FFF77EFE90B1224A0023136002A85360B2
:20354000102140F60D0207F003FD02A801A9FFF777FE012802D102A8FFF7B2FEFFF7B8FF46
:20356000184B00221A6003F100530122043B1A60154B1B689B07FBD5144B01201B689B69CD
:203580009847124B01201B685B6B98470228F8D10A4C192023681B6A9847236812201B6AF3
:2035A0009847236819201B699847236812201B6998470DB907F0C5FC07B030BDB001001002
:2035C000101004602C20084028200840B8010010014B1860704700BF1808002038B507F01C
:2035E00061FC114C114D0123A060AB70FFF720FEA8B10F4B6FF000421A60AB789BB107F02C
:2036000051FCA3680B49C01AD1E90423121843F10003C1E90423054B00229A7003E0FFF7BC
:2036200065FE0128E5D038BDA426002094260020101004601826002070B507F033FC1D4DF9
:203640001D4C0123A860A370FFF7F2FD2E46254660B11A4C08F078F923681B020ED56FF430
:2036600000032360164800F0DFFF07E0154807F01FFCFFF73BFE01281BD1EAE7236813F09F
:203680000A0F1EBF0D4B6FF00A021A6007F059FCAB7873B107F006FCB3680B49C01AD1E968
:2036A0000423121843F10003C1E90423024B00229A7070BDA42600209426002010100460C3
:2036C000A4000020A8CD000018260020014B1878704700BF89230020034B1B68002B14BF66
:2036E00001200220704700BF2008002038B5064B02201B6800241D46044B1B685B689847EB
:20370000201845F1000138BD04800240CC01001008B5064B04201B685B6B9847012803BF5D
:20372000034B1868C0F34000002008BDB80100103C20084038B5038804461BB3B3F5847F3B
:2037400003D000230380032038BD114B1B788B421BD1104D2B682BB1FFF7C8FF2B68984735
:2037600000232B600C4B40F201401B689B6A98470A4B01221A600A4B1B689B07FBD50948DD
:20378000FFF78CFB4FF484732380012038BD00BFF202002020080020B80100102820086025
:2037A00028200840B400002038B50C4B04201B685B699847094D04202B685B6B984701283C
:2037C0000446F7D12B6840F20140DB699847044B1C60044B1B689B07FBD538BDB8010010E1
:2037E000282008602820084070B51F4B1B688BB100231E4A995C39B10021D1541C4A02EB38
:20380000C30393E8030070BD0133042BF1D10020014670BDFFF77CFF08B9FFF7C5FF154A33
:20382000154B116814460B406BB9144B01221A6018680028FCD102464FF4807103F09CFF6B
:203840000F4B01221A6008F07FF806462368DB07FCD5FFF74BFF05460C460EB908F078F86C
:203860002846214670BD00BF200800208A230020000300200880024001000080F09F024033
:20388000A80250422DE9F04107F00CFB194D1A4F1A4E00241A4A4FF00108B06085F8028091
:2038A0003C601368312023F001031360154B1B685B69984720464FF48071224603F05CFF40
:2038C000114BC7F8008019781048224600F068FEAB7863B107F0E6FAB3680D49C01AD1E993
:2038E0000423121843F10003C1E90423AC70BDE8F08100BF94260020A8025042A42600207E
:203900000C800240B0010010F2020020C80000201826002010B5074C2378802B08D100F097
:20392000C7FD207000210448BDE8104000F064BE10BD00BFF2020020C80000200FB407B5B8
:2039400004AA52F8041B0448019200F021F803B05DF804EB04B07047D800002070B505469E
:203960000C46102C07D92B68686808491022984750B9103CF5E734B12B6868682246BDE88E
:20398000704002491847204670BD00BF29CE00002DE9F04F80468FB0069107920026069B33
:2039A0001B78002B00F05F83069B1C4613F8012B1AB9069B9C4203D10FE0252AF5D1F8E734
:2039C000069BD8F80400E51A0699D8F800302A469847002840F02A832E442378002B00F058
:2039E00042836378611C002B00F03D8300240A4611F8013B2B2B11D006D8202B11D0232B87
:203A000012D144F00804F2E72D2B04D0302B0BD144F01004EBE744F00104E8E744F00604E7
:203A2000E5E744F00204E2E7A3F1310108290DD8134600251A4613F8011BA1F130000928E3
:203A400011D80A2202FB0515303DF3E72A2B09D1079B01321D68191D002D0791B8BF44F0C4
:203A6000010400E0002513782E2B1CD15178531CA1F1300009280ED8194600270A780B4601
:203A8000A2F13000092801F101010FD80A2303FB0727303FF2E72A2906D1931C079A111D0E
:203AA0000791176802E013464FF0FF371A786C2A09D15A786C2A02D144F080040AE001332C
:203AC00044F060040BE0682A09D15A78682A03D144F02004023302E0013344F040041A7812
:203AE000642A3CD01FD8462A48D00DD8252A5AD003D8002A00F0B78257E0412A4AD0452AF6
:203B000053D144F4424450E0582A31D004D8472A4BD144F4A13448E0612A38D0632A44D13D
:203B200044F4A06441E06E2A3AD007D8662A22D027D3672A28D0692A11D036E0732A2CD07F
:203B400006D86F2A11D0702A2FD144F440742CE0752A07D0782A28D144F4C85425E044F4D9
:203B6000245422E044F410641FE044F488541CE044F4B24419E044F4007416E044F4844447
:203B800013E044F4024410E044F481340DE044F4C1340AE044F4E13407E044F4806404E09F
:203BA00044F4E06401E044F4C0640133069304F4E063B3F5806F00F0AA8116D8B3F5807FFD
:203BC0002BD0B3F5407F7FF4EAAE079BA04914F4804F03F104029F4818BF08460DF13301DE
:203BE00007920F461A680023C5E1B3F5C06F08D0B3F5E06F00F03182B3F5A06F7FF4CFAE9C
:203C000000E2D8F80030D8F80400934901229847002840F00B820136C1E6002FACBF24F09F
:203C20001004012714F40053039304F0E00337D0402B17D008D8DBB1202B2AD1079B1A1D9C
:203C4000079293F9002017E0602B11D0802B20D1079B073323F0070303F108020792D3E9D4
:203C600000230AE0079B1A1D0792B3F9002003E0079B1A1D07921A68D317002A73F10001A9
:203C800009DA524263EB4303CDE900234FF0010933E000220023CDE900234FF000092CE072
:203CA000402B16D007D8CBB1202B20D1079B1A1D07921A78EEE7602B10D0802B17D1079BA3
:203CC000073323F0070303F108020792D3E90023E1E7079B1A1D07921A88DBE7079B0021B6
:203CE0001A1D07921B681846CDE90001D5E700220023CDE900234FF0000904F4C053B3F587
:203D0000805F0CD0B3F5C05F33D0B3F5006F4FD1DDE900230DF1360ACDE9042304E0DDE939
:203D200000230DF1360A15E0DDE9042313433AD0DDE904010A22002306F000FCDDE9040109
:203D400030320AF8012D00230A2206F0F7FBCDE90401E9E752EA030125D002F0070130317F
:203D60000AF8011DD10841EA4371D8080A460346F0E7384B14F4804F0DF1360A344908BF3F
:203D80001946DDE9002352EA03000CD002F00F00085C4FEA131E0AF8010D100940EA03702B
:203DA00002467346EFE70DF1360BCAEB0B0B03E00DF1360A4FF0000B41F6080241F2080338
:203DC0005F4502EA04028CBFCBEB070700279A4202D1002F08BF012741F608018A4207EB4C
:203DE0000B030DD1DDE9000150EA010208D01B4914F4804F1A4A4FF0020C18BF0A4602E006
:203E00004FF0000C62460399A1B1B9F1000F0AD104F0060102290AD00629124904BF4FF0A1
:203E2000010C0A4606E04FF0010C0F4A02E00F4A4FF0010C63449D428CBFED1A002514F012
:203E4000010922D1E30613D52F444D461DE000BF07CE0000EAC8000027CE00001BCE00006D
:203E600018CE00001ECE000025CB0000DECB000040462946CDF80CC00092FFF76FFD009AC3
:203E8000DDF80CC0002840F0D180BCF1000F0DD01146D8F800306246D8F80400CDF800C0E7
:203EA0009847DDF800C0002840F0C0803C465E44102CD8F800300DD9D8F804006C491022F5
:203EC000CDF800C09847002840F0B080103CDDF800C0EDE75CB1D8F8040065492246CDF885
:203EE00000C09847DDF800C0002840F09F80D8F80030D8F8040051465A466644984700285B
:203F000040F094803E44B9F1000F79D073E0079BD3F800A01A1D0792BAF1000F09D053467D
:203F2000994699F800200133002AF9D1CAEB090903E0DFF840A14FF00609002F02DBB9450F
:203F400028BFB9464D458CBFC9EB0505002514F0010405D140462946FFF700FD002865D196
:203F6000D8F80030D8F8040051464A46984700285CD14E443EE052EA030E0ED002F00F0E28
:203F800010F80EE04FEA131C01F801ED4FEA121E4EEA037E72466346EDE70B467F1A01BFDB
:203FA0003022012701F1FF3301F8012C03377822BD4203F8012C4FF0300203F8022C88BF61
:203FC000ED1B4FF0230298BF002514F00104A3F1030903F8032C04D140462946FFF7BEFCAC
:203FE00020BBD8F80030D8F8040049463A469847E0B93E4424B140462946FFF7AFFCA8B93D
:204000002E44CCE4079B012D03F104021B688CBF05F1FF35002514F0010407928DF8203020
:2040200008D140462946FFF799FC10B14FF0FF301AE02E44D8F80030D8F8040008A90122E4
:2040400098470028F2D16F1C2CB140462946FFF785FC0028EAD13E44A1E4079B1A1D1B687C
:2040600007921E609BE430460FB0BDE8F08F00BF39CE000020CE0000F8B5038806461546BE
:204080002BB14A2B15D0002303800320F8BD174806F0C2FF04462CB1201DA16806F080FF74
:2040A0002468F8E7124B01221A704A2333800120F8BD8829FBD10D4806F0AEFF0446002CAA
:2040C000F3D0231D9D420ED10848214606F0AEFF084B62691F681A60A2691D460AB1E06934
:2040E00090472F60E1E72468E9E700BF240800208E2300203408002010B5064B0024064876
:204100001C7006F086FF2146BDE81040034800F073BA00BF8E23002024080020E0000020F8
:2041200070B50446E3610B4B049D1B786561A26143B1094D094B2E68201D2B6006F030FF58
:204140002E6000E0A1602146BDE87040044806F081BF00BF8E23002034080020E0000020C6
:204160002408002013B5034C24680094FFF7D8FF02B010BD3408002070B5094B05461B78BD
:204180003BB1084C084B26680430236006F011FF26602946BDE87040044806F05BBF00BFDC
:2041A0008E23002034080020E00000202408002010B5084B04461B781BB1043000F0EAF8BF
:2041C00001E0C36003612146BDE81040024806F02DBF00BF8E2300202408002030B50849DD
:2041E00000230848002240F82320074800241A54013300250F2BE1E90245F2D130BD00BFBB
:2042000010260020A426002094260020F8B50D4B05461B5C0C4EC40083B106F043FE0B4FDA
:2042200006EB040E57F8253047F82500C11ADEE90023521843F10003CEE900233444D4E9FE
:204240000001F8BD9426002018260020A4260020024901EBC000C0E90023704718260020AE
:2042600010B50E4C236813B90D4A136010BDFEF7DFF8216891E80C001A44131A8A6842B1E7
:2042800092E812002144091A8B4228BF0B469268F5E71844024B186010BD00BF2808002032
:2042A0002C080020014800F0BFB900BFF0000020F8B5038805462BB1592B09D000230380C8
:2042C0000320F8BD1E4A136059232B800120F8BD872920D08229F7D1194F00263C68002CBD
:2042E000F2D0204606F087FE90B1E0688821224600F056F950B9E060A3680EB1B36000E03C
:204300003B600023A360FFF7ABFFE5E7FFF7CAFF2646A468E3E70A490B680BB90B60D3E7C0
:20432000D868904201D19B68F7E70B6099680029CAD0C86890420ABF89680B469960F5E7A7
:204340002808002010B50446FFF7ACFFE3680B4A4BB113683BB1A34203D1094A1268DA609A
:2043600007E09B68F6E7064B1B68E36013681460A360BDE81040FFF773BF00BF2808002041
:2043800034080020024B1868003018BF012070472808002010B50B4A04461368984206D135
:2043A0008368136008E09A68A24203D01346002BF9D103E0A2689A60FFF752FF0023A3605C
:2043C000E36010BD2808002038B5836804460D469BB10A4804600220A07304F10C009847F1
:2043E0000238012801D9832D05D120462146BDE8384000F005B80123A37338BD34080020D8
:204400002DE9F8431C4A0446156889462B4690461A4E3768A34204D00BB11B68FAE7BDE883
:20442000F88334B3A37BABB10023A37345B1AC4204D028468721224606F0C9FD2D68F5E704
:20444000A3683BB14C4505D0346004F10C0083212A469847D8F800309C4203D12268064BEA
:2044600005E0134623B11A68A242FAD122681A603760BDE8F88300BF3808002034080020C3
:2044800010B5094B00221A70084B1C685CB1E37B3BB101230022A373E27320468221FFF779
:2044A00093FF2468F2E710BD9223002038080020024B1878421C1A70704700BF93230020F2
:2044C000064B8A221A70064A00231370054A1370054A1360054A1360704700BF93230020BD
:2044E0008F2300209123002038080020340800202DE9F041214E33780BB1FFF7C1FF204D1A
:204500002C78002C34D0DFF88CE00C229EF800301C495A4388181C4F895CDFF87C80426821
:20452000DFF878C08068013303F01F03013C3970C8F80020CCF800008EF800302C7088B91E
:20454000124C134B1B68236023688BB133780BB1FFF796FF20683978D8F8002006F037FD8D
:204560002368EFE7812904BF0123837306F02FFD337828781844BDE8F08100BF92230020E0
:20458000912300204008002094230020C0090020380800208F2300203C0800203008002031
:2045A000F0B50C4E3478202C11D00B4B0B4D1B780B4F234403F01F032B700C256B4301345D
:2045C000FD18A860F9546A6034700020F0BD0120F0BD00BF912300208F2300209023002030
:2045E0004008002038B5034C256806F0F0FC256038BD00BF3408002010B50A4609490C6838
:20460000234683420DD00BB11B68FAE748B1046008600121817383818121BDE81040FFF703
:20462000E1BF10BD3808002038B1837B013B012B9FBF024A0123C37313707047922300204B
:20464000024610B5064853600468029B11609360026014B9084606F021FC002010BD00BFA3
:20466000C409002010B5084C206858B100232360816843689847236823B1BDE810401868B6
:2046800006F00CBC10BD00BFC409002038B505880446B5F5877F0BD040F227139D4230D049
:2046A000002D34D1FFF704FF1C4B18701C4B1D601C4806F0F8FC431C02D14FF487731EE041
:2046C0000A28174B07D01A687E2AF1DC511C1960154B9854ECE7196800254A1C1A60124A91
:2046E0000E4B555428461978FFF75AFF0F4B852118682A46FFF754FF28B940F22713238041
:2047000009E0852907D1064B00221A60D0E700230380032038BD012038BD00BFA42B002004
:20472000D0090020C8090020152400203408002008B505480549802206F0AEFCBDE8084053
:2047400003480021FFF758BFC8090020952300200001002070B5304C237820704340DB07C5
:204760002ED510F001062D4D06D006F09BFB2C4BD8600123EB700FE0EB786BB106F092FB34
:20478000274B2849DB68EE70C01AD1E90623121843F10003C1E90623237813F0010614D01B
:2047A00006F080FB1E4B186101232B71237813F001061DD006F076FB194B586101236B71D0
:2047C0002078BDE87040FDF75FB82B79002BEDD006F068FB124B13491B69C01AD1E9082300
:2047E000121843F10003C1E908230C4B1E71DDE76B79002BE4D006F055FB094B09495B6966
:20480000C01AD1E90A23121843F10003C1E90A23024B5E71D4E700BF952400209426002056
:20482000A42600201826002008B5FDF719F8024B00221A7008BD00BF95240020024B1B7838
:2048400023EA0000FFF786BF952400202DE9F3410446154D00910E4690461F460195234622
:2048600012480321202206F02EFC01282B4616D12A6804F11001107020462A68023250F84B
:20488000044B884242F8044BF9D11868089B86744361099B80F813800777836100E00020DA
:2048A00002B0BDE8F08100BFD8090020E427002070B506460B4D0C4B2B602C680B4B9C42D2
:2048C0000BD2237833B1A27CA01C3146D20806F00DF920B120342C60EFE7002070BD012060
:2048E00070BD00BFD8090020E42700204428002013B5084C80220346009201940648032174
:20490000202206F0E0FB08B9206800E0002002B010BD00BFDC0900200027002010B50C4A96
:204920000C4B136013680C498B420DD2197849B1411C02D0997C814204D148F2FE015C88AD
:204940008C4202D02033ECE70023184610BD00BFDC090020002700206027002037B504465B
:204960000F4D80230093019523460E480521122206F0A9FB01282B460ED12A6804F110014B
:20498000107020462A68023250F8044B884242F8044BF9D1186800E0002003B030BD00BFD8
:2049A000D409002084270020F7B50546204C802300930E46174601941E48032120222B4613
:2049C00006F081FB012830D12A46236805F1100118702368023352F8040B8A4243F8040B82
:2049E000F9D12068C77416B90123037505E0002303753146183007F071F923680E4801211C
:204A0000997402234370FF220023027043808380C38003818372C17202736B7B4373EB89C1
:204A2000C381FFF79BFF206800E0002003B0F0BDDC09002000270020F21E002013B5084C22
:204A4000802203460092019406480521122206F03AFB08B9206800E0002002B010BD00BFEA
:204A6000D40900208427002038B50546C8B10D48022200244270FF230122C272448084802D
:204A8000C4800481847203730370EB7B43732B8AC381FFF7D3FF044A106008B106F037FBF2
:204AA0002C7038BDF21E0020D409002010B50F4B0F4C236020680F4B98420ED203784BB128
:204AC000037D3BB9183005F079F818B1084B1868FFF7CAFF23682033EBE700F093F900F03D
:204AE000D9FDBDE81040044806F063BA00270020DC09002060270020442800202DE9F843BC
:204B000048F2FE030A8805469A42884621D00B78FF2B1ED01B4B0024A1461F461A4A1A6093
:204B20003E681A4A964218D233787BB1B37C012B0CD148F2FE0372889A4207D04046B11C5F
:204B400006F0F2FA484524BF3446814620363E60E6E70120FFF7E2FE04464CB92C806C8023
:204B6000AC80EC802C816C81AC81EC81BDE8F883A31C123453F8042BA34245F8042BF9D1AF
:204B8000BDE8F883DC090020002700206027002010B506F0ECF9044606F0E9F9054B2402CA
:204BA0009A68A4B22044B0FBF2F302FB130000EB520010BDE826002073B52F4C00F08EFC44
:204BC00000F08CF8002160222C4806F09BF800212046F82206F096F8294B20221A70294BE8
:204BE00018221A704FF4A0632360274B40262671A360FFF7CDFF42F21073236148F2FE037E
:204C0000314640F2FF260025E06025751F4C2A46238065802B46A580E580204600950195D8
:204C2000FFF714FE20461A4906F075FA294601222046FFF7B9FE4FF480732046E3812680F3
:204C40006580A580E58025816581A581FFF786FE4FF40073204626806580A580E5802581E2
:204C60006581A581E381FFF779FE0A48802102B0BDE8704006F094B9E8260020E4270020C1
:204C8000E1270020E0270020808D5B00F21E00205C280020442800202DE9F04105460D4816
:204CA0000F46904606F0B8F9044680B1012D04D8094806F0E7F9034600E0002328466668EE
:204CC00039464246B047204606F0E3F9ECE7BDE8F08100BF240A0020200A002008B5054854
:204CE00007F003F8044806F094F9BDE80840034806F08FB910010020200A0020240A0020B4
:204D000038B505460D4806F087F90446A0B1AC420ED12146094806F089F92146084807F04A
:204D200008F8211D01200A46BDE83840FFF7B4BF204606F0AEF9E8E738BD00BF200A00206E
:204D40001001002038B50546084806F065F9044648B1201D2946102205F0C8FE18B120463B
:204D600006F097F9F3E7204638BD00BF200A0020F8B505460F46FFF7E5FF044640B91348AA
:204D800006F0C3FF0446F0B11148214606F071F92B46261D05F1100E324618685968083394
:204DA00003C273451646F7D137B104F11400394606F094FF002300E0012323770020294609
:204DC0002A46FFF769FF2046F8BD00BF10010020200A002038B50A4806F01EF904460025F5
:204DE00064B1251D284600F0BBFB10B190F8223023B9204606F04DF90446F1E7284638BDAA
:204E0000200A002010B50A4806F006F9044670B1237F43B904F1140004F0D0FE18B1204639
:204E2000FFF76EFFEFE7204606F033F9EEE710BD200A002037B5124B124D1C782B796A7902
:204E4000C4EB032313449BB2ADF80630BDF8063005F108011844202280B206F082F9BDF81E
:204E6000062004F12801294492B206F07AF910B140BA80B201E04FF6FF7003B030BD00BFF3
:204E8000982400206428002070B5164B16481D78164C28352B1859780223C900073199423D
:204EA0001DDBEA188618825C012A13D005D3632A05D172780232134411E001330DE002F0BA
:204EC000C002802A03D0C02A01D0402A02D12370012070BD727802321344DBB2DFE723705F
:204EE000002070BD98240020642800209A24002007B5FFF761FE06F040FF06F05FF90B4B15
:204F00004FF480621A800023094A002102EB43120133DBB20A2B1182F6D1064A1370064B85
:204F20005B68019303B05DF804EB1847021F0020102900209B2400205CC800002DE9F041E0
:204F4000124F3D7805B3DFF84C8005F12703B8F80040A34203DB0023A8F8003013E00C4ECD
:204F6000A4F1280205F12801641BA4B206F128003144521B05F062FEA8F80040283C2312AF
:204F80003371747100233B70BDE8F0819824002064280020542800202DE9F0410346264882
:204FA0000288013292B2B2F5FA4F28BF4FF4805200240A2C0AD0214D05EB44152E8A55BA52
:204FC000ADB2AE4204F10104F3D1EAE7DFF874E0028000220A2A18D0184E55017419B4F813
:204FE0001080571CFFB2B8F1000F0CD18EF800200288618252BA228263B920461946102292
:2050000005F080FE11E03A46E4E78EF800200020BDE8F081274603F1100E3A4618685968C5
:20502000083303C273451746F7D1054B35441B7920462B75BDE8F081021F00201029002080
:20504000E82600209B24002004282DE9F84F9B4E00F0D2819A4C9B4B9B49052823600B60C3
:205060002746884612D1994A1268128A002A00F001820C3B23600B60954B002295481A80CE
:20508000954B0260328008221A70B3E113F83C2CA3F13C0402F0F002602A40F0EB812279E8
:2050A0006179120230885518854200F3E38128310A443280227AFF2A00F0DC81874A363B12
:2050C0001360874D874B002129701970A17992469946B9B9012389F80030FFF7D5FE01286A
:2050E00000F0C88103D3022800F0BF810AE02B7803F128022244CAF800205278083303EB61
:20510000C2032B70237EFF2B0CD1774B5B7E03F00F03022B06D9754BDB689847012840F0A0
:20512000A98180E07248FFF7E3FB00287BD17048FFF784FC002876D1227E6B4BFF2A37D0C0
:2051400048F2FE00198B814232D0198981422FD071B9598961B9998951B9D98941B91B8AF7
:2051600033B9618A604B19B9998A09B9DB8AFBB1218B5D4B79B9598B69B9998B59B9D98BBF
:2051800049B9198C39B9598C29B9998C19B9DB8CB3F5807F0CD03388B3F5A06F00F26A817F
:2051A000E379012B40F266814F4A013BD3715CE148F2FE032189994240F05C81218B4A4BEA
:2051C00081B9598B71B9998B61B9D98B51B9198C41B9598C31B9998C21B9DB8CB3F5807F60
:2051E00000F04881FF2A00F045814148FFF760FB40E120D93A2B7DD03C2B40F03B8199F88D
:205200000030384A980730D5590600F1338143F040031370FFF738FE012800F02B8127D350
:20522000022800F02281DAF80030DFF8B0B01B782B2BDED128E013B1112B79D01AE199F803
:205240000030DA0700F11681264A43F001031370FFF71AFE012800F00D81E1D22B7803F18C
:2052600028022244CBF8002008E043F00203D0E72B7803F128022244CAF8002052780833D6
:2052800003EBC2032B70CEE799F800305A0700F1F180144A43F0040313702B7803F12802AB
:2052A0002244D178002940F0E580CBF800205278083303EBC2030A4A1370B4E754280020D8
:2052C000FC280020A028002058280020F82800200C29002000290020F0280020F4280020B0
:2052E0009824002099240020642800205CC800007C28002005F051FF4FF6FF73984240F05B
:20530000B9802B782833E05C01F02EF82B782833E218E05C517804F061FC012801BF0023A9
:20532000594A338013703388002B00F0A3809CE0FFF704FE3388554D303B3380E38D3D609F
:205340006BB9B4F82AA0BAF1000F00F09380504B504A99461A60504AB2F828B00CE005F06B
:205360001FFF4FF6FF73984240F08480E9E7238A43B92034C9F80040D9F80040474B9C42FB
:20538000F5D377E09A45F4D1638A0BB19B45F0D123682BB963681BB9A3680BB9E36833B1F4
:2053A0003F482146102205F0A1FB0028E1D1FBF75FFC102201463A4805F098FB78B102F077
:2053C0007BFA384B9880364800F1100102F014FA00284FD1324800F1100102F031FA324AE0
:2053E00000231360314A02211170314A3D60C8F80050138001F0D0F82D4B1A88002A39D037
:2054000002F13003244C9BB23380283B191263711F4B08321B6852BA2171197DA2850022F0
:20542000E2851A8AE17122855A8A11216285A17104F118050FCB85E80F0004F10800294685
:20544000FFF75CFB1B4B04F13C021A6005F0A8FEC04380B208B1E08502E04FF6FF73E385FD
:2054600060232370002363706380104B00221A70BDE8F88F044A002313700F4A3380137087
:205480000A4A1370BDE8F88F9824002094280020F82800201029002064280020502A002072
:2054A0006C280020682B002000290020F02800200C290020FC2800209924002010B504467F
:2054C00040B101F0F7FB044B2146BDE81040186802F07ABB10BD00BF1C010020024B034944
:2054E000186802F0B5BA00BF1C010020BD5400002DE9F8439846154B05461868914602F09B
:20550000D5FA0446F0B1074605F110033E4628686968083503C69D423746F7D104F1100067
:20552000002184F8219084F8228006F0D7FB04F11800002106F0D2FB002384F820302046F1
:2055400001F0B8FB2046BDE8F88300BF1C010020024B0146186806F0A7BA00BF1C010020BE
:2055600070B50C4D0646286802F086FA044666B9002070BD20463146102205F0B7FA38B10B
:205580002146286806F060FA0446002CF2D1EFE7204670BD1C010020024B0146186806F0DB
:2055A0006ABA00BF1C0100202DE9FF4107461020884602F055FC3449064606F080FA002886
:2055C0005FD1324B1B78012B5BD106F0F4F90446002856D0FFF7C4FF10B1FFF7B9FF064644
:2055E00001F010F9054600284BD023466C4603F1100E224618685968083303C2734514463B
:20560000F7D16B462868696803C3284606F059FB044603F00DFE58B3112C29D1284669468B
:20562000102205F063FA0446F8B9012003F00CFE022F0CD1164A13780133DBB2032B01D80C
:2056400013701EE02846147003F04CFE10E07FB90F4B1A781C462AB126B1304602210522B2
:2056600001F0F0FA0023237002E0002003F0ECFD3EB130463946424604B0BDE8F04101F0D4
:20568000E1BA04B0BDE8F081E9CE00006E2B00209C24002070B5144D286802F0EDF904461D
:2056A00000B394F82230012B17D104F11006304604F084FA88B12046FFF744FB50B1032357
:2056C00084F822303046052106F008FB002384F8203002E0022384F822302868214606F0B6
:2056E000B3F9DCE770BD00BF1C01002008B5064800F028FE054B01221A7000225A70AA223C
:205700009A70DA7008BD00BFD95800009E24002010B50F4C0220A17902F088FBA379112B75
:2057200001D0062B05D1238D618D9942A8BF194608E03A2B05BF94F8281094F82930002177
:2057400043EA01210120BDE8104002F06FBB00BF6428002010B513780446087A83F00203C9
:2057600098421DD1487A5378984219D1887A9378984215D1C87AD378984211D1087B1379EB
:2057800098420DD1487B5379984209D1887B9379984205D1C87BD379984201D103201BE0F6
:2057A0000B890F4A6BB94B89B3F57F4F09D18B89FE2B06D11368C989022023F8021B136006
:2057C0000AE0136851F8080F083343F8080C486843F8040C13600120A040C0B210BD00BF0D
:2057E0009013002010B5084C01462378012B08D1A01C082205F07AF900280CBF204600201F
:2058000010BD002010BD00BF9E24002010B508460C461146FFF7C8FE044B1B6813B19B681C
:2058200020469847024B1C6010BD00BFA0130020981300202DE9F8434FEA1219B9F10F0FB3
:2058400080461D4602F00F040BD00F2C05D1B9F1000F0AD11024274619E0B9F1000F09D06E
:2058600004E00F2C4FF0100900D1102440464A4605F06EF909EB04020F2A274606DC08EBC5
:2058800009000021C2F1100205F03CFABCB1114DC7F110002E6840443146224605F058F91C
:2058A000022C08D1B9F10A0F9FBFFF2388F80B30FE2388F80C3034442C60BDE8F883B9F138
:2058C000000F05D040462946BDE8F84305F023BCBDE8F883901300202DE9F04F934E944F3F
:2058E000002387B033703B70044602F03DFA02F0D9F9904D04212860092002F097FA8E4BBA
:2059000000961B6801950BB1FFF702FF04A80CB98A4900E0214606F0CDF8894BDFF828828A
:205920001A8803933E2A019B40F21982D3F800A0844E97F800900AF10203336009F102096A
:2059400000230AF8093008F11800FFF74BFF20B908F10800FFF746FF20B10AF1030333601E
:20596000802400E0044698F8012098F80010130943EA0113DBB2980840EA8313DBB212F02F
:205980000F0FDDB201F00F000DD16F49498851B910B912F0F00F21D06A4A136803F8015BA8
:2059A000136070251BE0674978B912F0F00F0CD1086823F03F031A43644B02701B8803300C
:2059C00020F8023C6825086009E05F4A0B681068186003F8045B0B60602500E078255A4B1B
:2059E000997902931129574B08BF45F0040515F0040F02BF1A6802F8011B1A60029AD2794D
:205A0000402A06D0FF2A07D0012A08D145F0010509E045F0020506E045F0030503E019685B
:205A200001F8012B1960029A474B128982B95A8972B99A8962B9DA8952B91A8A42B95A8A87
:205A400032B99A8A22B9DB8A13B944F0400013E03F48FFF7C7FE3F4B186078B142781AF88B
:205A60000930042043EA02130AF8093038493A4AFFF770FE60F03F00C4B228E0029B3249BE
:205A80001A8948F2FE039A420CD14B8B53B98B8B43B9CB8B33B9042008312F4AFFF75AFE15
:205AA0002043E9E7274BDFF8A8C01A680CF1100B9646634603CB5B45CEF80000CEF80410D5
:205AC0009C460EF1080EF4D11E4B10321A60DFF878B09BF81830FF2B40F094809BF81910E1
:205AE00044F0080902295FFA89F937D1BBF81A30A3BBBBF81C308BBBBBF81E3073BBBBF8D1
:205B000020305BBBBBF8223043BBBBF824302BBB9BF8263013BB0B4A9BF82710136844F0AA
:205B20000B00C4B203F8011BAAE000BF9D240020A824002094130020A0130020E9CE000066
:205B4000542800209013002064280020662800206C280020881300205C280020AB4B5A8B9E
:205B6000002A39D19A8B002A36D1DA8BC2B91A8CB2B95A8CA2B993F824208AB9DFF890E20E
:205B800044F00A00DEF80020C4B2104600F8011B33F8251F043222F8031C9B78837018E015
:205BA0009A4BDA8BC2B91A8CB2B993F822209AB9DFF85CE244F00900DEF80020C4B21046DB
:205BC00000F8011B53F8231F063242F8051C1B790371CEF8002054E08D4ADFF854C214682F
:205BE0000CF1100AA646634603CB5345CEF80000CEF804109C460EF1080EF4D1103414607F
:205C00004C463EE00BF11800FFF7ECFD814B186050B143781AF8091044F004040B43E4B296
:205C20000AF8093000200EE048F2FE03BBF818209A4210D1BBF81A306BB9BBF81C3053B90C
:205C4000BBF81E303BB90BF1180104AAFFF782FD2043C4B215E06E4ADFF8D491D2F800E0AB
:205C600009F1100AF4464B4603CB5345CCF80000CCF8041099460CF1080CF4D10EF110037C
:205C80001360009A6149282313708B79112B5BD14FF2B0030A8DDFF878E152BA92B222F0F6
:205CA0000F0080B2984217D14B8D5BBA23F00F031B041B0C83420FD13068F32303704B8DEB
:205CC00002301A0A0B8D1B0A02EB031303F5AA6300F8013C30602CE0029B4C495B8D5BBAA9
:205CE00003F47F43B3F5704F09D13368F1221A700A8DA3F801204A8D120ADA700CE002F400
:205D00007F42B2F5704F0AD13368F2221A700A8D120A5A704A8D5A800433336009E0DEF891
:205D20000030F0221A70886A053343F8040CCEF80030394B1A88DEF8003023F8022B009A1E
:205D4000CEF8003030231370019B1A683B78D55413445C702E4B1B689B1A3B7019E045467A
:205D60001A683C7841231370631CDBB2134408F128062A4603CAB24218605960154603F1CB
:205D80000803F6D1009B009A1B78293428333C70137010200DEB000102F056F81F4B1B682C
:205DA000984730EA200028BF1820009B3D781C78039BC0F17D001A88401B121B824203DD2D
:205DC00003F02CFD00201DE0019B08EB04011868284404F0BDFE124B18882844001B80B2A5
:205DE00001F05AFF10200DEB000102F02DF80D4B1B7833B10C4B0D4800219B689847FCF7A8
:205E0000B1FC012007B0BDE8F08F00BF6428002090130020881300209228002004C800004A
:205E200054280020F30200204CC800000D5800007C2800202DE9F04FAE4FAF4E002387B0CB
:205E400033703B7001F02EFFAC4C2060042001F0F5FFAB4B00B218603D782368A0465A5D58
:205E600002F0E001602940F0AB81A91C19442B4493F801B0A34C4FFA8BFABAF1000F2160A5
:205E8000BCBF0131216012F0100F02F008039E4D31D1EBB92846236833F8011F20F8011FA9
:205EA0009B782168837011F804EB4FEA9E03216003F00F0141F0600100F8011C697803F082
:205EC000300343EA8E1301F00F010B436B702DE02168602308462B7010F8013B4FEA930E77
:205EE0000EF0300E03F00F034EEA03036B7003886B80CB1C13E003F0FF0093B9236819789E
:205F0000C1F3830141F06001297013F801EB68804FEA9E0101F0300141EA8E11697023601F
:205F200004E060232B7000236B706B8002F0040303F0FF010191DFF8D0912BB9236813F846
:205F4000011B89F80610236012F0030215BF6F4B23689B5C13F8012B12BF89F8073089F8B3
:205F6000072023601BF0400FCBF3011228D0BAF1000FBBBFD8F800103B7800215B18BCBF7E
:205F80009978090982B1624B1878012805D1587888420CBF1946002100E000215D4B196068
:205FA000002940F0468120E111465B4B0F209A5C0391029201F054FF03990346574808E0C6
:205FC000574B0F209A5C029201F04AFF554903465248029AFFF72EFC0BF008000BF00302EC
:205FE00000F0FF030BF00401A8B100294ED14E4B4E481B88ADF81430531E012B9EBF2368CE
:2060000013F8011B23604A4B98BF8DF815109A5C05A9002338E069B3BAF1000FBEBF3B785B
:20602000D8F800105B183A49B8BF93F802B00878B8BF0BF00F03012807D191F801B09B45B7
:206040000CBF8B464FF0000B01E04FF0000B314BC3F800B0BBF1000F00F0C7802E4B1020AD
:2060600013F802A001F0FCFE0BF10201034652462E4809E02A4B102013F802B001F0F0FE08
:206080005A46034627492948FFF7D4FB317801F128033370019B002B79D023681A7802F0E9
:2060A000F802F02A73D11122AA711A7802F0040002F0F302F03AC0B2032A00F29680DFE833
:2060C00002F0020B3B47B3F801501A4A0533158033F8025C558050E0B3F801E0154AA2F8FF
:2060E00000E0DA78A2F5805292B2120242F0F0026A852BE0A82400209D24002094130020FB
:206100008C130020901300206428002083CE00009E2400208813002098CE00006C28002049
:2061200087CE00008BCE000081CE00007C2800209CCE00008C2800205A78A2F5805292B2E1
:20614000120242F0F0022A855A886A85043314E05A7802331209A2F5756292B2120242F042
:20616000F0022A8513F8012C02F00F02A2F5756292B2120242F0F0026A85236028B923687B
:206180002E4A33F8020B1080236030313170D8F8002023689B1A3B7001F098FD3B78C01A4C
:2061A000337818442838021289F8042099F80620234B112A89F8050017D19A889A8514E0BC
:2061C000412A38D16A1CD2B213441D4C03F1280E224618685968083303C273451446F7D1D4
:2061E0003378293528333D70337001F06FFD3B78834220D801F06AFD124B13491B78C21A9E
:2062000030780A6084188C2C15D8D8F800100C4D1944284404F09CFC0C4B1C800C4C2368C7
:2062200023B1FFF775FA23685B68984700F0B0F801E00231B9E607B0BDE8F08F92280020F8
:2062400064280020A82400209C13002054280020A0130020F7B5054628B9224803B0BDE8CE
:20626000F040FDF76BBB0388ABB94488ACB98388A3B9C4888CB9038983B94FF6FF72418974
:2062800091420AD1017B427B837BC07B00901648FDF754FB24E0002400E01C462646AB1913
:2062A0005B78AF5D03EB0727BFB24FB9002C09DB01D0013411E00D48FDF740FB01240CE0CE
:2062C000002C04DC2EB13A20FCF766FA01E04FF0FF3407483946FDF731FB0236102EDED1C0
:2062E00003B0F0BDA0CE0000AFCE0000C2CE0000C5CE000008B509B103F010FA014B00224E
:206300001A8008BD0C290020074A13689B789B0903BF064901200B88002001BF033B0B80D8
:20632000034B1360704700BFFC2800205428002097280020024B1B6803B11847184670476F
:20634000A4130020014B1860704700BFA413002010B51446FEF720FE18B1024BC4611B6865
:20636000836110BD3408002007B5074B8DF80700186828B1054B0DF107021978FEF732F915
:2063800003B05DF804FB00BF04290020A62B002008B5002204480221FEF724F9034A002329
:2063A0001380034A137008BD3001002054280020982400202DE9F341344D2B88002B62D011
:2063C000B3F5A06F324E5BD8324B1A8B72B95A8B62B99A8B52B9DA8B42B91A8C32B95A8CFF
:2063E00022B99A8C12B9DA8C002A49D01B7E294CFF2B42D000F006FA002841D005F0BBFA0B
:20640000074605F0C1FA87420AD1337823B194F82870FEF793FDA7711F4B5B6898472FE080
:206420001E4F012304F108003B70FEF761FAB846B8B901F041FA1A4B04F11801988004F1B8
:20644000080001F0D9F9074620B1164A13880133138007E004F1080004F1180101F0F0F9C5
:2064600000E0002705F087FAA8F8020047B968460D4905F094FA684600E00020FFF75AFF79
:2064800000232B80337002B0BDE8F081542800209824002064280020D4BD00006E2B002055
:2064A000682B0020041F00207C28002038B503880546144633B1B3F5747F1FD000230380F1
:2064C000032038BDFDF7F4FF2A4B1870FDF7F0FF294B40211870294804F062FDFEF708FDC2
:2064E000274B1B68984700F0F9FB05F062FA02F0F1FF4FF474732B80012038BD02290CD1BE
:20650000204C2388002BF4D00120FEF79DFD2388002BEED0FFF74EFFEBE709D80129E8D158
:20652000002CE6D0184B05201C60FEF78DFDF1E787290BD1154B9A692033A24204BF002213
:2065400023F8102C124A9342F5D1D2E78829D0D10A4B9C4202D1204604F034FD0D4B9C421B
:20656000C7D1204604F02EFD0028C2D0FEF79EFAD0E700BFA52B0020A62B0020A813002085
:20658000D4BD000054280020F828002010290020502A002044280020074B1B680BB1283323
:2065A00002E0064B1B681833186820B1044A11785A68FEF717B8704700290020F8280020EC
:2065C000A52B002070B50D46044658B18169A94208D0054E306801F017FB3068294601F06D
:2065E00009FBA56170BD00BF4001002038B50D4604460021102204F085FB2A7D29460732A4
:206600002046D21004F0A4FA2046BDE83840014904F081BD5C28002008B5FEF7A1FFFEF7B6
:2066200097FF034B01461868BDE8084005F023BA4001002008B5074B0146186805F034FA96
:20664000014628B1044B1868BDE8084005F013BA08BD00BF400100201C010020024B0349E1
:20666000186801F0F5B900BF40010020BBB4000008B5044B0146186805F016FABDE80840A7
:2066800004F091BD4001002038B5094C054694F8551051B92046F02204F034FB012384F894
:2066A000545084F85530204638BD002038BD00BF542A002070B5064610460D4604F075FDE8
:2066C000014608B9002413E00A4B186801F0EEF904460028F6D0FFF7ADFF26606B8AA38076
:2066E0006B7E237320B1838C13B94FF400738384204670BD40010020F8B5194F06463868BD
:2067000001F0BAF904460025BCB12368B3420ED14FF6FF73A2889A4209D03DB1336A28460B
:206720009B6821469B689847054600E025462146386805F089F90446E6E75DB130462946EF
:20674000FFF740FF336AB0699B6821461B699847B08302E04FF6FF73B3832846F8BD00BF9D
:206760004001002010B5044604F089FE034B2146BDE81040186801F027BA00BF4001002012
:2067800070B5094D0646286801F076F9044650B123689E4202D12046FFF7E4FF2868214683
:2067A00005F052F9F2E770BD4001002070B5044600F1100500F15006B54206D26B7D13B1FB
:2067C000284604F07CFE4035F6E70021204604F09AFD04F16C00FDF7EBFC04F18C00FDF7C8
:2067E000E7FC04F1AC00FDF7E3FC054A1368A3424FF0000308BF136084F8553070BD00BF2A
:20680000502A0020044B93F8550020B1D868837D002B08BF00207047542A0020064A92F85D
:20682000553033B192F8543083420CBF1046002070471846704700BF542A00202DE9F0416B
:2068400080460F46FFF7EAFF044608B390F82530F3B100F1100630463946102204F046F957
:2068600058B1F025236BDA68964203D0304604F026FE0EE00022DA60F8E794F8225015F0C5
:20688000800F05F101050CBF05F07F05EDB2E9E7F0254046394604F056FE0646002849D0CB
:2068A00001238375046A254B0021C1740175857484F85710A360FFF785FE3B46324607F1C9
:2068C000100153F8040B8B4242F8040BF9D1FF2284F85B204FF6FF72082384F858300E233F
:2068E00084F859300F2384F85C300A2384F85A304FF4E063A4F860304FF48073A4F8623010
:20690000A4F86420B383E368B34202D00BB100229A75F02384F85630A368E6605B69204692
