:020000040000FA
:2000000000500020E9000000E1000000C9000000E5000000E5000000E5000000000000002E
:20002000000000000000000000000000E5000000E500000000000000E5000000E50000002C
:20004000E5000000E5000000F5210000E5000000BD13000021190000E5000000E500000007
:20006000E500000055220000E5000000E5000000E5000000E5000000E5000000E5000000C6
:20008000E5000000E5000000E5000000E5000000E5000000E5000000E5000000E500000038
:2000A000E5000000E5000000E5000000E5000000E5000000E5000000E5000000E500000018
:2000C000E5000000E5000000044B1A68B2F5806F03D01B689B0500D4FEE7704728ED00E094
:2000E000FEE700BFFEE700BF08B507F08FFC104A104B9A420DD2D0430F4918440B4620F0E1
:2001000003000430084453F8041B834242F8041BF9D10A480A494FF000028842B8BF40F8AB
:20012000042BFADB00F09EFAFFF7CEFF08BD00BF00000020B106002064C20000B8060020F1
:20014000E02800202DE9F041028884B0D32A044613D0E52A6ED02AB100230380032004B0A3
:20016000BDE8F0813B4B8521186803F007F9D3230120238004B0BDE8F081852903D00120A4
:2001800004B0BDE8F0814AF6AA26002568463249ADF80250ADF80450ADF80650ADF808504F
:2001A000ADF80A50ADF80C50ADF80E50ADF8006003F0F2FC29460122684603F0B3FB274B03
:2001C0004FF4807226485D809D80DD801D815D819D811E80DA8101F0D3F9224802F08CF8F5
:2001E000214D4FF0010805F1600715F8023C2E7C0BB1012E22D92035BD42F6D1002043F69D
:200200001601024606F0A2F844F222720346174D028217482B6002F06FF8286805F0E8FF45
:200220002B681448198A5A8A49BA52BA89B292B202F062F8E5232380012090E7284605F0C8
:20024000D7FF0A2001F094F9002ED4D185F81080D1E700BF48090020301F0020C006002003
:200260002CB9000048B90000D21D0020D006002060B9000088B90000704700BFF0B5324D9F
:2002800091B02B68002B58D0304900230A7804930132059306930793089309930A930B9312
:2002A0000C930D930E93ADF83C3012F0FF0305BF802213460B700A7002A825498DF81030B8
:2002C00008F0C0F906F040FE0646002839D08069002834D006F00AFC05F0A4F878B3827BF2
:2002E000C37B8DF80F208DF80E3005F07FF806F0F1FBC0F34F07326A022392F85C20154CCA
:20030000934084FB0324DB17C3EBA414B68B05F075F8A4B280B28DE8110002A93A463346B7
:200320000DF1120000F006F943F616032868009304A92E22084B05F0B3FF11B0F0BD0027BD
:20034000D9E704462746E6E7D0060020F21C0020BCBF0000D34D6210C006002008B503483A
:2003600001F0A0FABDE8084003F010B9B1350000F8B5038804468BB17E2B0BD15A4B0D4628
:200380001B7816468B4214D0882D58D07E2323800120F8BD002303800320F8BDFFF7DEFF75
:2003A00052484FF4C07102F071FE7E2323800120F8BD30464E4907220BF068FA00283BD0EE
:2003C00030464C4902220BF061FA002834D03046494903220BF05AFA0028D5D0304647491D
:2003E00005220BF053FA002836D1B279B31D202A03D113F8012F202AFBD0414A591ED2F82A
:2004000000C0002703F1090211F8013F07EB870E0CEB03004078303B400703D5914203EB29
:200420004E07F1D100F032FF364BC71B394636481F6001F061FFA7E7FFF71EFFA4E72B4BB2
:200440009E4221D0314B9E42A0D1314B1B68002B9CD0FFF713FF99E730462E4904220BF0D2
:2004600015FA20BB3379321D202B03D112F8013F202BFBD0302B284F2ED07B6998473968E4
:20048000264801F039FF7FE7304602F009FE03F029F90246224B1D48A3FB02131B0A03EBFB
:2004A0004303A2EBC31189B202F0F0FD6EE730461C4902220BF0EAF900283FF465AF304664
:2004C000194907220BF0E2F900283FF45DAF3146164801F011FF57E7BB690120984739687B
:2004E000134801F009FF4FE7DD280020E8060020B8B90000C0B90000C4B90000C8B9000057
:20050000A0060020E4060020D0B90000D406002048040020E8B9000038C000001CBA0000AD
:20052000ABAAAAAA34BA000038BA000040BA0000F0B900002DE9F04F814687B01E46BDF823
:20054000403016200193BDF84430A9F8000088461746029300F062FE0024A9F80200A9F81F
:20056000044002F0B5FC204602F08EFCDFF8D8B0334DDBF80030334CC3EB000C0120CDF8B1
:2005800014C002F081FC2B68DFF8C0A0C31A0620049302F079FC2268821A0720039202F079
:2005A00073FCDAF8001003AA401A92E80C1004E04FEA5C0C5B0852084008BCF5803FF7D28A
:2005C000B3F5803FF4D2B2F5803FF1D2B0F5803FEED2A9F806C0A9F80830A9F80A20A9F8F5
:2005E0000C00002002F050FCCBF80000012002F04BFC2860062002F047FC2060072002F0F8
:2006000043FCB8F80630CAF80000A9F80E30BDF80430A9F81070A9F81430BDF80830A9F897
:200620001260A9F8163009F11800002114220BF087F8484607B0BDE8F04F00F009B800BFE5
:20064000F806002000070020FC060020040700200023438383830383C383038443848384F8
:20066000C38470472DE9F04385B007F0DDFA01F02FFA01F0E3F900F0DBF801F0EBF84F481B
:2006800000F07EFF4E4800F07BFF4E4C4E4800F077FF0221012009F07FF809F091F809F028
:2006A000C5F8238801273B449BB21846238009F0ADF82188454801F01FFE07F0B9FA00F061
:2006C0001FFE02F0BBFE00F01FFF02F0D1FD41F2342003F005F802F059FF00213C4802F02C
:2006E00081FE02F03DFB02F0B7FB00F0E1FD394A394B106039481F7001F0FEFD384B4FF0AA
:200700000008186800F03CFF364801F0F5FD364B364D186800F034FF354801F0EDFD354B46
:20072000354C186800F02CFF07F070FF02A80821CDF8048000F05CFF9DF80F309DF80E60F9
:2007400002AA43EA062603CA28603046696009F01DF82A4B2A48198801F0CEFDD4F82C9026
:200760004AF6CD310220C84731460320C84741463846C847082202A9636B09209847A36A95
:2007800001A9384698476A681E4B29685A60196007F070FB41461C4802F024FE09F01AFCE3
:2007A00009F09CFD636A9847184802F083FA00F0B9FE02F077FD00F0CDFEFAE790BA000039
:2007C000ACBA00001C1D0020C8BA0000DCBA0000B4040020801D0020741D0020F0BA000052
:2007E00048BF0000F8BA0000D8BF0000D428002000BB000038C0000010BE0000EE1C0020E2
:2008000008BB0000301F0020F404002020B9000010B5064C042023685B699847236804209D
:200820005B6B98470128F9D110BD00BFB801001070B507F0F9F90646FFF7EAFF164B4FF4EE
:20084000A0601B68DB699847144B0121144A196013689B07FCD5134D134801F0E9F82B688C
:20086000124C1920DB6B98472B684FF000722260DB6B1A2098472B684FF080622260DB6B1B
:200880001E2098474FF08043236006B170BDBDE8704007F0CDB900BFB801001028200860C8
:2008A00028200840B40100104C040020A0200240012070470120704708B501F0ADFA30B18B
:2008C000044B5B88022B0CBF0120022008BD022008BD00BFA405002010B582B001F07EFC15
:2008E000044601F099FA08B902B010BD084801A901F09CFA0128F7D1638803F44063002BC8
:20090000F2D1638803F44063002BF5D0ECE700BF0100010408B50346B32994BF0A46B422AC
:20092000024819460AF032FE012008BD2207002070B50A4D00262C6803E024682B68A34298
:200940000AD02379032BF8D1054802F06BFD24682B680136A342F4D1304670BD14070020A5
:200960008C040020F8B5104E35682B79032B02D000242046F8BD2C89023C002C08DD8C426A
:2009800005F10A070ADD3957042089B207F014FE2A68002332602B712046F8BD394622468C
:2009A0000AF0F4FDEFE700BF1C07002010B50E4B0E4C1B680A2284F8242082B09B882046D2
:2009C00001A9638301F032FA012802D0002002B010BD204601F074FAA0F10100B0FA80F05F
:2009E000400902B010BD00BF74040020EC05002000B583B00A4801A901F018FA012803D0E4
:200A0000002003B05DF804FB054801F059FAA0F10100B0FA80F0400903B05DF804FB00BF63
:200A2000D405002030B583B001F0F6F9E0B1164C6388022B18D101A9144801F0F7F902E008
:200A40006388022B03D101F0E7F90028F8D16388A3F55053043B9BB2012B02D9002003B05C
:200A600030BD0B4CE37913B9012003B030BD00F01FFC084A0849D369CD6900215B1B184436
:200A8000D061E1710120F0E7A405002001000104741D0020401D0020801D002030B583B009
:200AA00001F0BAF91C4CA8B900236380A37F1A485BB2C3F5FF6307339BB201A9238301F050
:200AC000B5F901280DD00020144B4FF080421A6003B030BD6388022B08BF0120E4D103B060
:200AE00030BD00F0E5FB6FF03F052D1A03E000F0DFFBC54203D563889BB2022BF7D16388AB
:200B00009BB2022BDFD100F0D3FB0549054A0123C861D3711846D7E7A405002090200240E8
:200B2000801D0020741D002008B5FFF73FFF012801D0002008BDFFF75BFF0128F9D1FFF73E
:200B4000ADFFC0B208BD00BF38B5134B4FF080421A6001F0C1FB01280FD0104CFFF762FFC5
:200B600001F02AFAE37953B901F000F80C480D490D4A002343800B711371012038BD00F022
:200B800097FB0A4A0A49D369CD6900215B1B1844D061E171E8E700BFA0200240741D0020F3
:200BA000A4050020DC07002068080020401D0020801D00202DE9F84F00F0B2FF01F08CFB29
:200BC000012815D001F028F970B901F025F90446002837D101F08CF9012805460BD001F08D
:200BE000EBF90020BDE8F88F204B5B88022BECD10120BDE8F88F1E494FF41E721D480AF0A7
:200C0000C5FCDFF884B0DFF884E01B491B4B1C4ADFF87CA0DFF87C801A4E4FF0030C0520FC
:200C20004FF0020904278BF800408AF8005088F800908EF800C0377008701A6001F068FA68
:200C40000128CCD101F074FA00F07CFFFFF7AEFE012802D00020BDE8F88FFFF7C9FE012835
:200C6000F8D1BDE8F84FFFF719BF00BFA405002098BB00001C040021AB030021C003002122
:200C8000DD050021AE0300219003002177030021750300217903002130B583B007284FD88C
:200CA000DFE800F025204E4E4E4E2F04474B197001F0B2F800283CD0454B5B88022B08BF7C
:200CC000002536D1FFF7AEFE012814BF03240024FFF7E4FE012818BF0324002D6BD1204631
:200CE00003B030BD04292ED9022003B030BD01295BD00029F8D10191FFF726FF0199084682
:200D0000F3E701F10A03182BEED80191314CFFF7E3FD01990F2354F83320D80091422D4D7C
:200D200003F1FF334DDD5A1CF5D1FFF7FDFE0020DBE7FFF73FFF012841D0032003B030BD23
:200D4000012003B030BD244C4FF47A72208AE38902FB03F302FB00F2A3F5D32302F57F42F5
:200D6000FF32A3F294431D4803EB2243A0FB0323CAB2C3F347139A421BD04FF4FA7202FB5E
:200D800001F101F5D32303F29443A0FB0321144A890902FB01331B04A0FB032311488AB254
:200DA0009B092382E281028482E7FFF703FF0128C3D1002099E7FFF7C7FE204695E705465B
:200DC00080E7094B28441860AFE700BFAC060020A405002018BB0000D4050020D34D621026
:200DE00018FCFFFFEC0500207404002069B130B50C4683B00D286DD8DFE800F00E1B6C6C82
:200E00006C6C6066356C54575B09022070470E230B60002003B030BD00F0FEFF30B13C4BFA
:200E20005888A0F10200B0FA80F0400920600020F0E738494FF47A72CB89098A02FB03F3DB
:200E400002FB01F2A3F5D32302F57F42FF32A3F29443314903EB2243A1FB0323C3F3471320
:200E600023600020D6E700F0D7FF002834D1FFF7A1FE012840D140F20343002201A869465E
:200E80000192ADF8043000F0D1FF01283CD06FF07F05FFF759FE15F1800F25600CBF0320B9
:200EA0000020B7E700200860B4E704230B600020B0E76FF009030B600020ABE7174B0020FE
:200EC0001B681B680B60A5E7154B002093F900300B609FE701209DE70D4B5B88022BC6D144
:200EE00040F20343002201A869460192ADF8043000F09CFF012804D06FF07F032360032085
:200F000088E79DF90250C6E79DF90250C1E700BFA4050020D4050020D34D62107404002092
:200F2000AC0600202DE9F04383B0044600F074FF002835D0424B5B88022B08BF00252FD100
:200F40004049221DA31C404C92B29BB2100A2382E1610A704870FFF765FD002001F022F936
:200F6000204601A900F062FF384F08BBBB79DFF8E4800126DFF8D490002B3CD100F098F93C
:200F80000123FB71C8F81C0001F020F900236380FFF784FD002D3CD1304603B0BDE8F083E3
:200FA000FFF708FE01283AD0012003B0BDE8F083FB79002B35D1DFF89C8000F079F90123F8
:200FC000BB71C8F8180000F0C5FA638803F4406333B900F0E9FC638803F44063002BF8D0A0
:200FE0006088BB7980B2B0F5505618BF0126DFF85C90002BC2D000F05BF91549D8F8182030
:201000008B694FF0000E9B1A1844886189F806E0B4E7FFF799FD304603B0BDE8F08305467B
:201020008EE700F045F9DFF82C80094AD8F81C10D36900265B1A1844D061FE71BDE700BF05
:20104000A40500202007002014060020741D0020401D0020801D002010B50C46B32C01461E
:2010600094BF2246B42204480AF090FA2046BDE81040FFF757BF00BF2207002070B582B049
:2010800001F02AF9012827D000F0C6FE30B31B4B5B88022B2BD00026194C8025194801A9D9
:2010A00000F0C4FE01280ED19DF8065000F000F9206000F0FDF822686FF011039B1AC34286
:2010C000F7D46B06EAD07EB90F4B6DB293F90000A842D4BF0020012002B070BDFFF76AFDE4
:2010E000012806D10646D7E7FFF72EFDECE70120F2E7FFF729FD0120EEE700BF14060020ED
:20110000D807002001000304AC06002008B500F083FE58B1064B5B88022B06D1FFF7AEFFE4
:2011200010F1FF3018BF012008BD002008BD00BFA40500202DE9F84F2B4800F079FC06F02A
:20114000EBFC012803D000242046BDE8F88F274C274D00F0A9FF204600218C220AF0F0FA5E
:2011600000218C2228460AF0EBFA4FF0000CE64640F2B11144F6CC4802261E4B1E481F4A3A
:2011800066F3830C66F3830E8427DFF884B0DFF884A0DFF8849025602C6084F805C0E78028
:2011A000002685F805E0EF80CBF8004083E850008362C0F82CA0A9F82010D181A2F81080C4
:2011C000FFF7F8FC01280446BDD100F071F80C4A0C4BD0610C48DC7101F006F831460B4893
:2011E00002F000F9B0E700BF60040020DC0700206808002014070020A4050020D40500209A
:20120000801D0020741D002048BE00008C0400201C07002008070020EC05002010B4094911
:20122000094C0B68226808688342FAD1DB01074903EB52620023C1E900235DF8044BD1E940
:2012400000017047082009400C200940B806002010B50B490B4C0B68226808688342FAD1A5
:20126000DB01094903EB52620023C1E9002301F031FF00B910BDBDE8104001F001BF00BFA2
:20128000082009400C200940B806002010B506F0CBFC034B1C6808B906F0CAFC204610BD86
:2012A00008200940704700BF0146012000F002B806F022BD431E012B00D97047C30709D59B
:2012C0000B4B820719600ED50A480B4B012201601A6003E0830705D5064B1960074B0122A7
:2012E0001A6070477047044B01221A60704700BF182009401C20094080022443A0022443AC
:201300002DE9F04106F090FC204E214A8046214F214822490124336800253D6004600C60CF
:20132000146028461B6823219847336820461B6824219847336802201B6825219847184AB6
:201340001849136843F4E02313600D6006F0D4FC154B00F50070186006F0CEFC134B144D15
:201360001449154A1B6800F5803028600C6014603C601B6914209847B8F1000F01D0BDE8C0
:20138000F081BDE8F04106F053BC00BF84010010C00024430000244380002443A000244331
:2013A00000200940082009401C200940B001001020200940A0022443C002244338B5FFF76F
:2013C00077FF364B186006F097FC354B04461B68FBB9344B1B686BB9334B1B6803B938BD3C
:2013E000324B33490020012208601A60BDE8384002F03CB82D4B4FF480721A6004F5007438
:20140000FFF726FF24F4FF742A4B24F001041C60E2E7264B4FF480321A6000F0A9FC00F0EE
:20142000AFFCE8B900F0B8FB00F080FC224D287000F0E0FB00F07AFC2B78834204D000F0ED
:2014400075FC012805461DD000F070FC012802D01A4B00221A601A4B04F580321A60B8E739
:2014600000F080FC054600F091FC8542DAD300F093FC00F085FC0028D6DA00F08DFB00F094
:201480008BFBD1E706F038FC0A4A0C4B00F5007010601D6008F036FFD6E700BFF408002022
:2014A000C0002443A00024438000244304200940800224431C200940F31C0020A002244304
:2014C00020200940820702D5034B01221A60C30700D4704706F0ACBB000C084008B506F07F
:2014E000A3FB074B1A68012A03BF0649022219600022002814BF104642F0010008BD00BF77
:20150000000C084051E5CC1A03490448044B012208601A60704700BF00000840FFFF0F00A4
:20152000000C084038B5FFF7D9FF064C064D0749074A012325600B601360BDE83840FFF7BC
:20154000C1BF00BF00000840FFFF0F000C0008400401004303490448044B012208601A606F
:20156000704700BF00000840FFFF0F000C00084010B50446C0B200F081F9204610BD00BF6F
:2015800070B506460024451E04E015F8010F00F075F9013430460AF04BF98442F5D30A2053
:2015A00000F06CF900F0B0F90128FBD0204670BD70B50446B0B10078C0B1A9B10025661800
:2015C00004E014F8010F38B1B44205D000F056F9631C05F10105F4D100F096F90128FBD065
:2015E000284670BD0546F7E70D46F5E70546F3E710B40B4B0B4C13F8012FFF2A0ED1A3423A
:20160000F9D1094A39B11144013801390B78914200F8013FF9D15DF8044B7047034AF1E723
:20162000C7FF0100CFFF0100F0120050C8FF010038B50C4D02202B685B6998472B680220A7
:201640005B6B984701280446064BF7D11B684FF40070DB699847044B044A1C6013689B07CA
:20166000FCD538BDB801001028200860282008402DE9F04340F2F275DFF8E08083B0FFF759
:20168000D7FFD8F800302B4EDB682B48984733682A4C5B69152098472368DFF8C490284F50
:2016A00023F4FE63D9F8002023F0020323603D60D36B1B2098472349D9F800204FF0FF3363
:2016C0004FF0006008600093D2F840C01A481C211B22E047D8F800301748D3F804C01A4952
:2016E0004FF4E1326023E04740F2011240F2013E1649174B142008601968164841F01001B6
:20170000196003681449002B0CBF134673460B603D60036853B12368326843F050032360DB
:201720001369152003B0BDE8F043184703B0BDE8F08300BFB00100100010004038100040EB
:201740004410004090200240006CDC02341000402C100040F808002030100040D001001038
:20176000B401001008B5064B02201B685B6B9847012803BF034B186800F00100002008BDBD
:20178000B80100106C20084038B50446FFF7EAFF18B1264A13681907FCD4032C03D0244B81
:2017A0001B6803B138BDFFF7DDFFF0B9214D4FF400702B681B6A9847032C2CD01E4B0121B4
:2017C0001E4A196013689B07FCD51B2000F03CF91C2000F039F94FF0FF3000F035F9BDE84B
:2017E00038404FF0FF3000F02FB9154B15481B68DB689847144B15201B685B69984740F2DD
:20180000F270124A1249136823F4FE6323F0020313600860CAE72B684FF400709B6A9847EE
:201820002B684FF400701B6B9847C7E718100040F8080020B80100102820086028200840BE
:20184000D001001000100040B0010010381000404410004010B506F0E7F90446054800F058
:20186000E7F8054B00221A6004B110BDBDE8104006F0DEB978040020F808002010B50446CE
:20188000FFF770FF08B9FFF7F3FE044B2146BDE810401B680248DB69184700BFD001001080
:2018A0000010004010B5134B134C1860134A2368A8B1022111615B6A4FF400709847236826
:2018C0004FF40070DB6A98470D4B01210D4A196013689B07FCD5BDE81040FFF7C9BE106116
:2018E0009B6A4FF40070984723684FF400701B6B9847E9E7F8080020B80100107804002059
:20190000282008602820084008B5FFF72BFF18B1024B1868C0F3C00008BD00BF18100040B5
:20192000F8B5FFF7C5FC174F174E0123B370B860FFF77EFE40F2F271144B154A1B68116060
:2019400013F0500F0CD0134C134D05E02B681B699847124B1B688BB923681148DB06F5D5FC
:20196000B378094C4BB1FFF7A3FC0E4ABD68936800215B1B18449060A170F8BDC0B29847E4
:20198000EAE700BF801D0020741D0020401000404410004018100040D0010010F8080020BC
:2019A00000100040401D00202DE9F041FFF780FC1A4C024623783BBB194D1A4F01233968CE
:2019C00002206A60637001F07DFA174ADFF850801368124E23F00403136030BF022001F06E
:2019E00053FA3860FFF764FC637843B10F4AD8F8047053680021DB1B03445360717001236F
:201A000028602370BDE8F0810849054D0B682E6800209B1B13440B602070CEE7741D00205B
:201A2000801D00200009002010ED00E0401D00200146014801F0ECBDFC080020014801F0DE
:201A4000E1BD00BFFC080020421C10D010B50446074B00211B684FF4C0421B6898470549CD
:201A600001230A68A34022EA03030B6010BD7047B4010010D020024008B520B9064B0120ED
:201A80001B685B689847044B40201B685B689847024B00221A6008BDA00100100002224387
:201AA00038B50A4C06F00EF9236801209B689847236805461B6801209847236801209B6850
:201AC00098471128F9D1284638BD00BFA001001030B583B0FFF7E4FF0446042006F0DCF828
:201AE000032813D00420032106F0A6F8042006F0D3F803280346F9D1074A0848126800932B
:201B0000556800214FF040521C23A847204603B0BDE83040FFF7B0BFA401001000A00C40B4
:201B200010B5FFF7BDFF0446012006F0B5F8012803D00320012106F07FF82046BDE8104017
:201B4000FFF79ABF10B5FFF7ABFF0446012006F0A3F8012802D0044B9B6B98472046BDE89B
:201B60001040FFF789BF00BF4800001010B5FFF797FF00210446032006F05EF8012006F07E
:201B80008BF810B1034B9B6B98472046BDE81040FFF772BF480000100E4B9A780132D2B2D2
:201BA0003B2A9A705A7804D901320021D2B25A7099703B2A1A7804D901320021D2B21A7026
:201BC0005970172A05D9044900200A881870531C0B80704704090020DC1C0020014B1880BC
:201BE000704700BFA8060020014B188880B27047A806002038B5104A104C53781278A4FB67
:201C000003130F4D02EB4202DB0803EB4204284608F000F8E3100B4AEB5C04F00704128884
:201C2000C4F1070423411340074A03F0FF0301211370117038BD00BF04090020CDCCCCCCAF
:201C400014090020A8060020F41C0020054BC0F30721C0F3074282B0187059709A7002B0E3
:201C6000704700BF04090020034B19785A789B78017042708370704704090020264B1A7800
:201C800002F0FF03002A45D02DE9F041234D244A6C782B78A2FB041203EB4301D30803EBB7
:201CA0004103204FDFF880E0013300260BE08EFB00235FFA8CF6C8EB631303EBC303902ED3
:201CC000A0EB03130ED0DA10B95C03F00702C2F1070241FA02F2581CD3074FEAE07806F1C9
:201CE000010CE4D40E4B06EB8606A3FB0423DB0803EB8302A4EB4204730003F10902A878C7
:201D0000E3B2D31AC3EB0313C0F13C0000EB8300BDE8F08118467047F41C0020040900209A
:201D2000CDCCCCCC14090020398EE338014B1878704700BFF41C0020014B1888704700BF6F
:201D4000DC1C002030B4044A044B054C002510601960256030BC7047080900200C090020FD
:201D600010090020014B1868704700BF10090020024A136801331360704700BF1009002092
:201D8000014B1868704700BF08090020014B1868704700BF0C090020014B00221A607047BA
:201DA0001009002070B50388044653B1B3F5EC7F03D182290AD0012070BD00230380032069
:201DC00070BD4FF4EC732380012070BD094B0A4E1D69FFF7BFFB06F07BFB06F02FFB802134
:201DE000A847002880B2ECDD06F022FB33699847EFE700BF10BE000038C0000008B5054BDB
:201E000001201B685B6B9847A0F10100B0FA80F0400908BDB8010010034B186810F0010027
:201E200000D17047FFF7EABF9C210840F8B510F0030306BF43800127002705460C4605F05A
:201E4000F3FE1B4B061C1B6818BF0126DB0702D43EB30020F8BDFFF7D1FF0028F8D057B14C
:201E60002B8813F4405F06D003F44063B3F5006F04BF104B1D60104B10481D6003684CF20E
:201E8000503223602BB90368013A2360E0D0002BF9D056B12078A0F10100B0FA80F04009F8
:201EA000F8BD05F0C5FE0020F8BD05F0C1FEF1E79C21084028090020001004400410044052
:201EC0000A4A01E0013A0ED0438803F44063B3F5806FF7D1428802F44062A2F58060B0FA6D
:201EE00080F0400970471046704700BF20A1070030B583B005F098FE264C054623681920BA
:201F00001B6A9847236812201B6A9847236819205B699847236812205B69083498472368AE
:201F200001205B699847236801205B6B98470128F9D11949194B1A4A086018601368990774
:201F4000FCD5184C2368DB07FCD5FFF757FF0028F8D0104C144815492268002303600B6041
:201F6000136919209847236812201B6998476DB10F4B07221A6001A90E48FFF757FFA0F1B5
:201F80000100B0FA80F0400903B030BD05F050FEEEE700BFB00100102C2008402820086061
:201FA000282008409C2108401010046014100460000004600100060430B587B005F034FECE
:201FC000304C0546236819205B699847236812205B6998472C4B1B68DA072AD42B482C4BB0
:201FE000002401212B4A0460196013689B07FCD5294C012023689B699847236801205B6BE5
:2020000098470228F9D11F4C192023681B6A9847236812201B6A9847236819201B69984712
:20202000236812201B6998470DB905F001FE07B030BDFFF7E3FE0028D0D040F60D04174ADB
:2020400017490023136002A80B60012201A90293059303930493ADF808408DF81520FFF7B1
:20206000E5FE0128BAD10F4A01E0013AB6D0BDF80A3003F44063B3F5806FF6D1BDF80A30F8
:20208000ACE700BFB00100109C2108402C2008402820086028200840B80100101010046007
:2020A0001410046020A1070010B505F035FD68B905F02AFD830703D505F026FD440720D4EE
:2020C00005F022FD800713D5002010BD05F024FD01280446F8D105F017FD8207F4D405F0EF
:2020E00013FD4307F0D4094B03221A60204610BD05F00AFD4107E7D5044B02221A6001208E
:2021000010BD024B05221A60012010BDD021084000B583B001A90548FFF788FEA0F10100F0
:20212000B0FA80F0400903B05DF804FB01000504F8B5164B1B68DB0700D4F8BDFFF75EFEDD
:202140000028FAD005F070FD0546114A1148124F124E134C00214FF000433B6006601160F7
:20216000236819201B6A9847236812201B6A9847236819201B699847236812201B699847CF
:20218000002DDAD1BDE8F84005F052BD9C21084010100460141004601810046000008080E9
:2021A000B0010010054B0649064A002814BF18460846054B02391160186070470800808095
:2021C000020080801010046014100460014B024A1A6070471410046000008080014B1868D4
:2021E000704700BF28090020014B1860704700BF2C09002070B5FFF75BF8114C0122114B3F
:20220000A2701B68104DDB07A86004D4FFF770FE012804D070BDFFF7F1FD0028F6D00B4B54
:2022200000261E60A378064C002BF3D0FFF740F8074AA9689368A6705B1A1844906070BD10
:20224000741D00209C210840801D002010100460401D002070B5FFF72BF8184C0122184BE2
:20226000A2701B68174DDA07A86007D41648FFF787F9FFF73DFE012804D070BDFFF7BEFDC1
:202280000028F3D005F0D0FC104B1B681B0202D50F4801F0C7F80D4B00261E6005F0C8FC04
:2022A000A378064C002BE8D0FFF702F8094AA9689368A6705B1A1844906070BD741D0020CA
:2022C0009C210840801D002050BE0000101004608C040020401D0020014B1878704700BF2B
:2022E000F51C00200AB90020704708B508461146FFF75EF9002008BD0FB400B583B004AB25
:2023000053F8041B04481A46019300F025F803B05DF804EB04B070479C040020102970B586
:202320000C46054602D80AE0102C0BD92B686868084910229847103C0028F5D070BD0846A3
:202340000029FBD022462B6868680249BDE87040184700BFDCBE00002DE9F04F82460F46F4
:202360008FB007924FF0000B3B78002B00F0E880252B08BF3E461BD03C4602E0252B04D0F7
:2023800014466378621C002BF8D1974216460CD0D51B39462A46DAF80030DAF804009847EF
:2023A000002840F079826378AB44002B00F0C88073780136002B00F0C38019460025A1F107
:2023C0002003102B1BD8DFE803F0171A1A141A1A1A1A1A1A1A111A0E1A1A090045F010051D
:2023E00016F8011FEBE745F00105F9E745F00605F6E745F00805F3E745F00205F0E7A1F1E4
:202400003102082A0B46374600F2DC80A1F13002092A4FF000040AD804EB840403EB440472
:2024200017F8013F303CA3F13002092AF4D92E2B00F0D1804FF0FF366C2B00F03D81682B35
:2024400000F04281782B00F28180DFE813F079007F007F007F007F007F007F007F007F00F8
:202460007F007F007F007F007F007F007F007F007F007F007F007F007F007F007F007F006C
:202480007F007F007F007F007F007F007F007F007F007F007F007F00BE027F007F007F000B
:2024A0007F007F007F007F007F007F007F007F007F007F007F007F007F007F007F007F002C
:2024C0007F007F007F007F007F007F007F007F00BB027F007F007F00B802B502B2027F0026
:2024E0007F007F007F007F007F007F007F007F007F007F007F007F007F007F007F00AF02BA
:202500007F007F007F007F007F007F007F007F00AC027F00A902A602A302A0029D027F00DE
:20252000A6027F007F007F007F009A0297027D007F007F0091027F008E027F007F00940211
:2025400058460FB0BDE8F08F45F4407505F4E063B3F5806F07F1010700F0CE804FD9B3F52B
:20256000C06F00F0A581B3F5E06F00F09A81B3F5A06F7FF4F9AE079B012C1A6803F10403F7
:2025800007938CBF04F1FF340024EB078DF8202000F1D08150462146FFF7C0FE002840F008
:2025A0007B81DAF80030DAF8040008A901229847002840F071810BF1010C0CEB040505EB51
:2025C000040BD1E62A2900F08C800B462E2B4FF000047FF42FAF7B78791CA3F13002092A27
:2025E0007AD80F46002606EB860603EB460617F8013F303EA3F13002092AF4D91CE7B3F529
:20260000807F00F0B080B3F5407F7FF4ADAE079BC34A1968C34815F4804F03F1040308BF91
:202620009046079318BF80460A460023002900F094810DF133094846110941EA03714FEA32
:20264000131E02F00F0673460A4618F8061000F8011D52EA0301EFD1B9EB0006034600F01A
:202660007E810336B4424FF030024FF078014FF0230300F8022C8CBFA41B0024EA0700F861
:20268000011C00F8033CA0F1030800F1A18150462146FFF743FE002840F0FE804146DAF8D4
:2026A0000030DAF8040032469847002840F0F4805E4406EB040B57E67B786C2B00F0048113
:2026C000013745F06005BDE67B78682B00F09381013745F04005B5E62A2B00F091810F4602
:2026E000A8E6079B771C1C680433002C0793B8BF45F0010573789AE6079BD3F80090043345
:202700000793B9F1000F00F08F8299F80030002B00F0B2824B4613F8012F002AFBD1C9EBDF
:202720000308002E02DBB04528BFB04644458CBFC8EB04040024E90700F1E08050462146C0
:20274000FFF7ECFD002840F0A7804946DAF80030DAF8040042469847002840F09D80D844BC
:2027600008EB040B00E6002EABBF25F0100501230196019315F40053049305F0E00300F0A5
:20278000A880402B00F07F8200F24181002B00F02D82202B40F05A82079B1A1D079293F9E2
:2027A0000020D317002A73F10001C0F22A82CDE902230023059305F4C053B3F5805F00F009
:2027C0009281B3F5C05F00F0BF81B3F5006F00F067810DF136064FF00008019B41F20802A6
:2027E000984541F6080303EA050380F0338101999342C8EB0101019100F0468141F60802F3
:2028000001999342414400F031814FF000094A46049B73B1059B002B40F0838105F006038A
:20282000022B00F01B824048062B04BF02464FF0010909EB01039C428CBFE41A002415F089
:202840000103049306D1E80640F1F681019B2344049C0193B9F1000F07D01146DAF8003050
:20286000DAF804004A469847B0B9019B08EB0B05102B40F291819B4603E0BBF1100F40F2CB
:202880008E81DAF80030DAF80400284910229847ABF1100B0028F0D04FF0FF300FB0BDE85E
:2028A000F08F079B1A680433C2F800B007935BE5DAF80030DAF804001D4901229847002892
:2028C000EAD10BF1010B4FE5BB7845F080050237B8E5402B00F0C68100F2A980002B00F066
:2028E0009881202B40F02181079B049A05921A1D07921A780023CDE902235CE74946DAF8C7
:202900000030DAF80400424698470028C4D150462146D844FFF702FD00283FF421AFBBE7B2
:20292000ACBE000098BE0000CCBE0000ECBE0000D8BE0000DAF80030DAF8040008A9012261
:2029400098470028A8D1504621460BF10105FFF7E5FC00283FF433AE9EE70DF133033022DA
:2029600003F8012C581E04267CE645F41065EDE545F48065EAE545F4C855E7E545F4885588
:20298000E4E545F4E065E1E545F48135DEE545F40075DBE545F40245D8E545F42455D5E561
:2029A00045F4A065D2E545F4C135CFE545F4B245CCE545F4A135C9E545F48445C6E545F4BB
:2029C0004245C3E545F4E135C0E545F4C065BDE54146DAF80030DAF80400324698470028F6
:2029E0007FF45AAF504621465E44FFF797FC00283FF45FAE50E7BB7845F02005023721E5C8
:202A0000079ABB78111D07911668023714E5602B00F0EC80802B40F01981079B073323F021
:202A2000070303F108020792D3E90023BAE6602B00F0EF80802B78D1049B0593079B073385
:202A400023F0070303F108020792D3E90023CDE90223B0E6934200F0EC800022019241F655
:202A600008020199934241447FF4CFAEDDE9022313433FF4CAAE874B15F4804F864A4FF0C3
:202A8000020908BF1A46C3E60B46002908BF01230193019B4FF000094A4603EB0801B7E65A
:202AA000DDE9028942464B46134300F0E7800DF136031E460693404649460A22002308F06F
:202AC0005DFA30324046494606F8012D00230A2208F054FA8046894658EA0903EBD1069B27
:202AE000C6EB030879E6DDE90223134300F0C6800DF1360306939E46DDE90223D00840EAA3
:202B00004370DE0802F007013346024630310EF8011D52EA0301F1D1069B7646CEEB0308B9
:202B20005BE64FF001095D4A83E605F4C053002200200021B3F5805F0592CDE90201D2D013
:202B4000B3F5C05F40F08580DDE90201544A554B15F4804F14BF9046984602460B46134324
:202B600000F08C800DF1360306931E4602460B46110941EA03714FEA131E02F00F007346AF
:202B80000A4618F8001006F8011D52EA0301EFD1069BC6EB030820E6019B9B464BB15A462D
:202BA000DAF80030DAF804003F49984700287FF473AE31464246DAF80030DAF804004D44B2
:202BC000984700287FF468AE019B2B441E46049B002B3FF46EAD50462146FFF79FFB002829
:202BE0007FF45AAE06EB040BFFF7BEBB079B1A6804330793002A4FEAE27373F10001BFF624
:202C0000D6AD524263EB4303CDE9022301230593D1E5049A079B05921A68002110460433B5
:202C20000793CDE90201C6E5DFF884904FF0060877E5012301932CE7504621460292FFF7B0
:202C40006DFB029A00283FF405AE25E600220023ADE5DDF814800DF13606BEE5134A4FF09E
:202C60000109E6E5079B049A05921A1D07921A880023CDE902239EE5984652E54FF0000859
:202C80000DF13606A9E5079B1A1D0792B3F90020D31787E5C4BE0000C0BE0000C8BE000052
:202CA00098BE0000ACBE0000ECBE0000CCB90000D0BE000010B50446006830B1002100F02E
:202CC00091FB54F8040F0028F8D110BDF0B5038883B005465BB14A2B04D188291BD001208A
:202CE00003B0F0BD00230380032003B0F0BD194800F08CFC044630B1201DA16800F0C6F952
:202D00002468002CF8D1144B01221A704A2301202B8003B0F0BD0F48019200F077FC0446F6
:202D20000028F3D0019A031D9A4205D02468231D002CEBD09A42F9D10648214600F0ACFC96
:202D4000064E6269A369376832600BB1E06998473760DBE730090020F61C002048090020DE
:202D600010B5064B002406481C7000F04BFC2146BDE81040034800F035BB00BFF61C002090
:202D800030090020A404002070B504460D48049D0078A261E361656130B9A1600A48214685
:202DA000BDE8704000F034BC084D094B2E68201D2B6000F06BF92E602146BDE870400248EF
:202DC00000F026BCF61C00203009002048090020A404002010B5044C82B024680094FFF700
:202DE000D3FF02B010BD00BF4809002070B5094B04461B783BB1084D084B2E6804302B6013
:202E000000F04EF92E602146BDE87040044800F0FFBB00BFF61C002048090020A404002011
:202E20003009002010B50A4B04461B783BB9C36003612146BDE81040064800F02DBC043010
:202E400000F050F92146BDE81040024800F024BCF61C002030090020084B0948094910B47E
:202E6000002203F1300443F8042BA34240F8042B01F8012BF7D15DF8044B7047801D00204D
:202E8000401D0020741D002038B50B4B1B5C1BB90A4B53F8200038BD0446FEF709FA074A2E
:202EA000074952F8243051F8245041F824005B1B184442F8240038BD741D0020401D0020B7
:202EC000801D0020014B43F820107047401D0020F8B5104C104E114D04F10C0705E0BC429A
:202EE00006F1040605F1040512D014F8013B002BF5D0FEF7DDF933682A68BC42A3EB02032F
:202F000028601844306005F1040506F10406ECD1F8BD00BF741D0020401D0020801D002021
:202F200010B50E4C2368B3B1FEF778F922685168136892681944091A4AB192E818002344F1
:202F40001B1A9268994228BF1946002AF5D1044B0844186010BD024A136010BD3409002068
:202F6000380900202DE9F041038805467BB1592B08D1872912D0822920D059232B800120D5
:202F8000BDE8F081002303800320BDE8F081254A0120136059232B80BDE8F081214F3B68E9
:202FA000002BEAD0D9688A4203D024E0D9688A4220D19B68002BF9D13B60DEE7194F4FF04B
:202FC00000083C68002CD8D0002604E0A3682646002BD2D01C46204600F070FA0028F5D014
:202FE000E0688821224600F0C9F978B10E4800F019FAEBE73B6099680029BED0C86882422B
:203000000BBF89680B4699608968F5E7E060A3682EB1B360C4F80880FFF782FFD1E73B6093
:20302000F8E700BF34090020B404002010B50446104800F0F7F91049E3680A684BB142B171
:2030400094420FD0134601E09C420BD09B68002BFAD10A4BA2601B680C60E360BDE8104051
:20306000FFF75EBF054B1B68E360BDE81040FFF757BF00BFB40400203409002048090020C1
:20308000014800F0CFB900BFB404002010B5044600F000FA2046BDE81040FFF7C7BF00BF49
:2030A00010B5044600F0FEF92046BDE81040FFF7BDBF00BF10B5044600F0FAF92046BDE891
:2030C0001040FFF7B3BF00BFC068B0FA80F04009704700BF024B1868003018BF01207047CC
:2030E0003409002010B5114B04461A68904218D05AB19368834208BF13460AD02BB19A6829
:20310000A24206D01346002BF9D10023A360E36010BDA2689A60FFF703FF0023A360E3600C
:2031200010BD82681A60FFF7FBFEEEE7340900202DE9F843DFF8A480274DD8F800702E68A7
:20314000874247D077B33B4601E0002B3BD01B689842FAD133B3837B8946044623B30023AF
:2031600083736FB1BC424FF0870106D0BB7BDB0703D53846224600F033F83F68002FF1D115
:20318000A3683BB14C4505D02C6004F10C00832100229847D8F80000844208D12368C8F8E6
:2031A00000302E60BDE8F88338468442F6D00028F7D00368A34208D0002BF2D01A68A242BD
:2031C00004D01346F8E7BDE8F883034622681A602E60E7E73B46BDE7480900204C0900200F
:2031E00070B586687EB104460A4802230460A37304F10C000D46B0470238012804D9832D17
:2032000002D00123A37370BD20462146BDE87040FFF78EBF4809002070B50C4A0C4B146851
:2032200000251D7084B1012601E0246864B1E37B002BFAD0A673E573204682210022FFF719
:20324000CFFF2468002CF2D170BD00BF4C090020F91C0020024B1878421C1A70704700BF54
:20326000FC1C0020014B1968FFF762BF4809002070B407480749084A0023084D084C8A2630
:2032800003700B6013602E70237070BC704700BFF81C00204C09002048090020FC1C0020B8
:2032A000F71C00202DE9F8432B4D2B780BB1FFF7B3FF2A4E33781BB3DFF8B4E028499EF8A8
:2032C0000040013B04EB4402920088180134895CDFF8A0C04268DFF8A0808068214FDBB234
:2032E00004F01F0433708EF80040CCF80000C8F80020397088B1812906D0847BE40705D485
:2033000028781844BDE8F88301238373FFF768FF337828781844BDE8F883134A134C12681D
:203320002260002AECD0A1460AE020683978837BD8F80020DB0709D403682360002BE7D09E
:203340002B78002BF1D0FFF767FFEEE7FFF748FFD9F80000F0E700BFF91C0020F81C0020A0
:2033600050090020FA1C00204C09002040090020F71C0020440900203C090020F0B50F4EB9
:203380003478202C17D00E4BDFF838E01B78DFF838C0234403F01F0303EB4305AD000EEB4C
:2033A00005070134B86034707A608CF800300EF805100020F0BD0120F0BD00BFF81C0020D9
:2033C000F71C002050090020FB1C002038B5837B034CDB07256801D5FFF702FF256038BD1A
:2033E0004809002070B404460D4D2868A04206D038B1034600E023B11B689C42FBD170BC0D
:203400007047002CFBD0012600232060A673A3810A4620462C60812170BCFFF7D7BF00BF9C
:203420004C09002038B1837B013B012B03D8024A01231370C3737047F91C0020FDF732BFF3
:2034400038B5094C049D226822B180E82A002060002038BD024680E82A0008462260FDF767
:2034600023FF002038BD00BFD00A002010B5084C206858B100224368816822609847236810
:2034800023B1BDE810401868FDF70EBF10BD00BFD00A002010B541600446FDF7BFFE2060BB
:2034A00010BD00BF90E80C0013440360704700BF10B50446FDF7B2FE206010BD10B50446BD
:2034C000FDF7ACFE23686268C3F10103184482422CBF0020012010BDF8B504880546B4F5FB
:2034E000877F0ED040F227139C421CD01CB1002303800320F8BDFFF7ADFE1F4A1F4B107073
:203500001C601E4C264604E00A2814D023687E2B2DDD1B4800F00CF9431CF5D14FF4877367
:203520002B800120F8BD852901D00120F8BD134C00232360E5E7114C124F23680E4900261E
:2035400003F1010E3A4609783046FE54C4F800E0FFF714FF0C4B324618688521FFF70EFF02
:203560000028E5D140F227132B800120F8BD05495A1CC8543260CCE7DD280020540B0020B7
:20358000D80B0020D40A00204809002008B505480549802200F0ACF8BDE8084003480021D2
:2035A000FFF720BFD80B0020580B0020C40400200D281FD010B5104C0146237833B10A288B
:2035C00010D00E48FFF72EFF012010BD0C4800F097F80028F5D1012308482370FFF722FFC5
:2035E000012010BD064800F08BF80028E9D000232370E6E700207047FD1C0020C4040020C0
:20360000D80B002000230360704700BF00687047026842B1914203D11BE099420ED01A4674
:203620001368002BF9D100230B6002680AB90EE01A461368002BFBD1116070470B68136091
:2036400000230B6000230B600268002AF1D1016070470B680360F3E710B404684CB1A14220
:2036600017D0224602E0994208D01A461368002BF9D10C6001605DF8044B70470C460B68A9
:2036800013600023236004680C6001605DF8044B70470B680360F4E7026842B18A4203D1CF
:2036A0000BE0994204D01A461368002BF9D170471968116000221A6070471346126802606F
:2036C000F8E700BF03682BB100201B680130002BFBD170471846704700B10068704700BFDF
:2036E00008F07CB808B508F083F880B208BD00BF0023013A0160027143718371704700BF68
:2037000010B44479827903460079A21A024090420AD01A68012011555A79197902440A40C3
:203720005A715DF8044B704700205DF8044B70470346807959791A79091A114208D010B42F
:20374000411C1C680A40205C9A715DF8044B70474FF0FF30704700BF2DE9F84302FB010524
:20376000099F1646A8424FF0000204463A609DF820801DD299464FEAD80807E0494642461C
:2037800007F0D2FE88B13444AC4207D22378A01C002BF3D13C603444AC42F7D33B68002B0A
:2037A00014BF01200220BDE8F8833C60BDE8F8830220BDE8F88300BF2DE9F041174D82B039
:2037C000009104460E4690461F4601950346032113482022FFF7C0FF01281BD12B681870FA
:2037E00020682B68D4F804E0A168E268C3F802002868C3F806E0C3F80A10C3F80E20089B5C
:2038000086744361099B80F813800777836102B0BDE8F081002002B0BDE8F081E40B00203A
:20382000B41E0020F8B50C4B07461C460B4D03F160062B602378A01C2BB1A27C3946D208FC
:2038400007F072FE28B12034B4422C60F2D30020F8BD0120F8BD00BFB41E0020E40B002022
:2038600010B5094C82B0802203468DE81400074803212022FFF770FF10B9206802B010BD9E
:20388000002002B010BD00BFE80B0020D01D00200E4B30B403F1600148F2FE040C4D05E09E
:2038A0009A7C824207D020338B420BD01A78002AF9D0421CF4D15A88A242F4D118462B6040
:2038C00030BC70472B60002030BC7047D01D0020E80B0020F0B5114D83B0802203468DE841
:2038E0002400044605210E481222FFF735FF012811D12B68187020682A686768A668E1681A
:20390000C2F802002868C2F80670C2F80A60C2F80E1003B0F0BD002003B0F0BDE00B002044
:20392000541E00202DE9F0410446254D82B080208DE821000F469046234622480321202226
:20394000FFF70AFF012837D12B68187026682B68D4F804E0A168E268C3F802602E68C3F88A
:2039600006E0C3F80A10C3F80E2086F81380D7B93075154B0022FF2101200227B0745F707E
:20398000D872197019735A809A80DA801A819A72627B18465A73E289DA81FFF79BFF2868E5
:2039A00002B0BDE8F0810023337506F11800394606F0C2FD2E68DCE7002002B0BDE8F081F0
:2039C000E80B0020D01D0020EC0B002010B5094C82B0802203468DE8140007480521122247
:2039E000FFF7BAFE10B9206802B010BD002002B010BD00BFE00B0020541E0020E8B138B5C8
:203A000004460E4B0025FF22022001215870D9721A735D809D80DD801D819D721A70E27BEE
:203A200018465A73228ADA81FFF7D0FF044B186000B105700023237038BD7047EC0B002029
:203A4000E00B002038B5144B144C1846236003F1600504E020682030A842206012D20378F0
:203A6000002BF7D0037D002BF4D1183006F06CFD0028EFD02068FFF7C1FF20682030A84256
:203A80002060ECD300F0DEF901F032FDBDE838400348FFF705BB00BFD01D0020E80B002003
:203AA000141F002048F2FE0C2DE9F84F0B88804663453FD00B78FF2B3CD0354A354F002026
:203AC0001346814602F1600E3A6003E0203373453B601FD01A78002AF8D09A7C012AF5D1C8
:203AE0005A886245F2D04E1E5D1C002216F801AF15F8014F02F1080BA2451FD15FFA8BF2A6
:203B0000802AF3D191459CBF91461846203373453B60DFD140B350F8024F41688268C36831
:203B2000C8F80040C8F80410C8F80820C8F80C30BDE8F88F0120FFF7ABFEEBE702F108060E
:203B400015468AEA0404F2B2660014F0800F05F1010AF4B21AD15FFA8AF59542F4D1914515
:203B60009CBF91461846D1E7A8F80000A8F80200A8F80400A8F80600A8F80800A8F80A001F
:203B8000A8F80C00A8F80E00BDE8F88F2A46B9E7D01D0020E80B00200B684A688360037AEA
:203BA000C26083F002030372704700BF10B5FFF799FD0446FFF796FD054B24029A68A4B28E
:203BC0002044B0FBF2F302FB130000EB520010BDB81D00202DE9F041344E82B001F0D2FB29
:203BE00000F098F800216022314807F0A9FD30460021F82207F0A4FD2E4C2F492F4B4FF098
:203C0000400818224FF4A06520203560B4601A7086F804800870FFF7C9FF48F2FE0E42F2B5
:203C2000107C40F2FF27264C002500950195F060A4F800E041462A462B4620466580A5803A
:203C4000E580C6F810C03575FFF7B6FD1D4A04F1080310685168012203C3237A294683F01E
:203C6000020320462372FFF75DFE4FF480732046E3816580A580E58025816581A58127802B
:203C8000FFF728FE4FF40073204627806580A580E58025816581A581E381FFF71BFE0A485F
:203CA000802102B0BDE8F041FFF7F0B9B81D0020B41E0020808D5B00B11E0020B01E002010
:203CC000EC0B0020301F0020141F00202DE9F04105460E4888461746FFF798FC044658B913
:203CE00011E000236668284641463A46B0472046FFF7F2FC044630B1012DF2D80448FFF7C7
:203D0000E1FC0346EEE7BDE8F08100BF440C0020400C002008B5054806F026FC0448FFF793
:203D200071FCBDE808400348FFF76CBCD4040020400C0020440C002010B504460E48FFF791
:203D400065FC40B1A04202D106E0844204D0FFF7C3FC0028F9D110BD21460748FFF79CFC24
:203D60002146064806F030FC211D0A46BDE810400120FFF7ABBF00BF400C0020D404002045
:203D800038B505460A48FFF741FC044628B90DE02046FFF7A1FC044640B1201D294610223C
:203DA00007F0C2FB0028F3D1204638BD002038BD400C0020F8B50F460546FFF7E1FF064618
:203DC000B8B128686968AA68EB68341D0FC447B901233377002029462A46FFF777FF3046E1
:203DE000F8BD394606F1140006F0A6FB00233377F0E7054806F0CAFB06460028EFD00348C3
:203E00003146FFF729FCDCE7D4040020400C002038B50B48FFF7FAFB044678B1251D28469B
:203E200001F000FB10B190F822302BB92046FFF753FC04460028F1D1284638BD0546FBE7A8
:203E4000400C002010B50D48FFF7E0FB044664B1237F04F1140013B906F076FB30B920467F
:203E6000FFF73AFC0446002CF2D110BD2046FFF763FF0248FFF7CAFB0446E8E7400C0020C8
:203E8000013A0A44914230B414D20C4625786378023403EB05239BB2184480B2834284BF03
:203EA000013080B2A242F1D8CB43134423F0010302331944914201D030BC70470B7830BC2E
:203EC0001B02184480B2834284BF013080B2704730B5134B134D1C782B796A79C4EB032382
:203EE000134483B09BB2ADF80630BDF8063005F108011844202280B2FFF7C2FFBDF80620C4
:203F000004F12801294492B2FFF7BAFF18B94FF6FF7003B030BD40BA80B203B030BD00BF73
:203F2000FE1C0020381F0020F0B41B4B1B481D780227283543195C783B46E4000734A34293
:203F4000174E1DDC5A19815C0244012911D01BD3632906D152780020023213443370F0BC4D
:203F6000704701F0C001802912D0C02910D040290ED0527802321344DBB21F46A342E1DD53
:203F800037700020F0BC70470133DBB21F46F5E737700120E3E700BFFE1C0020381F0020F3
:203FA000001D002070B4C278134C0A44D2B2E27083780E0A3344DBB2A37045789E42657047
:203FC0000078207003D90135EDB265708DB1C9B28A420CDA0133DBB2A370074A3BB9537804
:203FE0000133DBB2537013B913780133137070BC704701302070EAE72C1F002010B5084C36
:20400000014620681430FFF7CDFF064A2368507814789178D2781C7558759975DA7510BDC1
:20402000482400202C1F00203A20FFF751BF00BF08B5FFF7CFFD06F05DFB01F091FA104BC6
:20404000002103F1280223F8021F9342FBD10D4B0D4803F5F071002283F8252030338B422C
:20406000FAD10A4A0A4B4FF48061118003F5A07100221A8220338B42FBD10A23037008BDFF
:20408000322600204C240020011D0020E01C0020602600202DE9F041134E347814B3134F9B
:2040A00004F127033D88AB4204DB00233B803370BDE8F081DFF83880A5F12802121B04F148
:2040C00028012C1B4144A4B208F1280007F0D4FAA4F12803191200223C8088F8053088F8B1
:2040E00004103270BDE8F081FE1C0020241F0020381F00202DE9F041DFF8C4802E4E0746B5
:20410000B8F800C0308A0CF1010C1FFA8CFCBCF5FA4F26D34FF0100E4FF4805C8645F2D0CE
:20412000254C022326462246158E01337545DBB202F12002E7D00B2BF6D1A8F800C0DFF8F7
:2041400084C0A0B301231D46208E5A1C203468B10A2A1346D5B2F7D18CF800500020BDE83B
:20416000F0819CFA9CFE1FFA8EFED7E78CF800505C0104EB060CACF810E0ACF812100E4B56
:2041800067B1654638687968BA68FB680FC50B4A3319127960461A75BDE8F0810CF1080204
:2041A0001F51CCF8047042F8047B1760EFE78CF800000346DCE700BF60260020B81D002067
:2041C000E01C0020011D0020F0B40E4E0E4F3288002382423B700FD001231D46314631F8D6
:2041E000024F5A1C844206D0142A1346D5B2F6D13D70F0BC70473D70002226F81320F0BC9B
:20420000704700BF34260020011D00202DE9F04FB64B042887B01D682BD0B549DFF8F0A2D0
:20422000DFF8F0B20328CAF80010CBF800102DD0022800F09D80052800F0728111F83C2C80
:20424000A1F13C0402F0F002602A00F0E780A94BA94EDFF8C482DFF8C4920193019A002340
:20426000338088F8003089F80030137007B0BDE8F08FA04BA04EA14801930388002B40F090
:204280006A81DFF89482DFF89492E7E795F8252002F00F02032A00F0F380022AD7D1A1F1B0
:2042A0003C0404F118030293924B934E019340234FF0020C4FF0040E0020602184F8352054
:2042C00084F83CC084F83DE084F83E0084F83F30338084F834102B7DDFF8308284F83030A8
:2042E0006B7D029F84F83130AB7D84F83230EB7D84F833302B7E84F82C306B7E84F82D30C8
:20430000AB7E84F82E30EB7E84F82F302B8A23856B8A638595E80F0087E80F0008F1080011
:2043200008F11801FFF7BEFB95F8253003F0100303F0FF02002B40F04F81402388F836207C
:2043400088F8373033886E4A283B1579062100221E12084663712671E571A17184F83B20A1
:2043600084F83A202287FFF7B3FDC043208724E16449614ECB78DFF8A08101335F480022D5
:20438000DBB2CB70328088F80020028063B98B780133DBB28B703BB94B780133DBB24B7073
:2043A00013B90B7801330B7095F8252002F0FD03052B00F08B80002A00F09380AB8B002B82
:2043C00000F03F8395F82630591E85F82610002B40F0878095F82730082B00F07A83511E49
:2043E000012940F27383042B9CBF0321994002F00F0294BFC9B230210133541E85F8273048
:2044000085F82610072C6CD8DFE814F0FD0005010C01F3006B00F3006B00F3002279364EC9
:204420006079120235881718AF4200F3DB80257A28300244FF2D328000F0D480324DDFF8AF
:20444000D880DFF8D890A07900223639296088F8002089F80020002840F0198101220193A8
:2044600089F80020FFF760FD0128019B00F00081C0F00181022840F00A811E4B0193A1E07D
:20448000AB8B002B7FF4E3AE1A4A082301921370194E02F007F91948019B1A7802F0200315
:2044A00003F0FF01002B00F0DA82184C002385F825301422038004F1180384F8352002930A
:2044C0003C233380502384F8343004E795F826300133DBB2782B85F8263004BF002385F80F
:2044E0002530044BDFF834900193B7E648240020741F002038240020241F00205C2600208C
:20450000B81D0020480C00203C240020381F002044240020281F0020FE1C0020FF1C0020D7
:20452000C04A1268128A002A3FF491AEBE4ABF481546BF4E0C39019208240022028002900E
:20454000CAF80010CBF800101A6032802C7002F0A9F8029891E6B34AB64C126803F10801D4
:2045600049BA002092F814E0A185E085118A303321859BB2508AA3F128010D124FF0110810
:2045800084F807E0257160853380617184F8068004F118050FCA85E80F00294604F10800E3
:2045A000FFF780FAA44B04F13C0240461A60FFF78FFCC04380B258B1E0850023602222700E
:2045C00063706380019A0023137007B0BDE8F08F4FF6FF73E385F0E7002388F8373088F889
:2045E0003630AFE6904BDFF85C820193DFF8509234E68D4B8F4C019304F1180302931123A9
:2046000084F835305CE7884B8A4C019304F11803029312224BE6844B864C019304F11803EA
:20462000029344E6804A042302901370019202F039F802980388DBF80020CAF80020002BDA
:2046400000F02482AB8B002B00F02082794C3C3318223380A31884F83520029332E7112045
:20466000FFF736FC4FF6FF729042019B00F0FC806D4B0193F2E598F8002002F1280121442E
:204680004878083202EBC002296088F8002001936A4B18460293FFF7E3F8019B002800F087
:2046A00052822A68664FDFF89CC112783C2ADFD801A151F822F000BFF54900007146000053
:2046C00071460000714600007146000071460000F948000071460000714600007146000098
:2046E000714600007146000071460000714600007146000071460000714600004948000028
:204700007146000071460000714600007146000071460000714600007146000071460000E1
:204720007146000071460000714600007146000071460000714600007146000071460000C1
:204740007146000071460000714600007146000071460000714600007146000071460000A1
:2047600071460000EF47000071460000714600007146000071460000714600007146000002
:20478000714600007146000071460000714600007146000071460000714600007146000061
:2047A000AD47000071460000274A00003A20FFF78FFB4FF6FF7398427FF45AAF98F8003036
:2047C000204D2833E05C01F0CDFD98F800302833E2185178E05C05F027FF012802D10023C6
:2047E00033802B703388002B3FF442AF45E699F8002051073FF53CAF98F8001042F0040038
:2048000001F12802224492F803E03870BEF1000F7FF42EAF5078083101EBC0018CF80010B1
:204820002A6042E740240020382400205C260020241F0020381F002044240020501F002032
:20484000FF1C0020FE1C00200193FFF723FC3288B14BE18D303ACAF80030A3F1300532803F
:20486000019B00297FF4FBAEB5F82AC0BCF1000F3FF4FEAEA94AAA4FA84D3A60228D039662
:20488000029205F5A074664604E02035A5423D6000F054812A8A002AF7D09642F5D1B5F858
:2048A00012E0A0481022BEF1000F02D002998E45EBD1296829B9696819B9A96809B9E968F8
:2048C00031B12946019306F02FFE019B0028DCD1954C9648254601948F4C002202210280FE
:2048E0000290039ECAF80040CBF8004029701A6001F0D8FE0298C0E40193FFF7CBFB0620F2
:20490000FFF7E6FA4FF6FF729042019B7FF4B0AE628D11460192864A00293FF4A9AE128DD1
:204920000492002A3FF4A4AE824DCDF80C9005F5F077C146A04603E03035BD4200F05881A4
:2049400095F82540002CF7D02A8A01998A42F3D16A8A04998A42EFD1724829461022059384
:2049600006F0E2FD059B0028E6D1A446444694F835206D4F02F00401019701F0FF070497B1
:20498000694FC8461D60DDF80C903870DFF8A0E1002940F05C849EF83410308809098900FD
:2049A0002838654F401A0CF00F0C80B2BCF1020F03973080397000F05284BCF1010F00F01C
:2049C000058210B9900700F00682B4F82CE0A88A5749864500F07C83910707D5BCF1010F03
:2049E0003FF417AEBCF1020F00F07883102384F8353065E599F80020D0073FF539AE42F0E3
:204A00000102CDF80CC001933A70FFF78DFA0128019BDDF80CC03FF42BAE6BD302283FF43A
:204A20002CAD2A6841E699F8002091076FD550063FF51EAE42F040023A70CDF80CC00193BE
:204A4000E3E702F00F02032A7FF44BAD364A082302900192137001F025FE02981CE502F0FD
:204A6000100303F0FF0403B3314C042285F825204FF0010E112304F1180285F82710A5F830
:204A80001CE00180029284F8353019E5019B1B7899077FF5F6AB264C10223C2384F835206E
:204AA00004F11802029233800CE503881F494BB1D70740F19680AC83EA8B934288BF028059
:204AC0000388AB83002285F82720B4E5052B7FF48AAC154A002385F82530154C80231370EA
:204AE000019201F0DFFD142384F8353004F118030293E5E498F8001001F1280222445078E6
:204B0000083101EBC0012A6088F80010CDE542F002023A7091E700BF681F0020602600207F
:204B200040240020401F0020382400205C260020381F00204C240020011D00209B4B039E88
:204B40000193FFF78BBB02980193FEF73FFF019B00287FF4A6AD227E029BFF2AA3F1180385
:204B600000F0EC8048F2FE00198B814200F0E6801989814200F0E88081B95A8972B99A89BC
:204B800062B9DA8952B91B8A43B9628A884B2AB99A8A1AB9DB8A002B3FF46AAD228B844BFC
:204BA00082B95A8B72B99A8B62B9DA8B52B91A8C42B95A8C32B99A8C22B9DB8CB3F5807F79
:204BC0003FF456AD3388B3F5A06F3FF651ADE379774A012B7FF64CAD013BD371734B019371
:204BE000F0E4AA8B002A3FF467AF13460A8069E7444694F83520C84602F03F02022ADDF859
:204C00000C905ED0694B019394F83520684B55073FF524AB93F82F0093F833A093F832902A
:204C200093F8318093F82C5093F82E1093F82D2093F830E00130DFF880C1C0B283F82FA0F0
:204C400083F82E904FF0140A4FF03C0983F82D804FF0500883F8330083F8321083F8312044
:204C60008CF8005083F8305083F82CE083F835A0A6F8009083F8348060B90131C9B283F8F0
:204C8000321039B90132D2B283F8312012B9013583F83050B4F828E0638D464D029FDFF8B2
:204CA00024C12385A4F82AE095E80F0087E80F00284605F11001ACF800E0FEF7F3FEFFF7E2
:204CC00041BB3D48002105460A46DFF8F8C02970BDF804100390ACF80010384803E01429BF
:204CE0000A4600F0FF81511C019F30F81220CDB2BA42F4D10398DFF8D0E00027077039460E
:204D00003A463D46704607E04A1C11460A2900F13000D2B200F0928290F82570002F00F01E
:204D2000F581072FF0D1002D00F08F8290F8267095F82620974288BF0546E5E748F2FE0375
:204D4000218999427FF494AC2189194B79B9598969B9998959B9D98949B9198A39B9598AC7
:204D600029B9998A19B9DB8A002B3FF481AC218B0F4B81B9598B71B9998B61B9D98B51B972
:204D8000198C41B9598C31B9998C21B9DB8CB3F5807F3FF46DACFF2A3FF46AAC0848FEF795
:204DA00041FD024B0193FFF759BA00BF38240020381F0020401F0020011D002034260020E2
:204DC000501F0020DE1C00204C24002002F03F0102297FF4F6ADD20601D5A98BD1B995F82E
:204DE000252002F00F01013907293FF637AA01A050F821F06B5200004B5000004B4F000000
:204E00001F4F0000EB4E0000D14E0000ED490000B34E000005F118000593FFF7C3F8B44A40
:204E200094F830001378B34983421F46059BD6D191F831E050787045D1D191F832E092F8E0
:204E400002C0F445CBD191F83310D2788A42C6D195F827102F76687685F81AC0EA76F1B99A
:204E600095F8242095F8260095F82210121AA2EBD102D2B2D0B20706114444BF5242D0B2E2
:204E800095F82320C9B2A2EB92020244D2B285F8221002EBD10185F8241085F8232095F870
:204EA00024200198012185F8262000220170AA8395E7019B1A78904BD2077FF5CFA9002204
:204EC00085F8252010221A7001F0ECFBFFF7C6B9019B1B78DA077FF5C1A90722002385F850
:204EE000252085F82630FFF7B9B93088DFF814A2002840F0918094F83530DB077FF5AEA9E6
:204F00000722002385F8252085F826300120FFF775F8019A1023137001F0C4FB66E5308828
:204F200008B1FFF76BF894F8353013F0010300F08180019B1B78DF076AD50023072285F859
:204F4000252085F82630AB83E0E794F83530DF0721D5D0061FD4AB8B002B7FF47FA93088FA
:204F6000013080B2FFF74AF801983188037843F010020270604A11B143F01203137001F0EA
:204F800091FB012108220023A98385F8252085F82730FFF734BB99060DD594F83AE094F8BC
:204FA0003B30DAF80010308843EA0E231944C31ACAF800103380308840B1D20606D4019AD9
:204FC000137843F002031370FFF718F894F8362094F83730DFF830C103EB02232A8C9BB2D2
:204FE0009342ACF8003000D80BB9ACF80020019BBCF800201B78EA839B073FF42FA93F4804
:2050000000230380029001F04DFB0298FFF744BA062385F8253079E7FEF7F0FF94F8353061
:20502000D9073FF56DAFBAF80030002B7FF4DEACFFF714B9019A1278D00740F12B81052273
:20504000AB8385F82520FFF709B9019A1278D20706D594F83520274902F03F02122A0BD034
:205060000393019B20221A7001F01CFB039B00221B6883F82520C7E591F8343003F0F002A9
:20508000502A40F231811909039F1D4B0020053938701A78DDF810E0019F890004EB0E0003
:2050A0008E45844680F2438190F83C20002A00F03E81012A00F04281022A00F0FA809CF858
:2050C0003D00002800F0338186445FFA8EFEE5E7C88DE98A88427FF47FAC7CE642F0020284
:2050E000FFF7E5B8044B0193039B1D708CE500BF2C1F0020381F0020382400205C260020DF
:20510000021D0020241F0020DE1C00200398302502708D4A05FB01258C491D60BDF8043039
:2051200091F8008091F801E088782B82C978BDF81030874A94F82CA094F82D9085F8188092
:2051400085F819E094F82E8094F82FE001276B82A876E9764FF0000B0FCA85E80F000323AD
:205160000422CDF814C085F8263085F82430384685F82570AF8385F814A085F8159085F83A
:20518000168085F822B085F8232085F827B085F817E0FEF733FF94F83430DDF814C003F0EF
:2051A000F002502A23D91909039A6A4B053982F800B01A78890004EB0B008B4507461ADA85
:2051C00090F83C207AB1012A08D0022A1BD097F83D0040B183445FFA8BFBECE70BF1010B68
:2051E0005FFA8BFBE7E71A70039B83F800B05A4B0193FFF70EBA1A705749039B019183F8E3
:2052000000B0FFF706BA90F83DE0BEF1040FDED190F83F1090F83E701A7041EA07231A46C6
:20522000402B0399ACF800304B4B28BF402281F800B0EA832A840193FFF7EBB903990A702C
:20524000002D7FF469AFFFF713BA05465CE5202385F825003B7001F025FAFEF7FFBF02F002
:205260003F0112297FF4ADABB5E5019B1A783A4BD10715D5308803244021002285F8254095
:205280001970AA8300283FF4BAAE42221A70FEF7B5FEB4E63388002B7FF4A8ABFEF7DEBF27
:2052A00094F8353003F03F03022B7EF4D7AFFFF7B0B990F83D90B9F1040F7FF400AF90F888
:2052C0003F10F44690F83EE003981A7041EA0E231A4601970746402B204928BF402287F83D
:2052E00000C00B80EA832A8494F82CE094F82D0094F82E1094F82F20032385F814E06875DE
:20530000A975EA7585F825300120FEF777FE144800230380AB83338088F80030019B422220
:2053200002901A7001F0BEF90298FFF7B5B81A70039B01971A4682F800E0D5E70EF1010E68
:205340005FFA8EFEAAE600BF4C240020480C0020401F0020021D002038240020DE1C0020C1
:205360005C26002050B110B5044601F01FFA044B2146BDE81040186802F0B6BF704700BF69
:20538000E0040020024B0349186802F051BE00BFE0040020655300002DE9F041124C064683
:2053A000206890461F4602F0BDFE0446C0B10546F36830687168B2680FC50021284684F8B2
:2053C000218084F8227005F0B7F804F11800002105F0B2F8002384F82030204601F0E6F988
:2053E0002046BDE8F08100BFE0040020024B0146186802F0A3BF00BFE004002038B5084D01
:20540000286802F063FE48B100240146286802F025FE01340028F8D1204638BD0446FBE7F3
:20542000E004002070B505460C4E306802F04EFE8DB1044630B90EE02146306802F00EFE6C
:20544000044640B120462946102206F06DF80028F2D1204670BD002070BD00BFE004002021
:20546000024B0146186802F025BF00BFE004002008B5FFF7D7FF30B1034B01461868BDE85B
:20548000084002F05BBF08BDE004002070B5064610200D4603F0AAF81249044603F0D8F8FE
:2054A00050B9114B1B78012B07D0204631462A46BDE8704001F03EB970BDFEF7A9FC002878
:2054C000FAD0FFF7AFFF01460028F5D0074B186802F034FF0446314620462A46BDE8704047
:2054E00001F028B9BCBF00009C280020E00400202DE9F041194D286802F0E8FD044640B326
:205500004FF00208032705E02146286802F0A6FD0446F0B194F82230012BF5D104F11006E1
:20552000304605F011F80028EED02046FEF728FC052180B184F82270304604F0FDFF0023A4
:2055400084F820302146286802F088FD04460028E0D1BDE8F08184F82280D5E7E0040020FA
:20556000704700BF08B5064800F0EAFE054BAA2201200021187059709A70DA7008BD00BF4B
:2055800079570000780F002010B5114C0220A17903F012F8A379112B0FD0062B0DD03A2B8F
:2055A00005BF94F8281094F82930002143EA01210120BDE8104002F0FFBF238D618D012089
:2055C0009942A8BF1946BDE8104002F0F5BF00BF381F002070B413780D7A83F002039D42CC
:2055E000044614D00B891BB94B89B3F57F4F2FD01E4A51F8085F13684E68012003F1080165
:20560000A0405E601D601160C0B270BC7047487A53789842E6D1887A93789842E2D1C87AAF
:20562000D3789842DED1087B13799842DAD1487B53799842D6D1887B93799842D2D1D3791A
:20564000CA7B9A42CED1032303FA04F0C0B2DCE78B89FE2BCCD1054DC9892A68022322F8EF
:20566000021B03FA04F02A60C0B2CEE7740F002010B5084C2378012B01D0002010BD0146E3
:205680000822A01C05F050FF00280CBF2046002010BD00BF780F002010B50C461146204660
:2056A000FFF7F4FE044B1B6813B19B6820469847024B1C6010BD00BF900F0020880F002059
:2056C0002DE9F04715090F2D07469A4602F00F043FD00F2C34D0A146A84666195DBB0F2EFA
:2056E00003DD5CB9E5B9BDE8F08707EB0800C6F11002002106F024F8002CF3D0DFF874804B
:20570000C9F11000D8F8006038443146224605F03DFF022C26D03444C8F80040BDE8F0874B
:2057200038465146BDE8F047FEF736BA454620264FF010094C462A46384605F027FFCEE71A
:20574000A84605F11006002DF2D14FF010094C46D4E70F2C4FF01008E8D042464546A14676
:20576000A618E9E70A2DD6D8FF22FE23FA723B73D1E700BF740F00202DE9F04FDFF8F4B26E
:20578000AE4D002387B08BF800302B70044602F09FFE02F053FEAA4F04213860092002F079
:2057A0000BFFA84B1B680BB1FFF7EEFE0DF11008002C00F0F4812146404602F043FFA24B16
:2057C0001B883E2B33D995F80090D7F800A0002309F102099D4E0AF809309D480AF10203F2
:2057E0003360FFF745FF002800F012810AF10303336080230293974C62782178130943EAC6
:205800000113DBB2980840EA8313DBB210075FFA83FE65D16088002862D1080740F00081D0
:2058200012F0F00F40F0FC807823019367E0894C95F80090A4463B6809F10106F6B24122BA
:205840001E441A7004F1200AE646BEE80F00D64530607160B260F3600CF1100C06F1100655
:20586000F2D1BCE80300306071609BF8003009F12909283385F800908BF80030414610209C
:2058800002F0A8FE744B1B6898476F4B00289BF800601A882D78ACBFC0F17D006520921B68
:2058A000401B8242994600F3C2803868A119284405F06CFEB9F800002844801B80B202F0B4
:2058C000B7FD4146102002F085FE644B64489B6800219847FBF73EFE012007B0BDE8F08F60
:2058E000090703D112F0F00F00F08480326820681346106003F804EB336060230193A37934
:20590000112B00F07081326802F8013BE3793260402B00F07081FF2B00F07281012B64D0F3
:20592000326802F8013B326023894A4A3BB953892BB993891BB9D389002B00F07B8149481D
:20594000FFF796FE484B1860002800F0C38042781AF80930042043EA02130AF80930414927
:20596000424AFFF737FE60F03F00C3B20293237EDFF8E0C0FF2B00F0DA800CF11800CDF871
:205980000CC0FFF775FE384ADDF80CC01060002800F00A811AF809104278029B0A430AF8CB
:2059A000092043F004030CF11801002042465FFA83FAFFF70FFED6F800E04AEA00005FFAB2
:2059C00080FAA3792822112B8BF80020214953D03B682A789DF80400C3EB0E0E9918985436
:2059E00085F800E081F801A048E7019B43F00103019399E7316823F03F0313431C4A0B70F5
:205A00001288CB1C33606823A1F80120019376E71448FFF72DFE00287FF4E8AE0290EAE62C
:205A20003368702203F801EB0192336067E704F023F8002007B0BDE8F08F00BF041D0020D4
:205A4000840F0020900F0020241F0020740F0020501F0020381F0020C4BF000060C0000025
:205A600099560000401F00206C0F0020301F00203A1F0020031D00204FF2B0020B8D5BBA55
:205A80009BB223F00F0080B290424A8D52BA92B200F0BB8002F47F42B2F5704F00F02F8184
:205AA00003F47F43B3F5704F00F0EE80A54BF0228EF8002018680EF10503CEF801009E468E
:205AC000A14B30221B888BF800202EF8023BC6F800E07DE748F2FE0322899C499A420FD156
:205AE0004B8B6BB98B8B5BB9CB8B4BB908310420974AFFF76FFD029B1843C3B2029336E769
:205B0000D6F800C0DFF854E20CF110033360BEE80F00CCF80000CCF80410CCF80820CCF846
:205B20000C30237EDFF824C2FF2B7FF426AF029B9CF8190043F0080A02285FFA8AFABCF80F
:205B40001A3000F0AF80002B3AD1BCF81C30002B36D1E38B7D499BBB0B8C33B94B8C23B9B4
:205B600091F82430002B00F0D880228C774B3ABB93F8222022BB31680A4602F8010B53F88C
:205B800023EF0298C1F801E01B7940F0090A01F1060E5FFA8AFA1371C6F800E011E7404665
:205BA0006C4902F04FFD0AE648F2FE03BCF818209A4203D1BCF81A30002B51D0DDF808A064
:205BC000D6F80090DFF898C109F1100EBCE80F00C6F800E0C9F80000C9F80410C9F808204F
:205BE000C9F80C30EDE6019B43F004030193E379402B7FF490AE019B43F00203019393E612
:205C0000019B43F0030301938EE622F00F0C84457FF440AFF3238EF800304B8D0A8D1B0AEF
:205C2000120A03EB021303F5AA638EF801300EF1020344E7138A002B7FF481AE538A002BE8
:205C40007FF47DAE938A002B7FF479AED38A002B7FF475AE029B43F04000C3B2029386E620
:205C6000BCF81C30002BA9D1BCF81E30002BA5D10CF118014246FFF7ADFC029BD6F800E054
:205C800018435FFA80FA9CE6F2238EF80030238D314A1B0A8EF8013012880EF10403AEF83C
:205CA00002200CE7002B8BD1BCF81C30002B87D1BCF81E30002B7FF44CAFBCF82030002BFB
:205CC0007FF447AFBCF82230002B7FF442AFBCF82430002B7FF43DAF9CF82630002B7FF4AC
:205CE00038AFD6F800E09CF82730029A0EF8013B42F00B0A5FFA8AFAC6F800E061E6F1222A
:205D0000104B8EF800201A880EF10403AEF80120628D120A8EF80320D1E63268134603F8BA
:205D2000010B31F825CF0298897840F00A0A02F1040EA2F801C05FFA8AFAC6F800E0997077
:205D40003FE600BF601F0020661F0020381F0020301F0020BCBF0000621F0020401F00209A
:205D6000501F00202DE9F04FBD4DBE4F002385B03B702B7002F062FBBB4EBC4C3060042076
:205D800002F022FC326895F800E000B212F80E30206003F0E001602947D0412B02D005B00B
:205DA000BDE8F08FDFF8FC820EF10103C446DBB2D41804F1200AE14620686168A268E368F8
:205DC000103454450CF1100CA9E80F00F3D13B78206861680EF1290E2833ACE8030085F8C0
:205DE00000E03B7002F03EFB2B789D4C8342D6D802F038FB21783B78421AD4189C48802CA5
:205E00000260CCD830689B4D014408EB030005F0BDFB994A2B68148023B1FFF7B5FB2B68FD
:205E20005B68984700F0B2FAB9E702EB0E0191F80190924C0EF1020E4FFA89FC7244BCF150
:205E4000000F2260BCBF01322260D90623D41A0771D422688A491046884632F801EF9278A0
:205E6000A1F800E08A7010F804AB18F801294FEA9A0E0EF0300B4BEA8A1A0EF00F0E02F0BE
:205E80000F024EF0600E4AEA0202206001F801EC88F801200EE003F0080202F0FF008AB3ED
:205EA000DFF800820022602188F8001088F80120A8F8022003F0040202F0FF0A2AB9226892
:205EC00012F8011B88F80610226013F003034BD06C4AD35C88F8073019F0400FC9F301139C
:205EE00000F0E280BCF1000FC0F2EF800022002B41D065490878012800F04F81634B00222E
:205F00001A606FE72268DFF89C8111461278C2F3830242F0600288F8002011F801EBA8F84F
:205F200002004FEA9E0202F0300242EA8E12216088F80120BEE72168DFF8688108466022B6
:205F400088F8002010F8012B03314FEA920E0EF0300E02F00F024EEA020288F801200288BA
:205F60002160A8F80220A5E7236813F8012B88F807202360B0E70193454A0F20CDF800C0F8
:205F800012F803B002F032FB5A46034601994148FFF796FBDDF800C009F0080303F0FF0205
:205FA00009F0030E002B39D019F0040F10D13A4A0EF1FF331288012BADF80C2040F2FD80AB
:205FC000364B374813F80E2003A90023FFF778FB3A7802F128033B702368BAF1000F05D0BB
:205FE000197801F0F801F02900F0828032689B1A2B7002F037FA2A783B78801A184498F833
:20600000063028380212112B88F8042088F80500244A7FF4E7AE93889385E3E619F0040FE3
:2060200059D0BCF1000FC0F2C18017490B78012B7FF464AF4B7893427FF460AF134A144B1D
:20604000102013F80E901160009102F0CFFA009903464A4602311248FFF732FBB8E700BF2A
:20606000041D0020031D0020840F0020700F00208C0F0020900F0020241F0020740F0020CD
:20608000391F00203CBF0000780F00206C0F002058BF0000401F002038BF000054BF0000AB
:2060A000501F0020381F00204A4A0F20CDF800C012F803B002F09AFA5A4603464649474848
:2060C000FFF7FEFADDF800C066E72A7831680A44927812090BE73F4B102013F80E9002F0FB
:2060E00085FA4A4603463C493D48FFF7E9FA6FE7112188F80610187800F0F301F03900F0BA
:206100000400C0B203293FF66DAEDFE801F03A2F1F02597802330909A1F5756189B2090281
:2061200041F0F001A8F8281013F8011C01F00F01A1F5756189B2090241F0F001A8F82A108E
:206140002360002840D030323A704FE759780433A1F5805189B2090241F0F001A8F8281093
:2061600033F8021C2360A8F82A10EAE71D49B3F801E00433A1F800E013F8011CA1F5805177
:20618000D8E7B3F801E017490533A1F800E033F802EC2360A1F802E0D3E7487890427FF4CD
:2061A000ADAE114A881C01901160E5E632682B7813449A7802F00F0237E7236813F8012B2F
:2061C0008DF80D202360FBE633F8020B074923600880B8E740BF000044BF0000401F0020F6
:2061E000501F0020601F00206C0F0020661F0020002849D0F0B5078883B0064657B300270C
:206200003D4606E0002F1ADB1FD001370235102D13D073195B78745D03EB0424A4B2002CAB
:20622000F0D0002FC8BF4FF0FF3708DD214618480235FCF761F8102DEBD103B0F0BD002DBE
:20624000F4D03A20FBF794F9F0E71248FCF754F80127DBE74288AAB98388002BCFD1C788F5
:206260007FB9038973B94FF6FF724189914208D1017B427B837BC07B00900748FCF73CF88A
:20628000DBE71F463D46C4E70448FCF735B800BF90BF00008CBF000078BF000068BF0000C6
:2062A0002DE9F04184B0BDF8288003B304461E468E46274694460FC88DE80F0030687168BB
:2062C000B268F3686D46668A0FC7A4F81280BEF1000F04D071466246204603F057FB95E889
:2062E0000F00044D00272F8084E80F00668204B0BDE8F0815C260020074B1A689278920920
:2063000007D1064906480A881860D31E0B80012070470020704700BF44240020241F002029
:206320006B1F002008B50548FCF7CEFE00B908BD0248BDE80840FCF7BDBE00BF38100020A0
:20634000014B1860704700BF4810002010B51446FDF7D0FE18B1024BC4611B68836110BD3B
:206360004809002000B5074B83B08DF80700186828B1054B0DF107021978FDF727F803B0DF
:206380005DF804FB2C260020DF28002008B5022100220448FDF71AF80349044A00230B8074
:2063A000137008BDF4040020241F0020FE1C002030B5304C83B0238833B1B3F5A06F05D928
:2063C0002D4A00231370238003B030BD2B4B1A8B72B95A8B62B99A8B52B9DA8B42B91A8CE1
:2063E00032B95A8C22B99A8C12B9DA8C002AE7D01B7EFF2B1FD000F0A7FD0028E0D001F0AA
:206400008DFC054601F094FC8542D9D01C4D01231C482B70FDF724FAA0B101F07FFC1A49F9
:206420006880684601F0AAFC184B1B68002BC7D068469847C4E7154B1B68002BC0D0002091
:206440009847BDE701F004FD114B98800D4800F1100101F09DFC38B10E4A138801331380CF
:2064600001F05CFC6880ABE7064800F1100101F0B5FCD2E7241F0020FE1C0020381F00209A
:206480009C280020401F0020501F00204810002094280020E21C00202DE9F041038882B094
:2064A0000446DBB140F2C130834211D1022900F0B6803AD8002900F0A68001292ED16AB354
:2064C000694B05201A60FDF7A1FEFFF771FF25E000230320238002B0BDE8F08118466349B0
:2064E00021F833000133142B604AF9D16049614809680370C2F8A010FCF7ACFE5E4B1870FB
:20650000FCF7A8FE5D4B402118705D48FCF7BEFDFDF78EFD00F062F901F0AAFC40F2C13377
:206520000120238002B0BDE8F081872940D08829F4D1534B9A420CD0524B9A42EED11046B5
:20654000FCF7C2FD0028E9D0FDF77CFAFFF730FFE4E710460192FCF7B7FD019A0028EBD040
:20656000DFF83081484E002147460B46474D317005E033780133DBB2072B3370DCD803EB01
:20658000430308EB031393F82530002BF1D03C480192FCF78FFD3378022003EB430307EB57
:2065A00003132B60FDF732FEFFF702FF019AE0E700231F46344E364D337055F8043C9A4224
:2065C00040D0337808350133DBB2132B3370F4D9304B002503F5C070996A30338A4204BF97
:2065E00043F8085C03F80B5C8342F5D12A4B002503F5A070996920338A4208BF23F8105CFE
:206600008342F7D18AE7002A88D0204B03201A60FDF7FCFDFFF7CCFEFFF784FE7EE71F4DFC
:206620002B88002B3FF47AAF1D4B9A79062A14D00120FDF7EBFD2B88002B3FF46FAFFFF76F
:20664000B7FE6BE735F8080C0192FDF7BDFD25F8087C45F8047C019AB3E793F835309B078C
:20666000E6D5FFF75FFEE3E740240020940F002048090020071D0020DE280020DF280020F9
:2066800038100020141F0020051D0020482400209C0F00204C24002060260020241F00200D
:2066A000381F0020F8B51D4B1B68002B32D003F128061B4A127852061CD51A4F00241D8A10
:2066C0003C70194A012105E0152B02F108020C4619D0194632F8080C4B1CA842DBB2F3D1ED
:2066E00052F8040C0028EFD0002386E809003C70FFF718FE306860B10C4B72681978BDE8F7
:20670000F840FCF763BE3970FFF70CFE30680028F2D1F8BD064A16681836CAE748240020F3
:2067200038240020061D00209C0F0020DE280020402400200346F0B548F2FE0585B01A4C5F
:206740000F46684619460023ADF80230ADF80430ADF80630ADF80830ADF80A30ADF80C308C
:20676000ADF80E301646ADF80050FDF715FA94F85530012B01D005B0F0BD6946204600F06D
:206780008DFA05460028F6D0437B43F001034373A3685B68002BEED0394632469847FAF710
:2067A0003DFDA860E7E700BFA427002008B50A4B93F85520012A00D008BD0146184600F0B8
:2067C0006DFA0028F8D04FF6FF72437B828043F00103437308BD00BFA427002010B5134B6D
:2067E00084B000241C6000F06BF904F057FB04F0C3FA40F2FF224FF4D0536846ADF800204E
:20680000ADF80E30ADF80240ADF80440ADF80640ADF80840ADF80A40ADF80C40FDF75AF8C7
:20682000034B20461B68984704B010BDA027002004050020704700BF00230370704700BF2F
:2068400038B50C4690B1054600F026F970B1808C024604B9AC88C4F57F43FF339A4202DD90
:206860004FF6FF7038BD204480B238BD002CF7D0C4F57F434FF40072FF339A421046EFDC92
:20688000F1E700BFF8B50E461546044600F004F9D8B1878CD6B92B029BB2032D05DD013DD9
:2068A0000123AB4004331B029BB2617B8A0712D55A2202FB07F203EB8303094902EB430369
:2068C000A1FB0323C3F34F138384F8BD022EFCD14FF42063E1E741F002016173F4E700BFF5
:2068E0001F85EB51C37CCA7C9A4203D0002B08BF08467047027D0B7D9A4203D001D80846B0
:2069000070477047828B8B8B9A4228BF08467047F8B505460C46076800F0BEF820B3868CDA
