:020000040000FA
:2000000000500020E9000000E1000000C9000000E5000000E5000000E5000000000000002E
:20002000000000000000000000000000E5000000E500000000000000E5000000E50000002C
:20004000E5000000E5000000C9830000E5000000050500005D080000E5000000E50000006C
:20006000E500000029840000E5000000E5000000E5000000E5000000E5000000E500000090
:20008000E5000000E5000000E5000000E5000000E5000000E5000000E5000000E500000038
:2000A000E5000000E5000000E5000000E5000000E5000000E5000000E5000000E500000018
:2000C000E5000000E5000000044B1A68B2F5806F03D01B689B0500D4FEE7704728ED00E094
:2000E000FEE700BFFEE700BF08B505F0EBFC104A104B9A420DD2D0430F4918440B4620F087
:2001000003000430084453F8041B834242F8041BF9D10A480A494FF000028842B8BF40F8AB
:20012000042BFADB00F01CF8FFF7CEFF08BD00BF00000020AE060020D8BA0000B006002014
:200140008B2E002010B50388044613B9034800F083FA00232380032010BD00BF28B5000056
:2001600008B505F0BDFD00F043FC00F005FC00F075F8254800F070FA244800F06DFA2448A0
:2001800000F06AFA05F0B0FD00F04CF900F0B6F801F014FD00F024FA01F02AFC41F23420E8
:2001A00001F03AFE01F0AEFD00211A4801F0DAFC01F0FCF901F074F900F032F9164A174B0F
:2001C0001060012216481A7000F080FC154B186800F042FA144800F079FC144B186800F09C
:2001E0003BFA134800F072FC124B186800F034FA06F0B4F9104801F047F900F0FFF901F011
:2002000011FC00F013FAFAE754B500006CB5000088B5000064040020102400200424002068
:200220009CB500005CB60000A4B50000A4B60000ACB50000CCB6000020B5000010B5064CD9
:20024000042023685B699847236804205B6B98470128F9D110BD00BFB801001038B505F0CE
:200260003FFD0546FFF7EAFF154B4FF4A0601B68DB699847134B0121134A196013689B075C
:20028000FCD5124C124800F071FB23681B20DB6B9847104A23684FF000611160DB6B1A2018
:2002A00098470D4A23684FF080611160DB6B1920984705B138BDBDE8384005F015BD00BF40
:2002C000B80100102820086028200840B40100103804002090200240A020024010B5064CE9
:2002E000042023685B699847236804205B6B98470128F9D110BD00BFB801001038B5194AC0
:2003000000200021C2E90001174B04201B685B6B9847012801D0FFF7E1FF134B00201B6871
:20032000DB699847114B0121114A196013689B07FCD5104A10491368096823F4807323F09E
:2003400001030E4C13600B6820460D49984740F221220C490C4B04253120256008601A60BC
:2003600038BD00BFB0060020B801001028200860282008400C000140C80100100000014083
:20038000002100043C0001400800014010B40949094C0B68226808688342FAD1DB010749DE
:2003A00003EB52620023C1E900235DF8044BD1E900017047082009400C200940B0060020D9
:2003C00010B50B490B4C0B68226808688342FAD1DB01094903EB52620023C1E9002301F0FF
:2003E0003FFA00B910BDBDE8104001F00BBA00BF082009400C200940B006002010B505F05E
:200400006FFC034B1C6808B905F06EFC204610BD08200940704700BF0146012000F04CB809
:2004200005F066BC2DE9F04105F05AFC194F1A4A1A4E1B4901243B68002535600C60146019
:2004400080461B682846232198473B6820461B6824219847134A1449136823F4E02343F48C
:20046000403313600D6005F043FC104B1049114A1B6800F500700860146034601B691420D6
:200480009847B8F1000F01D0BDE8F081BDE8F04105F02ABC84010010A0002443000024432A
:2004A000800024430020094008200940B00100101C200940A0022443431E012B00D970470F
:2004C000C30709D50B4B820719600ED50A480B4B012201601A6003E0830705D5064B196082
:2004E000074B01221A6070477047044B01221A60704700BF182009401C200940800224434E
:20050000A002244370B5FFF78BFF1B4E1B4D0123AB70B060FFF784FF194B186005F0E8FBE0
:200520000446FFF74DFF174B1B685BB104F5007020F4FF70144A154B20F001004FF480714F
:2005400011601860124B1B686BB9AB780B4C4BB1FFF766FF0F4AB568936800215B1B184479
:200560009060A17070BD0C49074B0020012208601A6001F03BFBE8E71024002004240020EF
:20058000B8060020A0002443042009401C20094080002443D023002080022443820702D541
:2005A000034B01221A60C30700D4704705F09CBB000C084008B505F093FB074B1A68012A1C
:2005C00003BF0649022219600022002814BF104642F0010008BD00BF000C084051E5CC1AD3
:2005E00003490448044B012208601A60704700BF00000840FFFF0F00000C084038B5FFF70D
:20060000D9FF064C064D0749074A012325600B601360BDE83840FFF7C1BF00BF000008409B
:20062000FFFF0F000C0008400401004303490448044B012208601A60704700BF0000084067
:20064000FFFF0F000C00084010B50446C0B200F0E5F8204610BD00BF70B506460024451E01
:2006600004E015F8010F00F0D9F8013430460AF029FF8442F5D30A2000F0D0F800F0E2F8B1
:200680000128FBD0204670BD70B50446B0B10078C0B1A9B10025661804E014F8010F38B134
:2006A000B44205D000F0BAF8631C05F10105F4D100F0C8F80128FBD0284670BD0546F7E725
:2006C0000D46F5E70546F3E738B50C4D02202B685B6998472B6802205B6B9847012804465B
:2006E000064BF7D11B684FF40070DB699847044B044A1C6013689B07FCD538BDB8010010C3
:2007000028200860282008402DE9F04340F2F275DFF8DC8083B0FFF7D7FFD8F800302A4E0D
:20072000DB682A4898473368294C5B69152098472368DFF8C090274F23F4FE63D9F80020AC
:2007400023F0020323603D60D36B022098472249D9F800204FF0FF33042008600093D2F86C
:2007600040C01A4801210222E047D8F800301748D3F804C019494FF4E1326023E04740F228
:20078000011240F2013E1649164B142008601968154841F01001196003681449002B0CBF22
:2007A000134673460B603D60036853B12368326843F0500323601369152003B0BDE8F04346
:2007C000184703B0BDE8F083B001001000100040381000404410004090200240006CDC0286
:2007E000341000402C100040BC06002030100040D0010010B401001008B5064B02201B683E
:200800005B6B9847012803BF034B186800F00100002008BDB80100106C20084010B50446F8
:20082000FFF7EAFF08B9FFF76FFF044B2146BDE810401B680248DB69184700BFD0010010F9
:200840000010004008B5FFF7D7FF18B1024B1868C0F3C00008BD00BF18100040F8B5FFF727
:20086000DFFD174F174E0123B370B860FFF72CFF40F2F271144B154A1B68116013F0500FA8
:200880000CD0134C134D05E02B681B699847124B1B688BB923681148DB06F5D5B378094CAF
:2008A0004BB1FFF7BDFD0E4ABD68936800215B1B18449060A170F8BDC0B29847EAE700BF8A
:2008C0001024002004240020401000404410004018100040D0010010BC06002000100040DD
:2008E000D02300202DE9F041FFF79AFD1A4C024623783BBB194D1A4F0123396802206A6052
:20090000637000F003FE174ADFF850801368124E23F00403136030BF022000F0D9FD386034
:20092000FFF77EFD637843B10F4AD8F8047053680021DB1B034453607170012328602370EE
:20094000BDE8F0810849054D0B682E6800209B1B13440B602070CEE704240020102400205C
:20096000C406002010ED00E0D02300200146014801F0EAB9C006002010B5054801F0D4F9C3
:20098000BDE81040034B02201B6820211B681847C00600208401001008B520B9064B0120C9
:2009A0001B685B689847044B40201B685B689847024B00221A6008BDA00100100002224378
:2009C00038B50A4C05F0ECF9236801209B689847236805461B6801209847236801209B6864
:2009E00098471128F9D1284638BD00BFA001001030B583B0FFF7E4FF0446042005F0BAF93B
:200A0000032813D00420032105F084F9042005F0B1F903280346F9D1074A0848126800935F
:200A2000556800214FF040521C23A847204603B0BDE83040FFF7B0BFA401001000A00C40A5
:200A400010B5FFF7BDFF0446012005F093F9012803D00320012105F05DF92046BDE810404C
:200A6000FFF79ABF10B5FFF7ABFF0446012005F081F9012802D0044B9B6B98472046BDE8AE
:200A80001040FFF789BF00BF4800001010B5FFF797FF00210446032005F03CF9012005F092
:200AA00069F910B1034B9B6B98472046BDE81040FFF772BF480000100AB90020704708B5AF
:200AC00008461146FFF7E0FD002008BD0FB400B583B004AB53F8041B04481A46019300F0C5
:200AE00025F803B05DF804EB04B070474C040020102970B50C46054602D80AE0102C0BD928
:200B00002B686868084910229847103C0028F5D070BD08460029FBD022462B686868024952
:200B2000BDE87040184700BFFCB500002DE9F04F82460F468FB007924FF0000B3B78002B1F
:200B400000F0E880252B08BF3E461BD03C4602E0252B04D014466378621C002BF8D19742AF
:200B600016460CD0D51B39462A46DAF80030DAF804009847002840F079826378AB44002B5F
:200B800000F0C88073780136002B00F0C38019460025A1F12003102B1BD8DFE803F0171A4B
:200BA0001A141A1A1A1A1A1A1A111A0E1A1A090045F0100516F8011FEBE745F00105F9E776
:200BC00045F00605F6E745F00805F3E745F00205F0E7A1F13102082A0B46374600F2DC80B6
:200BE000A1F13002092A4FF000040AD804EB840403EB440417F8013F303CA3F13002092A78
:200C0000F4D92E2B00F0D1804FF0FF366C2B00F03D81682B00F04281782B00F28180DFE811
:200C200013F079007F007F007F007F007F007F007F007F007F007F007F007F007F007F0046
:200C40007F007F007F007F007F007F007F007F007F007F007F007F007F007F007F007F00A4
:200C60007F007F007F007F007F007F00BE027F007F007F007F007F007F007F007F007F0043
:200C80007F007F007F007F007F007F007F007F007F007F007F007F007F007F007F007F0064
:200CA0007F007F00BB027F007F007F00B802B502B2027F007F007F007F007F007F007F005E
:200CC0007F007F007F007F007F007F007F007F007F00AF027F007F007F007F007F007F00F2
:200CE0007F007F00AC027F00A902A602A302A0029D027F00A6027F007F007F007F009A02D1
:200D000097027D007F007F0091027F008E027F007F00940258460FB0BDE8F08F45F440751A
:200D200005F4E063B3F5806F07F1010700F0CE804FD9B3F5C06F00F0A581B3F5E06F00F0A6
:200D40009A81B3F5A06F7FF4F9AE079B012C1A6803F1040307938CBF04F1FF340024EB0738
:200D60008DF8202000F1D08150462146FFF7C0FE002840F07B81DAF80030DAF8040008A9DE
:200D800001229847002840F071810BF1010C0CEB040505EB040BD1E62A2900F08C800B46A8
:200DA0002E2B4FF000047FF42FAF7B78791CA3F13002092A7AD80F46002606EB860603EB8D
:200DC000460617F8013F303EA3F13002092AF4D91CE7B3F5807F00F0B080B3F5407F7FF4A0
:200DE000ADAE079BC34A1968C34815F4804F03F1040308BF9046079318BF80460A46002343
:200E0000002900F094810DF133094846110941EA03714FEA131E02F00F0673460A4618F899
:200E2000061000F8011D52EA0301EFD1B9EB0006034600F07E810336B4424FF030024FF0C5
:200E400078014FF0230300F8022C8CBFA41B0024EA0700F8011C00F8033CA0F1030800F196
:200E6000A18150462146FFF743FE002840F0FE804146DAF80030DAF8040032469847002868
:200E800040F0F4805E4406EB040B57E67B786C2B00F00481013745F06005BDE67B78682BD5
:200EA00000F09381013745F04005B5E62A2B00F091810F46A8E6079B771C1C680433002C8B
:200EC0000793B8BF45F0010573789AE6079BD3F8009004330793B9F1000F00F08F8299F842
:200EE0000030002B00F0B2824B4613F8012F002AFBD1C9EB0308002E02DBB04528BFB04615
:200F000044458CBFC8EB04040024E90700F1E08050462146FFF7ECFD002840F0A7804946F3
:200F2000DAF80030DAF8040042469847002840F09D80D84408EB040B00E6002EABBF25F04C
:200F4000100501230196019315F40053049305F0E00300F0A880402B00F07F8200F241813A
:200F6000002B00F02D82202B40F05A82079B1A1D079293F90020D317002A73F10001C0F207
:200F80002A82CDE902230023059305F4C053B3F5805F00F09281B3F5C05F00F0BF81B3F5DA
:200FA000006F00F067810DF136064FF00008019B41F20802984541F6080303EA050380F00C
:200FC000338101999342C8EB0101019100F0468141F6080201999342414400F031814FF0DA
:200FE00000094A46049B73B1059B002B40F0838105F00603022B00F01B824048062B04BF62
:2010000002464FF0010909EB01039C428CBFE41A002415F00103049306D1E80640F1F681EF
:20102000019B2344049C0193B9F1000F07D01146DAF80030DAF804004A469847B0B9019B46
:2010400008EB0B05102B40F291819B4603E0BBF1100F40F28E81DAF80030DAF804002849F5
:2010600010229847ABF1100B0028F0D04FF0FF300FB0BDE8F08F079B1A680433C2F800B0AA
:2010800007935BE5DAF80030DAF804001D49012298470028EAD10BF1010B4FE5BB7845F0AF
:2010A00080050237B8E5402B00F0C68100F2A980002B00F09881202B40F02181079B049A87
:2010C00005921A1D07921A780023CDE902235CE74946DAF80030DAF80400424698470028E0
:2010E000C4D150462146D844FFF702FD00283FF421AFBBE7C8B50000B4B50000ECB50000F9
:201100000CB60000F8B50000DAF80030DAF8040008A9012298470028A8D1504621460BF13B
:201120000105FFF7E5FC00283FF433AE9EE70DF13303302203F8012C581E04267CE645F428
:201140001065EDE545F48065EAE545F4C855E7E545F48855E4E545F4E065E1E545F4813527
:20116000DEE545F40075DBE545F40245D8E545F42455D5E545F4A065D2E545F4C135CFE5BD
:2011800045F4B245CCE545F4A135C9E545F48445C6E545F44245C3E545F4E135C0E545F46F
:2011A000C065BDE54146DAF80030DAF804003246984700287FF45AAF504621465E44FFF779
:2011C00097FC00283FF45FAE50E7BB7845F02005023721E5079ABB78111D079116680237C0
:2011E00014E5602B00F0EC80802B40F01981079B073323F0070303F108020792D3E900232B
:20120000BAE6602B00F0EF80802B78D1049B0593079B073323F0070303F108020792D3E9CD
:201220000023CDE90223B0E6934200F0EC800022019241F608020199934241447FF4CFAE0F
:20124000DDE9022313433FF4CAAE874B15F4804F864A4FF0020908BF1A46C3E60B46002994
:2012600008BF01230193019B4FF000094A4603EB0801B7E6DDE9028942464B46134300F037
:20128000E7800DF136031E460693404649460A22002309F0BDFC30324046494606F8012DFA
:2012A00000230A2209F0B4FC8046894658EA0903EBD1069BC6EB030879E6DDE9022313439A
:2012C00000F0C6800DF1360306939E46DDE90223D00840EA4370DE0802F0070133460246E3
:2012E00030310EF8011D52EA0301F1D1069B7646CEEB03085BE64FF001095D4A83E605F4B3
:20130000C053002200200021B3F5805F0592CDE90201D2D0B3F5C05F40F08580DDE9020119
:20132000544A554B15F4804F14BF9046984602460B46134300F08C800DF1360306931E46F1
:2013400002460B46110941EA03714FEA131E02F00F0073460A4618F8001006F8011D52EA4F
:201360000301EFD1069BC6EB030820E6019B9B464BB15A46DAF80030DAF804003F499847EE
:2013800000287FF473AE31464246DAF80030DAF804004D44984700287FF468AE019B2B448E
:2013A0001E46049B002B3FF46EAD50462146FFF79FFB00287FF45AAE06EB040BFFF7BEBB12
:2013C000079B1A6804330793002A4FEAE27373F10001BFF6D6AD524263EB4303CDE90223C0
:2013E00001230593D1E5049A079B05921A680021104604330793CDE90201C6E5DFF884908B
:201400004FF0060877E5012301932CE7504621460292FFF76DFB029A00283FF405AE25E6B4
:2014200000220023ADE5DDF814800DF13606BEE5134A4FF00109E6E5079B049A05921A1D10
:2014400007921A880023CDE902239EE5984652E54FF000080DF13606A9E5079B1A1D07923A
:20146000B3F90020D31787E5E0B50000DCB50000E4B50000B4B50000C8B500000CB60000E3
:20148000E8B50000F0B5000010B50446006830B1002100F067FB54F8040F0028F8D110BD22
:2014A000084B0948094910B4002203F1300443F8042BA34240F8042B01F8012BF7D15DF830
:2014C000044B704710240020D02300200424002038B50B4B1B5C1BB90A4B53F8200038BD14
:2014E0000446FEF79DFF074A074952F8243051F8245041F824005B1B184442F8240038BD93
:2015000004240020D023002010240020014B43F820107047D0230020F0B5038883B00546ED
:201520005BB14A2B04D188291BD0012003B0F0BD00230380032003B0F0BD194800F0F8FBCB
:20154000044630B1201DA16800F062F92468002CF8D1144B01221A704A2301202B8003B056
:20156000F0BD0F48019200F0E3FB04460028F3D0019A031D9A4205D02468231D002CEBD0B2
:201580009A42F9D10648214600F022FC064E6269A369376832600BB1E06998473760DBE749
:2015A000C8060020B0230020E006002010B5064B002406481C7000F0B7FB2146BDE8104032
:2015C000034800F0CFBA00BFB0230020C80600205404002070B504460D48049D0078A2614F
:2015E000E361656130B9A1600A482146BDE8704000F0AABB084D094B2E68201D2B6000F09D
:2016000007F92E602146BDE87040024800F09CBBB0230020C8060020E00600205404002090
:2016200010B5044C82B024680094FFF7D3FF02B010BD00BFE006002070B5094B04461B78E1
:201640003BB1084D084B2E6804302B6000F0EAF82E602146BDE87040044800F075BB00BF5A
:20166000B0230020E006002054040020C806002010B50A4B04461B783BB9C3600361214632
:20168000BDE81040064800F0A3BB043000F0F0F82146BDE81040024800F09ABBB0230020CF
:2016A000C806002010B50E4C2368B3B1FEF76EFE22685168136892681944091A4AB192E820
:2016C000180023441B1A9268994228BF1946002AF5D1044B0844186010BD024A136010BDDF
:2016E000CC060020D00600202DE9F041038805467BB1592B08D1872912D0822920D05923B3
:201700002B800120BDE8F081002303800320BDE8F081254A0120136059232B80BDE8F081C8
:20172000214F3B68002BEAD0D9688A4203D024E0D9688A4220D19B68002BF9D13B60DEE777
:20174000194F4FF000083C68002CD8D0002604E0A3682646002BD2D01C46204600F06EFAF4
:201760000028F5D0E0688821224600F0C7F978B10E4800F017FAEBE73B6099680029BED0CE
:20178000C86882420BBF89680B4699608968F5E7E060A3682EB1B360C4F80880FFF782FF8B
:2017A000D1E73B60F8E700BFCC0600206404002010B50446104800F0F5F91049E3680A6863
:2017C0004BB142B194420FD0134601E09C420BD09B68002BFAD10A4BA2601B680C60E360F0
:2017E000BDE81040FFF75EBF054B1B68E360BDE81040FFF757BF00BF64040020CC06002091
:20180000E0060020014800F0CDB900BF6404002010B5044600F0FEF92046BDE81040FFF775
:20182000C7BF00BF10B5044600F0FCF92046BDE81040FFF7BDBF00BF10B5044600F0F8F9F3
:201840002046BDE81040FFF7B3BF00BFC068B0FA80F04009704700BF05C81044704700BF6E
:20186000024B1868003018BF01207047CC06002010B5114B04461A68904218D05AB193681D
:20188000834208BF13460AD02BB19A68A24206D01346002BF9D10023A360E36010BDA26863
:2018A0009A60FFF7FFFE0023A360E36010BD82681A60FFF7F7FEEEE7CC0600202DE9F8439E
:2018C000DFF8A480274DD8F800702E68874247D077B33B4601E0002B3BD01B689842FAD1F9
:2018E00033B3837B8946044623B3002383736FB1BC424FF0870106D0BB7BDB0703D53846D3
:20190000224600F033F83F68002FF1D1A3683BB14C4505D02C6004F10C008321002298471D
:20192000D8F80000844208D12368C8F800302E60BDE8F88338468442F6D00028F7D00368AB
:20194000A34208D0002BF2D01A68A24204D01346F8E7BDE8F883034622681A602E60E7E7A2
:201960003B46BDE7E0060020E406002070B586687EB104460A4802230460A37304F10C00B4
:201980000D46B0470238012804D9832D02D00123A37370BD20462146BDE87040FFF78EBF6F
:2019A000E006002070B50C4A0C4B146800251D7084B1012601E0246864B1E37B002BFAD0F0
:2019C000A673E573204682210022FFF7CFFF2468002CF2D170BD00BFE4060020B323002040
:2019E000024B1878421C1A70704700BFB623002070B407480749084A0023084D084C8A2622
:201A000003700B6013602E70237070BC704700BFB2230020E4060020E0060020B6230020A4
:201A2000B12300202DE9F8432B4D2B780BB1FFF7B9FF2A4E33781BB3DFF8B4E028499EF879
:201A40000040013B04EB4402920088180134895CDFF8A0C04268DFF8A0808068214FDBB2CC
:201A600004F01F0433708EF80040CCF80000C8F80020397088B1812906D0847BE40705D41D
:201A800028781844BDE8F88301238373FFF76EFF337828781844BDE8F883134A134C1268B0
:201AA0002260002AECD0A1460AE020683978837BD8F80020DB0709D403682360002BE7D037
:201AC0002B78002BF1D0FFF76DFFEEE7FFF74EFFD9F80000F0E700BFB3230020B2230020AB
:201AE000E8060020B4230020E4060020DC060020B1230020D4060020D8060020F0B50F4EE7
:201B00003478202C17D00E4BDFF838E01B78DFF838C0234403F01F0303EB4305AD000EEBE4
:201B200005070134B86034707A608CF800300EF805100020F0BD0120F0BD00BFB2230020B0
:201B4000B1230020E8060020B523002038B5837B034CDB07256801D5FFF708FF256038BD95
:201B6000E006002070B404460D4D2868A04206D038B1034600E023B11B689C42FBD170BC10
:201B80007047002CFBD0012600232060A673A3810A4620462C60812170BCFFF7D7BF00BF35
:201BA000E406002038B1837B013B012B03D8024A01231370C3737047B3230020FEF72ABC40
:201BC00038B5094C049D226822B180E82A002060002038BD024680E82A0008462260FEF7FF
:201BE0001BFC002038BD00BF6808002010B5084C206858B10022436881682260984723681E
:201C000023B1BDE810401868FEF706BC10BD00BF6808002010B541600446FEF7B7FB2060D1
:201C200010BD00BF90E80C0013440360704700BF10B50446FEF7AAFB206010BD10B504465F
:201C4000FEF7A4FB23686268C3F10103184482422CBF0020012010BDF8B5048805466E2CAC
:201C60000CD0802C1BD01CB1002303800320F8BDFFF7B6FE1E4A1F4B10701C601D4C264659
:201C800004E00A2813D023687E2B2BDD1A4800F0D3F8431CF5D16E232B800120F8BD85290D
:201CA00001D00120F8BD134C00232360E6E7114C124F23680E49002603F1010E3A460978E1
:201CC0003046FE54C4F800E0FFF718FF0C4B324618688521FFF712FF0028E5D180232B806B
:201CE0000120F8BD05495A1CC8543260CEE700BF882E002074090020EC080020F408002085
:201D0000E006002008B505480549802200F08CF8BDE8084003480021FFF724BFEC08002009
:201D20006C0800207404002000230360704700BF00687047006808B904E018460368002B5B
:201D4000FBD17047704700BF026842B1914203D11BE099420ED01A461368002BF9D10023DF
:201D60000B6002680AB90EE01A461368002BFBD1116070470B68136000230B6000230B60E1
:201D80000268002AF1D1016070470B680360F3E710B404684CB1A14217D0224602E0994209
:201DA00008D01A461368002BF9D10C6001605DF8044B70470C460B68136000232360046809
:201DC0000C6001605DF8044B70470B680360F4E7026842B18A4203D10BE0994204D01A4633
:201DE0001368002BF9D170471968116000221A607047134612680260F8E700BF03682BB15D
:201E000000201B680130002BFBD170471846704700B10068704700BF09F02ABB08B509F008
:201E200031FB80B208BD00BF0023013A0160027143718371704700BF0346807959791A79C9
:201E4000091A114208D010B4411C1C680A40205C9A715DF8044B70474FF0FF30704700BF7F
:201E600008B5064801F04CF8054BAA2201200021187059709A70DA7008BD00BFA5270000CF
:201E80009009002010B5114C0220A17904F03CFBA379112B0FD0062B0DD03A2B05BF94F806
:201EA000281094F82930002143EA01210120BDE8104004F029BB238D618D01209942A8BFA6
:201EC0001946BDE8104004F01FBB00BF3827002070B413780D7A83F002039D42044614D0E7
:201EE0000B891BB94B89B3F57F4F2FD01E4A51F8085F13684E68012003F10801A0405E602C
:201F00001D601160C0B270BC7047487A53789842E6D1887A93789842E2D1C87AD37898425F
:201F2000DED1087B13799842DAD1487B53799842D6D1887B93799842D2D1D379CA7B9A4255
:201F4000CED1032303FA04F0C0B2DCE78B89FE2BCCD1054DC9892A68022322F8021B03FA2D
:201F600004F02A60C0B2CEE78009002010B5084C2378012B01D0002010BD01460822A01C48
:201F800009F01CF900280CBF2046002010BD00BF9009002008B50146102004F0C3FA044B41
:201FA00004489B6800219847BDE80840FEF73EBBF4B60000B91F000010B50C4611462046A1
:201FC00008F014FD044B1B6813B19B6820469847024B1C6010BD00BF8C0D0020A009002043
:201FE0002DE9F04715090F2D07469A4602F00F043FD00F2C34D0A146A84666195DBB0F2E11
:2020000003DD5CB9E5B9BDE8F08707EB0800C6F11002002109F0DEF9002CF3D0DFF87480A3
:20202000C9F11000D8F8006038443146224609F0F7F8022C26D03444C8F80040BDE8F087AB
:2020400038465146BDE8F04706F014BF454620264FF010094C462A46384609F0E1F8CEE796
:20206000A84605F11006002DF2D14FF010094C46D4E70F2C4FF01008E8D042464546A1468D
:20208000A618E9E70A2DD6D8FF22FE23FA723B73D1E700BF800900202DE9F04FDFF8FC82A7
:2020A000AC4D8BB0002488F800402C7004F06EF9A94E3060042004F02FFAA84B02B2A848B2
:2020C0001A60FFF7BBFD38BBA64F33681A785C7802F0F801C02944EA022454D0E02920D0AA
:2020E00000239B461C46A04A3B8013800193029395F800E0BEF1050F00F0C680326812F80F
:202100000E3003F0E001602900F07681412B00F047810BB0BDE8F08F934B924F1C803C8023
:20212000D3E72A7893F80290D97805322A7093F804B0B7F800A041EA092904F03BF92A784F
:202140005044801AC4F30A04A0423B88B4BF002201220292002B00F0E08000230193002C3D
:20216000D7D0814B1B88A342D3D1804B1B884B45CFD10F2004F0E2F901467D4804F0FAF931
:202180000028B5D1C5E72A7893F80290D9783888131DC4F30A042B7041EA0929DFF8C4A1EC
:2021A000002840F0C1808346631E012202909BB20192B3F57A7F9BD2012301936A4A6B4B77
:2021C0004FF4806166481480A3F80090FFF722FD0F2004F0B3F90146654804F0C5F987E776
:2021E0000793644A0F20D25CCDF818C0059204F0A5F9059A034607995F48FFF7F1FEDDF88B
:2022000018C00AF0080303F0FF020AF0030E002B00F090811AF0040F14D1584A0EF1FF33E1
:202220001288012BADF8242040F28882544B554813F80E2009A90023CDF80CC0FFF7D0FE14
:20224000DDF80CC098F8002002F1280388F80030049B002B40F09281DCF800303268DFF8DD
:20226000F4A09B1A2B70002C00F00282A4F128031A1289F8053089F8042099F80630424A40
:20228000112B01D19388938504F094F82B78314D83423FF63EAF04F08DF82A784FEACB0353
:2022A00098F800509BB2C2EB00082B44374808EB0301B1F57A7FC0F800803FF62AAF3168D9
:2022C000314811441844424608F0AAFF002C00F0B581019B13B13B881D443D80029B002B50
:2022E00000F00182204E3C803588AC427FF411AF274C25492A46274808F092FF2649226821
:2023000000230D8033803B8022B1FFF7BBFD23685B68984700F00EFEFBE6621EB2F57A7FF4
:20232000FFF4F7AE0193E3E60F2004F007F901460F4804F01FF9002800F0C080BAF80030A1
:20234000002B00F00B824FF0000B0123CDF808B0019304E7B82300209C0900207C09002006
:2023600084090020A22300209E2300209C2300204024002068B60000AC09002048B6000096
:2023800058B60000BC090020A4090020780900208C0D00203827002024270020B72300203F
:2023A0000EF1010C5FFA8CFC94440CF12003DFF8ECA30393D146DCF80C30DCF80000DCF86D
:2023C0000410DCF808200CF1100CA9E80F00039B0AF1100A9C45EDD198F80030DCF800004E
:2023E000DCF804100EF1290E2833AAE8030085F800E088F8003047E702EB0E0191F801A06E
:20240000DFF89CC34FFA8AF10EF1020E72440029CCF80020B8BF01320391B8BFCCF8002057
:20242000D90656D503F0080202F0FF0E002A40F02E81DCF80020DFF8649311461278C2F335
:20244000830242F0600289F8002011F8010BA9F802E0820802F0300242EA8012CCF80010EA
:2024600089F8012003F0040202F0FF0104913AB9DCF8002012F8011B89F80610CCF80020B2
:2024800013F003034DD0BC4AD35C89F807301AF0400FCAF3011300F0DA80039A002AC0F23C
:2024A0001C810022002B3FF49BAEB4490878012800F03481B24B00221A60E5E6B14A631E8B
:2024C0001080012283460290AAF800009BB201926FE61A0700F1E680DCF80020DFF8BC9286
:2024E000964632F8011F9278A9F8011089F803201EF8040B99F80110820801F00F0104916F
:2025000002F0300141EA8010049902F00F0242F060020843CCF800E089F8002089F8010097
:20252000A0E7DCF8003013F8012B89F80720CCF80030ACE71AF0040F00F0DF80039B002B75
:20254000C0F2F5808D490B78012BB3D14B789342B0D18B4A8C4B102013F80EA0CDF814C004
:202560001160039103F0EAFF03990346524602318648FFF735FDDDF814C063E6DCF80030DE
:20258000197801F0F801F0297FF468AE112189F80610197801F0F300F03801F00401C9B247
:2025A00003283FF671AEDFE800F03D332202587802330009A0F5756080B2000240F0F00085
:2025C000A9F8280013F8010C00F00F00A0F5756080B2000240F0F000A9F82A00CCF800309E
:2025E000002900F0B480303288F8002036E658780433A0F5805080B2000240F0F000A9F80F
:20260000280033F8020CCCF80030A9F82A00E7E7B3F801000433A9F8280013F8010CA0F573
:202620008050D5E7B3F801000533A9F8280033F8020CCCF80030A9F82A00D1E74544514E89
:202640003C88ADB23580002C7FF44FAE50E6504A0F20D25CCDF818C0059203F06FFF059AA5
:2026600003464C494C48FFF7BBFCDDF818C0C8E503F0A0FE9AF8002098F80030801A0344FD
:20268000283B1A1289F8053089F80420F5E5DFF80C910022602189F8001089F80120A9F88B
:2026A0000220DFE6DCF80010DFF8F0900846602289F8002010F8012B03314FEA920E0EF048
:2026C000300E02F00F024EEA020289F801200288CCF80010A9F80220C4E62A7831680A4487
:2026E00092781209DEE63C88264E4444A4B23C803588002C7FF4F9ADFAE5254B102013F893
:202700000EA0CDF80CC003F019FF5246034621491E48FFF765FCDDF80CC093E548789042BC
:202720007FF4C8AE164A881C0790116059E532682B7813449A7802F00F0203E7DCF80030CF
:2027400013F8012B8DF82520CCF800306EE533F8021BA9F82E10CCF8003044E7621EB2F5C4
:202760007A7F04D20122029301929B4626E59B4602930123D6E500BF4CB600009009002084
:202780008C0900209E23002068B60000BC09002050B6000054B60000AC090020A4090020EE
:2027A000800900202DE9F04FB04FDFF8F0B2002387B03B708BF80030044603F031FE03F08C
:2027C000E5FDAB4D04212860092003F09DFEA94B1B680BB1FFF756FB04A80190002C00F0E8
:2027E0009D82214603F0C0FEA34B1B883E2B33D99BF80080D5F80090002308F102089F4E19
:2028000009F808309E4809F102033360FFF7AEFB002800F0098109F1030333604FF0800A6A
:20282000984C62782178130943EA0113DBB2980840EA8313DBB210075FFA83FE61D160885F
:2028400000285ED1080740F0F78012F0F00F40F0F3807823029362E08A4C9BF80080A44682
:202860002B6808F10106F6B241221E441A7004F12009E646BEE80F00CE4530607160B26049
:20288000F3600CF1100C06F11006F2D1BCE80300306071603B7808F1290828338BF80080B9
:2028A0003B700199102003F03DFE774B724E1B689847714B00283F781B889BF80090ACBFC5
:2028C000C0F17D084FF06808A3EB0702C9EB0801B8BF15208A42DFF894A140F3B48002933F
:2028E000C0F178031F46039303F074FA029B93FBF7F301338342C0F2D380002007B0BDE8C1
:20290000F08F090702D112F0F00F7FD0326820681346106003F804EB336060230293A37969
:20292000112B00F0FF81326802F8013BE3793260402B00F0FF81FF2B00F01D82012B60D03D
:20294000326802F8013B326023894E4A3BB953892BB993891BB9D389002B00F041824B4860
:20296000FFF704FB4A4B1860002800F07581427819F80830042043EA021309F80830434919
:20298000444AFFF7A5FA60F03F005FFA80FA237E3C49FF2B00F08C8101F118000391FFF7D1
:2029A000E5FA3B4A03991060002800F0C881437819F808201831134309F808300020019ABF
:2029C000FFF786FA4AF0040A5FFA8AFA4AEA0000D6F800E05FFA80FCA3792822112B3A7059
:2029E000284900F00C812B689BF800209DF80800C3EB0E0E991898548BF800E081F801C002
:202A00004FE7029B43F0010302939DE7316823F03F031343204A0B701288CB1C33606823CB
:202A2000A1F8012002937AE71848FFF79FFA00287FF4F1AE8246F3E63368702203F801EB08
:202A4000029233606BE72868E119484408F0E8FB30884844C01B80B203F092FC0198FFF7AB
:202A600099FA012007B0BDE8F08F00BFB72300209C0900208C0D002024270020800900207C
:202A8000502700203827002090B60000402700208C090020302700203A270020B8230020AB
:202AA000C24BD5F800901F7849463A4609F1040008F02CFC3288DFF818E36FEA82426FEAE6
:202AC0009242C2F3072289F800203088BEF800200437FBB202F1010CC3EB080889F80100ED
:202AE00089F80320100A9AF80010B04A28F00708AF4F89F80200214409EB0300137042466D
:202B0000AEF800C00293C7F8008008F089FB029B08EB030080B203F033FC03F061F9814604
:202B200000283FF4EAAE0198FFF734FADFF8A482484603F0A3F9484603F08AF9D8F80030C7
:202B4000012B3FF4DAAE043B012B7FF6D6AE3388984A6FEAC3436FEAD3431268C3F3072365
:202B60009AF800A013703B680399534436881FFA83FA8E4B21F00700052156703860197078
:202B800032E02868D7F8009003469BF800604A45304483F804E002DA9146854B1A604A4609
:202BA00008F03EFB09EB060080B203F0E9FB03F017F9064600283FF4A0AE0198FFF7EAF977
:202BC000304603F05BF9304603F042F93B68D8F800209A44012AA2F104031FFA8AFA3FF48E
:202BE0008CAE012B7FF689AE734B04EB0A011B884FEADA0E9A45CAEB0302C2D331E74FF2C0
:202C0000B0020B8D5BBA9BB223F00F0080B290424A8D52BA92B200F0B38002F47F42B2F53A
:202C2000704F00F0398103F47F43B3F5704F00F0FD80624BF0228EF8002018680EF10503B2
:202C4000CEF801009E465E4B30221B883A702EF8023BC6F800E0C6E648F2FE03228959494C
:202C60009A420FD14B8B6BB98B8B5BB9CB8B4BB908310420544AFFF72BF940EA0A005FFA78
:202C800080FA84E6D6F800C0DFF84CE10CF110033360BEE80F00CCF80410CCF80000CCF806
:202CA0000820CCF80C30237E4649FF2B7FF474AE91F819804AF0080CB8F1020F5FFA8CFCF2
:202CC0004B8B00F0C180002B42D18B8B002B3FD1E38B3C48002B3BD1038C33B9438C23B90F
:202CE00090F82430002B00F0E580228C354B7ABB93F8222062BB31684AF0090C0A4602F8F9
:202D0000018B53F8230F01F1060EC1F801001B795FFA8CFC1371C6F800E05DE62B4903F0A9
:202D200023FC61E5029B43F004030293E379402B7FF401AE029B43F00203029304E648F24B
:202D4000FE030A8B9A4202D14B8B002B5DD0D446D6F80090DFF8848009F1100EB8E80F00E6
:202D6000C6F800E0C9F80000C9F80410C9F80820C9F80C3030E6029B43F003030293E3E5F0
:202D800022F00F0880457FF448AFF3238EF800304B8D0A8D1B0A120A03EB021303F5AA6357
:202DA0008EF801300EF102034CE700BFB8230020780900209C0900202427002060270020F3
:202DC00066270020382700203027002088B60000A0230020A0090020402700205027002048
:202DE000138A002B7FF4BBAD538A002B7FF4B7AD938A002B7FF4B3ADD38A002B7FF4AFADDF
:202E00004AF0400A5FFA8AFAC1E58B8B002B9ED1CB8B002B9BD11831019AFFF759F840EAB9
:202E20000A005FFA80FCD6F800E0D5E5F2238EF80030238D294A1B0A8EF8013012880EF1E8
:202E40000403AEF80220FDE6002B81D18B8B002B7FF47EAFCB8B002B7FF43AAF0B8C002BC3
:202E60007FF436AF4B8C002B7FF432AF8B8C002B7FF42EAF91F82630002B7FF429AFD6F8EF
:202E800000E091F827304AF00B0C0EF8013B5FFA8CFCC6F800E09FE5F122114B8EF80020C7
:202EA0001A880EF10403AEF80120628D120A8EF80320C7E632684AF00A0C134603F8018B78
:202EC00030F8251F02F1040E80785FFA8CFCA2F80110C6F800E098707EE500BF622700208C
:202EE0006027002008B50548FEF7B0FC00B908BD0248BDE80840FEF79FBC00BF340E00205A
:202F0000014B1860704700BF440E002000B5074B83B08DF80700186828B1054B0DF107028F
:202F20001978FEF713FE03B05DF804FB142D00208A2E002008B5022100220448FEF706FE73
:202F40000349044A00230B80137008BD8404002024270020CB23002070B52C4C2388002B4D
:202F600035D0B3F5A06F2DD8294B1A8B6AB95A8B5AB99A8B4AB9DA8B3AB91A8C2AB95A8C6D
:202F80001AB99A8C0AB9DA8CE2B11B7EFF2B1FD0204805F0B5FD10BB1E4806F069F80646E7
:202FA00008B306F04DF8054618B3284601F026FB40B9284607F0E6FC98B107F0DBFC164BCD
:202FC0001B6853B9154A00231370238070BD70BD114B1B68002BF5D000209847F2E70D4D5F
:202FE000E3E7208070BD06F0EFF905460028DCD1E8E7F36923B11B6A93F8940000F022FA8D
:203000003046BDE8704006F06FB800BF242700203827002050270020440E0020CB23002008
:203020002DE9F041038882B00446DBB140F23630834211D1022900F0B48038D8002900F0FF
:20304000A48001292CD15AB3684B05201A6006F075FBFFF781FF23E000230320238002B04C
:20306000BDE8F0811846624921F833000133142B5F4AF9D15F49604809680370C2F8A01061
:20308000FEF7AEFC5D4B1870FEF7AAFC5C4B402118705C48FEF7BCFB06F0CCFA01F034FC09
:2030A00040F236330120238002B0BDE8F081872940D08829F4D1534B9A420CD0524B9A42E4
:2030C000EED11046FEF7C2FB0028E9D005F028FEFFF742FFE4E710460192FEF7B7FB019A00
:2030E0000028EBD0DFF83081484E002147460B46474D317005E033780133DBB2072B337075
:20310000DCD803EB430308EB031393F82530002BF1D03C480192FEF78FFB3378022003EBA1
:20312000430307EB03132B6006F008FBFFF714FF019AE0E700231F46344E364D337055F8D5
:20314000043C9A4240D0337808350133DBB2132B3370F4D9304B002503F5C070996A3033BE
:203160008A4204BF43F8085C03F80B5C8342F5D12A4B002503F5A070996920338A4208BFAA
:2031800023F8105C8342F7D18AE7002A88D0204B03201A6006F0D2FAFFF7DEFEFFF7A2FEF6
:2031A0007EE71F4D2B88002B3FF47AAF1D4B9A79062A14D0012006F0C1FA2B88002B3FF492
:2031C0006FAFFFF7C9FE6BE735F8080C019206F093FA25F8087C45F8047C019AB3E793F84D
:2031E00035309B07E6D5FFF77DFEE3E7282B0020900D0020E0060020BA230020892E0020C8
:203200008A2E0020340E002014270020B9230020302B0020980D0020342B0020482D0020C9
:203220002427002038270020F8B51D4B1B68002B32D003F128061B4A127852061CD51A4F1C
:2032400000241D8A3C70194A012105E0152B02F108020C4619D0194632F8080C4B1CA84227
:20326000DBB2F3D152F8040C0028EFD0002386E809003C70FFF736FE306860B10C4B726872
:203280001978BDE8F840FEF761BC3970FFF72AFE30680028F2D1F8BD064A16681836CAE7E2
:2032A000302B0020202B0020BB230020980D0020892E0020282B00207F2801DD7F2910DD01
:2032C000884205DD401A0F28CCBF00200120704705DA081A7028D4BF0020012070470020EA
:2032E000704701F58071081A1028D4BF00200120704700BF80B183698B420DD070B50D464D
:203300000446064E1946306802F0B6FF3068294602F0A8FFA56170BD704700BF9404002070
:2033200038B50D4604460021102208F053F82A7D294607322046D21007F072FF2046BDE863
:203340003840014905F096BD3027002070B50D4684B080B1064629B3037D0A7D9A4217D01D
:2033600068463146FFF7DCFF68466C4605F0E6FB18B105F0B1FC4DB16C4629462046FFF73B
:20338000CFFF204605F0DAFB0146A8B104B070BDD20807F013FF0028E2D1727D6B7D9A423D
:2033A000DED1F3E701466846FFF7BAFF684605F0C5FB0028DDD1E9E72046012205F020FC3D
:2033C000E4E700BF08B507F0DDFA07F0D3FA034B01461868BDE8084002F014BF9404002095
:2033E00008B5074B0146186802F050FF30B1054B01461868BDE8084002F004BF08BD00BF98
:2034000094040020B0050020024B0349186802F0B7BD00BF94040020E9380000024B014674
:20342000186802F0EFBE00BF9404002008B5044B0146186802F02AFFBDE8084007F0C0BAAA
:203440009404002008B5154A92F895301BB192F89430834201D0002008BDD168B2F8A230FF
:20346000888B9842F7D18B7C0C4813F0800F03F1010308BF03F07F038B7492F89630074AD6
:2034800013F0800F03F1010308BF03F07F0382F8963000F02DFF012008BD00BF4C240020D5
:2034A0002DE9F041802A86B00446154690F838601BD88846EEB900F1240731463846102275
:2034C00007F088FFEA1D4146D208384607F0A8FE40233046394684F8385084F83930FFF7B4
:2034E00035FF012006B0BDE8F081002006B0BDE8F08106466F4656F8240FF3687168B268EF
:203500000FC730697169102203C73046002107F061FFEA1D4146D208304607F081FE4023C1
:203520006846314684F8385084F83930FFF70EFF012006B0BDE8F08138B50446D0F89000FE
:203540000D4620B105F0D4FE0023C4F8903075B194F89B30B4F8A410284601FB03F105F0B1
:2035600005FFC4F89000003018BF012038BD012038BD00BF38B50B4C94F8951009B10020BA
:2035800038BD05464FF49672204607F023FF0123204684F8945084F8953000F0BBFE2046E7
:2035A00038BD00BF4C24002038B5154D95F895301BB195F89430834203D0FFF7DBFF054656
:2035C00070B105F1100405F19002944208D295F8253013B906E0637D23B14034A242FAD816
:2035E000002038BD20460021402207F0F3FE4FF6FF7301222562A38323826275204638BD87
:203600004C24002070B5064610460D4607F0E0F9A8B10C4B0146186802F02CFD044670B133
:20362000FFF7DEFE26606B8AA3806B7E237320B1838C13B94FF400738384204670BD00247B
:20364000204670BD9404002010B504460846FFF7B9FE18B10368A34218BF002010BD00BF79
:2036600010B504460846FFF7ADFE38B1036823B11B6AA34218BF002010BD184610BD00BF0C
:203680002DE9F0411E4E0546306802F0C7FC044668B34FF6FF78002705E02146306802F0C1
:2036A00085FC0446A0B123689D42F6D1A3884345F3D01FB32B6A21469B6838469B68984716
:2036C00021460746306802F071FC04460028EAD16FB128463946FFF70DFE2B6A21469B6805
:2036E000A8691B699847A8833846BDE8F0814FF6FF730027AB833846BDE8F0812746CCE7D7
:20370000940400202DE9F843C468B0F8A230A28B05469A42A6696BD008680F46FFF7B0FFF2
:2037200000287ED039688C4206D0AB682046DB6898470446002C71D0E868A04216D001F073
:2037400027F894F83930E86803F0400303F0FF01002B40F08A8090F839305B0600F18B8029
:203760000123A375EB6800229A75EC60AB6828465B699847AB68A0691B6900219847A08356
:203780007EB3238A98422CD34FF6FF7290423AD0216AB1F8A0206ABBA069B04225D0FFF7E1
:2037A00045FE01462846FFF7C7FE95F8973093B11EB13046002101F019FD95F89630284690
:2037C00013F0800F03F1010308BF03F07F0385F8963000F09BFD284600F08AFD2046BDE868
:2037E000F8832082A069B042D9D12046BDE8F8832046A2E7B1F8A2101344B0FBF1F093FBC6
:20380000F1F39842C8DDE8680021FFF773FD95F897301BB13046002101F0E8FC0020BDE81D
:20382000F8833B689C4287D105F1100705F190084745F3D204464FF6FF7909E0AB682046DF
:20384000DB683946984704464037B8457FF672AF7B7D002BF8D0BB69002BF5D09B884B45C1
:20386000F2D0002CEAD13C46EEE704F124012430FFF76CFD74E72430FFF768FD70E700BF5B
:2038800038B50568AB69834201D003B138BD4FF6FF71AA7DA983002AF8D02A6A0446D2F8D9
:2038A000900030B105F024FD2B6A0022C3F89020AB699C42EAD12046002101F097FC284639
:2038C000BDE838400021FFF715BD00BF10B50446FFF7D6FF034B2146BDE81040186802F02D
:2038E000ABBC00BF94040020FFF7F0BF30B50F4C83B00546206802F091FB014628B912E067
:20390000206802F053FB014668B10B68AB42F7D108460191FFF7DAFF0199206802F046FB53
:2039200001460028F1D103B030BD00BF9404002038B5837D044613B90023637538BD002527
:20394000857500F025FF94F839305B0605D42046FFF7CCFF0023637538BD294604F124008B
:20396000FFF7F4FCF3E700BF70B583690446934215460E4609D0837D2BB11046FFF756FD95
:20398000214600F017FF2E6070BD0021FFF7B2FC4FF6FF72A37DA283002BF4D0236AD3F8F8
:2039A00090000028EFD005F0A3FC236A0022C3F89020E8E7044B93F8950020B1D868837D93
:2039C000002B08BF002070474C240020064991F8953033B191F8942082420CBF08460020D3
:2039E00070471846704700BF4C2400202DE9F047DFF838A10A8ABAF818300C469A4201D022
:203A0000BDE8F0870546087EFFF7CEFD07460028F6D021462A463E6AFFF7F4FD8146002868
:203A20007DD0637E04F13C08037394F851305B066ED40123BB75A37DF0223B75217D3846A7
:203A4000F974E17DB974C6F808A0617DF76086F8971086F89620228C4946A6F8A020628CF1
:203A6000A6F8A220A27E86F8982094F81BE0724486F89C2086F899E0227F86F89A20627F68
:203A800086F89B20E28BA6F8A420E268D4F804C0D4F808E0D4F800A0C7F804C0C7F800A042
:203AA000C7F808E0FA60D8F808C0D8F80CE0D8F80040D8F80420C7F82CC0C7F830E07C6255
:203AC000BA62D8F81420D8F81040BA637C63FFF711FCB36830465B699847B36848461B6946
:203AE00000219847104BB8831A683882AAB1304600F0FEFB30462946FFF71EFD96F89730EF
:203B0000002B3FF47DAF3046BDE8F04700F0FEBB41460020FFF71AFC8BE71E60E7E786F831
:203B20009500BDE8F08700BF48240020A804002078B32DE9F04106464FF6FF78154D82B0AF
:203B400000F1100400F19007637D43B94034BC42FAD1304602B0BDE8F04100F0C9BBA4F8B1
:203B60001C80286802F05AFA01460028EED00B68A34208D0286802F019FA01460028E5D0BD
:203B80000B68A342F6D108460191FFF779FE0199F0E77047940400204FF6FF7370B58A88EB
:203BA0000C469A420646096816D0086AB0F8A03043B9012521463046FFF7A4FD0446B0B109
:203BC000284670BD0D8AB0F8A2102B4493FBF1F3B2FBF1F29A42ECDD2046FFF751FEF3683D
:203BE0009B69A34201D0002070BD0025E2E73046FFF79EFF204670BD2DE9F8430646087E11
:203C00000C46FFF7D1FC0546B8B130462F6AFFF7D9FB002800F08980D0F80080B8F1000FE1
:203C200000F083803046FFF7CDFB064610B10368984504D000239B80FFDEBDE8F883404673
:203C400029463246FFF790FE628A3D4BB280188B218ABA68884218BF00239A4206D03046F7
:203C6000FFF734FE00236B75BDE8F88397F89720637D9A42F3D1D7F8A020236A9A42EED17C
:203C8000B7F89820638B9A42E9D1B7F89A20A38B9A42E4D1B7F8A420E38B9A42DFD123463B
:203CA00001226A75217D2846E974A17D297594F817E0314685F812E0D4F80090D4F80480C8
:203CC000D4F808C0D4F80CE0C5F80090C5F80480C5F808C0C5F80CE053F83CCFD3F804E0D7
:203CE000D3F80890D3F80C80C5F824C0C5F828E0C5F82C90C5F83080D3F810C0D3F814E064
:203D0000C5F834C0C5F838E0FFF7F4FABB6800211B69304698473146A88328823846FFF75C
:203D20003BFF637E3373BDE8F883324628462146FFF768FC0646002886D16875BDE8F88333
:203D4000A804002038B5124D286802F067F9044630B91CE02146286802F028F90446B0B185
:203D60002368002BF6D01A6A002AF3D0627BD107F0D522F0010262732146186AFFF70CFF08
:203D80002146286802F012F904460028E8D138BD940400202DE9F8434C7D0B46022C01D0ED
:203DA000BDE8F883B94E0C7E96F895201AB196F89420A24204D01946BDE8F843FFF716BE41
:203DC00096F8253007460C462BB106F11000102207F0F4F9B0B196F865303BB1AC4821469D
:203DE000102207F0EBF9002800F03981F268B6F8A230928B9A42D3D038462146BDE8F843A9
:203E0000FFF7FABE06F1100594F8178095F8129040464946FFF750FA002855D0B6F8A23074
:203E2000AA8B9A4200F0848094F8502042B194F85130580604D5284604F13C01FFF730FB89
:203E40002846FFF753FDE27D2B6AAA74A27E284683F89820E27E2B6A83F89920227F2B6A7C
:203E600083F89A20627F2B6A83F89B20E28B2B6AA3F8A4202B6A9B681B6898474FF6FF734F
:203E80002A6A2B8292F89630214613F0800F03F1010308BF03F07F0382F8963028463A4636
:203EA000FFF7B0FB0446002800F082802B6A00219B681B6998470346AB832B822146286AC4
:203EC000BDE8F843FFF768BE48464146FFF7F4F908B1AB7DBBBBF368B6F8A220998B9142D5
:203EE00022D0638A9A423FF65BAF4FF6FF72934257D094F850201AB194F8513059065CD4B3
:203F0000AA8BB6F8A230DFF884919A4220D14FF6FF73628A9A423FF443AF99F89E300133FC
:203F200089F89E30BDE8F883AB427FF439AFD8E785F8128018F0800F08F1010808BF08F0A4
:203F40007F0885F812805148BDE8F84300F0D0B999F8991099F8982001230A444D4993407B
:203F6000A1FB03239B093846EB63FFF72BFA804610B10368AB4226D03846FFF723FA002866
:203F80005DD0D0F80090B9F1000F58D03846FFF719FA804610B10368994559D000239B80FD
:203FA000FFDEAB7D002BA4D0384800F0A1F9A0E74FF6FF73AB83BDE8F883284604F13C0127
:203FC000FFF76EFA9CE78288638A9A421BD01A4698F80D30DFF8B49043F00103A8F80420FF
:203FE00088F80D3048464146FFF7D6FD00283FF4D7AEAB7D13B1AB6943450ED0637E88F87F
:204000000C30BDE8F883AB7D002BE1D099F89E30013389F89E30628ADAE799F89730D9F888
:204020000C2013B1936998451BD096F89B30B6F8A410384601FB03F105F098F9DEE72846EA
:2040400021463A46FFF7DEFA80460028E3D1A7E6424648462946FFF787FC628AB8E70C4D9A
:20406000D2E6607E98F80C10FFF726F90028DCD099F896301A060FD4013303F07F0389F891
:204080009630024800F042F9CFE700BF4C2400209C240020D34D6210013389F89630F0E71C
:2040A00070B590F89C30012606FA03F41149E401A1FB0434A309C0F8A8300546FDF7AEFE2F
:2040C000E40904FB00F00C49D5F8A830A1FB002104EBD1315B1A0022C5F8A83085F89E20F5
:2040E00085F89D6005F1CC002B46BDE87040034AFDF796BAD34D62100180008079410000E0
:2041000010B50C4C00F0E0FB00F004FBFFF71AFE238801332380FFF74DFC20B1BDE8104033
:204120000548FDF789BA22883B2AF7D9208000F023FEF3E7A4230020880F002010B50446E4
:2041400000F0E2FA012814D04FF6FF72B4F8A43093420ED094F89B10FF290AD003FB01F174
:2041600004F586702346BDE810408901014AFDF757BA10BD5942000070B5204D04462B7831
:204180003BB394F89D309BB194F89A301BB194F89E209A4224D3002384F89D3004F1CC0020
:2041A000D4F8A8102346BDE87040154AFDF738BA94F8991094F8983094F89C200B449A427C
:2041C000BCBF013284F89C202046BDE87040FFF767BF012004F0CAFC38B101232B70D0E7E8
:2041E0002046002100F0F4FDD5E704F1CC002346BDE870408021024AFDF712BABC23002070
:204200007941000070B504460D4600F07DFA012815D004F1F0063046FDF71EFB3046FDF7D5
:2042200015FB60B165B9294604F1EC002346094AFDF7F6F92046BDE87040FFF77FBF70BD34
:20424000FDF7ECFDB0FBF5F101FB150000EB5501EAE700BF5942000010B5144B04461B7872
:20426000ABB1E368986918B194F89B1000F0BEFF04F1EC00FDF7FCF904F58870FDF7E6FA5A
:2042800000B910BD2046BDE81040FFF757BF012004F06CFC0028E4D104F1EC002346BDE8E8
:2042A00010408021024AFDF7BBB900BFBC2300205942000070B5FDF7B1FD094CC0EB001029
:2042C0008000A4FB0034074DE40B19342C8006488021064A0023BDE87040FDF7A1B900BF8B
:2042E00001800080A4230020880F00200141000090F8992090F89C10914200D870470021E5
:2043000080F89C2080F89E10FFF7CABE4FF40071FFF778BF10B50446FDF780FD0146094ACA
:2043200004F1AC00A2FB0132520BC2EB0212A1EB822291B22346BDE8104001F5F051024A9A
:20434000FDF76EB9898888884D4300002DE9F0470646C568FCF71AF8B0F5163F8CBFA0F5EC
:20436000963701278DB32B6A7BB3A86968B38368BB421ED3FDF752FD10F00104DFF8AC80F5
:204380002BD0D8F8000001F049FE002430B91CE00146D8F8000001F009FED8B103689D422F
:2043A000F6D1002C40D08268A3689A4238BF0446EEE704462046FFF739F830B12046FFF7FF
:2043C00035F80146304600F003FD3046BDE8F047FFF7A0BF002CF8D0ECE7D8F8000001F0D4
:2043E0001DFE4FF6FF7A814638B9CAE74946D8F8000001F0DBFD814698B1D9F800309D4263
:20440000F4D1D9F808309F42F0D92B6A48469B6800211B6998470CB18245E7D982464C46DC
:20442000E4E7002CADD0C5E70446B1E794040020F8B5254D254C2B7828331A19527822B95C
:2044400003441A5D2344632A01D00120F8BD5A78042AFAD10646D878FFF7B8FA074600287F
:20446000F3D02B782833981903199A7802F0200101F0FF00A9B9FC68A17D0029E5D01106C0
:204480001AD49988A48B49BA89B28C4208D902F0400101F0FF0059B942F040029A70F8BD89
:2044A000F8BD04F1180004F0E3FD08B104F01CFE3846FFF71DFFC8E79988A48B49BA89B2D2
:2044C0008C42E4D9F8BD00BFCB230020382700202DE9F84F454D464EAF79002496F8008073
:2044E00034705FB995F829401CB995F82A30632B30D086F800800020BDE8F88FDFF8F8A007
:20450000BAF80090B9F5787FF3DC05F1280BA9F12802594605F1300006F0F8FE6A7909F16A
:20452000080902F10803DBB2632004219A42AC62EC62AAF80090AC7185F828706B7185F842
:204540002A0085F82B1002D92B7901332B7108F10808CEE795F82B30042BCAD195F82D0000
:20456000FFF734FA08B390F89530002BC3D0C268907DE0B133782A33595D2B446329B8D147
:20458000928B93F9021052BA00299A8005F118000FDB04F06DFD33782A331D44AB7808B374
:2045A00063F07F03AB70A4E70120BDE8F88FBDE8F88F04F05DFD00289BD133780F202A33EE
:2045C0001D44AB7843F02003AB7001F0B7FFFEF725FF0028E8D00749002200F085FD012041
:2045E000BDE8F88F03F07F03AB7082E738270020CB230020502700202427002070B51E4D77
:204600001E4CAA7900232678237032B995F829302BB995F82A20632A04D0184670BD2670AB
:20462000104670BDEA8D002AF7D1154E3368EBB193F89520D2B1DB689A7DBAB101461846C7
:20464000FFF702F818B103689B69834210D0237880222A331D44AA703368002093F894207E
:20466000EA70DB689B8B5BBAAB8070BD012070BD23782A331D44EFE738270020CB23002000
:2046800048240020F8B5174C174DA07900232F782B7018BB94F82A30632B01D02F70F8BD30
:2046A00094F82C3094F82D0023F07F0383F0800384F82C30FFF78AF92B78C2682A331C44F3
:2046C000E078968BFFF782F9C36836029B8BB6B246EA13262F70A6800820F8BD2F701846F7
:2046E000F8BD00BF38270020CB230020044B1B682BB1044B1B7EFF2B01D0FFF7E9BE7047D4
:204700004824002038270020014B1878704700BFBD230020F0B585B004F0A0FC034648B190
:204720009A6918460AB1013A9A6104F09DFC03460028F5D104F092FC0446B0B1134FA669C5
:2047400004F108039EB90FCB8DE80F00204604F0CBFC04F083FC3B680446DA68B3F8A23064
:20476000918B99420AD1002CE9D105B0F0BD204604F07AFC0446002CE1D1F6E790696946A2
:20478000324600F0B1FC05B0F0BD00BF4824002010B5044604F062FC30B1C369A34204D030
:2047A00004F062FC0028F8D110BD04F09DFC04F055FCF1E770B505460E4604F04FFC0446F2
:2047C00084B1204604F03CFC2946102206F0F6FC10B9E369B34206D0204604F045FC0446C4
:2047E000002CEED170BD204604F07EFC04F036FC0446E5E710B504460846D1B21A4604F05D
:20480000E3FC58B1C461226A002492F89B10B2F8A43080F8204003FB01F3836110BD00BFEE
:204820000346F0B548F2FE0585B01A4C0F46684619460023ADF80230ADF80430ADF80630A2
:20484000ADF80830ADF80A30ADF80C30ADF80E301646ADF8005004F00DFB94F89530012B0E
:2048600001D005B0F0BD69462046FEF7F9FE05460028F6D0437B43F001034373A3685B6852
:20488000002BEED0394632469847FBF77FFDA860E7E700BF4C24002008B50A4B93F8952074
:2048A000012A00D008BD01461846FEF7D9FE0028F8D04FF6FF72437B828043F00103437374
:2048C00008BD00BF4C24002038B50E4B93F895206AB103F1100403F19005637D23B1E36B90
:2048E0005A1E2BB9A37D43B14034AC42F5D138BDE2634034AC42FAD0EFE72046FFF718F878
:20490000F2E700BF4C24002010B5134B84B000241C60FEF779FDFFF7CDFC00F0B7FD40F278
:20492000FF224FF4D0536846ADF80020ADF80E30ADF80240ADF80440ADF80640ADF80840F2
:20494000ADF80A40ADF80C4004F032F9034B20461B68984704B010BD48240020A804002069
:20496000704700BF00230370704700BF38B50C4690B10546FEF734FD70B1808C024604B992
:20498000AC88C4F57F43FF339A4202DD4FF6FF7038BD204480B238BD002CF7D0C4F57F43D9
:2049A0004FF40072FF339A421046EFDCF1E700BFF8B50D4614460646FEF712FD98B1878C76
:2049C00095B9717B22028B0792B214D55A2303FB07F302EB82020A4903EB4202A1FB02327F
:2049E000C2F34F128284F8BD022DFCD1717B4FF420628B07EAD441F002017173F2E700BF39
:204A00001F85EB51C37CCA7C9A4203D0002B08BF08467047027D0B7D9A4203D001D80846AE
:204A200070477047828B8B8B9A4228BF08467047F8B505460C460768FEF7D2FC20B3868CBC
:204A4000AB881E44B6B28CB12046FEF7C9FC68B1828CA388B8691344A8429BB20BD084425A
:204A600009D09E4234BF28462046F8BDB8694FF4C843A842F3D103F180029642F1DAA3F137
:204A800080029642EDDDF0E74FF4C846DBE700BF10B44418435CE2786178A07842EA0363AD
:204AA00043EA014343EA00205DF8044B704700BF0249034A00230B80137070472427002033
:204AC000CB2300202DE9F04F4FF6FF769FB000215C2207A806F07EFCA24AA34BB2F818E030
:204AE00003AF0FCB0A2487E80F000C254FF480714FF4E062FF2338468DF836408DF83840FC
:204B0000ADF82CE0ADF83A608DF83750ADF83E10ADF83C208DF8393005F034FF044600281D
:204B200000F00B81914BDFF848E21C78019304F12C0101EB0E052B46DFF83892EA7899F8CE
:204B400000A095F802C0C4EB0A0A2C7942EA0C2C53F8080F1EF801E0ADF82EC024F07F0C0F
:204B60008DF830C0AAF12C0AC4F3C20C04F0070459689A688DF834E08DF831C08DF83240A2
:204B8000DB685FFA8AFA95F801E095F805C0182407AE54458DF833E08DF835C00FC632DAB8
:204BA0002B5D002B00F0B9802A1992F801B00BF1020B04EB0B06564529DC023B062B1FD88D
:204BC000DFE803F084642D1E1E1E0400BBF1200F1DD192F802E0D37804F1080128468DF837
:204BE0006CE08DF86D30FFF753FF10342C441A9061682068A268E3680DF1580EAEE80F00F2
:204C000034465445CCDB384607A9FFF7C3F8019A0023A9F8003013701FB0BDE8F08FBBF14A
:204C2000100FF4D1A01D04F1080115F800C005EB000E68184078695C04F10A039EF801E094
:204C400040EA01200E34E9184EEA0C2E497815F803C02B195B782C5D41EA0C2143EA042377
:204C6000ADF83E00D4781079ADF82C105179527B8DF83640ADF83CE0ADF83A308DF837007D
:204C80008DF838108DF839203446BAE7BBF1080FBDDD92F80280D278211D28468DF85520F5
:204CA0008DF85480FFF7F4FE08F10702D210D11D8B451490ABDDB8F1800FA8D804F108012F
:204CC000294410A806F0ACFA34469AE7BBF1050F9DDDD1781379490041EAD3118DF87110AB
:204CE000C3F3011190788DF87210517903F00F038DF873308DF870008DF8741000283FF48D
:204D00007FAF07280FD0022881D19179D3798DF876108DF87730344673E7661C56453FF727
:204D200076AF34466DE706342B192A5D5B78344643EA0223ADF8763063E70F2001F0FEFB2E
:204D4000224601460123384605F0EAFD28B1103041F2707103F0B0FBE4E6044BDFF81490C7
:204D6000019354E7A804002040270020CB230020382700202427002010B5134B134A1B7806
:204D800000212C339C18617084B0D15430B19B210022022303F0FAFD04B010BD40F2FF2213
:204DA0004FF4D053ADF80200ADF80400ADF80600ADF80800ADF80A00ADF80C00ADF80020C0
:204DC000ADF80E306846E2E7CB230020382700202DE9F04FB24B90F894201B78B14CC668A0
:204DE0002C33E254B27C1C446270B38B00220546180AE370A0702271F27C8FB00F46002ACF
:204E000040F08A801346227195F8972043EAC203DBB22371327D02F007021343237195F8F4
:204E200096306371002F00F027810023A371E371D6F800E07068B168F268C4F808E0E060A9
:204E4000216162612B78002B40F0D380182293462723099326230893232307932223069321
:204E600021230593202304931F2328204FF0250E039324238DE809401E211D204FF01C0E00
:204E80004FF01B0C4FF01A084FF019090423A3544FF00E0A002204F809A004F8082095F8FD
:204EA0009880049B04F80C8095F899C004F80EC095F89AE004F800E0B5F8A0004FEA102E5C
:204EC00004F801E003996054B5F8A210080AE054059BE154A968069B098B080AE054079BFD
:204EE000E154019BE25495F89B10029BE154B5F8A410089B080AE054099BE15496F83810A8
:204F000069B9002F58D03846009B9B21012203F03DFD0FB0BDE8F08F80231A4673E730463D
:204F2000009B04EB0B011E254FF0080E04F803E04D7496F838300BF11C0C8B7496F8393093
:204F400004EB0C0ECB74736B0EF102054FEA136A4FEA13494FEA132881F814A081F815901B
:204F600081F81680CB75736B0BF120064FEA136A4FEA13494FEA1328CB7681F818A081F838
:204F8000199081F81A8004F80C208EF8012005F8012B2A7050F824CFA219D0F804E0856834
:204FA000C1680BF1300344F806C00093C2F804E09560D160002FA6D140F2FF25009B4FF466
:204FC000D0540AA89B210122ADF82A70ADF82C70ADF82E70ADF83070ADF83270ADF8347084
:204FE000ADF82850ADF8364003F0D0FC0FB0BDE8F08FAB6828465B699847062302212176D0
:2050000063762B78A3766B785B08E3766B78DB012377A878EA7843EA0013134323772B78AE
:20502000072B35D0022B7FF474AF202293466377AB79A377EB79E3772F2309932E230893AB
:205040002B2307932A230693292305932823049327234FF02C084FF02D0C039330238DE829
:205060000811262125204FF0240E4FF0230C4FF022084FF0210909E795F8963013F0800F05
:2050800003F1010308BF03F07F0385F89630CCE66177EB882022190AE377A1779346CBE73A
:2050A000CB2300203827002008B50B4890F89530012B05D009490A4A00230B80137008BD69
:2050C00008490B7EFF2B03D00831FFF781FEF1E7FFF70EF9EEE700BF4C24002024270020E7
:2050E000CB230020382700202DE9F04706460D461446FFF709FB01286FD0002E6DD0306878
:2051000000286AD0016A002967D0002D65D0DFF8D4C0334B9CF800201F7812F0800FDFF864
:20512000C8E002F1010291F8948007F12C0714BFD2B202F07F020EEB070300218CF8002077
:205140004FF0400C0EF80780DA7083F801C09970D0F80490D0F80880D0F80CC0D0F800A000
:205160004FF0050E122780205F75D875C3F804A0C3F80890C3F80C80C3F810C0997583F8D6
:2051800014E0D5F80090D5F80480D5F808C0D5F80CE0062704253046C3F81890C3F81C8099
:2051A000C3F820C0C3F824E083F82A1083F82B1083F82C1083F82D4083F8287083F8295084
:2051C000FEF734F948B13046FEF730F9BDE8F0479B2102222E2303F0D9BBBDE8F08700BFB1
:2051E000CB230020AC06002038270020F0B5134B85B000241D7E93F82A600DB1012E06D978
:205200000134032C03F12003F4D105B0F0BD9A7EFE2A02D1DA7E802AF2D00D4606466F46C1
:20522000074B03EB441420686168A268E3680FC730462A466946FFF757FFE6E7B8250020AF
:20524000D225002070B4094B90F894601B78084D2C335C19EE540025A2706570E570084696
:2052600070BC9B210322042303F090BBCB230020382700202DE9F04F814B824C1F788FB06A
:2052800006AE04F108030FCB07F12C0586E80F007D4B605D1E88FEF799FB254483460028CC
:2052A00058D0EA786B780492C2685906039390F89BA0029256D49DF818300424FF2B5DD0EF
:2052C000029806A9FEF7C0F980B1029BBBF8A21082889B8BB2FBF1F2B3FBF1F39A42C0F0C6
:2052E000AD80029B9B69834200F0C2800123059346E006A805F046FB0446002800F0A6809B
:2053000041463A46029806ABFFF774FA10B3BBF8A430059903FB0AF30022012980F8201000
:20532000836180F8212015D1029CA06950B1FEF77DF838B1A069FEF779F84B469B2102220F
:2053400003F024FB039B1B0604D5584606A9049AFFF778FF4C4A00231380494A13700FB02A
:20536000BDE8F08F1046291D102205F027FF0028F0D19DF818301424FF2BA1D102230593C9
:20538000C7EB060CACF12C0C5FFA8CF94C454FF00007A8BF0DF1280826DA3B460DF128087B
:2053A00006E0062A01D190F805A034444C451BDA2A5D28190126002AF7D04678211D052ACF
:2053C00006F102062944ECD1C7783444FA1D4046D210C8F8003001930B930C930D9305F018
:2053E0001FFF4C45019BE3DB404603F041FE0446BAF1000F7FF47DAF0028ABD090F82130CD
:20540000002BA7D190F82430BB42A3D103F018FE00289FD0204603F013FE06A9102205F0BC
:20542000CDFE002896D101223C23A36184F82120029CA06900287FF47AAF83E74FF6FF7244
:20544000437B828043F00103437383E70F2001F075F822460146012306A805F061FA0028AF
:205460003FF478AF103041F2707103F025F847E74FF6FF715A7B998042F001025A7369E74B
:20548000CB230020382700202427002008B5074803F0CAF9064803F0C7F9064803F0C4F953
:2054A000BDE80840044803F0BFB900BFD0040020E8040020DC040020C4040020F0B5234B8E
:2054C0001B68C3F30467152F214B34D91B78203F03F01F03152B1ED81E4A002111601E4CCA
:2054E0001E496FF00106012010E0B242B8BF3246134403F01F0242F4F852BB420D68DFF8B7
:205500005CE022804FF0010C086008D0FA1A022AEBDD0222ECE7203B9F42DDD1F0BD0D4B33
:20552000DEF80020CEF800C0DEF80020C3F800C0DEF80030F0BD1A7802F01F03152B01D90B
:20554000203BC9E79F42C7D1F0BD00BF8813005006620840980020436C6208402C2009401A
:20556000F0B50646AF4B0121AF4A83B019601368002BFCD0AD4AC021AD4B11601B689907A3
:2055800000F1D681AB4BA2F57F321B68A2F5D572C3F3034343F0F0031370A74AA74B00217B
:2055A00011601D6805F04073B3F1807F00F0A181A34B1B68C3F30463152B00F2AF8103EBBA
:2055C00025730133152B00F3B08113F10A0FB8BF41F6167380F243829A4CDFF8CCE2C5F3ED
:2055E000C061994FC5F3806282F0010281F001019648AEF80030396022600368AA03C3F383
:205600008364C3F38F230FD445F30722002A80F209825B0806D164084FF001030CBF1C46BA
:205620004FF6FF730132F4D143EA044400F058FB87490B68864A002BFBD0864901230C609B
:20564000136008B900F050FB804A834813681168C3F3870201F0030342EA032302680093CD
:2056600054682C217D4840F2FF320023A0477C4B1C6800F035FB7649C4F30D040B68744ACC
:20568000002BFBD0774901230C60136008B900F02BFB754B1C6800F023FB6D4904F0FC344E
:2056A0000B686B4A002BFBD0704901230C60136008B900F019FB6E4B1C6800F011FB24F0FE
:2056C0007F44634924F440340B68614A002BFBD0684901230C60136008B900F005FB544BB7
:2056E000654A11681C68C1F3034014F00104C1F3035300F037811B0504048AB21343212E43
:2057000044EA030484BF01F080431C4300F0E8FA4F490B684E4A002BFBD0584901230C6062
:20572000136008B900F0E0FA212E40F211815449544A0B68C3F300735B0043F02003DBB243
:2057400013700B68C3F3407343F01003DBB213704D4B1B68C3F30264A200C3F3C16442EAB4
:205760000424C3F381531C4300F0BAFA38490B68374A002BFBD0454901230C60136008B9B7
:2057800000F0B2FA1F2E40F2D7803F4B404A1B68212EC3F301534FEA430343F0600313700F
:2057A00040F25581364A3B4813683B49C3F3C063DB0063F07F03DBB203701368C3F345538D
:2057C0009B0043F47C430B802F4B1B68C3F30512C3F3892112041B0342EA81529BB242EAD7
:2057E000030400F07DFA1A490B68194A002BFBD02A4901230C60136008B900F075FA284806
:20580000284A442488211E4B047011701B68C5F38150C3F3C14343F030030128537000F09F
:20582000D18043E0101009409402224300600C40B03F0050AC3F005040100940B43F00508E
:20584000B812005008002043000020435013005000800C4018A00C40A401001000A00C403C
:205860007C1300501CA00C407413005014A00C407013005010A00C40781300500CA00C40C8
:205880008C13005049A10C409813005028A00C404CA10C4041A10C40DCA10C4008A00C40B0
:2058A00005A10C4007A10C406E62084074D302286DD10420032100F02DFA47F618046A4BCE
:2058C0006A491B686A4A6B48096803F03F0313700480A2F56332CB680220A2F2DF321268DE
:2058E00098476549654B4020012208601A6003B0F0BD4FF6D80462486249A2F52E42802386
:205900002B3A03700C8028461370FFF7D7FD5E4B1B68C3F30423152B7FF651AE203B03EB62
:2059200025730133152B7FF750AE41F6157353E6564B72221A7030E6554C5649564B6026B3
:2059400080204FF47C4226700870544C1A8048E7534B222111221F2E19701A703FF6F8AEE0
:20596000002401E74F4A126842F30327FB1855D40F2B55DD4FF4700342F3033212183FF583
:20598000BCAE0F2AD4BF14044FF47024B5E60420022100F0BFF990E743F2BD760420012133
:2059A00000F0B8F9404D4148414B86240121414A2E60046019601368002BFCD03C4B0022C7
:2059C0001A607AE700F0D6F904460420214600F0A1F9042000F0CEF9A042FAD1364B324E45
:2059E0001868324C324B87B2C0F307450121314A3760256019601368002BFCD02F4B2C4A60
:205A00001B68002111601B684FF06022000E072198472B4B4FF480621A604AE72346ABE7D7
:205A20001B05A9E73FF400AE5B0043F00103B3F5803F4FEA440107D341F001040F2C86BFCE
:205A40004FF6FF730F240123013AEDD1ECE51149114B80204FF47C4208701A80B4E603F078
:205A60001F0343F4F853B7E56C130050A00100100BB00C4070B00C4000600C40940460420D
:205A8000256208406662084088130050566208404CA10C4041A10C40DCA10C4000803F400D
:205AA00049A10C40AC3F00503C600C4040600C4044600C4084088C43A83F0050B40100105A
:205AC00040A00C4070B5314B314D1C680026631C08BF002400F0E4F82E482F4901232F4A10
:205AE0002E6003600B601368002BFCD12C492D4A0B68126823F00053560723F0070334D416
:205B0000294A43F00053156843F00400AD0721D10860264B1B6823B1254B20461B68FFF7B3
:205B20001FFD244B0021244A19601368234923F07F6323F4702343F09C7343F480331360AD
:205B40000B68C3F30133012B15D0144A1368002BFCD170BD43F007030B60136803F00303BD
:205B6000032BFAD10E4B1860D3E743F0005343F005030B60CDE70B6823F0407323F44033FE
:205B800043F400320A600B60DFE700BF1C130050840460425C600C40082204430C0068426A
:205BA00004400340B03F00500040034080012843000120438C21084048200340040009405F
:205BC000024B186800F00E00704700BFD42108404BF69A120B4B1B68C3F30F3393420BD0D9
:205BE0004BF6BE1293420AD04BF62030834214BFFF20022040B27047002040B270470120E8
:205C000040B27047181300504BF69A10224A234B11681B681268DBB2802BC2F30F3228BF10
:205C2000002382424FEA11710AD04BF6BE1082421CD04BF6203082421ED0FF2040B270471E
:205C400001390729F9D801A252F821F0855C00003B5C00008B5C00003B5C00003B5C00007E
:205C60003B5C0000955C00008F5C000051B10229E3D11433D8B2E1E70029DED10A33D8B298
:205C800040B270470A2040B270471420D6E71633D8B2D3E71520D1E718130050A0100050A2
:205CA0004BF69A1208B50D4B1B68C3F30F33934211D04BF6BE12934208D04BF6203293428B
:205CC00014BFFF230223012B00D0FEE7FFF79CFF1328FADD08BD0023F5E700BF1813005028
:205CE000EFF3108072B67047EFF3108062B6704710B4064A064C1368206811688B42FAD198
:205D00001B0443EA10405DF8044B7047082009400C20094070B50D46C10782B004461AD4FC
:205D2000A2070DD4630709D5104BADB21B6800955C680F4800210C220223A04702B070BD6A
:205D40000A4AABB21268009356680948002102220123B047E6E7054AABB21268002100936F
:205D600056680B4602480122B047D9E7A401001000A00C4010B5084B04281B684FF0340114
:205D8000DC6807BF4FF0C0421D234FF080521C230248A04710BD00BFA401001000A00C40CA
:205DA000094B0121094A196013689B06FCD510B5074C402023681B689847236840209B6861
:205DC00098471128F9D110BD0002224314100940A0010010014802F0E7BB00BFF4040020DB
:205DE00038B50F4802F092FB044688B10D4802F08DFB0546206060B100F060FA05F1A001D1
:205E0000A5F8800005F1820000F03AFB204638BD38BD2146024802F097FB284638BD00BF21
:205E2000F404002000050020016801F18200A03100F026BB10B5046804F1820004F1A00168
:205E400000F01EFB204600F039FAA4F8800010BD10B504460748214602F098FB00B910BDF7
:205E60002168054802F070FB2146BDE81040014802F06ABBF40400200005002010B50446E7
:205E80000948214602F082FB00B910BD2468B4F88010204600F0DEFA04F1820004F1A00152
:205EA000BDE8104000F00EBBF4040020036803EB4101B1F882007047F9B1EAB130B4CD6841
:205EC0004C68521B92FBF4F2541C18D053B90C68835C012101FA04F423EA04038354084629
:205EE00030BC70470B68845C012101FA03F32343835430BC084670471146084670470021EE
:205F0000EDE700BF38B50F4D002818BF05460E48FBF70EFF044650B12846211D00F02AFBFA
:205F200040B92046FBF774FF04460028F4D14FF0FF3038BD054B06489B68E41AA41000FBB5
:205F400004F038BD88B60000801500200C050020ABAAAAAA78B179B1C2684368891A91FB34
:205F6000F3F14B1C06D0054A0368505C184100F00100704700207047084670477416002013
:205F8000084A1368072B0AD830B4074D5C1C03608160146045F82300012030BC7047002074
:205FA000704700BFA816002088160020F8B507460C46184D184E1FB344B3FB687868E41AAE
:205FC00094FBF0F4611C04EB440421D0AB6803EB8400FBF71DFFB0B1AC68001B841006FBF1
:205FE00004F35A1C0FD07C68FA6804FB032454B138462146FFF7AEFF0028DCD02046F8BD6D
:206000003846FBF705FF00242046F8BD2046E0E70020DEE70C050020ABAAAAAA38B50546A9
:206020001148FBF785FE044668B1104A104B9268841AA41003FB04F4A5B1631C10D06B68B0
:20604000EA6803FB042428462146FFF783FF08B1204638BD28462146BDE83840FFF7A6BF1A
:206060000024F0E72C46EEE7801500200C050020ABAAAAAA2DE9F04F5A4D85B0002918BF1E
:206080000D4604462846FFF73DFF431C064612D054B36268E36802FB06360021304605F055
:2060A00099F92146504832460123FFF705FF304605B0BDE8F08F4D4802F028FA0646B0B114
:2060C00080464A4F4A484146FBF73EFEBA68494BB61AB61008F10400294603FB06F600F078
:2060E00043FA0CB1731CD4D162680026D5E74048FBF71EFE002872D03C4FDFF80091DFF8FC
:20610000F480DFF8E4A0B34602E0FBF781FED8B1BB68C31A9B1008FB03F319F80320002AD9
:20612000F3D11AF803303049002B51D013F0010F18BF01325B10F9D10EB15A45E5DA934649
:20614000002A49D00646E0E70196002E47D0264B0293019BBA680395C2EB030A55461E46F8
:20616000DFF89CB0A24615E0846814B3214B03FB08F8B8F1FF3F1BBF4168C2684FF0000926
:2061800001FB08294946FFF7E5FE01280CD01A4B9B4511D05BF8040F4FEAA5080028E3D117
:2061A000144B03FB08F8F2E74846A047BB68019AD51A4FEAA508F3E70199029A00230C481A
:2061C00002F808305446039D8846FBF701FE79E716B1BBF1000F98D002910190B9E7002660
:2061E00065E700BF88B60000741600200C05002080150020ABAAAAAAA41600206C150020A2
:206200008416002038B505460846FFF77BFE85B1431C0CD06C68EB6804FB0034284621462F
:20622000FFF798FE002814BF2046002038BD0024F4E72C46F2E700BF70B505460C4600236E
:20624000294622460548FFF737FE06462946224600230348FFF730FE304670BD74160020ED
:206260006C15002003460A46024819460123FFF723BE00BF6C15002003460A46024819469E
:206280000023FFF719BE00BF6C15002088B189B1C2684368881A90FBF3F0431C08D0064BCE
:2062A00000EB40009B6813EB800002D00430704700207047084670470C050020F8B50E4B62
:2062C0000E4A1B781688C3F13005AC19802C02DD00242046F8BD074609492A46194404F05D
:2062E0009FFF084A084B11681B8878193246194404F096FF2046F8BDBE230020A62300204B
:20630000B0160020AC160020A823002010B40E4C2178814214DBC1F1300313F0FF0308BFB0
:206320000A4B0B4A08BF1B78128813449BB20344802B05DC091A217001205DF8044B704718
:2063400000205DF8044B7047BE230020A8230020A6230020084A138883420BDB10B4074C3E
:2063600080B221881B1A13800844208001205DF8044B704700207047A6230020A823002067
:20638000014B1880704700BFA6230020024A034B10881844704700BFA8230020E0160020B5
:2063A000024B03481B781844704700BFBE230020B0160020014B1888704700BFA6230020AE
:2063C000064B1878C0F1300010F0FF0004BF044B1878044B1B88184480B27047BE23002022
:2063E000A8230020A623002008B5094B002103F11E0223F8021F9342FBD10648064900F019
:20640000B3F8BDE808400548034900F0ADB800BF862500207825002088B6000080250020AC
:2064200070B40748074A0849084E094D302400230470116033802B8070BCFFF7D5BF00BF6C
:20644000BE230020AC160020E0160020A8230020A6230020802928BF802138B50C460546B4
:20646000FFF7DEFF044B29462246186804F0D8FE024B20461C8038BDAC160020A6230020CA
:20648000F0B40E4B0E4A1E685D689C68DF680660C760456084601E695D699C69066145619C
:2064A00084619E8B55689468D368126886834D608C600A60CB60F0BC704700BF882500203A
:2064C00078250020F0B40E4B066845688468C7681E605D609C60DF600669456984691E61CD
:2064E0005D619C61808B074A98830D684C688868CB68156054609060D360F0BC704700BFB0
:206500008825002078250020024B23F810100120704700BF88250020014B33F810007047C7
:206520008825002008B5044B0F3803EBC00000F01BF8012008BD00BF78250020024B0F3894
:2065400003EBC000704700BF782500200148024900F010B88025002088B60000014B1B683C
:20656000184700BFFCB900000A684B6802604360704700BF08B5082204F020FEB0FA80F095
:20658000400908BD30B591B0FFF700FF0546FFF711FF01AC01462246284600F06DFB90B31C
:2065A0000546FFF7D7FE70B30E209DF81410FFF7ABFF9DF81930ABB14AF6CD31BDF81E20B0
:2065C0008A4203D04FF6FF718A421CD1022B0CBF02230823234403E013F8012DFF2A16D1D3
:2065E000A342F9D103A90F20FFF79CFF9DF816100D20FFF789FF9DF81C100A20FFF784FFB6
:20660000284611B030BD4FF0FF3011B030BD21461020FFF787FFE5E770B590B03C22054655
:20662000002101A804F0D6FE424B1A78002A6DD00E20FFF771FF8DF814000D20FFF76CFF87
:206640008DF81600FFF782FF002859D000238DF81730002301248DF818308DF81A40002DC7
:206660003DD14AF6CD330324ADF81E308DF81B40FFF76CFF48B3FF2302228DF819208DF8ED
:2066800004308DF805304AF6CD332B4903A8ADF82030FFF769FFFFF779FE0E90FFF78AFED1
:2066A0000F9001A800F05CFA04460DB910B070BDFFF72CFE00283AD0FFF772FE014601A8A7
:2066C00000F066FA204610B070BD1020FFF736FF014601A8FFF748FF8DF81940D3E70A20CD
:2066E000FFF71AFFE8B9154E3378B3B15A1CD2B299B20A2032708DF81C30FFF705FFB0E705
:206700000B20FFF709FF8DF81700A2E701221A70FBF784FB094B18708AE7214623460222CC
:20672000E7E70A20FFF7F8FE8DF81C0099E74FF0FF30BBE7C0230020A8250020BF23002052
:206740000120FFF769BF00BF0020FFF765BF00BF014BDB68184700BFF4B60000014B5B69DB
:20676000184700BFCCB60000014B9B69184700BFCCB60000024BD86900B10047704700BF8D
:20678000CCB6000080B110B5044682B0406BFBF7CFFA50B102462146054B0648DB6801937A
:2067A00002B0BDE810401847704702B010BD00BFCCB600005168000071B370B50E460446BC
:2067C000406B1546FBF704FB7068FFF741FBB168194801F0B9FE3146184801F0B5FE606B50
:2067E000FBF7A6FAC8B1002384F82C3084F82D3084F82E3045B9294604F10C002346BDE864
:2068000070400F4AFAF70CBF0E4BDB699847002814BF01462021EFE7704704F10C00FAF735
:2068200027FF21460848FBF7D3FA2146BDE87040064801F089BE00BF180500203005002029
:2068400085670000CCB60000D017002024050020002878D02DE9F04F81B0032908D8DFE8B1
:2068600001F03F393F0290F82E301A4480F82E200646406B0F46FBF75BFA044630B95FE05F
:206880002046FBF7C5FA0446002859D00A216068FFF70CFB05460A20FFF73EFE8542EFD128
:2068A000A568002D4CD07A1E012AD5F80090D5F8048096F82CA019D9304621463A46FFF772
:2068C0007BFF484641463A46534601B0BDE8F04F00F06ABA90F82D301A4480F82D20C7E7B1
:2068E00090F82C301A4480F82C20C1E7164BDB699847002814BF83464FF0200BFBF78EFABE
:206900002B7A96F82C209A42D6D2BAF1030FA8BF4FF0030A012303FA0AF303FB0BF3B0FB3F
