:020000040000FA
:2000000000500020E9000000E1000000C9000000E5000000E5000000E5000000000000002E
:20002000000000000000000000000000E5000000E500000000000000E5000000E50000002C
:20004000E5000000E5000000A1210000E50000007111000095160000E5000000E500000038
:20006000E5000000FD210000E5000000E5000000E5000000E5000000E5000000E50000001F
:20008000E5000000E5000000E5000000E5000000E5000000E5000000E5000000E500000038
:2000A000E5000000E5000000E5000000E5000000E5000000E5000000E5000000E500000018
:2000C000E500000079240000044B1A68B2F5806F03D01B689B0500D4FEE7704728ED00E0DC
:2000E000FEE700BFFEE700BF08B505F0FDFA104A104B9A420DD2D0430F4918440B4620F077
:2001000003000430084453F8041B834242F8041BF9D10A480A494FF000028842B8BF40F8AB
:20012000042BFADB00F01CF8FFF7CEFF08BD00BF00000020890200207CC3000090020020B4
:20014000E024002010B50388044613B9034801F003F900232380032010BD00BFD4B50000DF
:200160002DE9F041554C84B02368554801215B689847236801210A461B685148984705F08A
:20018000E1FE01F0A5FC01F087FC00F0D1F84D4801F0E2F84C4801F0DFF84C4C4C4801F0E8
:2001A000DBF80221012000F00FF900F021F900F055F9238801252B449BB21846238000F06A
:2001C0003DF92188434802F0B9F905F0BFFE00F047FF00F0ADFE03F039FA01F089F803F003
:2001E00045F941F2342002F05DF801F01FFA03F0D5FA0021384803F0FDF902F0D3FE02F0E8
:200200004DFF00F02BFF354A354B106035481D7002F094F9344B4FF00008186801F09CF8B5
:20022000324802F08BF9324B324F186801F094F8314802F083F9314B314E186801F08CF8FC
:2002400006F06AFD02A80821CDF8048001F0BCF89DF80F309DF80E4002AA43EA042403CAFB
:2002600038607960204600F0A9F8264B2648198802F064F9F76A4AF6CD310220B847214620
:200280000320B84741462846B847082202A9736B0B209847B36A01A9284698471B4802F022
:2002A0002BFE01F033F803F0FBF8044601F046F814F0FF0FF7D101F075FAF4E7D80100109C
:2002C0000040034000B600001CB600001C19002038B600004CB600009C0000208019002059
:2002E0007419002060B60000F4C1000068B6000040C20000E41A002070B600005CC2000004
:2003000034B70000DC18002078B60000CCB5000010B5064C042023685B6998472368042017
:200320005B6B98470128F9D110BD00BFB8010010F0B59DB005F006FE0746FFF7E9FF194B56
:200340004FF4A0601B68DB699847174B0121174A196013689907FCD5154801F091FB7022FE
:20036000684614490AF0DCFF009C621C0FD06D46114E336820469B6B9847336820469B69A7
:200380004FF40051984755F8044F631CF1D10FB905F0DCFD084B1E201B68DB6B1DB0BDE8A7
:2003A000F0401847B801001028200860282008401000002088B60000B4010010014B18808E
:2003C000704700BFDC18002000B583B08DF804008DF80510FF2301A8044903228DF8063090
:2003E00007F052FF03B05DF804FB00BF02E0010030B583B001A90C48022207F027FF9DF820
:2004000004309DF80520094D094C18462B80227001F0FAFB2988074802F090F82178064861
:2004200002F08CF803B030BD02E00100181900201A190020F8B6000010B7000000B583B0C2
:200440008DF80400002301A84FF4F03102228DF8053007F019FF03B05DF804FB00B583B007
:200460004FF4F03001A9022207F0F0FE034B9DF804201A8003B05DF804FB00BF1C190020AA
:20048000012070470120704708B501F041FC30B1044B5B88022B0CBF0120022008BD02208C
:2004A00008BD00BF4001002010B582B001F06CFE044601F02DFC08B902B010BD084801A967
:2004C00001F02EFC0128F7D1638803F44063002BF2D1638803F44063002BF5D0ECE700BF96
:2004E0000100010408B50346B32994BF0A46B422024819460AF014FF002008BDD20200200C
:2005000070B50A4D00262C6803E024682B68A3420AD02379032BF8D1054803F08BF8246802
:200520002B680136A342F4D1304670BDC402002050000020F8B5124E35682B79032B02D000
:2005400000242046F8BD2C89023C002C0CDD8C4205F10A070EDD3957042089B206F0B2FB02
:2005600003207F2106F0AEFB2A68002332602B712046F8BD394622460AF0D2FEEBE700BFD9
:20058000CC02002030B583B001F0C2FBE0B1164C6388022B18D101A9144801F0C1FB02E01E
:2005A0006388022B03D101F0B3FB0028F8D16388A3F55053043B9BB2012B02D9002003B033
:2005C00030BD0B4CE37913B9012003B030BD00F045FD084A0849D369CD6900215B1B1844B4
:2005E000D061E1710120F0E7400100200100010474190020401900208019002030B583B022
:2006000001F086FB1B4C90B900236380A37F19485BB2C3F5FF6307339BB201A9238301F040
:200620007FFB01280BD00023184603B030BD6388022B08BF0123E7D1184603B030BD00F072
:200640000DFD6FF03F052D1A03E000F007FDC54203D563889BB2022BF7D163889BB2022B5E
:20066000E1D100F0FBFC044C044901221346E061CA71E1E7400100208019002074190020BD
:2006800010B5114B114C1A680A21237E84F82410928882B003F0F80343F00803204601A956
:2006A0006283237601F03CFB012802D0002002B010BD204601F086FBA0F10100B0FA80F076
:2006C000400902B010BD00BF380000208801002000B583B00A4801A901F022FB012803D0A4
:2006E000002003B05DF804FB054801F06BFBA0F10100B0FA80F0400903B05DF804FB00BF74
:200700007001002008B5FFF7BBFF012801D0002008BDFFF7DDFF0128F9D1FFF76FFFC0B261
:2007200008BD00BF38B501F0B1FD01280BD00D4CFFF728FF01F036FCE37933B901F026FAB3
:20074000094B00225A80012038BD00F087FC074A0749D369CD6900215B1B1844D061E17137
:20076000ECE700BF741900204001002040190020801900202DE9F84F01F088FD012818D0C3
:2007800001F0D2F901F0C4FA78B901F0C1FA0446002840F08E8001F02DFB012805460BD0F9
:2007A00001F000FC0020BDE8F88F574B5B88022BEBD10120BDE8F88F01F06AFC53494FF40F
:2007C000237253480AF0ACFDDFF88CB15148DFF88C91DFF88CC1504F504E5149514B524A72
:2007E00004704FF0020A8BF800504FF003084FF0040E052406204D4D89F800A08CF80080BE
:2008000087F800E0347008701A602B684749002BFBD00020464A474BDFF84881086052F836
:200820001CCC52F818EC52F8146C52F8105C52F80C4C52F8207C12E90300203343F8207C52
:2008400043F81CCC43F818EC43F8146C43F8105C43F80C4C43F8080C43F8041C434502F11C
:200860002002DCD1344B354ADFF8FCC0DFF8FCE0334934482D4C344F344E00251862C3F895
:2008800024C00120C3F828E0DF621E632560116005F034FE2E4805F095FD22461368234965
:2008A000002BFBD000230B6001F00AFB01287FF477AF002001F00EFC2648002103460E46B5
:2008C000022584245A791E7102F0FC0265F383025A71DC808C3343508C31B1F50C7F1D4A4C
:2008E000F0D1C2F8A42101F037F9FFF7C9FE012802D00020BDE8F88FFFF7EAFE0128F8D1C3
:20090000BDE8F84FFFF77ABE4001002020BE00001C04002190030021AE030021AB030021E8
:2009200081030021C0030021BD0500211C1004408CB7000000C0002180C6002100100440FC
:2009400001010E046039536311161216546B0070880100208803002079030021750300212C
:2009600077030021A0C600212010101A136F236E70B582B007287ED8DFE800F077047D7DE0
:20098000207D235E0A2973D8574C4FF47A72208AE38902FB03F302FB00F2A3F5D32302F56C
:2009A0007F42FF32A3F55A73504803EB2243A0FB0323CAB2C3F387139A4266D1002002B083
:2009C00070BD4FF6FF744A4DAE88A64208BFFF2309D02A460023083290880133A042DBB233
:2009E000F9D1013BDBB255F83330414C99423FDB236899423CDC0191FFF756FD4FF6FF7322
:200A00009E4201996DD022461C460023083290880133A042DBB2F9D1013BDBB255F833200A
:200A200005EBC300914203F1FF3357DD5A1CF5D1FFF768FE0020C2E72E4B197001F068F921
:200A4000E0B12D4B5B88022B08BF002516D1FFF799FD012814BF03240024FFF753FE012867
:200A600018BF03244DBB2046A9E701292FD041B3022002B070BD012002B070BDFFF77AFEEE
:200A8000012829D0032002B070BDC82303FB01F11A4801F5D32303F55A73A0FB0321184A23
:200AA000890902FB01331B04A0FB032315488AB29B092382E2810284C0E7FFF733FE204694
:200AC0007DE70191FFF72EFE0199084677E7FFF751FE0128D6D171E70546B8E70A4B186094
:200AE000A6E7FF239AE700BF700100201F85EB51ACC000008402002040010020D34D621091
:200B000018FCFFFF880100203800002089B12DE9F0430C4683B0102800F29280DFE800F0C7
:200B2000121F90909090848A399090909066696D0B00022070474A4B00201B680B6003B047
:200B4000BDE8F08301F0E4F830B1464B5888A0F10200B0FA80F0400920600020EFE7424967
:200B60004FF47A72CB89098A02FB03F302FB01F2A3F5D32302F57F42FF32A3F55A733B491C
:200B800003EB2243A1FB0323C3F3871323600020D5E701F0BDF8002854D0324B5B88022B12
:200BA00008BF4FF000094DD140F203470A2580264FF000086B1E13F0FF0569460BD001A8AD
:200BC000CDF80480ADF8047001F0AAF818B19DF802607306EED0B9F1000F39D176B216F137
:200BE000800F26600CBF03200020A8E700200860A5E70A230B600020A1E74FF6FF70184DD6
:200C0000AB88834208BFFF2309D02A4600230832918801338142DBB2F9D1013BDBB255F8D0
:200C20003330002023608AE7114B00201B681B680B6084E70F4B002093F900300B607EE7DF
:200C400001207CE7FFF796FD012804D18146ABE7FFF768FDC2E76FF07F03236003206EE750
:200C6000ACC0000040010020700100201F85EB5138000020840200202DE9F04383B0044672
:200C800001F046F8002837D0434B5B88022B08BF002531D14149221DA31C414C92B29BB2C4
:200CA000100A2382E1610A704870FFF76BFC0020014601F049FA204601A901F031F8394F57
:200CC00010BBBB79DFF8E4800126DFF8D890002B3DD100F0C3F90123C8F81C000020FB7103
:200CE00001F046FA00236380FFF788FC002D3CD1304603B0BDE8F083FFF73CFD01283AD066
:200D0000012003B0BDE8F083FB79002B35D1DFF89C8000F0A3F90123BB71C8F8180000F0AB
:200D20000DFB638803F4406333B900F0F7FC638803F44063002BF8D06088BB7980B2B0F5EC
:200D4000505618BF0126DFF85C90002BC1D000F085F91549D8F818208B694FF0000E9B1AA6
:200D60001844886189F806E0B3E7FFF7DBFC304603B0BDE8F08305468CE700F06FF9DFF832
:200D80002C80094AD8F81C10D36900265B1A1844D061FE71BDE700BF40010020D0020020CF
:200DA000B001002074190020401900208019002010B50C46B32C014694BF2246B422044869
:200DC0000AF0AEFA2046BDE81040FFF755BF00BFD202002030B583B001F058FA01281BD0EA
:200DE00000F096FFD0B1154B5B88022B1FD000258024134801A900F093FF012803D19DF8AC
:200E000006406306F5D07DB90E4B64B293F90000A042D4BF0020012003B030BDFFF7AAFC3B
:200E2000012806D10546E3E7FFF77CFCECE70120F2E7FFF777FC0120EEE700BFB001002073
:200E4000010003048402002008B500F061FF58B1064B5B88022B06D1FFF7BCFF10F1FF30B5
:200E600018BF012008BD002008BD00BF40010020F8B51B4800F004FE04F0E0FF012802D0E0
:200E800000242046F8BD174C002120464FF40C720AF020FB40F2B112134B14481449DFF870
:200EA0006CE0144F144E0025CEF8004083E830008362C7620D82CA813284FFF75BFC012847
:200EC0000446DDD100F0CAF80C4A0D4BD0610D48DC7101F05FF929460B4802F08BFBD0E7AD
:200EE0002400002088030020C40200204001002070010020B80200208801002080190020EF
:200F0000741900202CB7000050000020CC02002010B5064C042023685B69984723680420CB
:200F20005B6B98470128F9D110BD00BFB8010010F8B51A4A00200021C2E90001184B04203F
:200F40001B685B6B9847012801D0FFF7E1FF144B00201B68DB699847124B0121124A196020
:200F600013689B07FCD5114A11491368096823F4807323F001030F4C13600B6820460E49C3
:200F8000984740F221200D4D0D490E4B04273126012227602E6008601A60F8BD90020020F3
:200FA000B801001028200860282008400C000140C801001000000140002100043C0001401F
:200FC000080001400400244310B40949094C0B68226808688342FAD1DB01074903EB526227
:200FE0000023C1E900235DF8044BD1E900017047082009400C2009409002002010B50B493A
:201000000B4C0B68226808688342FAD1DB01094903EB52620023C1E9002302F055F900B9C3
:2010200010BDBDE8104002F025B900BF082009400C2009409002002010B504F083FF034B3E
:201040001C6808B904F082FF204610BD08200940704700BF0146012000F05EB805F0A0B900
:201060002DE9F04104F06EFF214E224B224F32680124002580464FF480314FF480703D600D
:201080001C60186019601368284623219847336820461B6824219847336802201B682521A9
:2010A0009847164A1649136843F4E02313600D6005F076F9134B00F50070186005F070F900
:2010C000114B124D1249134A1B6800F5803028600C6014603C601B6914209847B8F1000F22
:2010E00001D0BDE8F081BDE8F04104F02FBF00BF84010010042009400000244300200940C0
:20110000082009401C200940B001001020200940A0022443C0022443431E012B00D9704740
:20112000C30709D50B4B820719600ED50A480B4B012201601A6003E0830705D5064B196015
:20114000074B01221A6070477047044B01221A60704700BF182009401C20094080022443E1
:20116000A0022443014B1868704700BFB805002070B5FFF773FF404D404C0123A370A86062
:20118000FFF76CFF3E4A3F4B10601B68002B2DD13D4B1B68CBB93D4B1B686BB9A378374C64
:2011A0004BB1FFF75BFF3A4AAD68936800215B1B18449060A17070BD3649374B00200122EA
:2011C00008601A6002F05AFAE8E7334B4FF480721A60FFF713FF05F0E3F800F2052020F4E8
:2011E000FF702E4B20F001001860D4E72A4B4FF480321A6000F048FD00F04EFDF8B900F0CE
:20120000E1FC00F035FD264E307000F009FD00F02FFD3378834204D000F02AFD01280646D9
:201220001FD000F025FD012802D01E4B00221A6005F0B6F81C4B00F580301860A8E700F007
:201240001DFD064600F02EFD8642D8D300F030FD00F022FD0028D4DA00F0B4FC00F0B2FC5A
:20126000CFE705F09DF80D4A0E4B00F5007010601E6006F07BFFD4E780190020741900209A
:20128000B8050020C0002443A0002443800024434019002080022443042009401C20094008
:2012A000F2180020A002244320200940820702D5034B01221A60C30700D4704704F046BEDA
:2012C000000C084008B504F03DFE074B1A68012A03BF0649022219600022002814BF1046AE
:2012E00042F0010008BD00BF000C084051E5CC1A03490448044B012208601A60704700BF65
:2013000000000840FFFF0F00000C084038B5FFF7D9FF064C064D0749074A012325600B600F
:201320001360BDE83840FFF7C1BF00BF00000840FFFF0F000C00084004010043034904485F
:20134000044B012208601A60704700BF00000840FFFF0F000C00084070B506460024451E22
:2013600004E015F8010F00F075F9013430460AF0FFF88442F5D30A2000F06CF900F07EF9FE
:201380000128FBD0204670BD70B50446B0B10078C0B1A9B10025661804E014F8010F38B127
:2013A000B44205D000F056F9631C05F10105F4D100F064F90128FBD0284670BD0546F7E7DE
:2013C0000D46F5E70546F3E710B40B4B0B4C13F8012FFF2A0ED1A342F9D1094A39B11144C4
:2013E000013801390B78914200F8013FF9D15DF8044B7047034AF1E7C7FF0100CFFF01000C
:20140000F0120050C8FF010038B50C4D02202B685B6998472B6802205B6B98470128044647
:20142000064BF7D11B684FF40070DB699847044B044A1C6013689B07FCD538BDB801001075
:2014400028200860282008402DE9F04340F2F275DFF8E08083B0FFF7D7FFD8F800302B4EBB
:20146000DB682B48984733682A4C5B69152098472368DFF8C490284F23F4FE63D9F8002058
:2014800023F0020323603D60D36B1B2098472349D9F800204FF0FF334FF000600860009354
:2014A000D2F840C01A481C211B22E047D8F800301748D3F804C01A494FF4E1326023E0470E
:2014C00040F2011240F2013E1649174B142008601968164841F01001196003681449002B6C
:2014E0000CBF134673460B603D60036853B12368326843F0500323601369152003B0BDE861
:20150000F043184703B0BDE8F08300BFB00100100010004038100040441000409020024090
:20152000006CDC02341000402C100040BC05002030100040D0010010B401001008B5064B4C
:2015400002201B685B6B9847012803BF034B186800F00100002008BDB80100106C20084015
:2015600038B50446FFF7EAFF18B1264A13681907FCD4032C03D0244B1B6803B138BDFFF71E
:20158000DDFFF0B9214D4FF400702B681B6A9847032C2CD01E4B01211E4A196013689B07FA
:2015A000FCD51B2000F07EFA1C2000F07BFA4FF0FF3000F077FABDE838404FF0FF3000F0CC
:2015C00071BA154B15481B68DB689847144B15201B685B69984740F2F270124A12491368FE
:2015E00023F4FE6323F0020313600860CAE72B684FF400709B6A98472B684FF400701B6BD9
:201600009847C7E718100040BC050020B80100102820086028200840D001001000100040BA
:20162000B0010010381000404410004010B504F089FC0446054800F023FA054B00221A60FF
:2016400004B110BDBDE8104004F080BC3C000020BC05002010B50446FFF770FF08B9FFF77B
:20166000F3FE044B2146BDE810401B680248DB69184700BFD00100100010004008B5FFF7BB
:201680005DFF18B1024B1868C0F3C00008BD00BF18100040F8B5FFF7E1FC174F174E01238A
:2016A000B370B860FFF7B0FE40F2F271144B154A1B68116013F0500F0CD0134C134D05E022
:2016C0002B681B699847124B1B688BB923681148DB06F5D5B378094C4BB1FFF7BFFC0E4ADC
:2016E000BD68936800215B1B18449060A170F8BDC0B29847EAE700BF8019002074190020DA
:20170000401000404410004018100040D0010010BC05002000100040401900202DE9F0416B
:20172000FFF79CFC1A4C024623783BBB194D1A4F0123396802206A60637001F0E5FC174A56
:20174000DFF850801368124E23F00403136030BF022001F0BBFC3860FFF780FC637843B1E8
:201760000F4AD8F8047053680021DB1B034453607170012328602370BDE8F0810849054D27
:201780000B682E6800209B1B13440B602070CEE77419002080190020C405002010ED00E037
:2017A000401900202DE9F04104F0CCFB01F0E4FE18B1BDE8F04104F0C9BB9E4802F004F8F0
:2017C0000225044648B1636823B19847A84228BF2846C5B22468002CF5D1FFF73FFC964BDB
:2017E00007461B68002B40F0BB8001F06DFD002840F0C280012D0446064600F0FC80022D2F
:20180000D7D100F035FA012800F00281894801F0DBFF06250446002800F0DE80A3680220B1
:2018200003B198472369246825EA0305002CF5D1FFF784FD6B0705F0060400F1D080002C9F
:2018400040F0D38000F0A2F9002006F0DDFD7B497B4A0B687B4823F003030B601368016863
:2018600043F00F0313608B6939209847764A774900231360184613600B6004F083FB062C8E
:2018800000F0BF80724D734C2968022001F03CFCFFF7E4FB2378002B00F0A5806E4A6F4E9A
:2018A000136837680021DB1B0344136021706C4A01216C4B706061701B686B491368096859
:2018C00023F0030313604B686848032198475D4BDFF888811B685F4F9B6B9847022001F065
:2018E000F5FB2860FFF7BAFB637843B15A4AD8F80450536800215B1B0344536079700125D3
:20190000584F306025703B6804F094FC564B584A1B680021116055485B6829469847504A34
:201920005449136843F0030313600D603B6804F0B3FC06F035FDFFF761FBFFF7FFFC3D4840
:2019400001F042FF044628B1E36803B198472468002CF9D104F0FAFABDE8F04104F0F6BA70
:20196000454B1B681B1A022B31D4A3F28F23002BBFF63BAF01232BE001F0AEFC0646FFF7D0
:2019800023FB361A002E7FF714AFFFF7EBFB3B4B00EB4626DB1BF34240D40124A5427FF4FB
:2019A0002EAF6FF00703DB1BF3422ED407F58037BB1B36EA230628BF3E4631460220FFF7E8
:2019C000ABFBFFF7ABFEBDE8F04104F0BFBA00239D4228BF1D4608E7FFF7B0FC0624254B08
:2019E00000221A602BE71D4E61E7164B20461B689B69984726E707F580310220FFF78CFB00
:201A0000DFE7022004F0A6FA3CE707F10806D4E728464CB13146FFF77FFBF7E6022DC0D078
:201A2000012D7FF4C6AEBCE707F52021FFF774FBECE600BFC0050020800224430010094094
:201A400008100940B80100104010094020042243C405002074190020401900208019002072
:201A6000242208402C200940D801001000400340800104430C4009401820094071FDFFFF8D
:201A80000146014801F0A2BEC00500200146014801F0E0BEC0050020014801F091BE00BF34
:201AA000C0050020421C0ED010B50446064B4FF4C0421B6800211B689847044AA3001A430C
:201AC0000023136010BD7047B4010010001A444210B584B00022412302A80292039306F03E
:201AE00073FC042004F046FC032813D00420032104F010FC042004F03DFC03280346F9D138
:201B0000074A084812680093546800214FF040521C23A04702A806F0ADFC04B010BD00BFBA
:201B2000A401001000A00C4000B583B00022412368468DE80C0006F047FC012004F01AFC03
:201B4000012803D00320012104F0E4FB684606F091FC03B05DF804FB00B583B000224123CB
:201B600068468DE80C0006F02FFC012004F002FC012803D0044B986B04F030F9684606F0F3
:201B800079FC03B05DF804FB4800001010B582B04123684600240193009406F015FC0320F2
:201BA000214604F0B7FB012004F0E4FB18B1044B986B04F013F9684606F05CFC02B010BD8E
:201BC000480000100E4B9A780132D2B23B2A9A705A7804D901320021D2B25A7099703B2A5D
:201BE0001A7804D901320021D2B21A705970172A05D9044900200A881870531C0B807047F4
:201C0000C8050020DE180020014B1880704700BF80020020014B188880B27047800200204E
:201C2000014B01221A707047F31800200D4B1A7802F0FF03A2B10C490C4A4B788878A2FB8D
:201C40000312D20802EB8202A3EB4203DBB2C3F10903C3EB0313C0F13C0000EB830070472E
:201C600018467047F3180020C8050020CDCCCCCC014B1878704700BFF3180020014B1868BD
:201C8000704700BFD4050020024A136801331360704700BFD4050020014B1868704700BFB6
:201CA000CC050020014B1868704700BFD0050020014B00221A607047D405002070B50388B4
:201CC000054653B1B3F5097F03D182290AD0012070BD00230380032070BD4FF409732B807E
:201CE000012070BD094B1E69FFF728FB04F076FF04F02AFF8021B047041EA0B2EDDD04F052
:201D00001DFF204606F0CAFBEEE700BF34B70000024B186800F00100704700BF9C210840CE
:201D200010F0030370B506460D4602D1028811051FD404F007F91F4B00301B6818BF01206A
:201D4000DB0720D51C4B1D4C1E6023684CF250322B6003E02368013A2B6014D013F0FF0F5F
:201D6000F8D018B32878A0F10100B0FA80F0400970BD438004F0E6F80E4B00301B6818BF96
:201D80000120DA0702D468B1002070BD338813F4405FD7D003F44063B3F5006F04BF084B36
:201DA0001E60CFE704F0D2F8002070BD04F0CEF8D8E700BF9C2108400010044004100440FB
:201DC000D80500200A4A01E0013A0ED0438803F44063B3F5806FF7D1428802F44062A2F5FB
:201DE0008060B0FA80F0400970471046704700BF20A1070030B583B004F0A4F8254C0546F1
:201E0000236819201B6A9847236812201B6A9847236819205B699847236812205B69083455
:201E20009847236801205B699847236801205B6B98470128F9D11849184B194A0860186029
:201E400013689B07FCD5134C164817492268002303600B60136919209847236812201B6927
:201E60009847A5B140F2FF35104B114A11481249002405600C60114801A91A60FFF750FFA6
:201E8000A0F10100B0FA80F0400903B030BD04F05DF8E7E7B00100102C2008402820086091
:201EA0002820084010100460141004600010044051000706000004601C10044001000604F5
:201EC00040F60A0230B5164B87B01D680024012301A8694601940494059502940394ADF885
:201EE00004208DF81130FFF71BFF012802D0204607B030BD0B4801E00138F9D0BDF80630C2
:201F000003F44063B3F5806FF6D1BDF8060000F44060A0F58060B0FA80F0400907B030BDFE
:201F2000E005002020A1070010B540F6090486B00023012201A869460193049302930393A2
:201F40000593ADF804408DF81120FFF7E9FE012802D0C0B206B010BD0F4801E00138F9D043
:201F6000BDF8063003F44063B3F5806FF6D1BDF8063003F44063B3F5806F02D0002006B0BA
:201F800010BD064B1A782AB9054A0599012011601870DFE70120DDE720A10700F418002008
:201FA000E005002030B587B003F0CCFF2F4C0546236819205B699847236812205B699847B5
:201FC0002B4B1B68DA0715D540F60D04294A2A490023136002A80B60012201A9029305936B
:201FE00003930493ADF808408DF81520FFF798FE01282CD0FFF798FF2048214B00240121B5
:20200000204A0460196013689B07FCD51E4C012023689B699847236801205B6B9847022817
:20202000F9D1124C192023681B6A9847236812201B6A9847236819201B699847236812204B
:202040001B6998470DB903F081FF07B030BD0F4A01E0013ACED0BDF80A3003F44063B3F5FC
:20206000806FF6D1BDF80A30C4E700BFB00100109C21084010100460141004602C200840EB
:202080002820086028200840B801001020A1070008B503F0FBFE052803460BD003280DD06D
:2020A00018B101280FD0002008BD094B03221A60012008BD064A0120136008BD044B022275
:2020C0001A60012008BD024A0521116008BD00BFD0210840F8B5164A164B1268002814BF1D
:2020E00000241C46D30700D4F8BD03F02BFF0646114A1248124F134D00214FF000433B60DA
:20210000046011602B6819201B6A98472B6812201B6A98472B6819201B6998472B6812209D
:202120001B69984706B1F8BDBDE8F84003F00EBF9C21084000008080101004601410046022
:2021400018100460B00100100028064B14BF08220222002918BF0023034804491A4303601D
:202160000A607047000080801010046014100460034B0028034A18BF00231360704700BF8C
:202180000000808014100460014B1868704700BFD8050020014B1860704700BFDC0500203D
:2021A00038B5FEF75BFF104C0122104BA2701B680F4DDB07A86004D4FFF71CFE012800D04D
:2021C00038BD0C4B6FF000421A60A378064C002BF6D0FEF743FF084AAD68936800215B1B0A
:2021E00018449060A17038BD741900209C21084080190020101004604019002038B5FEF743
:202200002DFF1B4C01221B4BA2701B681A4DD907A86007D41948FFF79FF8FFF7EBFD0128EE
:2022200000D038BD03F08EFE154B1A68120218D4134B1A6812F00A0F1CBF6FF00A021A60BD
:2022400003F084FEA3780A4C002BEAD0FEF706FF0C4AAD68936800215B1B18449060A1705F
:2022600038BD6FF400021A60074801F0E3F9DFE7741900209C21084080190020DCC00000A1
:20228000101004604019002050000020014B1878704700BFF518002008B500F08BF880B2F0
:2022A00008BD00BF00F02CB938B50C4D04202B685B6998472B6804205B6B98470128044656
:2022C000064BF7D11B6840F20140DB699847044B044A1C6013689B07FCD538BDB801001007
:2022E0002820086028200840034B1B68002B14BF01200220704700BFE4050020F8B50388D5
:202300000446002B2ED0B3F5847F05D1184B1B788B4205D00120F8BD002303800320F8BDDD
:20232000144D2B6873B1144B144A1B6812685B680220174698470026301847F100012B6870
:2023400098472E600E4B40F201401B689B6A98470C4B01210C4A196013689B07FCD50B4854
:20236000FFF794FB4FF4847323800120F8BD00BF85020020E4050020CC0100100480024013
:20238000B801001028200860282008406000002008B5064B04201B685B6B9847012803BF6F
:2023A000034B1868C0F34000002008BDB80100103C20084070B5274B1B689BB1264C00230F
:2023C000224612F8011B29B90133042BF9D10020014670BD214A002502EBC302E55492E8D7
:2023E000030070BDFFF7D4FF00282FD01C4A1D4B1268134073B91C4A012113461160186824
:202400000028FCD102464FF4807103F0CBFC174B01221A6003F096FD0646114A1368DB0708
:20242000FCD5134B134A1B6814685B680220984723460022141843F1000516B120462946C1
:2024400070BD03F083FD2046294670BDFFF72CFFCCE700BFE4050020E80500209802002077
:202460000880024001000080F09F0240A8025042CC010010048002402DE9F041FEF7EEFD3A
:20248000174D184E0024184A0127AF70346013681649DFF86880096823F00103C8F8080028
:2024A00013604B6931209847204622464FF4807103F078FC0E4B3760197822460D4801F02D
:2024C00065F8AB784BB1FEF7C9FD0B4AD8F808109368AC705B1A18449060BDE8F08100BFDB
:2024E00074190020A80250420C800240B001001085020020740000204019002080190020F7
:2025000010B5074C2378802B00D010BD00F0A6FF207000210348BDE8104001F06BB800BF67
:2025200085020020740000200AB90020704708B508461146FEF728FF002008BD0FB400B5EB
:2025400083B004AB53F8041B04481A46019300F025F803B05DF804EB04B0704784000020DC
:20256000102970B50C46054602D80AE0102C0BD92B686868084910229847103C0028F5D07E
:2025800070BD08460029FBD022462B6868680249BDE87040184700BF88C100002DE9F04FA5
:2025A00082460F468FB007924FF0000B3B78002B00F0E880252B08BF3E461BD03C4602E0BC
:2025C000252B04D014466378621C002BF8D1974216460CD0D51B39462A46DAF80030DAF86C
:2025E00004009847002840F079826378AB44002B00F0C88073780136002B00F0C380194699
:202600000025A1F12003102B1BD8DFE803F0171A1A141A1A1A1A1A1A1A111A0E1A1A09006D
:2026200045F0100516F8011FEBE745F00105F9E745F00605F6E745F00805F3E745F00205C0
:20264000F0E7A1F13102082A0B46374600F2DC80A1F13002092A4FF000040AD804EB8404FD
:2026600003EB440417F8013F303CA3F13002092AF4D92E2B00F0D1804FF0FF366C2B00F00E
:202680003D81682B00F04281782B00F28180DFE813F079007F007F007F007F007F007F0063
:2026A0007F007F007F007F007F007F007F007F007F007F007F007F007F007F007F007F002A
:2026C0007F007F007F007F007F007F007F007F007F007F007F007F007F007F00BE027F00C9
:2026E0007F007F007F007F007F007F007F007F007F007F007F007F007F007F007F007F00EA
:202700007F007F007F007F007F007F007F007F007F007F00BB027F007F007F00B802B50218
:20272000B2027F007F007F007F007F007F007F007F007F007F007F007F007F007F007F0074
:202740007F00AF027F007F007F007F007F007F007F007F00AC027F00A902A602A302A0028A
:202760009D027F00A6027F007F007F007F009A0297027D007F007F0091027F008E027F00C6
:202780007F00940258460FB0BDE8F08F45F4407505F4E063B3F5806F07F1010700F0CE80A4
:2027A0004FD9B3F5C06F00F0A581B3F5E06F00F09A81B3F5A06F7FF4F9AE079B012C1A68E0
:2027C00003F1040307938CBF04F1FF340024EB078DF8202000F1D08150462146FFF7C0FE23
:2027E000002840F07B81DAF80030DAF8040008A901229847002840F071810BF1010C0CEBB0
:20280000040505EB040BD1E62A2900F08C800B462E2B4FF000047FF42FAF7B78791CA3F150
:202820003002092A7AD80F46002606EB860603EB460617F8013F303EA3F13002092AF4D92C
:202840001CE7B3F5807F00F0B080B3F5407F7FF4ADAE079BC34A1968C34815F4804F03F172
:20286000040308BF9046079318BF80460A460023002900F094810DF133094846110941EACF
:2028800003714FEA131E02F00F0673460A4618F8061000F8011D52EA0301EFD1B9EB000664
:2028A000034600F07E810336B4424FF030024FF078014FF0230300F8022C8CBFA41B0024CF
:2028C000EA0700F8011C00F8033CA0F1030800F1A18150462146FFF743FE002840F0FE8002
:2028E0004146DAF80030DAF8040032469847002840F0F4805E4406EB040B57E67B786C2BED
:2029000000F00481013745F06005BDE67B78682B00F09381013745F04005B5E62A2B00F0B1
:2029200091810F46A8E6079B771C1C680433002C0793B8BF45F0010573789AE6079BD3F862
:20294000009004330793B9F1000F00F08F8299F80030002B00F0B2824B4613F8012F002A56
:20296000FBD1C9EB0308002E02DBB04528BFB04644458CBFC8EB04040024E90700F1E080FB
:2029800050462146FFF7ECFD002840F0A7804946DAF80030DAF8040042469847002840F0B6
:2029A0009D80D84408EB040B00E6002EABBF25F0100501230196019315F40053049305F0FD
:2029C000E00300F0A880402B00F07F8200F24181002B00F02D82202B40F05A82079B1A1DF2
:2029E000079293F90020D317002A73F10001C0F22A82CDE902230023059305F4C053B3F571
:202A0000805F00F09281B3F5C05F00F0BF81B3F5006F00F067810DF136064FF00008019BD1
:202A200041F20802984541F6080303EA050380F0338101999342C8EB0101019100F04681B4
:202A400041F6080201999342414400F031814FF000094A46049B73B1059B002B40F0838105
:202A600005F00603022B00F01B824048062B04BF02464FF0010909EB01039C428CBFE41A72
:202A8000002415F00103049306D1E80640F1F681019B2344049C0193B9F1000F07D01146E7
:202AA000DAF80030DAF804004A469847B0B9019B08EB0B05102B40F291819B4603E0BBF1D8
:202AC000100F40F28E81DAF80030DAF80400284910229847ABF1100B0028F0D04FF0FF302F
:202AE0000FB0BDE8F08F079B1A680433C2F800B007935BE5DAF80030DAF804001D490122F3
:202B000098470028EAD10BF1010B4FE5BB7845F080050237B8E5402B00F0C68100F2A98037
:202B2000002B00F09881202B40F02181079B049A05921A1D07921A780023CDE902235CE7CA
:202B40004946DAF80030DAF80400424698470028C4D150462146D844FFF702FD00283FF481
:202B600021AFBBE754C1000040C1000078C1000098C1000084C10000DAF80030DAF804001E
:202B800008A9012298470028A8D1504621460BF10105FFF7E5FC00283FF433AE9EE70DF14C
:202BA0003303302203F8012C581E04267CE645F41065EDE545F48065EAE545F4C855E7E5D4
:202BC00045F48855E4E545F4E065E1E545F48135DEE545F40075DBE545F40245D8E545F43C
:202BE0002455D5E545F4A065D2E545F4C135CFE545F4B245CCE545F4A135C9E545F484452A
:202C0000C6E545F44245C3E545F4E135C0E545F4C065BDE54146DAF80030DAF804003246D6
:202C2000984700287FF45AAF504621465E44FFF797FC00283FF45FAE50E7BB7845F02005BD
:202C4000023721E5079ABB78111D07911668023714E5602B00F0EC80802B40F01981079BED
:202C6000073323F0070303F108020792D3E90023BAE6602B00F0EF80802B78D1049B0593D2
:202C8000079B073323F0070303F108020792D3E90023CDE90223B0E6934200F0EC80002201
:202CA000019241F608020199934241447FF4CFAEDDE9022313433FF4CAAE874B15F4804FC6
:202CC000864A4FF0020908BF1A46C3E60B46002908BF01230193019B4FF000094A4603EBAF
:202CE0000801B7E6DDE9028942464B46134300F0E7800DF136031E460693404649460A22A2
:202D0000002308F005F830324046494606F8012D00230A2207F0FCFF8046894658EA0903D4
:202D2000EBD1069BC6EB030879E6DDE90223134300F0C6800DF1360306939E46DDE9022305
:202D4000D00840EA4370DE0802F007013346024630310EF8011D52EA0301F1D1069B764639
:202D6000CEEB03085BE64FF001095D4A83E605F4C053002200200021B3F5805F0592CDE9B2
:202D80000201D2D0B3F5C05F40F08580DDE90201544A554B15F4804F14BF904698460246E4
:202DA0000B46134300F08C800DF1360306931E4602460B46110941EA03714FEA131E02F08E
:202DC0000F0073460A4618F8001006F8011D52EA0301EFD1069BC6EB030820E6019B9B46BF
:202DE0004BB15A46DAF80030DAF804003F49984700287FF473AE31464246DAF80030DAF869
:202E000004004D44984700287FF468AE019B2B441E46049B002B3FF46EAD50462146FFF713
:202E20009FFB00287FF45AAE06EB040BFFF7BEBB079B1A6804330793002A4FEAE27373F1D5
:202E40000001BFF6D6AD524263EB4303CDE9022301230593D1E5049A079B05921A6800214A
:202E6000104604330793CDE90201C6E5DFF884904FF0060877E5012301932CE7504621466B
:202E80000292FFF76DFB029A00283FF405AE25E600220023ADE5DDF814800DF13606BEE56E
:202EA000134A4FF00109E6E5079B049A05921A1D07921A880023CDE902239EE5984652E5C2
:202EC0004FF000080DF13606A9E5079B1A1D0792B3F90020D31787E56CC1000068C10000F9
:202EE00070C1000040C1000054C1000098C1000074C100007CC1000010B50446006830B168
:202F0000002100F077FB54F8040F0028F8D110BDF0B5038883B005465BB14A2B04D188295C
:202F20001BD0012003B0F0BD00230380032003B0F0BD194800F048FC044630B1201DA168F6
:202F400000F09EF92468002CF8D1144B01221A704A2301202B8003B0F0BD0F48019200F0EA
:202F600033FC04460028F3D0019A031D9A4205D02468231D002CEBD09A42F9D10648214673
:202F800000F068FC064E6269A369376832600BB1E06998473760DBE7EC050020F618002005
:202FA000FC05002010B5064B002406481C7000F007FC2146BDE81040034800F01BBB00BFBD
:202FC000F6180020EC0500208C00002070B504460D48049D0078A261E361656130B9A16032
:202FE0000A482146BDE8704000F0F0BB084D094B2E68201D2B6000F043F92E602146BDE85B
:203000007040024800F0E2BBF6180020EC050020FC0500208C00002010B5044C82B024684A
:203020000094FFF7D3FF02B010BD00BFFC05002070B5094B04461B783BB1084D084B2E6855
:2030400004302B6000F026F92E602146BDE87040044800F0BBBB00BFF6180020FC05002098
:203060008C000020EC05002010B50A4B04461B783BB9C36003612146BDE81040064800F087
:20308000E9BB043000F032F92146BDE81040024800F0E0BBF6180020EC050020084B094829
:2030A000094910B4002203F1300443F8042BA34240F8042B01F8012BF7D15DF8044B7047B2
:2030C00080190020401900207419002038B50B4B1B5C1BB90A4B53F8200038BD0446FDF790
:2030E000BDFF074A074952F8243051F8245041F824005B1B184442F8240038BD74190020E9
:203100004019002080190020014B43F8201070474019002010B50E4C2368B3B1FDF754FF41
:2031200022685168136892681944091A4AB192E8180023441B1A9268994228BF1946002AE9
:20314000F5D1044B0844186010BD024A136010BDF0050020F40500202DE9F04103880546F2
:203160007BB1592B08D1872912D0822920D059232B800120BDE8F081002303800320BDE8CD
:20318000F081254A0120136059232B80BDE8F081214F3B68002BEAD0D9688A4203D024E0A2
:2031A000D9688A4220D19B68002BF9D13B60DEE7194F4FF000083C68002CD8D0002604E088
:2031C000A3682646002BD2D01C46204600F07EFA0028F5D0E0688821224600F0D7F978B14C
:2031E0000E4800F027FAEBE73B6099680029BED0C86882420BBF89680B4699608968F5E77D
:20320000E060A3682EB1B360C4F80880FFF782FFD1E73B60F8E700BFF00500209C000020F4
:2032200010B50446104800F005FA1049E3680A684BB142B194420FD0134601E09C420BD08B
:203240009B68002BFAD10A4BA2601B680C60E360BDE81040FFF75EBF054B1B68E360BDE829
:203260001040FFF757BF00BF9C000020F0050020FC050020014800F0DDB900BF9C000020F7
:2032800010B5044600F00EFA2046BDE81040FFF7C7BF00BF10B5044600F00CFA2046BDE881
:2032A0001040FFF7BDBF00BF10B5044600F008FA2046BDE81040FFF7B3BF00BFC068B0FA38
:2032C00080F04009704700BF024B1868003018BF01207047F0050020024B186808B1024B2B
:2032E00018687047F0050020F405002010B5114B04461A68904218D05AB19368834208BF30
:2033000013460AD02BB19A68A24206D01346002BF9D10023A360E36010BDA2689A60FFF764
:20332000F9FE0023A360E36010BD82681A60FFF7F1FEEEE7F00500202DE9F843DFF8A480E1
:20334000274DD8F800702E68874247D077B33B4601E0002B3BD01B689842FAD133B3837B75
:203360008946044623B3002383736FB1BC424FF0870106D0BB7BDB0703D53846224600F0C4
:2033800033F83F68002FF1D1A3683BB14C4505D02C6004F10C00832100229847D8F800000B
:2033A000844208D12368C8F800302E60BDE8F88338468442F6D00028F7D00368A34208D024
:2033C000002BF2D01A68A24204D01346F8E7BDE8F883034622681A602E60E7E73B46BDE7A0
:2033E000FC0500200406002070B586687EB104460A4802230460A37304F10C000D46B047BA
:203400000238012804D9832D02D00123A37370BD20462146BDE87040FFF78EBFFC050020FD
:2034200070B50C4A0C4B146800251D7084B1012601E0246864B1E37B002BFAD0A673E573EA
:20344000204682210022FFF7CFFF2468002CF2D170BD00BF04060020FB180020024B1878DC
:20346000421C1A70704700BFFC18002070B407480749084A0023084D084C8A2603700B604B
:2034800013602E70237070BC704700BFFA18002004060020FC050020FC180020F818002005
:2034A0002DE9F8432B4D2B780BB1FFF7B9FF2A4E33781BB3DFF8B4E028499EF80040013B57
:2034C00004EB4402920088180134895CDFF8A0C04268DFF8A0808068214FDBB204F01F0497
:2034E00033708EF80040CCF80000C8F80020397088B1812906D0847BE40705D4287818449E
:20350000BDE8F88301238373FFF76EFF337828781844BDE8F883134A134C12682260002A65
:20352000ECD0A1460AE020683978837BD8F80020DB0709D403682360002BE7D02B78002B7A
:20354000F1D0FFF76DFFEEE7FFF74EFFD9F80000F0E700BFFB180020FA1800200806002036
:20356000F71800200406002088070020F8180020F805002000060020024A034B10781B781B
:2035800018447047FA180020FB180020F0B50F4E3478202C17D00E4BDFF838E01B78DFF820
:2035A00038C0234403F01F0303EB4305AD000EEB05070134B86034707A608CF800300EF82A
:2035C00005100020F0BD0120F0BD00BFFA180020F818002008060020F918002038B5837BD0
:2035E000034CDB07256801D5FFF7FEFE256038BDFC05002070B404460D4D2868A04206D09A
:2036000038B1034600E023B11B689C42FBD170BC7047002CFBD0012600232060A673A381B6
:203620000A4620462C60812170BCFFF7D7BF00BF0406002038B1837B013B012B03D8024A8F
:2036400001231370C3737047FB180020FDF700BD38B5094C049D226822B180E82A002060A0
:20366000002038BD024680E82A0008462260FDF7F1FC002038BD00BF8C07002010B5084C0A
:20368000206858B100224368816822609847236823B1BDE810401868FDF7DCBC10BD00BF96
:2036A0008C07002010B541600446FDF78DFC206010BD00BF90E80C0013440360704700BF6A
:2036C00010B50446FDF780FC206010BD10B50446FDF77AFC23686268C3F101031844824278
:2036E0002CBF0020012010BDF8B504880546B4F5877F0ED040F227139C421CD01CB100239A
:2037000003800320F8BDFFF7A9FE1F4A1F4B10701C601E4C264604E00A2814D023687E2BDE
:203720002DDD1B4800F0C2F8431CF5D14FF487732B800120F8BD852901D00120F8BD134CDB
:2037400000232360E5E7114C124F23680E49002603F1010E3A4609783046FE54C4F800E0C9
:20376000FFF714FF0C4B324618688521FFF70EFF0028E5D140F227132B800120F8BD05492F
:203780005A1CC8543260CCE7DD240020980800201008002018080020FC05002008B50548CE
:2037A0000549802200F07AF8BDE8084003480021FFF720BF1008002090070020AC000020CE
:2037C00000230360704700BF00687047026842B1914203D11BE099420ED01A461368002B10
:2037E000F9D100230B6002680AB90EE01A461368002BFBD1116070470B68136000230B60E8
:2038000000230B600268002AF1D1016070470B680360F3E710B404684CB1A14217D022469D
:2038200002E0994208D01A461368002BF9D10C6001605DF8044B70470C460B6813600023A0
:20384000236004680C6001605DF8044B70470B680360F4E7026842B18A4203D10BE09942DD
:2038600004D01A461368002BF9D170471968116000221A607047134612680260F8E700BFD5
:2038800003682BB100201B680130002BFBD170471846704700B10068704700BF0023013A5D
:2038A0000160027143718371704700BF0346807959791A79091A114208D010B4411C1C687C
:2038C0000A40205C9A715DF8044B70474FF0FF30704700BF08B5064800F050FE054BAA2273
:2038E00001200021187059709A70DA7008BD00BFE93A0000A808002010B5114C0220A1790C
:2039000003F0E0F9A379112B0FD0062B0DD03A2B05BF94F8281094F82930002143EA012154
:203920000120BDE8104003F0CDB9238D618D01209942A8BF1946BDE8104003F0C3B900BF75
:20394000741C002070B413780D7A83F002039D42044614D00B891BB94B89B3F57F4F2FD04B
:203960001E4A51F8085F13684E68012003F10801A0405E601D601160C0B270BC7047487A3D
:2039800053789842E6D1887A93789842E2D1C87AD3789842DED1087B13799842DAD1487BC4
:2039A00053799842D6D1887B93799842D2D1D379CA7B9A42CED1032303FA04F0C0B2DCE7D6
:2039C0008B89FE2BCCD1054DC9892A68022322F8021B03FA04F02A60C0B2CEE7A40800200D
:2039E00010B5084C2378012B01D0002010BD01460822A01C07F062FC00280CBF204600202E
:203A000010BD00BFA808002010B50C461146204606F0CCFB044B1B6813B19B6820469847DB
:203A2000024B1C6010BD00BFC0080020B80800202DE9F04715090F2D07469A4602F00F0490
:203A40003FD00F2C34D0A146A84666195DBB0F2E03DD5CB9E5B9BDE8F08707EB0800C6F10F
:203A60001002002107F036FD002CF3D0DFF87480C9F11000D8F8006038443146224607F0E3
:203A80004FFC022C26D03444C8F80040BDE8F08738465146BDE8F04704F08CBF4546202622
:203AA0004FF010094C462A46384607F039FCCEE7A84605F11006002DF2D14FF010094C4679
:203AC000D4E70F2C4FF01008E8D042464546A146A618E9E70A2DD6D8FF22FE23FA723B7318
:203AE000D1E700BFA40800202DE9F04FDFF8F4B2AE4D002387B08BF800302B70044603F0D1
:203B00006DF803F021F8AA4F04213860092003F0D9F8A84B1B680BB1FFF7EEFE0DF1100867
:203B2000002C00F0F4812146404603F0FBF8A24B1B883E2B33D995F80090D7F800A000236D
:203B400009F102099D4E0AF809309D480AF102033360FFF745FF002800F012810AF10303DC
:203B6000336080230293974C62782178130943EA0113DBB2980840EA8313DBB210075FFADD
:203B800083FE65D16088002862D1080740F0008112F0F00F40F0FC807823019367E0894C73
:203BA00095F80090A4463B6809F10106F6B241221E441A7004F1200AE646BEE80F00D64548
:203BC00030607160B260F3600CF1100C06F11006F2D1BCE80300306071609BF8003009F171
:203BE0002909283385F800908BF800304146102003F076F8744B1B6898476F4B00289BF8CA
:203C000000601A882D78ACBFC0F17D006520921B401B8242994600F3C2803868A119284439
:203C200007F07EFBB9F800002844801B80B202F085FF4146102003F053F8644B64489B6861
:203C400000219847FDF77AFB012007B0BDE8F08F090703D112F0F00F00F084803268206804
:203C60001346106003F804EB336060230193A379112B00F07081326802F8013BE3793260F0
:203C8000402B00F07081FF2B00F07281012B64D0326802F8013B326023894A4A3BB95389F9
:203CA0002BB993891BB9D389002B00F07B814948FFF796FE484B1860002800F0C380427882
:203CC0001AF80930042043EA02130AF809304149424AFFF737FE60F03F00C3B20293237E7D
:203CE000DFF8E0C0FF2B00F0DA800CF11800CDF80CC0FFF775FE384ADDF80CC0106000280F
:203D000000F00A811AF809104278029B0A430AF8092043F004030CF11801002042465FFADD
:203D200083FAFFF70FFED6F800E04AEA00005FFA80FAA3792822112B8BF80020214953D07C
:203D40003B682A789DF80400C3EB0E0E9918985485F800E081F801A048E7019B43F00103A5
:203D6000019399E7316823F03F0313431C4A0B701288CB1C33606823A1F80120019376E7C0
:203D80001448FFF72DFE00287FF4E8AE0290EAE63368702203F801EB0192336067E704F097
:203DA00003F9002007B0BDE8F08F00BFFE180020B4080020C0080020601C0020A4080020EB
:203DC0008C1C0020741C00202CC20000C8C20000093A00007C1C00209C0800206C1C00208C
:203DE000761C0020FD1800204FF2B0020B8D5BBA9BB223F00F0080B290424A8D52BA92B2A2
:203E000000F0BB8002F47F42B2F5704F00F02F8103F47F43B3F5704F00F0EE80A54BF0223A
:203E20008EF8002018680EF10503CEF801009E46A14B30221B888BF800202EF8023BC6F805
:203E400000E07DE748F2FE0322899C499A420FD14B8B6BB98B8B5BB9CB8B4BB908310420BC
:203E6000974AFFF76FFD029B1843C3B2029336E7D6F800C0DFF854E20CF110033360BEE8FC
:203E80000F00CCF80000CCF80410CCF80820CCF80C30237EDFF824C2FF2B7FF426AF029B1E
:203EA0009CF8190043F0080A02285FFA8AFABCF81A3000F0AF80002B3AD1BCF81C30002B8B
:203EC00036D1E38B7D499BBB0B8C33B94B8C23B991F82430002B00F0D880228C774B3ABB66
:203EE00093F8222022BB31680A4602F8010B53F823EF0298C1F801E01B7940F0090A01F1CF
:203F0000060E5FFA8AFA1371C6F800E011E740466C4902F007FF0AE648F2FE03BCF818204C
:203F20009A4203D1BCF81A30002B51D0DDF808A0D6F80090DFF898C109F1100EBCE80F00B1
:203F4000C6F800E0C9F80000C9F80410C9F80820C9F80C30EDE6019B43F004030193E379AE
:203F6000402B7FF490AE019B43F00203019393E6019B43F0030301938EE622F00F0C844571
:203F80007FF440AFF3238EF800304B8D0A8D1B0A120A03EB021303F5AA638EF801300EF185
:203FA000020344E7138A002B7FF481AE538A002B7FF47DAE938A002B7FF479AED38A002B57
:203FC0007FF475AE029B43F04000C3B2029386E6BCF81C30002BA9D1BCF81E30002BA5D17D
:203FE0000CF118014246FFF7ADFC029BD6F800E018435FFA80FA9CE6F2238EF80030238D0E
:20400000314A1B0A8EF8013012880EF10403AEF802200CE7002B8BD1BCF81C30002B87D1E4
:20402000BCF81E30002B7FF44CAFBCF82030002B7FF447AFBCF82230002B7FF442AFBCF804
:204040002430002B7FF43DAF9CF82630002B7FF438AFD6F800E09CF82730029A0EF8013B9C
:2040600042F00B0A5FFA8AFAC6F800E061E6F122104B8EF800201A880EF10403AEF80120B4
:20408000628D120A8EF80320D1E63268134603F8010B31F825CF0298897840F00A0A02F1CC
:2040A000040EA2F801C05FFA8AFAC6F800E099703FE600BF9C1C0020A21C0020741C0020C5
:2040C0006C1C002024C200009E1C00207C1C00208C1C00202DE9F04FBD4DBE4F002385B034
:2040E0003B702B7002F030FDBB4EBC4C3060042002F0F0FD326895F800E000B212F80E30B6
:20410000206003F0E001602947D0412B02D005B0BDE8F08FDFF8FC820EF10103C446DBB2A5
:20412000D41804F1200AE14620686168A268E368103454450CF1100CA9E80F00F3D13B789A
:20414000206861680EF1290E2833ACE8030085F800E03B7002F00CFD2B789D4C8342D6D8E4
:2041600002F006FD21783B78421AD4189C48802C0260CCD830689B4D014408EB030007F06E
:20418000CFF8994A2B68148023B1FFF7B5FB2B685B68984700F00CFAB9E702EB0E0191F884
:2041A0000190924C0EF1020E4FFA89FC7244BCF1000F2260BCBF01322260D90623D41A0798
:2041C00071D422688A491046884632F801EF9278A1F800E08A7010F804AB18F801294FEA58
:2041E0009A0E0EF0300B4BEA8A1A0EF00F0E02F00F024EF0600E4AEA0202206001F801EC9D
:2042000088F801200EE003F0080202F0FF008AB3DFF800820022602188F8001088F80120B7
:20422000A8F8022003F0040202F0FF0A2AB9226812F8011B88F80610226013F003034BD0F9
:204240006C4AD35C88F8073019F0400FC9F3011300F0E280BCF1000FC0F2EF800022002B1E
:2042600041D065490878012800F04F81634B00221A606FE72268DFF89C8111461278C2F362
:20428000830242F0600288F8002011F801EBA8F802004FEA9E0202F0300242EA8E12216084
:2042A00088F80120BEE72168DFF868810846602288F8002010F8012B03314FEA920E0EF0C0
:2042C000300E02F00F024EEA020288F8012002882160A8F80220A5E7236813F8012B88F825
:2042E00007202360B0E70193454A0F20CDF800C012F803B002F000FD5A46034601994148EE
:20430000FFF796FBDDF800C009F0080303F0FF0209F0030E002B39D019F0040F10D13A4ACA
:204320000EF1FF331288012BADF80C2040F2FD80364B374813F80E2003A90023FFF778FB95
:204340003A7802F128033B702368BAF1000F05D0197801F0F801F02900F0828032689B1AF3
:204360002B7002F005FC2A783B78801A184498F8063028380212112B88F8042088F80500C5
:20438000244A7FF4E7AE93889385E3E619F0040F59D0BCF1000FC0F2C18017490B78012BA8
:2043A0007FF464AF4B7893427FF460AF134A144B102013F80E901160009102F09DFC0099A2
:2043C00003464A4602311248FFF732FBB8E700BFFE180020FD180020B4080020A0080020E7
:2043E000BC080020C0080020601C0020A4080020751C0020E8C10000A80800209C0800209B
:2044000004C200007C1C0020E4C1000000C200008C1C0020741C00204A4A0F20CDF800C0F7
:2044200012F803B002F068FC5A46034646494748FFF7FEFADDF800C066E72A7831680A4409
:20444000927812090BE73F4B102013F80E9002F053FC4A4603463C493D48FFF7E9FA6FE78F
:20446000112188F80610187800F0F301F03900F00400C0B203293FF66DAEDFE801F03A2FD4
:204480001F02597802330909A1F5756189B2090241F0F001A8F8281013F8011C01F00F010E
:2044A000A1F5756189B2090241F0F001A8F82A102360002840D030323A704FE75978043349
:2044C000A1F5805189B2090241F0F001A8F8281033F8021C2360A8F82A10EAE71D49B3F8AD
:2044E00001E00433A1F800E013F8011CA1F58051D8E7B3F801E017490533A1F800E033F815
:2045000002EC2360A1F802E0D3E7487890427FF4ADAE114A881C01901160E5E632682B788C
:2045200013449A7802F00F0237E7236813F8012B8DF80D202360FBE633F8020B074923600E
:204540000880B8E7ECC10000F0C100007C1C00208C1C00209C1C00209C080020A21C0020DC
:2045600008B50548FEF7AAFE00B908BD0248BDE80840FEF799BE00BF68090020014B18607F
:20458000704700BF7809002000B5074B83B08DF80700186828B1054B0DF107021978FFF707
:2045A0001DF803B05DF804FB68230020DF24002008B5022100220448FFF710F80349044A2B
:2045C00000230B80137008BDBC000020601C00201119002030B5304C83B0238833B1B3F558
:2045E000A06F05D92D4A00231370238003B030BD2B4B1A8B72B95A8B62B99A8B52B9DA8B93
:2046000042B91A8C32B95A8C22B99A8C12B9DA8C002AE7D01B7EFF2B1FD000F09BFD0028B3
:20462000E0D001F07BFF054601F082FF8542D9D01C4D01231C482B7004F020F8A0B101F058
:204640006DFF1A496880684601F098FF184B1B68002BC7D068469847C4E7154B1B68002B7F
:20466000C0D000209847BDE701F0F2FF114B98800D4800F1100101F08BFF38B10E4A138803
:204680000133138001F04AFF6880ABE7064800F1100101F0A3FFD2E7601C0020111900201D
:2046A000741C0020AC1A00207C1C00208C1C002078090020A41A0020E01800202DE9F04106
:2046C000038882B00446DBB140F2C130834211D1022900F0B6803AD8002900F0A6800129B1
:2046E0002ED16AB3694B05201A6004F033FCFFF771FF25E000230320238002B0BDE8F0810C
:204700001846634921F833000133142B604AF9D16049614809680370C2F8A010FEF79EFE2B
:204720005E4B1870FEF79AFE5D4B402118705D48FEF7A6FD04F08AFB00F062F901F098FFA1
:2047400040F2C1330120238002B0BDE8F081872940D08829F4D1534B9A420CD0524B9A42A2
:20476000EED11046FEF7AAFD0028E9D004F078F8FFF730FFE4E710460192FEF79FFD019A3E
:204780000028EBD0DFF83081484E002147460B46474D317005E033780133DBB2072B3370BE
:2047A000DCD803EB430308EB031393F82530002BF1D03C480192FEF777FD3378022003EB01
:2047C000430307EB03132B6004F0C4FBFFF702FF019AE0E700231F46344E364D337055F877
:2047E000043C9A4240D0337808350133DBB2132B3370F4D9304B002503F5C070996A303308
:204800008A4204BF43F8085C03F80B5C8342F5D12A4B002503F5A070996920338A4208BFF3
:2048200023F8105C8342F7D18AE7002A88D0204B03201A6004F08EFBFFF7CCFEFFF790FEA8
:204840007EE71F4D2B88002B3FF47AAF1D4B9A79062A14D0012004F07DFB2B88002B3FF420
:204860006FAFFFF7B7FE6BE735F8080C019204F04FFB25F8087C45F8047C019AB3E793F8ED
:2048800035309B07E6D5FFF76BFEE3E77C210020C4080020FC050020FF180020DE2400200A
:2048A000DF24002068090020501C00200119002084210020CC080020882100209C2300201D
:2048C000601C0020741C0020F8B51D4B1B68002B32D003F128061B4A127852061CD51A4F04
:2048E00000241D8A3C70194A012105E0152B02F108020C4619D0194632F8080C4B1CA84271
:20490000DBB2F3D152F8040C0028EFD0002386E809003C70FFF724FE306860B10C4B7268CD
:204920001978BDE8F840FEF759BE3970FFF718FE30680028F2D1F8BD064A16681836CAE743
:20494000842100207421002000190020CC080020DE2400207C2100200346F0B548F2FE05A6
:2049600085B01A4C0F46684619460023ADF80230ADF80430ADF80630ADF80830ADF80A30D0
:20498000ADF80C30ADF80E301646ADF8005004F011F894F85530012B01D005B0F0BD6946E6
:2049A000204600F081FA05460028F6D0437B43F001034373A3685B68002BEED03946324694
:2049C0009847FCF701FBA860E7E700BFB419002008B50A4B93F85520012A00D008BD01466E
:2049E000184600F061FA0028F8D04FF6FF72437B828043F00103437308BD00BFB41900204A
:204A000010B5134B84B000241C6000F06BF906F00BF805F077FF40F2FF224FF4D053684680
:204A2000ADF80020ADF80E30ADF80240ADF80440ADF80640ADF80840ADF80A40ADF80C4046
:204A400003F056FE034B20461B68984704B010BDB0190020CC000020704700BF0023037097
:204A6000704700BF38B50C4690B1054600F026F970B1808C024604B9AC88C4F57F43FF33D3
:204A80009A4202DD4FF6FF7038BD204480B238BD002CF7D0C4F57F434FF40072FF339A42F6
:204AA0001046EFDCF1E700BFF8B50E461546044600F004F9D8B1878CD6B92B029BB2032DD6
:204AC00005DD013D0123AB4004331B029BB2617B8A0712D55A2202FB07F203EB830309497A
:204AE00002EB4303A1FB0323C3F34F138384F8BD022EFCD14FF42063E1E741F0020161735A
:204B0000F4E700BF1F85EB51C37CCA7C9A4203D0002B08BF08467047027D0B7D9A4203D03A
:204B200001D8084670477047828B8B8B9A4228BF08467047F8B505460C46076800F0BEF896
:204B400020B3868CAB881E44B6B28CB1204600F0B5F868B1828CA388B8691344A8429BB232
:204B60000BD0844209D09E4234BF28462046F8BDB8694FF4C843A842F3D103F180029642F4
:204B8000F1DAA3F180029642EDDDF0E74FF4C846DBE700BF7F2801DD7F2910DD884205DD23
:204BA000401A0F28CCBF00200120704705DA081A7028D4BF0020012070470020704701F5F0
:204BC0008071081A1028D4BF00200120704700BF80B183698B420DD070B50D460446064E63
:204BE0001946306801F026FF3068294601F018FFA56170BD704700BFE800002038B50D46A8
:204C000004460021102206F065FC2A7D294607322046D21006F084FB2046BDE838400149C7
:204C200003F0C8BE6C1C002070B50D4684B080B1064629B3037D0A7D9A4217D0684631465F
:204C4000FFF7DCFF68466C4603F018FD18B103F0E3FD4DB16C4629462046FFF7CFFF2046D0
:204C600003F00CFD0146A8B104B070BDD20806F025FB0028E2D1727D6B7D9A42DED1F3E7B0
:204C800001466846FFF7BAFF684603F0F7FC0028DDD1E9E72046012203F052FDE4E700BFE1
:204CA00008B505F04FFA05F045FA034B01461868BDE8084001F084BEE800002008B5074B79
:204CC0000146186801F0C0FE30B1054B01461868BDE8084001F074BE08BD00BFE8000020CA
:204CE0003C020020024B0349186801F027BD00BFE8000020CD50000008B5044B01461868B1
:204D000001F0A2FEBDE8084005F03ABAE80000202DE9F041802A86B00446154690F8386038
:204D20001BD88846EEB900F1240731463846102206F0D0FBEA1D4146D208384606F0F0FA41
:204D400040233046394684F8385084F83930FFF76BFF012006B0BDE8F081002006B0BDE84A
:204D6000F08106466F4656F8240FF3687168B2680FC730697169102203C73046002106F020
:204D8000A9FBEA1D4146D208304606F0C9FA40236846314684F8385084F83930FFF744FF2E
:204DA000012006B0BDE8F08138B50446006D0D4618B103F0CFFE002323656DB194F85B30A6
:204DC000B4F86410284601FB03F103F001FF2065003018BF012038BD012038BD38B5094C68
:204DE00094F8551009B1002038BD0546F022204606F070FB012384F8545084F85530204624
:204E000038BD00BFB419002038B5154D95F855301BB195F85430834203D0FFF7DFFF0546FC
:204E200070B105F1100405F15002944208D295F8253013B906E0637D23B14034A242FAD8DD
:204E4000002038BD20460021402206F043FB4FF6FF7301222562A38323826275204638BDC2
:204E6000B419002070B5064610460D4605F090F9A8B10C4B0146186801F0DAFC044670B104
:204E8000FFF71CFF26606B8AA3806B7E237320B1838C13B94FF400738384204670BD0024C4
:204EA000204670BDE800002010B504460846FFF7F7FE38B1036823B11B6AA34218BF002086
:204EC00010BD184610BD00BF2DE9F0411E4E0546306801F081FC044668B34FF6FF780027CF
:204EE00005E02146306801F03FFC0446A0B123689D42F6D1A3884345F3D01FB32B6A214692
:204F00009B6838469B68984721460746306801F02BFC04460028EAD16FB128463946FFF79A
:204F200057FE2B6A21469B68A8691B699847A8833846BDE8F0814FF6FF730027AB83384660
:204F4000BDE8F0812746CCE7E80000202DE9F843C468B0F86230A28B05469A42A66950D0D9
:204F600008680F46FFF7B0FF002862D039688C4206D0AB682046DB6898470446002C55D0F2
:204F8000E868A04211D094F8393003F0400303F0FF01002B37D190F839305B066CD40123F7
:204FA000A375EB6800229A75EC60AB6828465B699847AB68A0691B6900219847A083CEB1A3
:204FC000238A984216D34FF6FF7290422AD0216AB1F86020EAB9A069B0420FD0FFF78CFE2E
:204FE00001462846FFF7E0FE284605F03BFD2046BDE8F8832082A069B042EFD12046BDE89F
:20500000F8832046BDE7243004F12401FFF70CFEC5E7B1F862101344B0FBF1F093FBF1F381
:205020009842D8DDE8680021FFF7D2FD0020BDE8F8833B689C42A3D105F1100705F150081B
:205040004745F3D204464FF6FF7908E0AB682046DB683946984704464037B8458ED97B7DD9
:20506000002BF9D0BB69002BF6D09B884B45F3D0002CEBD13C46EFE72430FFF7D5FD8EE7E0
:2050800010B50468A369834201D003B110BD4FF6FF72A37DA283002BF8D0236A186D002894
:2050A000F4D003F057FD236A00221A6510BD00BF10B50446FFF7E4FF034B2146BDE8104099
:2050C000186801F097BC00BFE8000020FFF7F0BF30B50F4C83B00546206801F07DFB0146AA
:2050E00028B912E0206801F03FFB014668B10B68AB42F7D108460191FFF7DAFF01992068D1
:2051000001F032FB01460028F1D103B030BD00BFE800002030B5836983B0934204460D4663
:2051200002D0156003B030BD00210192FFF750FD4FF6FF71A37DA183019A002BF1D0236A84
:20514000186D0028EDD003F005FD236A00211965019AE6E7044B93F8550020B1D868837D1C
:20516000002B08BF00207047B41900202DE9F047DFF814A10A8ABAF818300C469A4201D013
:20518000BDE8F0878046087EFFF73EFE06460028F6D021464246356AFFF764FE8146002866
:2051A0006CD0637E04F13C07037394F851305B065DD40123B375A27DF0233275227D494632
:2051C000F274E27D3046B274C5F808A0627DEE6085F8572085F85630238CA5F86030638C1A
:2051E000A5F86230A37E85F85830E37E5A1C85F8593085F85C20237F85F85A30637F85F87C
:205200005B30E38BA5F86430E368D4F804C0A268D4F800A0C6F804C0C6F800A0B260F360CE
:20522000D7F808C03A687B68FC68C6F82CC07262B36234633A697B697263B363FFF7C8FC98
:20524000AB6828465B699847AB6848461B69002198470C4BB0831A6830826AB1284605F0C9
:2052600001FC28464146BDE8F047FFF79DBD39460020FFF7D9FC9CE71D60EFE785F85500FE
:20528000BDE8F087B0190020CC00002018B3F8B590F82530054623B92846BDE8F84005F061
:2052A000E1BB4FF6FF730C4E8385306801F094FA05F11007044638B9EEE72146306801F015
:2052C00053FA04460028E7D023689F42F5D12046FFF7D6FEF1E77047E80000204FF6FF73A8
:2052E00070B58A880C469A420646096816D0086AB0F8603043B9012521463046FFF726FEE3
:205300000446B0B1284670BD0D8AB0F862102B4493FBF1F3B2FBF1F29A42ECDD2046FFF724
:20532000AFFEF3689B69A34201D0002070BD0025E2E73046FFF7AAFF204670BD38B5124D7C
:20534000286801F049FA044630B91CE02146286801F00AFA0446B0B12368002BF6D01A6AC3
:20536000002AF3D0627BD107F0D522F0010262732146186AFFF7B2FF2146286801F0F4F977
:2053800004460028E8D138BDE80000202DE9F8434C7D0B467CB99B4E0C7E96F855201AB104
:2053A00096F85420A24208D01946BDE8F843FFF7DDBEAB427BD0BDE8F88396F825200AB971
:2053C000BDE8F88306F110050746102228461C4605F074FF0028EED194F8178095F81290B1
:2053E00040464946FFF7D6FB002853D0B6F86230AA8B9A427DD094F8502042B194F85130EC
:20540000590604D5284604F13C01FFF781FC7E48FFF75EFEE27D2B6AAA74A27E7A4883F8BA
:205420005820E27E2B6A83F85920227F2B6A83F85A20627F2B6A83F85B20E28B2B6AA3F8D7
:2054400064202B6A9B681B6898474FF6FF732A6A2B8292F85630214613F0800F03F10103D5
:2054600008BF03F07F0382F8563067483A46FFF7F9FC044600287AD02B6A00219B681B69DD
:2054800098470346AB832B822146286ABDE8F843FFF724BF48464146FFF77CFB08B1AB7DF4
:2054A00083BBF368B6F86220998B914281D0638A9A4280D84FF6FF72934251D094F8502012
:2054C0001AB194F851305B0656D4B6F86230AA8BDFF830819A421AD14FF6FF73628A9A4226
:2054E0003FF469AF98F85E30013388F85E30BDE8F88318F0800F08F1010808BF08F07F0802
:2055000085F812803F48BDE8F84305F0ABBA98F8591098F8582001230A443C499340A1FB54
:2055200003239B093846EB63FFF7BAFB064610B10368AB4226D03846FFF7B2FB002851D065
:20554000D0F80080B8F1000F4CD03846FFF7A8FB064610B1036898454DD000239B80FFDE8B
:20556000AB7D002BAAD0274805F07CFAA6E74FF6FF73AB83BDE8F88304F13C012248FFF760
:20558000C7FBA2E78288638A9A4217D01A46737BDFF8708043F00103B280737340463146A5
:2055A000FFF79CFE00283FF406AFAB7D13B1AB69B3420DD0637E3373BDE8F883AB7D002B7F
:2055C000E5D098F85E30013388F85E30628ADEE798F85B30B8F86410384601FB03F103F065
:2055E000F7FAE7E7084821463A46FFF73BFC06460028EBD1DFE6324640460349FFF78AFDCC
:20560000628AC4E7B4190020C4190020D34D621038B50546284B0121284A19601368002B19
:20562000FCD0274AC021274B11601B689B070AD4254BA2F57F321B68A2F5D572C3F3034351
:2056400043F0F0031370214A214B002111601C68204600F00DF92846214600F09FFA40F2C8
:205660001D221C4B1B689BB2934212D81A4A13681268C3F30363C2F30342CBB9911F012928
:2056800083BF023202F00F0212017022134913430B70204600F04CF9114B02201B68DB68E0
:2056A000984707490F4B4020012208601A6038BD013BDBB2E2E700BF101009409402224352
:2056C00000600C40B03F0050AC3F005040100940B43F005014130050BC1200500260084089
:2056E000A00100109404604238B51E4B00251C68631C08BF002400F019FC1B481B491C4A24
:20570000012305600B60136000F016FB194B1B6823B1194B20461B68FFF77AFF174B002127
:20572000174A19601368174923F07F6323F4702343F09C7343F4803313600B68C3F3013319
:20574000012B04D0104A1368002BFCD138BD0B6823F0407323F4403343F400320A600B6086
:20576000F0E700BF1C130050840460425C600C400822044380012843000120438C2108402C
:2057800048200340040009400C006842064B1B68C3F30260C3F3C162800040EA0220C3F314
:2057A00081531843704700BF98130050064B1B68C3F30510C3F3892200041B0340EA82502B
:2057C0009BB21843704700BF98130050F0B5234B1B68C3F30467152F214B34D91B78203F4A
:2057E00003F01F03152B1ED81E4A002111601E4C1E496FF00106012010E0B242B8BF324639
:20580000134403F01F0242F4F852BB420D68DFF85CE022804FF0010C086008D0FA1A022AAA
:20582000EBDD0222ECE7203B9F42DDD1F0BD0D4BDEF80020CEF800C0DEF80020C3F800C0CD
:20584000DEF80030F0BD1A7802F01F03152B01D9203BC9E79F42C7D1F0BD00BF88130050FA
:2058600006620840980020436C6208402C20094000F04073B3F1807F70B504462BD0224BB5
:205880001B68C3F30463152B36D803EB24730133152B1DDC13F10A0FB8BF41F616732DDACD
:2058A0001A491B4A0B8013681A4913F002030ABF194A44F040641360C4F3C063174AC4F346
:2058C000806483F0010384F001040B60146070BD41F61573E4E74FF6D8051149114A124E27
:2058E000802333700D801370FFF770FF0F4B1B68C3F30423152BC8D9203BC6E703F01F0335
:2059000043F4F853CCE700BFB81200506E620840000009400000204394042A430800204345
:2059200066620840156208402562084088130050F8B5C0F38143012B2CD0022B2ED14F4BCC
:205940001B681B0702D44E4B40221A604D4A4FF400714D4B11601B68C0F38150C3F3C14342
:2059600043F03003012882F8883037D020D3022819D10420032100F0CDFC47F61800434B74
:20598000434C1B68434903F03F03434A237008801368F8BD3C4B1B689A034BD53F4B4FF0CC
:2059A00000421A60CBE70420022100F0B3FCE4E743F2BD760420012100F0ACFC384D39487C
:2059C000394B86240121394A2E60046019601368002BFCD0344B00221A60CEE700F0CAFC91
:2059E00004460420214600F095FC042000F0C2FCA042FAD12E4B2A4E18682A4C2A4B87B23D
:205A0000C0F307450121294A3760256019601368002BFCD0274B244A1B68002111601B6873
:205A20004FF06022000E072198471C4B4FF480621A609EE7194A20494FF4804414600A684C
:205A4000C3F3033422F08F022243C3F3004442EAC4121A4C0A602268C3F3032122F00F02FE
:205A60000A431749256822600A6803F0E70322F0E70213430A680B6061E700BFB03F0050A7
:205A800068A00C4080A00C408C1300506C1300500BB00C4070B00C402C20094040A00C4054
:205AA0003C600C4040600C4044600C4084088C43A83F0050B40100100C6008400B60084064
:205AC0000A600840174B82031B68C3F38361C3F38F230ED440F30722002A0DDA5B0806D11F
:205AE00049084FF001030CBF19464FF6FF730132F4D143EA01407047FBD05B0043F00103B7
:205B0000B3F5803F4FEA410007D340F001010F2986BF4FF6FF730F210123013AEDD143EAEA
:205B2000014070475013005070B4194A194B11681B68C1F3035213F00103C1F303450ED0E9
:205B400012052B048CB2212842EA040243EA020384BF01F080410B43184670BC70470E4C36
:205B6000246844F30326B2180DD40F2A0DDD4FF4700244F303346419E4D40F2CD4BF23041E
:205B80004FF47023DEE71A46F3E71205F1E700BF78130050B03F0050AC3F005030B50446FE
:205BA00083B00846FFF78EFF18210246544800F02BF9544B54491A681B68C2F3870203F03E
:205BC000030342EA03230A68009355684C482C2140F2FF320023A8474C4B49481A681C216E
:205BE000C2F30D0200F010F9494B45481A68142102F0FC3200F008F9464B10211A68404833
:205C000022F07F4222F4403200F0FEF82046FFF78BFF0C2102463A4800F0F6F8212C20D843
:205C20003D4B222111221F2C19701A704FD834482821002200F0E8F8384A3948394B60251E
:205C4000157080244FF47C41374A047019802C48082100F0D9F8354B4FF480021A6003B0BD
:205C600030BD334C2C4A2368C3F300735B0043F02003DBB213702368C3F3407343F0100393
:205C8000DBB21370FFF782FD282102461C4800F0BBF8284B214A1B682149C3F301535B00B7
:205CA00043F0600313702368C3F3C063DB0063F07F03DBB20B702368C3F345539B0043F404
:205CC0007C43A2F89030FFF771FD0246BFE7FFF75DFD282102460A4800F096F8154B0F4DEC
:205CE0001B680F48C3F301535B000E4A43F0600380244FF47C412B7004701180E3E700BFAA
:205D000000A00C4050130050A40100107C130050741300507013005049A10C404CA10C4037
:205D200041A10C40DCA10C4000803F4040A00C408C13005098130050164A1368002BFCD184
:205D40001549164A0B68126823F00053520723F0070319D410B4124A43F00053146843F07A
:205D60000400A4070CD043F007030B60136803F00303032BFAD1084B18605DF8044B70475D
:205D800008605DF8044B704743F0005343F005030B6070470C00684204400340B03F0050E1
:205DA000004003404FF6FF3330B40A4D12022C6802F47062090AC0F387100904104323401E
:205DC000054A24F4806408430B432C602B60106030BC7047148002401880024070B5064694
:205DE00000F0B0F80546074A1368064C002BFBD0B0470123236005B170BDBDE8704000F0E6
:205E0000A5B800BF00800C402DE9F04107460E46904600F097F8084D2B68074C002BFBD02C
:205E2000012347F80680236008B1BDE8F081BDE8F04100F08BB800BF00800C404BF69A11A7
:205E4000114A1368C3F30F338B4212D04BF6BE12934216D04BF64132934207D04BF6203008
:205E6000834214BFFF20022040B27047032040B2704713681B0F0B2B0CBF0420002040B2F8
:205E80007047012040B270471813005010B50A4B1C68FFF7D3FF0128C4F303340AD1082C7A
:205EA00005D00F2C0CBF0120FF2040B210BD002040B210BDFF20F8E79412005038B5194AE5
:205EC000194B1B6814681D0FE4B2802C28BF0024FFF7B4FF04281BD8DFE800F00E0803034B
:205EE0000400ADB90A34E0B240B238BD6DB1022D0ED11434E0B2F7E76B1E072B08D8DFE83B
:205F000003F004070C0707070E090A2040B238BDFF20E9E71634E0B2E6E71420E4E715206E
:205F2000E2E700BFA01000501813005008B5FFF785FF012800D0FEE7FFF7C0FF1328FADD82
:205F400008BD00BFEFF3108072B67047EFF3108062B6704701280AD018B1084B01221A606F
:205F60007047074A136823F0050313607047044A136843F005031360704700BF80010443A4
:205F8000000009402DE9F84F984B1B6813F0020407D09749974B984A082088711A60BDE831
:205FA000F88F064604F0A0FD944B1B681A179F0202F1010540F1B58003F04072B2F1807FA3
:205FC00000F0BE808E4A11688E4AC1F3046112681529C2F3044788BF2039152F00D9203F7D
:205FE0004A19152A00F3998012F10A0F80F2E88041F616716FF00902DFF824E2824DAEF883
:206000000010296811F0030518BF0125490748BF45F002050EB145F00405754E96F90710E0
:20602000411A042903DCB179A94200F0C780B0F10F0100F1BA8001EB01110C12072C00F290
:20604000AC8000F0CA8004F10108DFF8D8E14FEA8808DFF8D4C1C644C444F0462402DEF8D3
:2060600000E0DCF800A015F0040CCEEB0A0A5FFA8AFB1CBFCAF3072EF34415F0020E1CBF18
:20608000CAF30749CB4415F001097CD10C1B04FB0BF48034240AD8F800805FFA88F1BCF1B2
:2060A000000F02D0C8F3072C6144BEF1000F02D0C8F3074E7144B9F1000F01D001EB186128
:2060C000BA1A002A0C444FF03401C8BF5143DAB202FB01F24FF6FF71B2FBF4F38B4228BF6A
:2060E0000B467F289AB2B2804BDC10F1800FB8BF802370DAF371B571444B1E2A19683C48A9
:20610000134631602BD81F238380414B3948414A002103601160BDE8F88F41F615711522A0
:206120006AE7C0F13E02D210082AA8BF08229542B8BF154603F04072B2F1807F7FF442AF24
:20614000354A1168344AC1F3042112681529C2F3046788BF2039152F7FF642AF3FE7B2F501
:20616000007F28BF002230D35B08B3F5007F02F10102F9D229490F3B1B09114341EAC30324
:20618000C4E77F23B6E70BEB1A6A091B01FB0AF48034240A4FF001097DE7DFF890804FF4C4
:2061A000E064C446DFF888E059E705F0040C05F0020E05F00109DFF870806CE7B2889BE733
:2061C00002F01F0141F4F85116E70F3A1209134BD20013439AE7C3B28CE7DFF85080DFF861
:2061E00050E0C4464FF4E06439E700BF00000940BC0A002030100940FDFDA400B43F005066
:20620000B81200503C110050242208400820094008E7A480341009408813005000E7A48032
:206220006E620840981300509C130050B8130050B413005038B5154B1C68A4B204B938BD41
:2062400004F052FC124B93F90720904216DB9A880F49944210D34FF6FF700E4B0D681B68F1
:20626000A41A02335B1B1F2B28BF1F235B08DC401444844228BF04468C8038BD6FF07F0293
:206280009042B8BF1046D871E1E700BF34100940BC0A002008200940194B1B6813B3194A9B
:2062A000116801F04062B2F1406F1BD016480268920717D4154A1268920713D410B4144ACE
:2062C0000468126814F0050FC2F3035202F11C024FEA021207D0934202D224F00504046057
:2062E0005DF8044B70479342FAD90A0158BF44F001044B01044B58BF44F004041C60EFE700
:2063000028500940B43F005000000940B03F0050AC3F005070B50D46C10782B004461AD40C
:20632000A2070DD4630709D5104BADB21B6800955C680F4800210C220223A04702B070BD64
:206340000A4AABB21268009356680948002102220123B047E6E7054AABB212680021009369
:2063600056680B4602480122B047D9E7A401001000A00C4010B5084B04281B684FF034010E
:20638000DC6807BF4FF0C0421D234FF080521C230248A04710BD00BFA401001000A00C40C4
:2063A00010B4064A064C1368206811688B42FAD11B0443EA10405DF8044B704708200940FB
:2063C0000C20094043F6060270B4038893421FD043F60702934217D040F60202934201D0B6
:2063E00070BC7047C67B4369002BF9D044F2380403F1140519681A4688B2A04203F1040362
:2064000009D0AB42F6D1EBE790F82460C369EBE7C3690226E8E7C1F303400028E0D0B31E50
:206420001C2B44D8DFE803F0374343322D43434328432343431E434343434343434343438A
:20644000434343430F00254B1B68C3F383430F2B42D09842C4D221F4702141EA034313606C
:2064600070BC70471E4B1B68C3F38343EFE71D4B1B68C3F38343EAE71B4B1B68C3F383435E
:20648000E5E71A4B1B68C3F38343E0E7184B1B68C3F30323DBE7174B1B68C3F383430F2BE6
:2064A000D7D121F4702141F48021116098E7114B1B68C3F383430F2BCBD1053E192EF0D845
:2064C00001200D4BB0400340002BEAD021F4702343F4E023136083E7053EF1E708110050E8
:2064E0000411005000110050FC100050F810005020130050801300502104000210B9054B7C
:20650000187070470449034B0020202208701A70704700BF026208400062084008B5FEF7BF
:2065200019FE08B1808B08BD4FF6FF7008BD00BF08B5FEF70FFE18B1036AB3F8620008BDBC
:206540004FF6FF7008BD00BF08B5FEF703FE78B1808B094B1A78012A01D0002008BD5B8872
:20656000802BFAD97F3B8342D4BF0020012008BD4FF6FF70EDE700BFA41A002051F8083FD0
:206580004A6803600378426083F002030370704730B4C27B8D7B847BC97B0E480E4B02EB1F
:2065A000042401EB0522A4B2818895B203F1300002E0063383420AD01A888A42F9D19A88C2
:2065C000A242F6D15A88AA42F3D1012000E0002030BC7047A41A0020C40A002070B40E4E6E
:2065E0003346A6F12A051A4652F8244F063B1C6392889A86AB42F6D1084D847BC27BCB7BBA
:20660000887BA98802EB042203EB00233180B280738070BC704700BFC40A0020A41A0020DE
:2066200008B5094B1A783AB1084A1088431C9BB203B9831C138008BD01221A70FBF72CFEBA
:20664000024A1080F2E700BF02190020E2180020054B064A1B7882B0D35AADF80630BDF84F
:20666000060002B0704700BF11190020A41C002001F0B6BCF9B1EAB130B4CD684C68521BE0
:2066800092FBF4F2541C18D053B90C68835C012101FA04F423EA04038354084630BC7047DF
:2066A0000B68845C012101FA03F32343835430BC084670471146084670470021EDE700BF36
:2066C00038B50F4D002818BF05460E48FDF77CF8044650B12846211D00F02AFB40B92046FE
:2066E000FDF7D8F804460028F4D14FF0FF3038BD054B06489B68E41AA41000FB04F038BD05
:2067000024C200001C0B0020FC000020ABAAAAAA78B179B1C2684368891A91FBF3F14B1CE5
:2067200006D0054A0368505C184100F0010070470020704708467047100C0020084A136837
:20674000072B0AD830B4074D5C1C03608160146045F82300012030BC70470020704700BF03
:20676000440C0020240C0020F8B507460C46184D184E1FB344B3FB687868E41A94FBF0F4C5
:20678000611C04EB440421D0AB6803EB8400FDF781F8B0B1AC68001B841006FB04F35A1CD0
:2067A0000FD07C68FA6804FB032454B138462146FFF7AEFF0028DCD02046F8BD3846FDF7A0
:2067C00069F800242046F8BD2046E0E70020DEE7FC000020ABAAAAAA38B505461148FCF7BE
:2067E000F3FF044668B1104A104B9268841AA41003FB04F4A5B1631C10D06B68EA6803FB75
:20680000042428462146FFF783FF08B1204638BD28462146BDE83840FFF7A6BF0024F0E7A7
:206820002C46EEE71C0B0020FC000020ABAAAAAA2DE9F04F5A4D85B0002918BF0D46044637
:206840002846FFF73DFF431C064612D054B36268E36802FB06360021304604F03BFE21468B
:20686000504832460123FFF705FF304605B0BDE8F08F4D4801F030FE0646B0B180464A4FDB
:206880004A484146FCF7A2FFBA68494BB61AB61008F10400294603FB06F600F043FA0CB1AF
:2068A000731CD4D162680026D5E74048FCF78CFF002872D03C4FDFF80091DFF8F480DFF873
:2068C000E4A0B34602E0FCF7E5FFD8B1BB68C31A9B1008FB03F319F80320002AF3D11AF821
:2068E00003303049002B51D013F0010F18BF01325B10F9D10EB15A45E5DA9346002A49D015
:206900000646E0E70196002E47D0264B0293019BBA680395C2EB030A55461E46DFF89CB050
