:020000040000FA
:2000000000500020E9000000E1000000C9000000E5000000E5000000E5000000000000002E
:20002000000000000000000000000000E5000000E500000000000000E5000000E50000002C
:20004000E5000000E50000008D2A0000E5000000A91700008D1D0000E5000000E500000006
:20006000E5000000F12A0000E5000000E5000000E5000000E5000000E5000000E500000022
:20008000E5000000E5000000E5000000E5000000E5000000E5000000E5000000E500000038
:2000A000E5000000E5000000E5000000E5000000E5000000E5000000E5000000E500000018
:2000C000E5000000752D0000044B1A68B2F5806F03D01B689B0500D4FEE7704728ED00E0D7
:2000E000FEE700BFFEE700BF08B508F037F9104A104B9A420DD2D0430F4918440B4620F03B
:2001000003000430084453F8041B834242F8041BF9D10A480A494FF000028842B8BF40F8AB
:20012000042BFADB00F02AF9FFF7CEFF08BD00BF00000020A302002088E00000A80200204A
:2001400098270020F0B500238DB004930593ADF8183007F063FC0546002842D0012004F0AF
:20016000FDF9044698B107F059FC80B12346064653F8020F1D4C59689A68DB681C4F0FC4BB
:2001800056F8080F083C7168012303C43B70194A138801339BB21846138005F049FFAB8B64
:2001A000ADF81000ADF8123001F0CCF942F616638DF80F00104ABDF80F4004A910680522FE
:2001C00000930A4BADF8144006F0D8FE012004F06FF8064806F07AFE0A2001F025FC0DB041
:2001E000F0BD064801F028FC0DB0F0BDD0020020481B0020301B0020E00200207CD2000055
:200200002DE9F047038884B0D92B04461ED0F82B12D02BB100230380032004B0BDE8F0871C
:2002200047491A460868852103F03CFED9230120238004B0BDE8F087424B1B788B420BD033
:2002400088295ED0F82323800120E6E785290ED0012004B0BDE8F0873B4B1B789B07EFD517
:200260003A4B3B481B8800680025C554E8E74AF6AA26002568463749ADF80250ADF804500B
:20028000ADF80650ADF80850ADF80A50ADF80C50ADF80E50ADF8006004F0E4FA29460122FA
:2002A000684604F0A5F92C4F2C4BDFF8CCE04FF4205C28462A464FF4905A4FF074094FF4C0
:2002C000807842F616615D809D80DD801E80A3F808A0A3F80A90A3F80C80A3F80EC08EF8F4
:2002E00000503D8006F0A0FE1D4B0546186000B343F622531B482B824FF4A06103F04CFC42
:20030000A0E7184B9A429DD1104603F04FFC02F041FC0246144B1548A3FB02139B0A03EB9C
:200320008303A2EB032189B2114A002303F0F6FA88E7104801F080FB258002206DE700BFDD
:20034000EC06002096270020F0220020DC1D0020FC220020E81D0020301B0020D0020020A3
:20036000E0020020E4020020CDCCCCCCF40200204501000084D20000481B00202DE9F043C6
:20038000644C85B02368644801215B689847236801210A461B686048984708F083FB01F00F
:2003A00021FF01F003FF00F017F95C4801F044FB5B4801F041FB5B4C5B4801F03DFB0221F0
:2003C000012000F061F900F073F900F0DDF9238801273B449BB21846238000F0C5F9218899
:2003E000524802F02DFD00F095F900F087F900F08FF908F05BFB01F04FF901F0D3F803F0AB
:20040000B1FD01F0DDFA03F0BDFC41F2342002F0C7FB01F087FC03F0B7FE0021444803F0C3
:2004200075FD03F041FA03F0BBFA01F033F9414A414B106041481F7002F002FD404B4FF0FD
:200440000009186801F0F8FA3E4802F0F9FC3E4B3E4D186801F0F0FA3D4802F0F1FC3D4B68
:200460003D4C186801F0E8FA09F02CFB02A80821CDF8049001F018FB9DF80F309DF80E6079
:2004800002AA43EA062603CA28603046696000F0F5F8324B3248198802F0D2FCD4F82C8016
:2004A0004AF6CD310220C04731460320C04702213846C047082202A9636B0B209847A36AD2
:2004C00001A9384698470221264802F0B9FC6A68254B29685A60196008F028FF49462348BE
:2004E00003F014FD0BF02EF80BF0C0F903F058FA636A98471E4803F081F901F06FFA03F012
:200500005BFC044601F082FA14F0FF0FF7D101F0D3FCF4E7D801001000400340CCD200004E
:20052000E8D20000441C002004D3000018D300009C000020041C0020F41B00202CD3000095
:20054000CCDE000034D300005CDF00008C2700203CD3000094DF00000CD40000321B00200D
:2005600044D3000054D30000E81D0020DC00002074D2000010B5064C042023685B6998476D
:20058000236804205B6B98470128F9D110BD00BFB801001010B5064B1C6844B90121054AB7
:2005A000196013681120DB6B9847034B1C7010BD14030020B401001011200240044B05493E
:2005C000002208701A70C20744BF01221A70704711200240491B0020F0B59DB008F062FA8A
:2005E0000746FFF7C7FF1E4B4FF4A0601B68DB6998471C4B01211C4A196013689907FCD54C
:200600001A4801F0C7FD6C2201A819490CF0DCFC019C621C0FD0174E01AD336820469B6B42
:200620009847336820469B694FF40051984755F8044F631CF1D10FB908F038FA0D4C0E2009
:200640002368DB6B98470C4B00221A7003F026FE23681D20DB6B1DB0BDE8F040184700BF02
:20066000B801001028200860282008401000002064D30000B40100100E200240014B1880F1
:20068000704700BF321B002000B583B08DF804008DF80510FF2301A8044903228DF8063074
:2006A0000BF086F903B05DF804FB00BF02E0010030B583B001A90C4802220BF05BF99DF8F9
:2006C00004309DF80520094D094C18462B80227001F048FE2988074802F0B2FB2178064829
:2006E00002F0AEFB03B030BD02E00100401C0020421C0020D0D30000E8D3000002480349EE
:200700001E220BF037B900BF05E00100481C0020704700BFF0B589B000244FF0050C4FF07E
:20072000100E16235B27FE26592568460D491E22019402940394049405940694ADF81C406C
:200740008DF800C08DF801E08DF802708DF803608DF804508DF805300BF02AF9204609B03F
:20076000F0BD00BF05E0010000B583B08DF80400002301A84FF4F03102228DF805300BF0AD
:2007800017F903B05DF804FB00B583B04FF4F03001A902220BF0EEF8034B9DF804201A80A7
:2007A00003B05DF804FB00BF441C0020012070470120704708B501F021FF30B1044B5B8862
:2007C000022B0CBF0120022008BD022008BD00BF8C01002010B582B002F04CF9044601F05D
:2007E0000DFF08B902B010BD084801A901F00EFF0128F7D1638803F44063002BF2D1638866
:2008000003F44063002BF5D0ECE700BF0100010408B50346B32994BF0A46B42202481946B2
:200820000CF0D2FB002008BDA203002070B50A4D00262C6803E024682B68A3420AD02379B2
:20084000032BF8D1054803F081FB24682B680136A342F4D1304670BD880300205000002027
:20086000F8B5124E35682B79032B02D000242046F8BD2C89023C002C0CDD8C4205F10A070E
:200880000EDD3957042089B209F0F2F803207F2109F0EEF82A68002332602B712046F8BDFB
:2008A000394622460CF090FBEBE700BF9C03002030B583B001F0A2FE1B4C90B9002363801B
:2008C000A37F19485BB2C3F5FF6307339BB201A9238301F09BFE01280BD00023184603B0D5
:2008E00030BD6388022B08BF0123E7D1184603B030BD00F0CFFE6FF03F052D1A03E000F0D8
:20090000C9FEC54203D563889BB2022BF7D163889BB2022BE1D100F0BDFE044C0449012282
:200920001346E061CA71E1E78C010020041C0020F41B002030B583B001F060FEE0B1184CA2
:200940006388022B18D101A9164801F05FFE02E06388022B03D101F051FE0028F8D1638856
:20096000A3F55053043B9BB2012B02D9002003B030BD0D4CE37913B9012003B030BD00F0B7
:2009800089FE0A4B0A4DD969D5E90E23401A121843F100030021C5E90E23E1710120ECE7F2
:2009A0008C01002001000104F41B0020041C0020781B002010B5114B114C1A680A21237E96
:2009C00084F82410928882B003F0F80343F00803204601A96283237601F018FE012802D05F
:2009E000002002B010BD204601F062FEA0F10100B0FA80F0400902B010BD00BF3800002016
:200A0000D401002000B583B00A4801A901F0FEFD012803D0002003B05DF804FB054801F0B0
:200A200047FEA0F10100B0FA80F0400903B05DF804FB00BFBC0100202DE9F84F02F0A4F8EE
:200A4000012818D001F0FAFB01F0D8FD78B901F0D5FD0446002840F08E8001F041FE0128DC
:200A600005460BD001F014FF0020BDE8F88F574B5B88022BEBD10120BDE8F88F01F07EFFD7
:200A800053494FF4237253480CF09EFADFF88CB15148DFF88C91DFF88CC1504F504E514917
:200AA000514B524A04704FF0020A8BF800504FF003084FF0040E052406204D4D89F800A0C7
:200AC0008CF8008087F800E0347008701A602B684749002BFBD00020464A474BDFF8488122
:200AE000086052F81CCC52F818EC52F8146C52F8105C52F80C4C52F8207C12E903002033B5
:200B000043F8207C43F81CCC43F818EC43F8146C43F8105C43F80C4C43F8080C43F8041CFD
:200B2000434502F12002DCD1344B354ADFF8FCC0DFF8FCE0334934482D4C344F344E00258C
:200B40001862C3F824C00120C3F828E0DF621E632560116008F064F82E4807F0C5FF2246F3
:200B600013682349002BFBD000230B6001F01EFE01287FF477AF002001F022FF264800217A
:200B800003460E46022584245A791E7102F0FC0265F383025A71DC808C3343508C31B1F5DE
:200BA0000C7F1D4AF0D1C2F8A42101F05FFBFFF701FF012802D00020BDE8F88FFFF722FF64
:200BC0000128F8D1BDE8F84FFFF772BE8C010020F8DA00001C04002190030021AE030021CB
:200BE000AB03002181030021C0030021BD0500211C10044064D4000000C0002180C60021CA
:200C00000010044001010E046039536311161216546B0070D40100205C040020790300218D
:200C20007503002177030021A0C600212010101A136F236E08B5FFF7BDFE012801D0002004
:200C400008BDFFF7DFFE0128F9D1FFF731FEC0B208BD00BF38B501F097FF01280BD00F4C1B
:200C6000FFF768FE01F014FEE37933B901F018FB0B4B00225A80012038BD00F00BFD094B15
:200C8000094DD969D5E90E23401A121843F10003C5E90E230023E371E8E700BFF41B0020FF
:200CA0008C010020041C0020781B002070B582B007287ED8DFE800F077047D7D207D235E6E
:200CC0000A2973D8574C4FF47A72208AE38902FB03F302FB00F2A3F5D32302F57F42FF3255
:200CE000A3F55A73504803EB2243A0FB0323CAB2C3F387139A4266D1002002B070BD4FF6C0
:200D0000FF744A4DAE88A64208BFFF2309D02A460023083290880133A042DBB2F9D1013B5B
:200D2000DBB255F83330414C99423FDB236899423CDC0191FFF74EFD4FF6FF739E42019972
:200D40006DD022461C460023083290880133A042DBB2F9D1013BDBB255F8332005EBC3008E
:200D6000914203F1FF3357DD5A1CF5D1FFF762FF0020C2E72E4B197001F040FCE0B12D4BB2
:200D80005B88022B08BF002516D1FFF7D3FD012814BF03240024FFF74DFF012818BF0324FA
:200DA0004DBB2046A9E701292FD041B3022002B070BD012002B070BDFFF73EFE012829D0C3
:200DC000032002B070BDC82303FB01F11A4801F5D32303F55A73A0FB0321184A890902FB73
:200DE00001331B04A0FB032315488AB29B092382E2810284C0E7FFF72DFF20467DE70191EF
:200E0000FFF728FF0199084677E7FFF715FE0128D6D171E70546B8E70A4B1860A6E7FF23D8
:200E20009AE700BFBC0100201F85EB5184DD00009C0200208C010020D34D621018FCFFFF45
:200E4000D40100203800002089B12DE9F0430C4683B0102800F29280DFE800F0121F9090F9
:200E60009090848A399090909066696D0B00022070474A4B00201B680B6003B0BDE8F0833D
:200E800001F0BCFB30B1464B5888A0F10200B0FA80F0400920600020EFE742494FF47A7232
:200EA000CB89098A02FB03F302FB01F2A3F5D32302F57F42FF32A3F55A733B4903EB2243B5
:200EC000A1FB0323C3F3871323600020D5E701F095FB002854D0324B5B88022B08BF4FF041
:200EE00000094DD140F203470A2580264FF000086B1E13F0FF0569460BD001A8CDF8048027
:200F0000ADF8047001F082FB18B19DF802607306EED0B9F1000F39D176B216F1800F26604C
:200F20000CBF03200020A8E700200860A5E70A230B600020A1E74FF6FF70184DAB888342AF
:200F400008BFFF2309D02A4600230832918801338142DBB2F9D1013BDBB255F83330002002
:200F600023608AE7114B00201B681B680B6084E70F4B002093F900300B607EE701207CE79B
:200F8000FFF75AFD012804D18146ABE7FFF762FEC2E76FF07F03236003206EE784DD000071
:200FA0008C010020BC0100201F85EB51380000209C0200202DE9F04383B0044601F01EFBE1
:200FC000002837D0464B5B88022B08BF002531D14449221DA31C444C92B29BB2100A2382E8
:200FE000E1610A704870FFF7A5FC0020014601F021FD204601A901F009FB3C4F10BBBB79E1
:20100000DFF8F0800126DFF8E490002B3DD100F041FB0123C8F81C000020FB7101F01EFD1A
:2010200000236380FFF744FC002D3FD1304603B0BDE8F083FFF700FD01283DD0012003B0F9
:20104000BDE8F083FB79002B38D1DFF8A88000F021FB0123BB71C8F8180000F0D7FC6388EF
:2010600003F4406333B900F0D9FE638803F44063002BF8D06088BB7980B2B0F5505618BF3B
:201080000126DFF86890002BC1D000F003FBD8F818301749C01AD1E90C23121843F1000314
:2010A000C1E90C23002389F80630B0E7FFF7D2FD304603B0BDE8F083054689E700F0EAFA51
:2010C000DFF830800A4ED8F81C10D6E90E23401A121843F10003C6E90E230023FB71B6E77E
:2010E0008C010020A0030020FC010020F41B0020781B0020041C002010B50C46B32C014604
:2011000094BF2246B42204480BF05EFF2046BDE81040FFF74FBF00BFA203002030B583B09F
:2011200001F032FD01281DD001F068FAE0B1164B5B88022B21D000258024144801A901F073
:2011400065FA012803D19DF806406306F5D08DB90F4B60B293F900300E4A8342D4BF0020EC
:201160000120147003B030BDFFF766FC012806D10546E1E7FFF76EFDEAE70120F2E7FFF79D
:2011800069FD0120EEE700BFFC010020010003049C0200209802002008B501F02FFA58B1B7
:2011A000064B5B88022B06D1FFF7B8FF10F1FF3018BF012008BD002008BD00BF8C0100200C
:2011C000F8B51D4800F0E6FF07F03AFD012802D000242046F8BD194C002120464FF40C7213
:2011E0000BF0CCFF46F2666640F2B111144B1548154ADFF86CC0DFF86CE0144F0025CCF8A4
:20120000004083E830008362C0F82CE03984D1811682FFF711FC01280446D9D100F03AFA5F
:201220000B4A0C4BD0610C48DC7101F029FC29460A4802F06BFECCE7240000205C04002087
:20124000880300208C010020BC010020D4010020041C0020F41B002004D4000050000020AD
:201260009C030020180300202DE9F0476C4B002693F900E06B4DB645ADF5966D2E7040F3B5
:20128000C0803446324630463346DFF8A4C14FF001089CF8007083422AD00134E4B263B206
:2012A0009E4534D070B200281CF8037040F3B4809DF900304FFA87F94B4500F09D800022C1
:2012C0000132D2B253B2984203EB4301E3D01DF921109A464945F3D10AEB4A0A0DEB8A0A45
:2012E000DAF80410834201F10101CAF80410D4D1013403EB4303E4B20DEB83010DF82370C1
:2013000063B201329E45C1F80480D6B2CAD1002E77D073B2002B74DD731EDBB203EB4303DA
:201320000DF5966202EB83082E78DFF80091A8F5946801AC002720680BF04EFA3A4B00224E
:201340000BF024FB731C30B1DEB27BB2374614F8042C09F803200C344445ECD12E70002F16
:201360004FD07FB2002FDFF8C4E026DD4FF0000C0CF1010C5FFA8CFC4FFA8CF2BA427646BB
:20138000F0461AD063461EF80210307801334DB244B2A542DBB2B8BF08F802005AB2B8BF1B
:2013A0003170BA42EFDB0CF1010C5FFA8CFC4FFA8CF2BA4206F10106E4D1013F002F26DDF3
:2013C0009EF901009EF90030C21A022A22DC01231A46164C06E091F901105AB2091A0229E7
:2013E00006DCA0560133BA420EEB0201DBB2F2DB0DF5966DBDE8F0874FF0000A52465346F4
:201400006AE76FF07F000DF5966DBDE8F0879EF90000EDE71846EBE7002213463BE700BF85
:201420004A1B00204C1B0020000024409003002024030020F8B500F02DF9354C354B2268F4
:201440009B1AC34209D4344A137859B20129DCBF0133137000F01EF92060304C304D20784D
:2014600029780130C0B2802920702CD02D4F97F90060731C28D02C4B06F1010E83FB0E23D4
:201480004FEAEE72C2EB6312642303FB12E3274ADBB29155264A3B70137840B259B2632904
:2014A000DCBF013313700BF097F90022214B0BF04FFA30B1184E96F90030022B08D000234F
:2014C000237080232B70F8BD184A01231170E1E7FFF7CAFE184F194997F900200870811A6D
:2014E000022903460FDD13F1800FE8D003F1080107203B70FFF7DAFB114B00221B783270F4
:20150000083B3B70DBE7121A022AD8DDEBE700BF580400200080FFFF4D1B00204B1B002075
:2015200098020020990200201F85EB51240300204A1B0020000024409A0200209B020020AD
:201540009C020020014B93F9000070479C02002010B5064C042023685B6998472368042068
:201560005B6B98470128F9D110BD00BFB801001010B500F0DBFF68B10749084C0B68226835
:2015800008688342FAD1DB01054903EB52620023C1E9002310BD00BF082009400C2009401D
:2015A000A8020020F8B51A4A00200021C2E90001184B04201B685B6B9847012801D0FFF7C4
:2015C000C7FF144B00201B68DB699847124B0121124A196013689B07FCD5114A11491368AE
:2015E000096823F4807323F001030F4C13600B6820460E49984740F221200D4D0D490E4B00
:2016000004273126012227602E6008601A60F8BDA8020020B80100102820086028200840A6
:201620000C000140C801001000000140002100043C000140080001400400244308B5FFF73A
:2016400097FF024BD3E9000108BD00BFA802002008B5FFF78DFF00F069FF012800D008BD47
:2016600002F0BEFA0028FAD0BDE8084002F08EBA10B507F017FA034B1C6808B907F016FA40
:20168000204610BD08200940704700BF0146012000F05EB807F06ABD2DE9F04107F002FA6A
:2016A000214E224B224F32680124002580464FF480314FF480703D601C6018601960136887
:2016C000284623219847336820461B6824219847336802201B6825219847164A1649136832
:2016E00043F4E02313600D6007F040FD134B00F50070186007F03AFD114B00F57F40114DC5
:201700001149124A1B68F43028600C6014603C601B6914209847B8F1000F01D0BDE8F08132
:20172000BDE8F04107F0C2B984010010042009400000244300200940082009401C20094099
:20174000B001001020200940A0022443C0022443431E012B00D97047C30709D50B4B820769
:2017600019600ED50A480B4B012201601A6003E0830705D5064B1960074B01221A607047B0
:201780007047044B01221A60704700BF182009401C20094080022443A0022443014B18686C
:2017A000704700BF900600202DE9F041FFF772FF634D644C0123A370A860FFF76BFF624AA4
:2017C000624B10601B68002B32D1614B1B68F3B9604B1B6893B9A3785A4C6BB1FFF75AFFBA
:2017E000AB685D49C01AD1E90423121843F10003C1E904230023A370BDE8F0815749584BB4
:201800000020012208601A6002F0FAFBE3E7544B4FF480721A60FFF71BFF07F0A7FC00F208
:20182000052020F4FF704F4B20F001001860CFE74B4B4FF480321A6000F09AFE00F0A0FE0C
:2018400048BB00F049FD00F071FE474E307000F095FD00F06BFE337883420DD000F066FE3F
:20186000012806463DD0FFF715FFA37B012268636273334F334E2BBB00F058FE01281CD0B7
:201880003A4B00221A6007F071FC394B00F57F40F430186099E700F065FE064600F076FE6C
:2018A0008642CED300F078FE00F06AFE0028CADA00F012FD00F010FDC5E72E4A1368013366
:2018C0001360E0E7FFF7E6FEBB6B2349C01AD1E91C23121843F10003C1E91C230023B373FC
:2018E000CAE7254A234913780027013313700F60FFF7D0FE637BA673A863DFF84480114EC4
:201900007BB9FFF7A5FE09F001FA07F02FFC1549164B00F50070012208601A6009F0BAFF09
:20192000AAE7FFF7B7FED8F834300B49C01AD1E91A23121843F10003C1E91A237773E0E719
:20194000041C0020F41B002090060020C0002443A000244380002443781B002080022443B1
:20196000042009401C2009404F1B0020A0022443202009408C0600204E1B0020820702D5BE
:20198000034B01221A60C30700D4704707F08EB8000C084008B507F085F8074B1A68012A46
:2019A00003BF0649022219600022002814BF104642F0010008BD00BF000C084051E5CC1ADF
:2019C00003490448044B012208601A60704700BF00000840FFFF0F00000C084038B5FFF719
:2019E000D9FF064C064D0749074A012325600B601360BDE83840FFF7C1BF00BF00000840A8
:201A0000FFFF0F000C0008400401004303490448044B012208601A60704700BF0000084073
:201A2000FFFF0F000C00084010B50446C0B200F08DF9204610BD00BF70B506460024451E64
:201A400004E015F8010F00F081F9013430460BF0E3FB8442F5D30A2000F078F900F08AF90B
:201A60000128FBD0204670BD70B50446B0B10078C0B1A9B10025661804E014F8010F38B140
:201A8000B44205D000F062F9631C05F10105F4D100F070F90128FBD0284670BD0546F7E7DF
:201AA0000D46F5E70546F3E710B40B4B0B4C13F8012FFF2A0ED1A342F9D1094A39B11144DD
:201AC000013801390B78914200F8013FF9D15DF8044B7047034AF1E7C7FF0100CFFF010025
:201AE000F0120050C8FF010038B50C4D02202B685B6998472B6802205B6B98470128044661
:201B0000064BF7D11B684FF40070DB699847044B044A1C6013689B07FCD538BDB80100108E
:201B200028200860282008402DE9F04340F2F275DFF8E08083B0FFF7D7FFD8F800302B4ED4
:201B4000DB682B48984733682A4C5B69152098472368DFF8C490284F23F4FE63D9F8002071
:201B600023F0020323603D60D36B1B2098472349D9F800204FF0FF334FF00060086000936D
:201B8000D2F840C01A481C211B22E047D8F800301748D3F804C01A494FF4E1326023E04727
:201BA00040F2011240F2013E1649174B142008601968164841F01001196003681449002B85
:201BC0000CBF134673460B603D60036853B12368326843F0500323601369152003B0BDE87A
:201BE000F043184703B0BDE8F08300BFB001001000100040381000404410004090200240AA
:201C0000006CDC02341000402C1000409406002030100040D0010010B401001008B5064B8C
:201C200002201B685B6B9847012803BF034B186800F00100002008BDB80100106C2008402E
:201C400038B50446FFF7EAFF18B12A4A13681907FCD4032C03D0284B1B6803B138BDFFF72F
:201C6000DDFF30BB254D4FF400702B681B6A9847032C34D0224B0121224A196013689B07BD
:201C8000FCD5214B00211B681B201B684FF4C04298471E4B01221A701C2000F08DFA4FF079
:201CA000FF3000F089FABDE838404FF0FF3000F083BA174B17481B68DB689847164B1520CE
:201CC0001B685B69984740F2F270144A1449136823F4FE6323F0020313600860C2E72B686D
:201CE0004FF400709B6A98472B684FF400701B6B9847BFE71810004094060020B801001011
:201D00002820086028200840B40100101B200240D001001000100040B001001038100040C7
:201D20004410004010B506F0BDFE0446054800F031FA054B00221A6004B110BDBDE8104084
:201D400006F0B4BE3C0000209406002010B50446FFF764FF08B9FFF7E7FE044B2146BDE8A6
:201D600010401B680248DB69184700BFD00100100010004008B5FFF751FF18B1024B18681A
:201D8000C0F3C00008BD00BF18100040F8B5FFF781FC194F194E0123B370B860FFF7A4FEFE
:201DA00040F2F271164B174A1B68116013F0500F0CD0154C154D05E02B681B699847144B9D
:201DC0001B68ABB923681348DB06F5D5B3780B4C6BB1FFF75FFCBB680F49C01AD1E9042366
:201DE000121843F10003C1E904230023A370F8BDC0B29847E6E700BF041C0020F41B00207A
:201E0000401000404410004018100040D00100109406002000100040781B00202DE9F84347
:201E2000FFF738FC1F4C014623781F4D5BB128681E4E081AD6E90023121843F10003C6E9A3
:201E40000023002323701A4E4FF0000932684B46012702206770696001F0E0FD154ADFF8E0
:201E6000488013680F4F23F00403136030BF022001F0B0FD3060FFF70DFC637863B1D8F837
:201E800004100A4E411AD6E90223521843F10003C6E9022387F80190012328602370BDE82E
:201EA000F88300BFF41B0020041C0020781B00209C06002010ED00E02DE9F04106F0F2FDFB
:201EC00001F0E6FF18B1BDE8F04106F0EFBD9E4802F0FAF90225044648B1636823B1984738
:201EE000A84228BF2846C5B22468002CF5D1FFF7D1FB964B04461B68002B40F0BC8000F0B7
:201F000015FB002840F0CA80012D00F0F880022DD9D18D4802F0D8F90446002800F0B7806F
:201F20000625A368022003B198472369246825EA0305002CF5D1FFF769FD6B0705F00604C8
:201F400000F1A880002C40F0E28000F0A9F9002009F0EEFD7E497F4A0B687F4823F0030331
:201F60000B601368016843F00F0313608B69392098477A4A7A4900231360184613600B60D5
:201F800006F0F8FE062C00F0C880764D0027764C3B462A68022001F041FDFFF77BFB2378D4
:201FA000724E5BB13168DFF8D8E1411ADEE90023521843F10003CEE9002327706C4A0121FD
:201FC0006C4B706061701B686B491368096823F0030313604B686948032198475E4BDFF813
:201FE0008C811B68604F9B6B9847022001F0F2FC2860FFF74FFB637863B1D8F80410604D74
:20200000411AD5E90223521843F10003C5E9022300237B700125574F306025703B6807F075
:2020200001F8554B574A1B680021116053485B68294698474E4A5449136843F00303136049
:202040000D603B6807F020F809F03EFDFFF700FBFFF7DCFC3C4802F037F9044628B1E3685A
:2020600003B198472468002CF9D106F01FFDBDE8F04106F01BBD454B1B681B1A022B41D40B
:20208000A3F28F23002BBFF63AAF01233BE0FFF7BDFC06243C4B00221A6053E701F0A0FD2D
:2020A00050B9012D014642D0022D7FF40CAFC0B32846FFF74DFB2CE701F09AFD0646FFF737
:2020C000BDFA361A002E7FF7FEAEFFF767FB304B00EB46211B1BCB422FD401208542E3D1A2
:2020E0006FF007031B1BCB4224D404F58034631A31EA230128BF21460220FFF729FBFFF753
:202100008DFEE0E600239D4228BF1D46F7E6124B20461B689B69984717E7022006F0F2FF15
:2021200033E7284604F11671FFF712FBF1E604F58031E1E704F10801DEE7022DD0D0012D8F
:202140007FF4C1AECCE700BF98060020800224430010094008100940B80100104010094068
:20216000200422439C060020F41B0020041C0020242208402C200940D80100100040034016
:20218000781B0020800104430C4009401820094071FDFFFF0146014802F098B898060020B2
:2021A0000146014802F0D6B898060020014802F087B800BF98060020421C0ED010B504460F
:2021C000064B4FF4C0421B6800211B689847044AA3001A430023136010BD7047B401001036
:2021E000001A444210B584B00022412302A80292039309F07DFC042006F032F9032813D027
:202200000420032106F0FCF8042006F029F903280346F9D1074A0848126800935468002187
:202220004FF040521C23A04702A809F0B7FC04B010BD00BFA401001000A00C4000B583B088
:202240000022412368468DE80C0009F051FC012006F006F9012803D00320012106F0D0F86E
:20226000684609F09BFC03B05DF804FB00B583B00022412368468DE80C0009F039FC01202D
:2022800006F0EEF8012803D0044B986B06F05CFD684609F083FC03B05DF804FB4800001040
:2022A00010B582B04123684600240193009409F01FFC0320214606F0A3F8012006F0D0F8BB
:2022C00018B1044B986B06F03FFD684609F066FC02B010BD480000101E4B9A780132D2B29F
:2022E0003B2A9A705A7804D901320021D2B25A7099703B2A1A7804D901320021D2B21A70DF
:202300005970172A05D9144900200A881870531C0B8012490B68B3F5967F17D3104B012251
:202320001A70002201320F2A0AD0002AC8BF0023F8DD00BF01339342FBD101320F2AF4D13D
:20234000074B00221A7001230B60704701330B60704700BFA0060020341B0020C406002005
:202360000E200240014B1880704700BF94020020014B188880B270479402002038B50F4A0C
:202380000F4C53781278A4FB03130E4D02EB4202DB0803EB4204284608F024FFE3100A4A65
:2023A000EB5C04F007041288C4F1070423411340064A03F0FF03137038BD00BFA006002084
:2023C000CDCCCCCCB0060020940200209D020020054BC0F30721C0F3074282B018705970D7
:2023E0009A7002B0704700BFA0060020034B19785A789B780170427083707047A00600208E
:20240000264B1A7802F0FF03002A45D02DE9F041234D244A6C782B78A2FB041203EB4301F5
:20242000D30803EB4103204FDFF880E0013300260BE08EFB00235FFA8CF6C8EB631303EB06
:20244000C303902EA0EB03130ED0DA10B95C03F00702C2F1070241FA02F2581CD3074FEA0C
:20246000E07806F1010CE4D40E4B06EB8606A3FB0423DB0803EB8302A4EB4204730003F11B
:202480000902A878E3B2D31AC3EB0313C0F13C0000EB8300BDE8F081184670479D02002086
:2024A000A0060020CDCCCCCCB0060020398EE338194B1B7803F0FF006BB3F0B51749184BFE
:2024C0004A780978A3FB023201EB4101D30803EB4103144E144F013300240AE087FB002300
:2024E000ECB2CEEB631303EBC303902CA0EB03130ED0DA10B15C03F00702C2F1070241FA36
:2025000002F2581CD3074FEAE07E04F10105E5D4601CC0B2F0BD70479D020020A006002057
:20252000CDCCCCCCB0060020398EE338014B1878704700BF9D020020014B1888704700BF3F
:20254000341B002030B4044A044B054C002510601960256030BC7047A4060020A80600206C
:20256000AC060020014B1868704700BFAC060020024A136801331360704700BFAC060020BF
:20258000014B1868704700BFA4060020014B1868704700BFA8060020014B00221A60704780
:2025A000AC06002070B50388044653B1B3F5097F03D182290AD0012070BD002303800320AB
:2025C00070BD4FF409732380012070BD094B0A4E1D69FFF71BFA07F0D7F907F08BF98021FE
:2025E000A847002880B2ECDD07F07EF933699847EFE700BF0CD4000094DF0000024B18682B
:2026000000F00100704700BF9C21084010F0030370B506460D4602D1028811051FD406F028
:2026200041FA1F4B00301B6818BF0120DB0720D51C4B1D4C1E6023684CF250322B6003E06C
:202640002368013A2B6014D013F0FF0FF8D018B32878A0F10100B0FA80F0400970BD43801C
:2026600006F020FA0E4B00301B6818BF0120DA0702D468B1002070BD338813F4405FD7D021
:2026800003F44063B3F5006F04BF084B1E60CFE706F00CFA002070BD06F008FAD8E700BF80
:2026A0009C2108400010044004100440C80600200A4A01E0013A0ED0438803F44063B3F520
:2026C000806FF7D1428802F44062A2F58060B0FA80F0400970471046704700BF20A10700BC
:2026E00030B583B006F0DEF9254C0546236819201B6A9847236812201B6A9847236819202C
:202700005B699847236812205B6908349847236801205B699847236801205B6B98470128B1
:20272000F9D11849184B194A0860186013689B07FCD5134C164817492268002303600B6042
:20274000136919209847236812201B699847A5B140F2FF35104B114A114812490024056016
:202760000C60114801A91A60FFF750FFA0F10100B0FA80F0400903B030BD06F097F9E7E742
:20278000B00100102C200840282008602820084010100460141004600010044051000706E6
:2027A000000004601C1004400100060440F60A0230B5164B87B01D680024012301A8694656
:2027C00001940494059502940394ADF804208DF81130FFF71BFF012802D0204607B030BD61
:2027E0000B4801E00138F9D0BDF8063003F44063B3F5806FF6D1BDF8060000F44060A0F5DC
:202800008060B0FA80F0400907B030BDD006002020A1070010B540F6090486B0002301228F
:2028200001A8694601930493029303930593ADF804408DF81120FFF7E9FE012802D0C0B269
:2028400006B010BD0F4801E00138F9D0BDF8063003F44063B3F5806FF6D1BDF8063003F4F6
:202860004063B3F5806F02D0002006B010BD064B1A782AB9054A0599012011601870DFE716
:202880000120DDE720A10700501B0020D006002030B587B006F006F92F4C0546236819206F
:2028A0005B699847236812205B6998472B4B1B68DA0715D540F60D04294A2A49002313608E
:2028C00002A80B60012201A90293059303930493ADF808408DF81520FFF798FE01282CD064
:2028E000FFF798FF2048214B00240121204A0460196013689B07FCD51E4C012023689B69E2
:202900009847236801205B6B98470228F9D1124C192023681B6A9847236812201B6A9847EC
:20292000236819201B699847236812201B6998470DB906F0BBF807B030BD0F4A01E0013AC8
:20294000CED0BDF80A3003F44063B3F5806FF6D1BDF80A30C4E700BFB00100109C210840D3
:2029600010100460141004602C2008402820086028200840B801001020A1070008B506F033
:2029800087F9052803460BD003280DD018B101280FD0002008BD094B03221A60012008BDCF
:2029A000064A0120136008BD044B02221A60012008BD024A0521116008BD00BFD0210840FB
:2029C000F8B5164A164B1268002814BF00241C46D30700D4F8BD06F065F80646114A1248D7
:2029E000124F134D00214FF000433B60046011602B6819201B6A98472B6812201B6A9847AA
:202A00002B6819201B6998472B6812201B69984706B1F8BDBDE8F84006F048B89C2108401B
:202A200000008080101004601410046018100460B00100100028064B14BF0822022200297A
:202A400018BF0023034804491A4303600A607047000080801010046014100460034B002881
:202A6000034A18BF00231360704700BF0000808014100460014B1868704700BFC80600206E
:202A8000014B1860704700BFCC06002038B5FEF701FE124C0122124BA2701B68114DDB0776
:202AA000A86004D4FFF71CFE012800D038BD0E4B6FF000421A60A378084C002BF6D0FEF76F
:202AC000E9FDAB680949C01AD1E90423121843F10003C1E904230020A07038BDF41B00206A
:202AE0009C210840041C002010100460781B002038B5FEF7CFFD1D4C01221D4BA2701B6823
:202B00001C4DD907A86007D41B48FEF795FFFFF7E7FD012800D038BD05F0C4FF174B1A6839
:202B200012021CD4154B1A6812F00A0F1CBF6FF00A021A6005F0BAFFA3780C4C002BEAD0CE
:202B4000FEF7A8FDAB680E49C01AD1E90423121843F10003C1E904230020A07038BD6FF4FC
:202B600000021A60074801F0F1F9DBE7F41B00209C210840041C0020B4DD00001010046064
:202B8000781B002050000020014B1878704700BF511B002008B500F08BF880B208BD00BF4E
:202BA00000F030B938B50C4D04202B685B6998472B6804205B6B984701280446064BF7D1B4
:202BC0001B6840F20140DB699847044B044A1C6013689B07FCD538BDB80100102820086067
:202BE00028200840034B1B68002B14BF01200220704700BFD4060020F8B503880446002B16
:202C00002ED0B3F5847F05D1184B1B788B4205D00120F8BD002303800320F8BD144D2B6855
:202C200073B1144B144A1B6812685B680220174698470026301847F100012B6898472E60EE
:202C40000E4B40F201401B689B6A98470C4B01210C4A196013689B07FCD50B48FFF7A0FA28
:202C60004FF4847323800120F8BD00BF9E020020D4060020CC01001004800240B8010010BC
:202C800028200860282008406000002008B5064B04201B685B6B9847012803BF034B186861
:202CA000C0F34000002008BDB80100103C20084070B5274B1B689BB1264C0023224612F862
:202CC000011B29B90133042BF9D10020014670BD214A002502EBC302E55492E8030070BD10
:202CE000FFF7D4FF00282FD01C4A1D4B1268134073B91C4A01211346116018680028FCD156
:202D000002464FF4807106F015FA174B01221A6005F0C8FE0646114A1368DB07FCD5134B45
:202D2000134A1B6814685B680220984723460022141843F1000516B12046294670BD05F0C5
:202D4000B5FE2046294670BDFFF72CFFCCE700BFD4060020D8060020B00200200880024097
:202D600001000080F09F0240A8025042CC010010048002402DE9F041FEF78CFC194D1A4E90
:202D800000241A4A0127AF70346013681849DFF87080096823F00103C8F8080013604B69B6
:202DA00031209847204622464FF4807106F0C2F9104B3760197822460F4801F073F8AB786F
:202DC0006BB1FEF767FCD8F808300C49C01AD1E90423121843F10003C1E90423AC70BDE874
:202DE000F08100BFF41B0020A80250420C800240B00100109E02002074000020781B0020A2
:202E0000041C002010B5074C2378802B00D010BD00F0B0FF207000210348BDE8104001F0F6
:202E200075B800BF9E020020740000200AB90020704708B508461146FEF716FE002008BD68
:202E40000FB400B583B004AB53F8041B04481A46019300F025F803B05DF804EB04B07047FF
:202E600084000020102970B50C46054602D80AE0102C0BD92B686868084910229847103CBE
:202E80000028F5D070BD08460029FBD022462B6868680249BDE87040184700BF60DE00000F
:202EA0002DE9F04F82460F468FB007924FF0000B3B78002B00F0E880252B08BF3E461BD0C2
:202EC0003C4602E0252B04D014466378621C002BF8D1974216460CD0D51B39462A46DAF801
:202EE0000030DAF804009847002840F079826378AB44002B00F0C88073780136002B00F030
:202F0000C38019460025A1F12003102B1BD8DFE803F0171A1A141A1A1A1A1A1A1A111A0EFF
:202F20001A1A090045F0100516F8011FEBE745F00105F9E745F00605F6E745F00805F3E7B6
:202F400045F00205F0E7A1F13102082A0B46374600F2DC80A1F13002092A4FF000040AD82F
:202F600004EB840403EB440417F8013F303CA3F13002092AF4D92E2B00F0D1804FF0FF3615
:202F80006C2B00F03D81682B00F04281782B00F28180DFE813F079007F007F007F007F00D1
:202FA0007F007F007F007F007F007F007F007F007F007F007F007F007F007F007F007F0021
:202FC0007F007F007F007F007F007F007F007F007F007F007F007F007F007F007F007F0001
:202FE000BE027F007F007F007F007F007F007F007F007F007F007F007F007F007F007F00A0
:203000007F007F007F007F007F007F007F007F007F007F007F007F00BB027F007F007F0082
:20302000B802B502B2027F007F007F007F007F007F007F007F007F007F007F007F007F00F8
:203040007F007F007F00AF027F007F007F007F007F007F007F007F00AC027F00A902A602CA
:20306000A302A0029D027F00A6027F007F007F007F009A0297027D007F007F0091027F0085
:203080008E027F007F00940258460FB0BDE8F08F45F4407505F4E063B3F5806F07F10107CA
:2030A00000F0CE804FD9B3F5C06F00F0A581B3F5E06F00F09A81B3F5A06F7FF4F9AE079B48
:2030C000012C1A6803F1040307938CBF04F1FF340024EB078DF8202000F1D081504621461F
:2030E000FFF7C0FE002840F07B81DAF80030DAF8040008A901229847002840F071810BF1F7
:20310000010C0CEB040505EB040BD1E62A2900F08C800B462E2B4FF000047FF42FAF7B786C
:20312000791CA3F13002092A7AD80F46002606EB860603EB460617F8013F303EA3F13002FA
:20314000092AF4D91CE7B3F5807F00F0B080B3F5407F7FF4ADAE079BC34A1968C34815F42C
:20316000804F03F1040308BF9046079318BF80460A460023002900F094810DF13309484648
:20318000110941EA03714FEA131E02F00F0673460A4618F8061000F8011D52EA0301EFD1C0
:2031A000B9EB0006034600F07E810336B4424FF030024FF078014FF0230300F8022C8CBFFF
:2031C000A41B0024EA0700F8011C00F8033CA0F1030800F1A18150462146FFF743FE0028C4
:2031E00040F0FE804146DAF80030DAF8040032469847002840F0F4805E4406EB040B57E6C0
:203200007B786C2B00F00481013745F06005BDE67B78682B00F09381013745F04005B5E663
:203220002A2B00F091810F46A8E6079B771C1C680433002C0793B8BF45F0010573789AE681
:20324000079BD3F8009004330793B9F1000F00F08F8299F80030002B00F0B2824B4613F83A
:20326000012F002AFBD1C9EB0308002E02DBB04528BFB04644458CBFC8EB04040024E907E9
:2032800000F1E08050462146FFF7ECFD002840F0A7804946DAF80030DAF8040042469847B4
:2032A000002840F09D80D84408EB040B00E6002EABBF25F0100501230196019315F4005328
:2032C000049305F0E00300F0A880402B00F07F8200F24181002B00F02D82202B40F05A8236
:2032E000079B1A1D079293F90020D317002A73F10001C0F22A82CDE902230023059305F44A
:20330000C053B3F5805F00F09281B3F5C05F00F0BF81B3F5006F00F067810DF136064FF0B1
:203320000008019B41F20802984541F6080303EA050380F0338101999342C8EB01010191BE
:2033400000F0468141F6080201999342414400F031814FF000094A46049B73B1059B002B79
:2033600040F0838105F00603022B00F01B824048062B04BF02464FF0010909EB01039C427E
:203380008CBFE41A002415F00103049306D1E80640F1F681019B2344049C0193B9F1000FC3
:2033A00007D01146DAF80030DAF804004A469847B0B9019B08EB0B05102B40F291819B4630
:2033C00003E0BBF1100F40F28E81DAF80030DAF80400284910229847ABF1100B0028F0D005
:2033E0004FF0FF300FB0BDE8F08F079B1A680433C2F800B007935BE5DAF80030DAF8040005
:203400001D49012298470028EAD10BF1010B4FE5BB7845F080050237B8E5402B00F0C681C0
:2034200000F2A980002B00F09881202B40F02181079B049A05921A1D07921A780023CDE90E
:2034400002235CE74946DAF80030DAF80400424698470028C4D150462146D844FFF702FD6B
:2034600000283FF421AFBBE72CDE000018DE000050DE000070DE00005CDE0000DAF80030C7
:20348000DAF8040008A9012298470028A8D1504621460BF10105FFF7E5FC00283FF433AEF0
:2034A0009EE70DF13303302203F8012C581E04267CE645F41065EDE545F48065EAE545F431
:2034C000C855E7E545F48855E4E545F4E065E1E545F48135DEE545F40075DBE545F4024540
:2034E000D8E545F42455D5E545F4A065D2E545F4C135CFE545F4B245CCE545F4A135C9E52D
:2035000045F48445C6E545F44245C3E545F4E135C0E545F4C065BDE54146DAF80030DAF847
:2035200004003246984700287FF45AAF504621465E44FFF797FC00283FF45FAE50E7BB7892
:2035400045F02005023721E5079ABB78111D07911668023714E5602B00F0EC80802B40F0C6
:203560001981079B073323F0070303F108020792D3E90023BAE6602B00F0EF80802B78D1C4
:20358000049B0593079B073323F0070303F108020792D3E90023CDE90223B0E6934200F04F
:2035A000EC800022019241F608020199934241447FF4CFAEDDE9022313433FF4CAAE874B07
:2035C00015F4804F864A4FF0020908BF1A46C3E60B46002908BF01230193019B4FF000094C
:2035E0004A4603EB0801B7E6DDE9028942464B46134300F0E7800DF136031E4606934046D6
:2036000049460A22002309F0D5F930324046494606F8012D00230A2209F0CCF980468946C0
:2036200058EA0903EBD1069BC6EB030879E6DDE90223134300F0C6800DF1360306939E4699
:20364000DDE90223D00840EA4370DE0802F007013346024630310EF8011D52EA0301F1D1A2
:20366000069B7646CEEB03085BE64FF001095D4A83E605F4C053002200200021B3F5805F99
:203680000592CDE90201D2D0B3F5C05F40F08580DDE90201544A554B15F4804F14BF9046B4
:2036A000984602460B46134300F08C800DF1360306931E4602460B46110941EA03714FEA82
:2036C000131E02F00F0073460A4618F8001006F8011D52EA0301EFD1069BC6EB030820E610
:2036E000019B9B464BB15A46DAF80030DAF804003F49984700287FF473AE31464246DAF8E5
:203700000030DAF804004D44984700287FF468AE019B2B441E46049B002B3FF46EAD504665
:203720002146FFF79FFB00287FF45AAE06EB040BFFF7BEBB079B1A6804330793002A4FEA28
:20374000E27373F10001BFF6D6AD524263EB4303CDE9022301230593D1E5049A079B05922B
:203760001A680021104604330793CDE90201C6E5DFF884904FF0060877E5012301932CE7BC
:20378000504621460292FFF76DFB029A00283FF405AE25E600220023ADE5DDF814800DF147
:2037A0003606BEE5134A4FF00109E6E5079B049A05921A1D07921A880023CDE902239EE5EF
:2037C000984652E54FF000080DF13606A9E5079B1A1D0792B3F90020D31787E544DE00000F
:2037E00040DE000048DE000018DE00002CDE000070DE00004CDE000054DE000010B50446CC
:20380000006830B1002100F081FB54F8040F0028F8D110BDF0B5038883B005465BB14A2B86
:2038200004D188291BD0012003B0F0BD00230380032003B0F0BD194800F046FD044630B1AE
:20384000201DA16800F0A8F92468002CF8D1144B01221A704A2301202B8003B0F0BD0F4814
:20386000019200F031FD04460028F3D0019A031D9A4205D02468231D002CEBD09A42F9D19D
:203880000648214600F066FD064E6269A369376832600BB1E06998473760DBE7DC06002085
:2038A000521B0020EC06002010B5064B002406481C7000F005FD2146BDE81040034800F0CC
:2038C00025BB00BF521B0020DC0600208C00002070B504460D48049D0078A261E361656124
:2038E00030B9A1600A482146BDE8704000F0EEBC084D094B2E68201D2B6000F04DF92E606B
:203900002146BDE87040024800F0E0BC521B0020DC060020EC0600208C00002010B5044CB3
:2039200082B024680094FFF7D3FF02B010BD00BFEC06002070B5094B04461B783BB1084D86
:20394000084B2E6804302B6000F030F92E602146BDE87040044800F0B9BC00BF521B00205F
:20396000EC0600208C000020DC06002010B50A4B04461B783BB9C36003612146BDE81040B9
:20398000064800F0E7BC043000F03CF92146BDE81040024800F0DEBC521B0020DC0600202E
:2039A000094B0A480A49D0B400220026002703F17804E3E90267A34240F8042F01F8012FFD
:2039C000F7D1D0BC704700BF701B0020001C0020F31B0020F8B50E4B1B5C23B90D4B03EB69
:2039E000C00003C8F8BD0446FDF754FE03460A4F084D57F8242005EBC405861AD5E9000155
:203A0000801941F10001C5E9000147F82430F8BDF41B0020781B0020041C0020024901EB8A
:203A2000C000C0E900237047781B002010B50E4C2368B3B1FDF702FE2268516813689268D6
:203A40001944091A4AB192E8180023441B1A9268994228BF1946002AF5D1044B084418609F
:203A600010BD024A136010BDE0060020E40600202DE9F041038805467BB1592B08D1872987
:203A800012D0822920D059232B800120BDE8F081002303800320BDE8F081254A0120136069
:203AA00059232B80BDE8F081214F3B68002BEAD0D9688A4203D024E0D9688A4220D19B68EC
:203AC000002BF9D13B60DEE7194F4FF000083C68002CD8D0002604E0A3682646002BD2D01C
:203AE0001C46204600F0B4FA0028F5D0E0688821224600F0D7F978B10E4800F027FAEBE7F8
:203B00003B6099680029BED0C86882420BBF89680B4699608968F5E7E060A3682EB1B3604F
:203B2000C4F80880FFF782FFD1E73B60F8E700BFE00600209C00002010B50446104800F0C0
:203B400005FA1049E3680A684BB142B194420FD0134601E09C420BD09B68002BFAD10A4B6B
:203B6000A2601B680C60E360BDE81040FFF75EBF054B1B68E360BDE81040FFF757BF00BF33
:203B80009C000020E0060020EC060020014800F0DDB900BF9C00002010B5044600F044FACA
:203BA0002046BDE81040FFF7C7BF00BF10B5044600F042FA2046BDE81040FFF7BDBF00BFA8
:203BC00010B5044600F03EFA2046BDE81040FFF7B3BF00BFC068B0FA80F04009704700BF2B
:203BE000024B1868003018BF01207047E0060020024B186808B1024B18687047E006002003
:203C0000E406002010B5114B04461A68904218D05AB19368834208BF13460AD02BB19A6850
:203C2000A24206D01346002BF9D10023A360E36010BDA2689A60FFF7F9FE0023A360E360EC
:203C400010BD82681A60FFF7F1FEEEE7E00600202DE9F843DFF8A480274DD8F800702E68DD
:203C6000874247D077B33B4601E0002B3BD01B689842FAD133B3837B8946044623B3002384
:203C800083736FB1BC424FF0870106D0BB7BDB0703D53846224600F033F83F68002FF1D1EA
:203CA000A3683BB14C4505D02C6004F10C00832100229847D8F80000844208D12368C8F8BB
:203CC00000302E60BDE8F88338468442F6D00028F7D00368A34208D0002BF2D01A68A24292
:203CE00004D01346F8E7BDE8F883034622681A602E60E7E73B46BDE7EC060020F0060020A2
:203D000070B586687EB104460A4802230460A37304F10C000D46B0470238012804D9832DEB
:203D200002D00123A37370BD20462146BDE87040FFF78EBFEC06002070B50C4A0C4B146885
:203D400000251D7084B1012601E0246864B1E37B002BFAD0A673E573204682210022FFF7EE
:203D6000CFFF2468002CF2D170BD00BFF0060020561B0020024B1878421C1A70704700BF2C
:203D8000571B002070B407480749084A0023084D084C8A2603700B6013602E70237070BC52
:203DA000704700BF551B0020F0060020EC060020571B0020531B00202DE9F8432B4D2B7849
:203DC0000BB1FFF7B9FF2A4E33781BB3DFF8B4E028499EF80040013B04EB44029200881833
:203DE0000134895CDFF8A0C04268DFF8A0808068214FDBB204F01F0433708EF80040CCF8A8
:203E00000000C8F80020397088B1812906D0847BE40705D428781844BDE8F8830123837367
:203E2000FFF76EFF337828781844BDE8F883134A134C12682260002AECD0A1460AE0206861
:203E40003978837BD8F80020DB0709D403682360002BE7D02B78002BF1D0FFF76DFFEEE76E
:203E6000FFF74EFFD9F80000F0E700BF561B0020551B0020F8060020581B0020F0060020B0
:203E800078080020531B0020E8060020F4060020024A034B10781B7818447047551B002074
:203EA000561B0020F0B50F4E3478202C17D00E4BDFF838E01B78DFF838C0234403F01F036A
:203EC00003EB4305AD000EEB05070134B86034707A608CF800300EF805100020F0BD012072
:203EE000F0BD00BF551B0020531B0020F8060020541B002038B5837B034CDB07256801D50C
:203F0000FFF7FEFE256038BDEC06002070B404460D4D2868A04206D038B1034600E023B12D
:203F20001B689C42FBD170BC7047002CFBD0012600232060A673A3810A4620462C6081218F
:203F400070BCFFF7D7BF00BFF006002038B1837B013B012B03D8024A01231370C3737047CA
:203F6000561B0020FDF790BBF0B5234E0446306883B00D46089AE8B1204F63603B78A260D1
:203F8000216033B1FEF7D2FA34603870002003B0F0BDFEF7CBFA0128F4D13368A342F1D155
:203FA00028460193FDF772FBFEF7C0FA019B38703360EBE7114F63603B78A26021604BB1F1
:203FC000FEF7B4FA346038702846FDF75FFB002003B0F0BDFEF7AAFA0128F1D13368A342C2
:203FE000EED128460193FDF751FBFEF79FFA019B38703360E8E700BF7C080020591B002095
:2040000010B5084C206858B100224368816822609847236823B1BDE810401868FDF736BB26
:2040200010BD00BF7C08002010B541600446FDF705FB206010BD00BF90E80C001344036062
:20404000704700BF10B50446FDF7F8FA206010BD10B50446FDF7F2FA23686268C3F10103AC
:20406000184482422CBF0020012010BDF8B5038805468B2B32D007D99F2B01D0BA2B29D192
:20408000852952D00120F8BD23BBFFF773FE374C374A012310702360344F364E09E023688F
:2040A0007E2B03F1010242DCF05433783A6001333370314800F07AF9431CDFF8B0E0EED181
:2040C0002D4800F087F950B92068012807D18B232B80F8BD00232B800320F8BD234CFDF752
:2040E000D9FA264E3060FDF7D5FA3268244B9B1AC342F8D4204800F06DF906460028CBD1C9
:204100002368012BC8D01A4B1A4A1978FFF7CAFE1C4B324618688521FFF7C4FE08B3154E5D
:204120000122002322603370B6E7104CF7E7114E0F49F0543778013332460978013700200E
:20414000CEF800303770FFF7ADFE0E4B852118680022FFF7A7FE0028E2D1BA232B80012061
:20416000F8BD9F232B800120F8BD00BF040900209427002008090020880900200009002075
:20418000ABEAFFFFEC06002008B505480549802200F004F9BDE8084003480021FFF7B6BED0
:2041A0008809002080080020AC0000202DE9F843364D2B7828704340D9070ED510F0010480
:2041C0000FD1334EF378002B4FD13379304C002B39D173792E4C0BBB2878BDE8F843FCF7CC
:2041E000EDB9FDF757FA2B4F294E0123F860F3702B78DA07E9D5FDF74DFA01233861337126
:204200002B78224CDB07E4D5FDF744FA0123786173712078BDE8F843FCF7D0B9FDF73AFAC3
:204220001C4B1D4E5969D6E90A23401A12EB000843F10009C6E90A89002161712878BDE8E8
:20424000F843FCF7BBB9FDF725FA124FDFF848E03969DEE90823401A12EB000843F1000919
:204260000021CEE908892171CAE7FDF713FA094F0949FB68D1E90689C01A18EB000249F122
:204280000003F470C1E90623B2E700BF5A1B0020F41B0020041C0020781B002008B5FCF725
:2042A00079F9024B00221A7008BD00BF5A1B0020024B1B785840FFF779BF00BF5A1B002080
:2042C00000230360704700BF00687047026842B1914203D11BE099420ED01A461368002B05
:2042E000F9D100230B6002680AB90EE01A461368002BFBD1116070470B68136000230B60DD
:2043000000230B600268002AF1D1016070470B680360F3E710B404684CB1A14217D0224692
:2043200002E0994208D01A461368002BF9D10C6001605DF8044B70470C460B681360002395
:20434000236004680C6001605DF8044B70470B680360F4E7026842B18A4203D10BE09942D2
:2043600004D01A461368002BF9D170471968116000221A607047134612680260F8E700BFCA
:2043800003682BB100201B680130002BFBD170471846704700B10068704700BF0023013A52
:2043A0000160027143718371704700BF0346807959791A79091A114208D010B4411C1C6871
:2043C0000A40205C9A715DF8044B70474FF0FF30704700BF4379827900799B1A18407047D9
:2043E0002DE9F84302FB0105099F1646A8424FF0000204463A609DF820801DD299464FEA1A
:20440000D80807E04946424608F0ACFD88B13444AC4207D22378A01C002BF3D13C6034444B
:20442000AC42F7D33B68002B14BF01200220BDE8F8833C60BDE8F8830220BDE8F88300BF03
:204440002DE9F041174D82B0009104460E4690461F4601950346032113482022FFF7C0FFC0
:2044600001281BD12B68187020682B68D4F804E0A168E268C3F802002868C3F806E0C3F845
:204480000A10C3F80E20089B86744361099B80F813800777836102B0BDE8F081002002B02D
:2044A000BDE8F081940900206C1D0020F8B50C4B07461C460B4D03F160062B602378A01C39
:2044C0002BB1A27C3946D20808F04CFD28B12034B4422C60F2D30020F8BD0120F8BD00BF6A
:2044E0006C1D00209409002010B5094C82B0802203468DE81400074803212022FFF770FF7C
:2045000010B9206802B010BD002002B010BD00BF98090020881C00200E4B30B403F1600156
:2045200048F2FE040C4D05E09A7C824207D020338B420BD01A78002AF9D0421CF4D15A88CB
:20454000A242F4D118462B6030BC70472B60002030BC7047881C0020980900200E4B30B416
:2045600003F1600148F2FE040C4D05E09A7C824207D020338B420BD01A78002AF9D0421CDD
:20458000F4D15A88A242F4D018462B6030BC70472B60002030BC7047881C0020980900206D
:2045A000F0B5114D83B0802203468DE82400044605210E481222FFF713FF012811D12B68A1
:2045C000187020682A686768A668E168C2F802002868C2F80670C2F80A60C2F80E1003B0E8
:2045E000F0BD002003B0F0BD900900200C1D00202DE9F0410446254D82B080208DE8210021
:204600000F4690462346224803212022FFF7E8FE012837D12B68187026682B68D4F804E03D
:20462000A168E268C3F802602E68C3F806E0C3F80A10C3F80E2086F81380D7B93075154B6F
:204640000022FF2101200227B0745F70D872197019735A809A80DA801A819A72627B18464C
:204660005A73E289DA81FFF79BFF286802B0BDE8F0810023337506F11800394607F0A2FAD3
:204680002E68DCE7002002B0BDE8F08198090020881C00209C09002010B5094C82B08022A1
:2046A00003468DE81400074805211222FFF798FE10B9206802B010BD002002B010BD00BFC5
:2046C000900900200C1D0020E8B138B504460E4B0025FF22022001215870D9721A735D80A8
:2046E0009D80DD801D819D721A70E27B18465A73228ADA81FFF7D0FF044B186000B10570C8
:204700000023237038BD70479C0900209009002038B5144B144C1846236003F1600504E0EF
:2047200020682030A842206012D20378002BF7D0037D002BF4D1183007F04CFA0028EFD00A
:204740002068FFF7C1FF20682030A8422060ECD300F0DEF901F030FDBDE838400348FFF7D7
:2047600025BA00BF881C002098090020CC1D002048F2FE0C2DE9F84F0B88804663453FD05C
:204780000B78FF2B3CD0354A354F00201346814602F1600E3A6003E0203373453B601FD0AA
:2047A0001A78002AF8D09A7C012AF5D15A886245F2D04E1E5D1C002216F801AF15F8014F01
:2047C00002F1080BA2451FD15FFA8BF2802AF3D191459CBF91461846203373453B60DFD1FC
:2047E00040B350F8024F41688268C368C8F80040C8F80410C8F80820C8F80C30BDE8F88F8B
:204800000120FFF789FEEBE702F1080615468AEA0404F2B2660014F0800F05F1010AF4B20C
:204820001AD15FFA8AF59542F4D191459CBF91461846D1E7A8F80000A8F80200A8F8040015
:20484000A8F80600A8F80800A8F80A00A8F80C00A8F80E00BDE8F88F2A46B9E7881C002006
:20486000980900200B684A688360037AC26083F002030372704700BF10B5FEF78BF90446E5
:20488000FEF788F9054B24029A68A4B22044B0FBF2F302FB130000EB520010BD701C00201A
:2048A0002DE9F041344E82B001F0D6FB00F098F800216022314808F061FC30460021F82299
:2048C00008F05CFC2E4C2F492F4B4FF0400818224FF4A06520203560B4601A7086F804809E
:2048E0000870FFF7C9FF48F2FE0E42F2107C40F2FF27264C002500950195F060A4F800E096
:2049000041462A462B4620466580A580E580C6F810C03575FFF794FD1D4A04F108031068BC
:204920005168012203C3237A294683F0020320462372FFF75DFE4FF480732046E381658020
:20494000A580E58025816581A5812780FFF728FE4FF40073204627806580A580E580258180
:204960006581A581E381FFF71BFE0A48802102B0BDE8F041FFF710B9701C00206C1D002029
:20498000808D5B00691D0020681D00209C090020E81D0020CC1D00202DE9F04105460E4889
:2049A00088461746FFF790FC044658B911E000236668284641463A46B0472046FFF7EAFC5F
:2049C000044630B1012DF2D80448FFF7D9FC0346EEE7BDE8F08100BFF4090020F009002074
:2049E00008B5054807F006F90448FFF769FCBDE808400348FFF764BCBC000020F0090020CD
:204A0000F409002010B504460E48FFF75DFC40B1A04202D106E0844204D0FFF7BBFC0028CA
:204A2000F9D110BD21460748FFF794FC2146064807F010F9211D0A46BDE810400120FFF754
:204A4000ABBF00BFF0090020BC00002038B505460A48FFF739FC044628B90DE02046FFF70F
:204A600099FC044640B1201D2946102208F07AFA0028F3D1204638BD002038BDF0090020A7
:204A8000F8B50F460546FFF7E1FF0646B8B128686968AA68EB68341D0FC447B90123337786
:204AA000002029462A46FFF777FF3046F8BD394606F1140007F086F800233377F0E7054870
:204AC00007F0AAF806460028EFD003483146FFF721FCDCE7BC000020F009002038B50B483D
:204AE000FFF7F2FB044678B1251D284601F004FB10B190F822302BB92046FFF74BFC044654
:204B00000028F1D1284638BD0546FBE7F009002010B50D48FFF7D8FB044664B1237F04F129
:204B2000140013B907F056F830B92046FFF732FC0446002CF2D110BD2046FFF763FF0248CF
:204B4000FFF7C2FB0446E8E7F0090020013A0A44914230B414D20C4625786378023403EB5C
:204B600005239BB2184480B2834284BF013080B2A242F1D8CB43134423F00103023319440C
:204B8000914201D030BC70470B7830BC1B02184480B2834284BF013080B2704730B5134B4F
:204BA000134D1C782B796A79C4EB0323134483B09BB2ADF80630BDF8063005F108011844AD
:204BC000202280B2FFF7C2FFBDF8062004F12801294492B2FFF7BAFF18B94FF6FF7003B019
:204BE00030BD40BA80B203B030BD00BF5B1B0020F01D0020F0B41B4B1B481D7802272835F2
:204C000043195C783B46E4000734A342174E1DDC5A19815C0244012911D01BD3632906D18F
:204C200052780020023213443370F0BC704701F0C001802912D0C02910D040290ED05278E2
:204C400002321344DBB21F46A342E1DD37700020F0BC70470133DBB21F46F5E73770012040
:204C6000E3E700BF5B1B0020F01D00205D1B002070B4C278134C0A44D2B2E27083780E0A5C
:204C80003344DBB2A37045789E4265700078207003D90135EDB265708DB1C9B28A420CDA92
:204CA0000133DBB2A370074A3BB953780133DBB2537013B913780133137070BC704701306A
:204CC0002070EAE7E41D002010B5084C014620681430FFF7CDFF064A23685078147891782C
:204CE000D2781C7558759975DA7510BD00230020E41D00203A20FFF751BF00BF08B5FFF7AC
:204D0000CFFD07F03DF801F08FFA104B002103F1280223F8021F9342FBD10D4B0D4803F505
:204D2000F071002283F8252030338B42FAD10A4A0A4B4FF48061118003F5A07100221A8210
:204D400020338B42FBD10A23037008BDEA240020042300205E1B0020381B00201825002024
:204D60002DE9F041134E347814B3134F04F127033D88AB4204DB00233B803370BDE8F0816F
:204D8000DFF83880A5F12802121B04F128012C1B4144A4B208F1280008F08CF9A4F12803F9
:204DA000191200223C8088F8053088F804103270BDE8F0815B1B0020DC1D0020F01D00200D
:204DC0002DE9F041DFF8C4802E4E0746B8F800C0308A0CF1010C1FFA8CFCBCF5FA4F26D3E0
:204DE0004FF0100E4FF4805C8645F2D0254C022326462246158E01337545DBB202F120020D
:204E0000E7D00B2BF6D1A8F800C0DFF884C0A0B301231D46208E5A1C203468B10A2A13466B
:204E2000D5B2F7D18CF800500020BDE8F0819CFA9CFE1FFA8EFED7E78CF800505C0104EB66
:204E4000060CACF810E0ACF812100E4B67B1654638687968BA68FB680FC50B4A33191279C4
:204E600060461A75BDE8F0810CF108021F51CCF8047042F8047B1760EFE78CF80000034665
:204E8000DCE700BF18250020701C0020381B00205E1B0020F0B40E4E0E4F3288002382427D
:204EA0003B700FD001231D46314631F8024F5A1C844206D0142A1346D5B2F6D13D70F0BCA0
:204EC00070473D70002226F81320F0BC704700BFEC2400205E1B00202DE9F04FB64B04288E
:204EE00087B01D682BD0B549DFF8F0A2DFF8F0B20328CAF80010CBF800102DD0022800F034
:204F00009D80052800F0728111F83C2CA1F13C0402F0F002602A00F0E780A94BA94EDFF89A
:204F2000C482DFF8C4920193019A0023338088F8003089F80030137007B0BDE8F08FA04B4F
:204F4000A04EA14801930388002B40F06A81DFF89482DFF89492E7E795F8252002F00F0288
:204F6000032A00F0F380022AD7D1A1F13C0404F118030293924B934E019340234FF0020C54
:204F80004FF0040E0020602184F8352084F83CC084F83DE084F83E0084F83F30338084F869
:204FA00034102B7DDFF8308284F830306B7D029F84F83130AB7D84F83230EB7D84F83330ED
:204FC0002B7E84F82C306B7E84F82D30AB7E84F82E30EB7E84F82F302B8A23856B8A63850D
:204FE00095E80F0087E80F0008F1080008F11801FFF7BEFB95F8253003F0100303F0FF0209
:20500000002B40F04F81402388F8362088F8373033886E4A283B1579062100221E1208461A
:2050200063712671E571A17184F83B2084F83A202287FFF7B3FDC043208724E16449614E96
:20504000CB78DFF8A08101335F480022DBB2CB70328088F80020028063B98B780133DBB29C
:205060008B703BB94B780133DBB24B7013B90B7801330B7095F8252002F0FD03052B00F020
:205080008B80002A00F09380AB8B002B00F03F8395F82630591E85F82610002B40F0878056
:2050A00095F82730082B00F07A83511E012940F27383042B9CBF0321994002F00F0294BF4E
:2050C000C9B230210133541E85F8273085F82610072C6CD8DFE814F0FD0005010C01F30092
:2050E0006B00F3006B00F3002279364E6079120235881718AF4200F3DB80257A2830024480
:20510000FF2D328000F0D480324DDFF8D880DFF8D890A07900223639296088F8002089F82C
:205120000020002840F019810122019389F80020FFF760FD0128019B00F00081C0F001814A
:20514000022840F00A811E4B0193A1E0AB8B002B7FF4E3AE1A4A082301921370194E02F089
:205160000FF91948019B1A7802F0200303F0FF01002B00F0DA82184C002385F8253014228A
:20518000038004F1180384F8352002933C233380502384F8343004E795F826300133DBB222
:2051A000782B85F8263004BF002385F82530044BDFF834900193B7E6002300202C1E0020F9
:2051C000F0220020DC1D002014250020701C0020F8090020F4220020F01D0020FC220020BD
:2051E000E01D00205B1B00205C1B0020C04A1268128A002A3FF491AEBE4ABF481546BF4E32
:205200000C3901920824002202800290CAF80010CBF800101A6032802C7002F0B1F80298B2
:2052200091E6B34AB64C126803F1080149BA002092F814E0A185E085118A303321859BB264
:20524000508AA3F128010D124FF0110884F807E0257160853380617184F8068004F11805C9
:205260000FCA85E80F00294604F10800FFF780FAA44B04F13C0240461A60FFF78FFCC04357
:2052800080B258B1E08500236022227063706380019A0023137007B0BDE8F08F4FF6FF73AE
:2052A000E385F0E7002388F8373088F83630AFE6904BDFF85C820193DFF8509234E68D4B5B
:2052C0008F4C019304F118030293112384F835305CE7884B8A4C019304F11803029312224C
:2052E0004BE6844B864C019304F11803029344E6804A042302901370019202F041F802981B
:205300000388DBF80020CAF80020002B00F02482AB8B002B00F02082794C3C331822338058
:20532000A31884F83520029332E71120FFF736FC4FF6FF729042019B00F0FC806D4B0193FE
:20534000F2E598F8002002F1280121444878083202EBC002296088F8002001936A4B1846CC
:205360000293FFF7C1F8019B002800F052822A68664FDFF89CC112783C2ADFD801A151F854
:2053800022F000BFC15600003D5300003D5300003D5300003D5300003D530000C55500003B
:2053A0003D5300003D5300003D5300003D5300003D5300003D5300003D5300003D5300006D
:2053C0003D5300003D530000155500003D5300003D5300003D5300003D5300003D53000073
:2053E0003D5300003D5300003D5300003D5300003D5300003D5300003D5300003D5300002D
:205400003D5300003D5300003D5300003D5300003D5300003D5300003D5300003D5300000C
:205420003D5300003D5300003D5300003D530000BB5400003D5300003D5300003D5300006D
:205440003D5300003D5300003D5300003D5300003D5300003D5300003D5300003D530000CC
:205460003D5300003D5300003D530000795400003D530000F35600003A20FFF78FFB4FF6B7
:20548000FF7398427FF45AAF98F80030204D2833E05C01F0D5FD98F800302833E2185178DF
:2054A000E05C06F007FC012802D1002333802B703388002B3FF442AF45E699F8002051070C
:2054C0003FF53CAF98F8001042F0040001F12802224492F803E03870BEF1000F7FF42EAF32
:2054E0005078083101EBC0018CF800102A6042E7F8220020F022002014250020DC1D0020D9
:20550000F01D0020FC220020081E00205C1B00205B1B00200193FFF723FC3288B14BE18DE0
:20552000303ACAF80030A3F130053280019B00297FF4FBAEB5F82AC0BCF1000F3FF4FEAE81
:20554000A94AAA4FA84D3A60228D0396029205F5A074664604E02035A5423D6000F05481B8
:205560002A8A002AF7D09642F5D1B5F812E0A0481022BEF1000F02D002998E45EBD12968E4
:2055800029B9696819B9A96809B9E96831B12946019307F0E7FC019B0028DCD1954C964873
:2055A000254601948F4C0022022102800290039ECAF80040CBF8004029701A6001F0E0FE2F
:2055C0000298C0E40193FFF7CBFB0620FFF7E6FA4FF6FF729042019B7FF4B0AE628D114606
:2055E0000192864A00293FF4A9AE128D0492002A3FF4A4AE824DCDF80C9005F5F077C14619
:20560000A04603E03035BD4200F0588195F82540002CF7D02A8A01998A42F3D16A8A049940
:205620008A42EFD1724829461022059307F09AFC059B0028E6D1A446444694F835206D4FCE
:2056400002F00401019701F0FF070497694FC8461D60DDF80C903870DFF8A0E1002940F01C
:205660005C849EF834103088090989002838654F401A0CF00F0C80B2BCF1020F039730805E
:20568000397000F05284BCF1010F00F0058210B9900700F00682B4F82CE0A88A574986453A
:2056A00000F07C83910707D5BCF1010F3FF417AEBCF1020F00F07883102384F8353065E5CB
:2056C00099F80020D0073FF539AE42F00102CDF80CC001933A70FFF78DFA0128019BDDF80C
:2056E0000CC03FF42BAE6BD302283FF42CAD2A6841E699F8002091076FD550063FF51EAEC2
:2057000042F040023A70CDF80CC00193E3E702F00F02032A7FF44BAD364A08230290019211
:20572000137001F02DFE02981CE502F0100303F0FF0403B3314C042285F825204FF0010ECB
:20574000112304F1180285F82710A5F81CE00180029284F8353019E5019B1B7899077FF582
:20576000F6AB264C10223C2384F8352004F11802029233800CE503881F494BB1D70740F16F
:205780009680AC83EA8B934288BF02800388AB83002285F82720B4E5052B7FF48AAC154A41
:2057A000002385F82530154C80231370019201F0E7FD142384F8353004F118030293E5E47F
:2057C00098F8001001F1280222445078083101EBC0012A6088F80010CDE542F002023A704D
:2057E00091E700BF201E002018250020F8220020F81D0020F022002014250020F01D002090
:20580000042300205E1B00209B4B039E0193FFF78BBB02980193FEF73FFF019B00287FF4B9
:20582000A6AD227E029BFF2AA3F1180300F0EC8048F2FE00198B814200F0E680198981424A
:2058400000F0E88081B95A8972B99A8962B9DA8952B91B8A43B9628A884B2AB99A8A1AB9C2
:20586000DB8A002B3FF46AAD228B844B82B95A8B72B99A8B62B9DA8B52B91A8C42B95A8C50
:2058800032B99A8C22B9DB8CB3F5807F3FF456AD3388B3F5A06F3FF651ADE379774A012BEA
:2058A0007FF64CAD013BD371734B0193F0E4AA8B002A3FF467AF13460A8069E7444694F8E3
:2058C0003520C84602F03F02022ADDF80C905ED0694B019394F83520684B55073FF524AB2C
:2058E00093F82F0093F833A093F8329093F8318093F82C5093F82E1093F82D2093F830E0C4
:205900000130DFF880C1C0B283F82FA083F82E904FF0140A4FF03C0983F82D804FF05008A9
:2059200083F8330083F8321083F831208CF8005083F8305083F82CE083F835A0A6F800905C
:2059400083F8348060B90131C9B283F8321039B90132D2B283F8312012B9013583F8305024
:20596000B4F828E0638D464D029FDFF824C12385A4F82AE095E80F0087E80F00284605F1D7
:205980001001ACF800E0FEF7F3FEFFF741BB3D48002105460A46DFF8F8C02970BDF8041068
:2059A0000390ACF80010384803E014290A4600F0FF81511C019F30F81220CDB2BA42F4D199
:2059C0000398DFF8D0E00027077039463A463D46704607E04A1C11460A2900F13000D2B253
:2059E00000F0928290F82570002F00F0F581072FF0D1002D00F08F8290F8267095F82620DB
:205A0000974288BF0546E5E748F2FE03218999427FF494AC2189194B79B9598969B9998976
:205A200059B9D98949B9198A39B9598A29B9998A19B9DB8A002B3FF481AC218B0F4B81B971
:205A4000598B71B9998B61B9D98B51B9198C41B9598C31B9998C21B9DB8CB3F5807F3FF4DE
:205A60006DACFF2A3FF46AAC0848FEF71FFD024B0193FFF759BA00BFF0220020F01D002032
:205A8000F81D00205E1B0020EC240020081E0020361B00200423002002F03F0102297FF43A
:205AA000F6ADD20601D5A98BD1B995F8252002F00F01013907293FF637AA01A050F821F089
:205AC000375F0000175D0000175C0000EB5B0000B75B00009D5B0000B95600007F5B000010
:205AE00005F118000593FFF7C3F8B44A94F830001378B34983421F46059BD6D191F831E003
:205B000050787045D1D191F832E092F802C0F445CBD191F83310D2788A42C6D195F827106D
:205B20002F76687685F81AC0EA76F1B995F8242095F8260095F82210121AA2EBD102D2B22E
:205B4000D0B20706114444BF5242D0B295F82320C9B2A2EB92020244D2B285F8221002EB76
:205B6000D10185F8241085F8232095F824200198012185F8262000220170AA8395E7019BBB
:205B80001A78904BD2077FF5CFA9002285F8252010221A7001F0F4FBFFF7C6B9019B1B78AF
:205BA000DA077FF5C1A90722002385F8252085F82630FFF7B9B93088DFF814A2002840F040
:205BC000918094F83530DB077FF5AEA90722002385F8252085F826300120FFF775F8019A16
:205BE0001023137001F0CCFB66E5308808B1FFF76BF894F8353013F0010300F08180019B9D
:205C00001B78DF076AD50023072285F8252085F82630AB83E0E794F83530DF0721D5D00653
:205C20001FD4AB8B002B7FF47FA93088013080B2FFF74AF801983188037843F0100202709E
:205C4000604A11B143F01203137001F099FB012108220023A98385F8252085F82730FFF761
:205C600034BB99060DD594F83AE094F83B30DAF80010308843EA0E231944C31ACAF8001013
:205C80003380308840B1D20606D4019A137843F002031370FFF718F894F8362094F837303A
:205CA000DFF830C103EB02232A8C9BB29342ACF8003000D80BB9ACF80020019BBCF800208D
:205CC0001B78EA839B073FF42FA93F4800230380029001F055FB0298FFF744BA062385F8E3
:205CE000253079E7FEF7F0FF94F83530D9073FF56DAFBAF80030002B7FF4DEACFFF714B91D
:205D0000019A1278D00740F12B810522AB8385F82520FFF709B9019A1278D20706D594F876
:205D20003520274902F03F02122A0BD00393019B20221A7001F024FB039B00221B6883F888
:205D40002520C7E591F8343003F0F002502A40F231811909039F1D4B0020053938701A785E
:205D6000DDF810E0019F890004EB0E008E45844680F2438190F83C20002A00F03E81012A7D
:205D800000F04281022A00F0FA809CF83D00002800F0338186445FFA8EFEE5E7C88DE98ADA
:205DA00088427FF47FAC7CE642F00202FFF7E5B8044B0193039B1D708CE500BFE41D0020F1
:205DC000F01D0020F0220020142500205F1B0020DC1D0020361B00200398302502708D4AAE
:205DE00005FB01258C491D60BDF8043091F8008091F801E088782B82C978BDF81030874A1B
:205E000094F82CA094F82D9085F8188085F819E094F82E8094F82FE001276B82A876E976EF
:205E20004FF0000B0FCA85E80F0003230422CDF814C085F8263085F82430384685F82570AA
:205E4000AF8385F814A085F8159085F8168085F822B085F8232085F827B085F817E0FEF7DE
:205E600033FF94F83430DDF814C003F0F002502A23D91909039A6A4B053982F800B01A788E
:205E8000890004EB0B008B4507461ADA90F83C207AB1012A08D0022A1BD097F83D0040B188
:205EA00083445FFA8BFBECE70BF1010B5FFA8BFBE7E71A70039B83F800B05A4B0193FFF732
:205EC0000EBA1A705749039B019183F800B0FFF706BA90F83DE0BEF1040FDED190F83F10D2
:205EE00090F83E701A7041EA07231A46402B0399ACF800304B4B28BF402281F800B0EA83DD
:205F00002A840193FFF7EBB903990A70002D7FF469AFFFF713BA05465CE5202385F82500A3
:205F20003B7001F02DFAFEF7FFBF02F03F0112297FF4ADABB5E5019B1A783A4BD10715D5A4
:205F4000308803244021002285F825401970AA8300283FF4BAAE42221A70FEF7B5FEB4E654
:205F60003388002B7FF4A8ABFEF7DEBF94F8353003F03F03022B7EF4D7AFFFF7B0B990F8B1
:205F80003D90B9F1040F7FF400AF90F83F10F44690F83EE003981A7041EA0E231A46019725
:205FA0000746402B204928BF402287F800C00B80EA832A8494F82CE094F82D0094F82E1077
:205FC00094F82F20032385F814E06875A975EA7585F825300120FEF777FE14480023038096
:205FE000AB83338088F80030019B422202901A7001F0C6F90298FFF7B5B81A70039B019787
:206000001A4682F800E0D5E70EF1010E5FFA8EFEAAE600BF04230020F8090020F81D00202B
:206020005F1B0020F0220020361B00201425002040BA80B2704700BF50B110B5044602F026
:2060400041F8044B2146BDE81040186803F0A8BB704700BFC8000020024B0349186803F01C
:2060600043BA00BFC8000020396000002DE9F041124C0646206890461F4603F0AFFA044649
:20608000C0B10546F36830687168B2680FC50021284684F8218084F8227005F093FD04F156
:2060A0001800002105F08EFD002384F82030204602F008F82046BDE8F08100BFC8000020BD
:2060C000024B0146186803F095BB00BFC800002038B5084D286803F055FA48B1002401464A
:2060E000286803F017FA01340028F8D1204638BD0446FBE7C800002070B505460C4E306815
:2061000003F040FA8DB1044630B90EE02146306803F000FA044640B120462946102206F0CF
:2061200021FF0028F2D1204670BD002070BD00BFC8000020024B0146186803F017BB00BF35
:20614000C800002008B5FFF7D7FF30B1034B01461868BDE8084003F04DBB08BDC800002043
:2061600070B5064610200D4603F09CFC0F49044603F0CAFC18B90E4B1B78012B00D070BD5F
:2061800003F0D2F80028FAD0FFF7B6FF28B1094B0146186803F02EFB0446002CEFD02046FA
:2061A00031462A46BDE8704001F050BF40DF000054270020C80000202DE9F041194D2868C4
:2061C00003F0E0F9044640B34FF00208032705E02146286803F09EF90446F0B194F8223014
:2061E000012BF5D104F11006304605F0F3FC0028EED02046FEF72AFC052180B184F822707C
:20620000304605F0DFFC002384F820302146286803F080F904460028E0D1BDE8F08184F831
:206220002280D5E7C8000020704700BF08B5064800F0F4FE054BAA22012000211870597006
:206240009A70DA7008BD00BF41640000280D002010B5114C0220A17903F00AFCA379112BBD
:206260000FD0062B0DD03A2B05BF94F8281094F82930002143EA01210120BDE8104003F0E6
:20628000F7BB238D618D01209942A8BF1946BDE8104003F0EDBB00BFF01D002070B41378C1
:2062A0000D7A83F002039D42044614D00B891BB94B89B3F57F4F2FD01E4A51F8085F13688E
:2062C0004E68012003F10801A0405E601D601160C0B270BC7047487A53789842E6D1887AE9
:2062E00093789842E2D1C87AD3789842DED1087B13799842DAD1487B53799842D6D1887B49
:2063000093799842D2D1D379CA7B9A42CED1032303FA04F0C0B2DCE78B89FE2BCCD1054D70
:20632000C9892A68022322F8021B03FA04F02A60C0B2CEE7240D002010B5084C2378012B4A
:2063400001D0002010BD01460822A01C06F00AFE00280CBF2046002010BD00BF280D0020FA
:2063600010B50C4611462046FFF7FAFE044B1B6813B19B6820469847024B1C6010BD00BF28
:20638000400D0020380D00202DE9F04715090F2D07469A4602F00F043FD00F2C34D0A1461D
:2063A000A84666195DBB0F2E03DD5CB9E5B9BDE8F08707EB0800C6F11002002106F0DEFEB6
:2063C000002CF3D0DFF87480C9F11000D8F8006038443146224606F0F7FD022C26D0344428
:2063E000C8F80040BDE8F08738465146BDE8F047FEF738BA454620264FF010094C462A467E
:20640000384606F0E1FDCEE7A84605F11006002DF2D14FF010094C46D4E70F2C4FF0100854
:20642000E8D042464546A146A618E9E70A2DD6D8FF22FE23FA723B73D1E700BF240D002013
:206440002DE9F04FDFF808B3B24D002387B08BF800302B70044603F097FA03F04BFAAE4FAB
:2064600004213860092003F003FBAC4B1B680BB1FFF7EEFE0DF11008002C00F0FF81214614
:20648000404603F03BFBA64B1B883E2B33D995F80090D7F800A0002309F10209A14E0AF89F
:2064A0000930A1480AF102033360FFF745FF002800F010810AF103033360802302939B4C91
:2064C00062782178130943EA0113DBB2980840EA8313DBB210075FFA83FE63D1608800283D
:2064E00060D1080740F0FE8012F0F00F40F0FA807823019365E08D4C95F80090A4463B680C
:2065000009F10106F6B241221E441A7004F1200AE646BEE80F00D64530607160B260F360A2
:206520000CF1100C06F11006F2D1BCE80300306071609BF8003009F12909283385F8009013
:206540008BF800304146102003F0A0FA784B1B689847734B00289BF800601A882D78ACBF94
:20656000C0F17D006520921B401B8242994600F3C0803868A119284406F026FDB9F80000FA
:206580002844801B80B203F0AFF94146102003F07DFA684B1B78002B40F0B180012007B05C
:2065A000BDE8F08F090703D112F0F00F00F08480326820681346106003F804EB33606023F3
:2065C0000193A379112B00F05E81326802F8013BE3793260402B00F05E81FF2B00F07F81EE
:2065E000012B64D0326802F8013B326023894F4A3BB953892BB993891BB9D389002B00F079
:2066000088814D48FFF798FE4C4B1860002800F0CF8042781AF80930042043EA02130AF86D
:2066200009304549464AFFF739FE60F03F00C3B20293237EDFF8F4C0FF2B00F0E6800CF194
:206640001800CDF80CC0FFF777FE3C4ADDF80CC01060002800F024811AF809104278029B50
:206660000A430AF8092043F004030CF11801002042465FFA83FAFFF711FED6F800E04AEAED
:2066800000005FFA80FAA3792822112B8BF8002026495FD03B682A789DF80400C3EB0E0E9C
:2066A0009918985485F800E081F801A04AE7019B43F00103019399E7316823F03F0313436A
:2066C000204A0B701288CB1C33606823A1F80120019376E71848FFF72FFE00287FF4EAAED5
:2066E0000290ECE63368702203F801EB0192336067E704F055FC002007B0BDE8F08F124B11
:2067000012489B6800219847FBF780F9012007B0BDE8F08F611B0020340D0020400D00204B
:20672000DC1D0020240D0020081E0020F01D002048DF00009F020020F81D00201C0D002016
:20674000E81D0020F21D0020BCDF000061630000601B00204FF2B0020B8D5BBA9BB223F0EB
:206760000F0080B290424A8D52BA92B200F0BC8002F47F42B2F5704F00F0308103F47F433C
:20678000B3F5704F00F0EF80A54BF0228EF8002018680EF10503CEF801009E46A14B30221B
:2067A0001B888BF800202EF8023BC6F800E071E748F2FE0322899C499A420FD14B8B6BB9B9
:2067C0008B8B5BB9CB8B4BB908310420974AFFF765FD029B1843C3B202932AE7D6F800C0FE
:2067E000DFF854E20CF110033360BEE80F00CCF80000CCF80410CCF80820CCF80C30237E0B
:20680000DFF824C2FF2B7FF41AAF029B9CF8190043F0080A02285FFA8AFABCF81A3000F0D1
:20682000B080002B48D1BCF81C30002B44D1E38B7D49002B40D10B8C33B94B8C23B991F875
:206840002430002B00F0D880228C774BA2BB93F822208ABB31680A4602F8010B53F823EF46
:206860000298C1F801E01B7940F0090A01F1060E5FFA8AFA1371C6F800E004E740466C49E2
:2068800003F03CF9FFE5019B43F004030193E379402B7FF4A2AE019B43F002030193A5E605
:2068A00048F2FE03BCF818209A4203D1BCF81A30002B44D0DDF808A0D6F80090DFF87CC1D5
:2068C00009F1100EBCE80F00C6F800E0C9F80000C9F80410C9F80820C9F80C30D3E6019B7E
:2068E00043F00303019381E622F00F0C84457FF43FAFF3238EF800304B8D0A8D1B0A120A91
:2069000003EB021303F5AA638EF801300EF1020343E7138A002B7FF474AE538A002B7FF4B2
