:020000040000FA
:2000000000500020E9000000E1000000C9000000E5000000E5000000E5000000000000002E
:20002000000000000000000000000000E5000000E500000000000000E5000000E50000002C
:20004000E5000000E50000003D270000E5000000C1150000151B0000E5000000E5000000BD
:20006000E500000099270000E5000000E5000000E5000000E5000000E5000000E50000007D
:20008000E5000000E5000000E5000000E5000000E5000000E5000000E5000000E500000038
:2000A000E5000000E5000000E5000000E5000000E5000000E5000000E5000000E500000018
:2000C000E5000000152A0000044B1A68B2F5806F03D01B689B0500D4FEE7704728ED00E03A
:2000E000FEE700BFFEE700BF08B507F01DFE104A104B9A420DD2D0430F4918440B4620F051
:2001000003000430084453F8041B834242F8041BF9D10A480A494FF000028842B8BF40F8AB
:20012000042BFADB00F0FEF9FFF7CEFF08BD00BF00000020A2020020C8D30000A802002044
:200140006C260020F8B5012003F056FF044608B307F03AF9F0B12346064640F2FF2753F8AF
:20016000020F0D4C59689A68DB680C4D0FC456F8080F083C71680A4A002303C44FF48070F0
:2001800001212F80E8816B80AB80EB802B816B81AB811170F8BD00BFD0020020E0020020F7
:2001A000701A0020F0B51B4C8BB000230122227002930393ADF8103007F006F9054630B342
:2001C000154B1B780BB9FFF7BDFF144A138801339BB21846138005F079FC4DF61712104B1A
:2001E00026781B680F4CAF8B01250092ADF808000522184602A90C4B2570ADF80A708DF824
:200200000C6006F0B7FB094A13782B4413700BB0F0BD00BF99020020701A0020581A0020DC
:20022000440300209D020020E002002098020020F0B51A4C00238BB0237002930393ADF810
:20024000103007F0C1F8054630B3154B1B780BB9FFF778FF134A138801339BB218461380F2
:2002600005F034FC42F616620F4B26781B680F4CAF8B01250092ADF808000522184602A904
:200280000B4B2570ADF80A708DF80C6006F072FB084A13782B4413700BB0F0BD990200200E
:2002A000701A0020581A0020100300209D020020D002002098020020F0B5002083B003F079
:2002C000D3F90646012003F0CFF90546062003F0CBF90446072003F0C7F907460C2003F072
:2002E000C3F9094B31461B782A46009701902BB12346064802F0F0FB03B0F0BD23460448C7
:2003000002F0EAFB03B0F0BD701A0020D8C5000090C500002DE9F04740F24F15038886B066
:20032000AB4204461FD0B3F5BC7F11D02BB100230380032006B0BDE8F08765491A460868DE
:20034000852103F0F7FB0120258006B0BDE8F087604B1B788B4267D0882974D04FF4BC73D1
:2003600023800120E6E7852903D0012006B0BDE8F0874AF6AA26002502A85749ADF80860EC
:20038000ADF80A50ADF80C50ADF80E50ADF81050ADF81250ADF81450ADF8165003F0B0FF98
:2003A0002946012202A803F071FE4C4F4C4BDFF860E14FF4205C2A464FF4905A4FF074093D
:2003C0004FF48078284642F616611E805D809D80DD80A3F808A0A3F80A90A3F80C80A3F896
:2003E0000EC08EF800503D8006F01AFB3D4A0346106020B343F6225228461A824DF617115C
:200400002A4606F00DFB384A03461060B8B14DF6171236481A824FF4963103F0FFF93448D3
:20042000344903F0FBF999E7334B1B789B0793D5324B33481B8800680025C5548CE70023E6
:200440002380022076E72F4B9A4213D0274B9A420CD0274B9A4226D02B4B9A427FF47EAFE1
:20046000104603F0E5F9FFF727FF77E7274B00221A7073E7019201F0B1FE019A08BB06F0DC
:20048000A3FF00283FF46AAF214B1B78EBB1214B1B78032B0DD120484FF4A0611F4A002368
:2004A00003F088F85AE7194B01221A70FFF704FF54E719484FF4A061194A002303F07AF8B3
:2004C0004CE7104603F0B4F9D9E7FFF7F5FEDEE7B00600206A260020BC1C0020581A002075
:2004E000D00200201003002044030020140300200003002000042900C4210020B01C0020F8
:20050000D0210020F0020020480300209B020020701A00209802002024030020A50100003F
:20052000310200002DE9F0436F4C85B023686F4801215B689847236801210A461B686B4816
:20054000984707F095FF01F003FD01F0E5FC00F015F9674801F040F9664801F03DF9664C10
:20056000664801F039F90221012000F053F900F065F900F099F9238801273B449BB218465D
:20058000238000F081F921885D4802F0A5FA07F073FF00F08DFF00F0F3FE03F02BFB01F09F
:2005A000E7F803F037FA41F2342002F049F901F07DFA03F0C7FB0021524803F0EFFA02F0D7
:2005C000BFFF03F039F800F071FF4F4A4F4B10604F481F7002F080FA4E4B4FF00008186844
:2005E00001F0FAF84C4802F077FA4C4B4C4D186801F0F2F84B4802F06FFA4B4B4B4C1868FB
:2006000001F0EAF808F03AFF02A80821CDF8048001F01AF99DF80F309DF80E6002AA43EA06
:20062000062603CA28606960304600F0EDF8404B4048198802F050FAD4F82C904AF6CD316F
:200640000220C84731460320C84705213846C847082202A9636B0B209847A36A01A938462B
:2006600098470521344802F037FA6A68334B29685A60196008F036FB4146314803F08EFA1E
:200680000AF0A0FB0AF022FD636A98472D4802F001FF01F07BF82C4D2C4E2B78013386FBEA
:2006A0000321DA17C2EB2132A3EB021303F0FF032B7027480BB901F08FF803F0C5F904464C
:2006C00001F07CF814F0FF0F2B78F2D143B101F0A9FA2B78002BE1D11E4801F07DF8DCE7A6
:2006E0001D4801F079F8F2E7D80100100040034034C6000050C600009C1A00206CC60000D6
:2007000080C600009C000020081B0020F81A002094C6000054D200009CC60000A0D200000E
:2007200060260020A4C60000D8D2000084C700005A1A0020ACC60000BCC60000BC1C002034
:20074000DC00002088C50000711A0020AD8BDB68CCC60000D4C60000D0C6000010B5064C51
:20076000042023685B699847236804205B6B98470128F9D110BD00BFB8010010F0B59DB099
:2007800007F076FE0746FFF7E9FF194B4FF4A0601B68DB699847174B0121174A196013689D
:2007A0009907FCD5154801F0ABFB7022684614490BF094FD009C621C0FD06D46114E336805
:2007C00020469B6B9847336820469B694FF40051984755F8044F631CF1D10FB907F04CFE6C
:2007E000084B1E201B68DB6B1DB0BDE8F0401847B801001028200860282008401000002065
:20080000D8C60000B4010010014B1880704700BF5A1A002000B583B08DF804008DF805107C
:20082000FF2301A8044903228DF806300AF0F0FC03B05DF804FB00BF02E0010030B583B019
:2008400001A90C4802220AF0C5FC9DF804309DF80520094D094C18462B80227001F014FCF1
:200860002988074802F038F92178064802F034F903B030BD02E00100981A00209A1A002026
:2008800048C7000060C7000000B583B08DF80400002301A84FF4F03102228DF805300AF0A9
:2008A000B7FC03B05DF804FB00B583B04FF4F03001A902220AF08EFC034B9DF804201A8040
:2008C00003B05DF804FB00BF9C1A0020012070470120704708B501F0E9FC30B1044B5B8826
:2008E000022B0CBF0120022008BD022008BD00BF8C01002010B582B001F014FF044601F06F
:20090000D5FC08B902B010BD084801A901F0D6FC0128F7D1638803F44063002BF2D16388BA
:2009200003F44063002BF5D0ECE700BF0100010408B50346B32994BF0A46B4220248194691
:200940000BF0CCFC002008BD7203002070B50A4D00262C6803E024682B68A3420AD02379C7
:20096000032BF8D1054803F039F924682B680136A342F4D1304670BD640300205000002074
:20098000F8B5124E35682B79032B02D000242046F8BD2C89023C002C0CDD8C4205F10A07ED
:2009A0000EDD3957042089B208F03EFD03207F2108F03AFD2A68002332602B712046F8BD3A
:2009C000394622460BF08AFCEBE700BF6C03002030B583B001F06AFCE0B1164C6388022B15
:2009E00018D101A9144801F069FC02E06388022B03D101F05BFC0028F8D16388A3F5505385
:200A0000043B9BB2012B02D9002003B030BD0B4CE37913B9012003B030BD00F047FD084ABD
:200A20000849D369CD6900215B1B1844D061E1710120F0E78C01002001000104F81A0020A0
:200A4000C01A0020081B002030B583B001F02EFC1C4CA0B900236380A37F1A485BB2C3F516
:200A6000FF6307339BB201A9238301F027FC01280CD00020144B00221A7003B030BD63886E
:200A8000022B08BF0120E5D103B030BD00F00EFD6FF03F052D1A03E000F008FDC54203D54F
:200AA00063889BB2022BF7D163889BB2022BE0D100F0FCFC0549064A0123C861D37118467E
:200AC000D8E700BF8C0100201E200240081B0020F81A002010B5114B114C1A680A21237E2A
:200AE00084F82410928882B003F0F80343F00803204601A96283237601F0E0FB012802D079
:200B0000002002B010BD204601F02AFCA0F10100B0FA80F0400902B010BD00BF380000202E
:200B2000D401002000B583B00A4801A901F0C6FB012803D0002003B05DF804FB054801F0C9
:200B40000FFCA0F10100B0FA80F0400903B05DF804FB00BFBC01002008B5FFF7BBFF01285C
:200B600001D0002008BDFFF7DDFF0128F9D1FFF76BFFC0B208BD00BF38B5104B00241C70AC
:200B800001F052FE01280BD00D4DFFF721FF01F0D7FCEB7933B901F039FA0A4B00225A8017
:200BA000012038BD00F082FC074A0849D369C969EC715B1A1844D061EDE700BF1E2002402F
:200BC000F81A00208C010020C01A0020081B00202DE9F84F01F028FE012818D001F0E4F9A6
:200BE00001F064FB78B901F061FB0446002840F08E8001F0CDFB012805460BD001F0A0FCE2
:200C00000020BDE8F88F574B5B88022BEBD10120BDE8F88F01F00AFD53494FF423725348C6
:200C20000BF05CFBDFF88CB15148DFF88C91DFF88CC1504F504E5149514B524A04704FF0DB
:200C4000020A8BF800504FF003084FF0040E052406204D4D89F800A08CF8008087F800E0AD
:200C6000347008701A602B684749002BFBD00020464A474BDFF84881086052F81CCC52F8FF
:200C800018EC52F8146C52F8105C52F80C4C52F8207C12E90300203343F8207C43F81CCCFD
:200CA00043F818EC43F8146C43F8105C43F80C4C43F8080C43F8041C434502F12002DCD10C
:200CC000344B354ADFF8FCC0DFF8FCE0334934482D4C344F344E00251862C3F824C00120FB
:200CE000C3F828E0DF621E632560116007F07EFC2E4807F0DFFB224613682349002BFBD07C
:200D000000230B6001F0AAFB01287FF477AF002001F0AEFC2648002103460E460225842437
:200D20005A791E7102F0FC0265F383025A71DC808C3343508C31B1F50C7F1D4AF0D1C2F83B
:200D4000A42101F049F9FFF7C5FE012802D00020BDE8F88FFFF7E6FE0128F8D1BDE8F84FE3
:200D6000FFF772BE8C01002070CE00001C04002190030021AE030021AB0300218103002127
:200D8000C0030021BD0500211C100440DCC7000000C0002180C600210010044001010E04C9
:200DA0006039536311161216546B0070D40100202804002079030021750300217703002154
:200DC000A0C600212010101A136F236E70B582B007287ED8DFE800F077047D7D207D235EF9
:200DE0000A2973D8574C4FF47A72208AE38902FB03F302FB00F2A3F5D32302F57F42FF3234
:200E0000A3F55A73504803EB2243A0FB0323CAB2C3F387139A4266D1002002B070BD4FF69E
:200E2000FF744A4DAE88A64208BFFF2309D02A460023083290880133A042DBB2F9D1013B3A
:200E4000DBB255F83330414C99423FDB236899423CDC0191FFF74EFD4FF6FF739E42019951
:200E60006DD022461C460023083290880133A042DBB2F9D1013BDBB255F8332005EBC3006D
:200E8000914203F1FF3357DD5A1CF5D1FFF764FE0020C2E72E4B197001F008FAE0B12D4BCA
:200EA0005B88022B08BF002516D1FFF791FD012814BF03240024FFF74FFE012818BF03241A
:200EC0004DBB2046A9E701292FD041B3022002B070BD012002B070BDFFF77AFE012829D066
:200EE000032002B070BDC82303FB01F11A4801F5D32303F55A73A0FB0321184A890902FB52
:200F000001331B04A0FB032315488AB29B092382E2810284C0E7FFF72FFE20467DE70191CC
:200F2000FFF72AFE0199084677E7FFF751FE0128D6D171E70546B8E70A4B1860A6E7FF237A
:200F40009AE700BFBC0100201F85EB51FCD000009A0200208C010020D34D621018FCFFFFBB
:200F6000D40100203800002089B12DE9F0430C4683B0102800F29280DFE800F0121F9090D8
:200F80009090848A399090909066696D0B00022070474A4B00201B680B6003B0BDE8F0831C
:200FA00001F084F930B1464B5888A0F10200B0FA80F0400920600020EFE742494FF47A724B
:200FC000CB89098A02FB03F302FB01F2A3F5D32302F57F42FF32A3F55A733B4903EB224394
:200FE000A1FB0323C3F3871323600020D5E701F05DF9002854D0324B5B88022B08BF4FF05A
:2010000000094DD140F203470A2580264FF000086B1E13F0FF0569460BD001A8CDF8048005
:20102000ADF8047001F04AF918B19DF802607306EED0B9F1000F39D176B216F1800F266065
:201040000CBF03200020A8E700200860A5E70A230B600020A1E74FF6FF70184DAB8883428E
:2010600008BFFF2309D02A4600230832918801338142DBB2F9D1013BDBB255F833300020E1
:2010800023608AE7114B00201B681B680B6084E70F4B002093F900300B607EE701207CE77A
:2010A000FFF796FD012804D18146ABE7FFF764FDC2E76FF07F03236003206EE7FCD00000A8
:2010C0008C010020BC0100201F85EB51380000209A0200202DE9F04383B0044601F0E6F8FD
:2010E000002837D0404B5B88022B08BF002531D13E49221DA31C3E4C92B29BB2100A2382D9
:20110000E1610A704870FFF763FC0020014601F0E9FA204601A901F0D1F8364F10BBBB797D
:20112000DFF8D8800126DFF8CC90002B37D100F0BDF90123C8F81C000020FB7101F0E6FAF0
:2011400000236380FFF780FC002D36D1304603B0BDE8F083FFF73CFD012834D0012003B072
:20116000BDE8F083FB7983BBDFF8908000F09EF90123C8F81800BB7100F020FB63881C4AB3
:2011800003F44063002BF9D05088BB7980B2B0F5505618BF0126DFF85C90002BC7D000F0C5
:2011A00085F91549D8F818208B694FF0000E9B1A1844886189F806E0B9E7FFF7DDFC3046C4
:2011C00003B0BDE8F083054692E700F06FF9DFF82C80094AD8F81C10D36900265B1A184423
:2011E000D061FE71C2E700BF8C01002070030020FC010020F81A0020C01A0020081B00201B
:2012000010B50C46B32C014694BF2246B42204480BF064F82046BDE81040FFF75BBF00BF33
:201220007203002030B583B001F0FEFA01281BD001F03CF8D0B1154B5B88022B1FD00025DA
:201240008024134801A901F039F8012803D19DF806406306F5D07DB90E4B64B293F900008C
:20126000A042D4BF0020012003B030BDFFF7B0FC012806D10546E3E7FFF77EFCECE70120FD
:20128000F2E7FFF779FC0120EEE700BFFC010020010003049A02002008B501F007F858B1BE
:2012A000064B5B88022B06D1FFF7BCFF10F1FF3018BF012008BD002008BD00BF8C01002007
:2012C000F8B51B4800F01CFE07F0A0F9012802D000242046F8BD174C002120464FF40C727F
:2012E0000BF0D6F8144F154B15481649DFF86CE0154E4FF4D9720025CEF8004083E83000CC
:201300008362C7620D82CA813284FFF761FC01280446DDD100F0CAF80C4A0D4BD0610D48D5
:20132000DC7101F005FA29460B4802F037FCD0E72400002028040020580300206403002040
:201340008C010020BC010020D4010020081B0020F81A00207CC70000500000206C03002057
:2013600010B5064C042023685B699847236804205B6B98470128F9D110BD00BFB801001068
:20138000F8B51A4A00200021C2E90001184B04201B685B6B9847012801D0FFF7E1FF144B71
:2013A00000201B68DB699847124B0121124A196013689B07FCD5114A11491368096823F46D
:2013C000807323F001030F4C13600B6820460E49984740F221200D4D0D490E4B0427312628
:2013E000012227602E6008601A60F8BDA8020020B801001028200860282008400C000140FE
:20140000C801001000000140002100043C000140080001400400244310B40949094C0B687E
:20142000226808688342FAD1DB01074903EB52620023C1E900235DF8044BD1E9000170474E
:20144000082009400C200940A802002010B50B490B4C0B68226808688342FAD1DB01094941
:2014600003EB52620023C1E9002302F0FBF900B910BDBDE8104002F0CBB900BF08200940D3
:201480000C200940A802002010B506F0F1FF034B1C6808B906F0F0FF204610BD0820094046
:2014A000704700BF0146012000F05EB807F044BB2DE9F04106F0DCFF214E224B224F326853
:2014C0000124002580464FF480314FF480703D601C60186019601368284623219847336824
:2014E00020461B6824219847336802201B6825219847164A1649136843F4E02313600D6026
:2015000007F01AFB134B00F50070186007F014FB114B124D1249134A1B6800F5803028605B
:201520000C6014603C601B6914209847B8F1000F01D0BDE8F081BDE8F04106F09DBF00BF12
:2015400084010010042009400000244300200940082009401C200940B00100102020094079
:20156000A0022443C0022443431E012B00D97047C30709D50B4B820719600ED50A480B4B91
:20158000012201601A6003E0830705D5064B1960074B01221A6070477047044B01221A60F3
:2015A000704700BF182009401C20094080022443A0022443014B1868704700BF58060020FD
:2015C00070B5FFF773FF494D494C0123A370A860FFF76CFF474A484B10601B68002B2DD173
:2015E000464B1B68CBB9464B1B686BB9A378404C4BB1FFF75BFF434AAD68936800215B1BF4
:2016000018449060A17070BD3F49404B0020012208601A6002F006FBE8E73C4B4FF480728A
:201620001A60FFF713FF07F087FA00F2052020F4FF70374B20F001001860D4E7334B4FF48F
:2016400080321A6000F0ECFD00F0F2FD50BB00F0F9FC00F0C3FD2F4E307000F021FD00F0EB
:20166000BDFD337883420BD000F0B8FD012806462AD0294800F0B0F8284B00209B699847D2
:2016800000F0ACFD012806D0244B00209B699847234B00221A6007F04FFA224B00F58030E4
:2016A00018609DE700F0B6FD064600F0C7FD8642CDD300F0C9FD00F0BBFD0028C9DA00F00A
:2016C000C1FC00F0BFFCC4E7174800F085F8134B5B69984707F030FA0D4A114B00F50070F1
:2016E00010601E6009F006FDCAE700BF081B0020F81A002058060020C0002443A00024436F
:2017000080002443C01A002080022443042009401C200940721A002034D10000D8D20000B2
:20172000A0022443202009402CD10000820702D5034B01221A60C30700D4704706F09CBE2A
:20174000000C084008B506F093FE074B1A68012A03BF0649022219600022002814BF1046D1
:2017600042F0010008BD00BF000C084051E5CC1A03490448044B012208601A60704700BFE0
:2017800000000840FFFF0F00000C084038B5FFF7D9FF064C064D0749074A012325600B608B
:2017A0001360BDE83840FFF7C1BF00BF00000840FFFF0F000C0008400401004303490448DB
:2017C000044B012208601A60704700BF00000840FFFF0F000C00084070B506460024451E9E
:2017E00004E015F8010F00F075F9013430460AF09DFE8442F5D30A2000F06CF900F07EF9D6
:201800000128FBD0204670BD70B50446B0B10078C0B1A9B10025661804E014F8010F38B1A2
:20182000B44205D000F056F9631C05F10105F4D100F064F90128FBD0284670BD0546F7E759
:201840000D46F5E70546F3E710B40B4B0B4C13F8012FFF2A0ED1A342F9D1094A39B111443F
:20186000013801390B78914200F8013FF9D15DF8044B7047034AF1E7C7FF0100CFFF010087
:20188000F0120050C8FF010038B50C4D02202B685B6998472B6802205B6B984701280446C3
:2018A000064BF7D11B684FF40070DB699847044B044A1C6013689B07FCD538BDB8010010F1
:2018C00028200860282008402DE9F04340F2F275DFF8E08083B0FFF7D7FFD8F800302B4E37
:2018E000DB682B48984733682A4C5B69152098472368DFF8C490284F23F4FE63D9F80020D4
:2019000023F0020323603D60D36B1B2098472349D9F800204FF0FF334FF0006008600093CF
:20192000D2F840C01A481C211B22E047D8F800301748D3F804C01A494FF4E1326023E04789
:2019400040F2011240F2013E1649174B142008601968164841F01001196003681449002BE7
:201960000CBF134673460B603D60036853B12368326843F0500323601369152003B0BDE8DC
:20198000F043184703B0BDE8F08300BFB0010010001000403810004044100040902002400C
:2019A000006CDC02341000402C1000405C06002030100040D0010010B401001008B5064B27
:2019C00002201B685B6B9847012803BF034B186800F00100002008BDB80100106C20084091
:2019E00038B50446FFF7EAFF18B1264A13681907FCD4032C03D0244B1B6803B138BDFFF79A
:201A0000DDFFF0B9214D4FF400702B681B6A9847032C2CD01E4B01211E4A196013689B0775
:201A2000FCD51B2000F07EFA1C2000F07BFA4FF0FF3000F077FABDE838404FF0FF3000F047
:201A400071BA154B15481B68DB689847144B15201B685B69984740F2F270124A1249136879
:201A600023F4FE6323F0020313600860CAE72B684FF400709B6A98472B684FF400701B6B54
:201A80009847C7E7181000405C060020B80100102820086028200840D00100100010004095
:201AA000B0010010381000404410004010B506F0DFFC0446054800F023FA054B00221A6023
:201AC00004B110BDBDE8104006F0D6BC3C0000205C06002010B50446FFF770FF08B9FFF7FE
:201AE000F3FE044B2146BDE810401B680248DB69184700BFD00100100010004008B5FFF737
:201B00005DFF18B1024B1868C0F3C00008BD00BF18100040F8B5FFF7C9FC174F174E01231D
:201B2000B370B860FFF7B0FE40F2F271144B154A1B68116013F0500F0CD0134C134D05E09D
:201B40002B681B699847124B1B688BB923681148DB06F5D5B378094C4BB1FFF7A7FC0E4A6F
:201B6000BD68936800215B1B18449060A170F8BDC0B29847EAE700BF081B0020F81A002046
:201B8000401000404410004018100040D00100105C06002000100040C01A00202DE9F041C5
:201BA000FFF784FC1A4C024623783BBB194D1A4F0123396802206A60637001F073FD174A5B
:201BC000DFF850801368124E23F00403136030BF022001F049FD3860FFF768FC637843B1ED
:201BE0000F4AD8F8047053680021DB1B034453607170012328602370BDE8F0810849054DA3
:201C00000B682E6800209B1B13440B602070CEE7F81A0020081B00206406002010ED00E002
:201C2000C01A00202DE9F04106F022FC01F078FF18B1BDE8F04106F01FBC9E4802F098F80F
:201C40000225044648B1636823B19847A84228BF2846C5B22468002CF5D1FFF727FC964B6E
:201C600007461B68002B40F0BB8001F0FBFD002840F0C280012D0446064600F0FC80022D1C
:201C8000D7D100F0ABFA012800F00281894802F06FF806250446002800F0DE80A368022029
:201CA00003B198472369246825EA0305002CF5D1FFF784FD6B0705F0060400F1D080002C1B
:201CC00040F0D38000F0A2F9002009F061FB7B497B4A0B687B4823F003030B60136801685A
:201CE00043F00F0313608B6939209847764A774900231360184613600B6006F021FD062C68
:201D000000F0BF80724D734C2968022001F0CAFCFFF7CCFB2378002B00F0A5806E4A6F4E9F
:201D2000136837680021DB1B0344136021706C4A01216C4B706061701B686B4913680968D4
:201D400023F0030313604B686848032198475D4BDFF888811B685F4F9B6B9847022001F0E0
:201D600083FC2860FFF7A2FB637843B15A4AD8F80450536800215B1B0344536079700125D7
:201D8000584F306025703B6806F032FE564B584A1B680021116055485B6829469847504A0E
:201DA0005449136843F0030313600D603B6806F051FE09F0B9FAFFF749FBFFF7FFFC3D48AE
:201DC00001F0D6FF044628B1E36803B198472468002CF9D106F050FBBDE8F04106F04CBBA6
:201DE000454B1B681B1A022B31D4A3F28F23002BBFF63BAF01232BE001F03CFD0646FFF7BD
:201E00000BFB361A002E7FF714AFFFF7D3FB3B4B00EB4626DB1BF34240D40124A5427FF4A6
:201E20002EAF6FF00703DB1BF3422ED407F58037BB1B36EA230628BF3E4631460220FFF763
:201E400093FBFFF7ABFEBDE8F04106F015BB00239D4228BF1D4608E7FFF7B0FC0624254B42
:201E600000221A602BE71D4E61E7164B20461B689B69984726E707F580310220FFF774FB93
:201E8000DFE7022006F024FE3CE707F10806D4E728464CB13146FFF767FBF7E6022DC0D088
:201EA000012D7FF4C6AEBCE707F11671FFF75CFBECE600BF60060020800224430010094045
:201EC00008100940B8010010401009402004224364060020F81A0020C01A0020081B0020BD
:201EE000242208402C200940D801001000400340800104430C4009401820094071FDFFFF09
:201F00000146014801F036BF600600200146014801F074BF60060020014801F025BF00BFAE
:201F200060060020421C0ED010B50446064B4FF4C0421B6800211B689847044AA3001A43E6
:201F40000023136010BD7047B4010010001A444210B584B00022412302A80292039309F0B6
:201F6000F7F9042005F062FF032813D00420032105F02CFF042005F059FF03280346F9D1D2
:201F8000074A084812680093546800214FF040521C23A04702A809F031FA04B010BD00BFB1
:201FA000A401001000A00C4000B583B00022412368468DE80C0009F0CBF9012005F036FFDB
:201FC000012803D00320012105F000FF684609F015FA03B05DF804FB00B583B000224123A1
:201FE00068468DE80C0009F0B3F9012005F01EFF012803D0044B986B06F08CFB684609F068
:20200000FDF903B05DF804FB4800001010B582B04123684600240193009409F099F9032068
:20202000214605F0D3FE012005F000FF18B1044B986B06F06FFB684609F0E0F902B010BDE4
:20204000480000100E4B9A780132D2B23B2A9A705A7804D901320021D2B25A7099703B2AD8
:202060001A7804D901320021D2B21A705970172A05D9044900200A881870531C0B8070476F
:20208000680600205C1A0020014B1880704700BF94020020014B188880B270479402002081
:2020A00038B5104A104C53781278A4FB03130F4D02EB4202DB0803EB4204284608F0A2FCCB
:2020C000E3100B4AEB5C04F007041288C4F107040849234113400978074A03F0FF031370C6
:2020E000117038BD68060020CDCCCCCC78060020940200209B020020731A0020054BC0F3EA
:202100000721C0F3074282B0187059709A7002B0704700BF68060020034B19785A789B7894
:20212000017042708370704768060020264B1A7802F0FF03002A45D02DE9F041234D244AE9
:202140006C782B78A2FB041203EB4301D30803EB4103204FDFF880E0013300260BE08EFB92
:2021600000235FFA8CF6C8EB631303EBC303902EA0EB03130ED0DA10B95C03F00702C2F199
:20218000070241FA02F2581CD3074FEAE07806F1010CE4D40E4B06EB8606A3FB0423DB08EE
:2021A00003EB8302A4EB4204730003F10902A878E3B2D31AC3EB0313C0F13C0000EB8300A4
:2021C000BDE8F08118467047731A002068060020CDCCCCCC78060020398EE338014B18780C
:2021E000704700BF731A0020014B1888704700BF5C1A002030B4044A044B054C002510605D
:202200001960256030BC70476C0600207006002074060020014B1868704700BF740600207F
:20222000024A136801331360704700BF74060020014B1868704700BF6C060020014B186880
:20224000704700BF70060020014B00221A6070477406002070B50388044653B1B3F5097F0B
:2022600003D182290AD0012070BD00230380032070BD4FF409732380012070BD094B0A4E65
:202280001D69FFF79BFA07F05BF807F00FF88021A847002880B2ECDD07F002F833699847C6
:2022A000EFE700BF84C70000D8D20000024B186800F00100704700BF9C21084010F0030355
:2022C00070B506460D4602D1028811051FD406F0CFF81F4B00301B6818BF0120DB0720D52B
:2022E0001C4B1D4C1E6023684CF250322B6003E02368013A2B6014D013F0FF0FF8D018B3FE
:202300002878A0F10100B0FA80F0400970BD438006F0AEF80E4B00301B6818BF0120DA07B7
:2023200002D468B1002070BD338813F4405FD7D003F44063B3F5006F04BF084B1E60CFE75E
:2023400006F09AF8002070BD06F096F8D8E700BF9C21084000100440041004408C06002043
:202360000A4A01E0013A0ED0438803F44063B3F5806FF7D1428802F44062A2F58060B0FAC8
:2023800080F0400970471046704700BF20A1070030B583B006F06CF8254C05462368192047
:2023A0001B6A9847236812201B6A9847236819205B699847236812205B690834984723680A
:2023C00001205B699847236801205B6B98470128F9D11849184B194A0860186013689B07D1
:2023E000FCD5134C164817492268002303600B60136919209847236812201B699847A5B16A
:2024000040F2FF35104B114A11481249002405600C60114801A91A60FFF750FFA0F10100A3
:20242000B0FA80F0400903B030BD06F025F8E7E7B00100102C200840282008602820084023
:2024400010100460141004600010044051000706000004601C1004400100060440F60A029D
:2024600030B5164B87B01D680024012301A8694601940494059502940394ADF804208DF878
:202480001130FFF71BFF012802D0204607B030BD0B4801E00138F9D0BDF8063003F440632B
:2024A000B3F5806FF6D1BDF8060000F44060A0F58060B0FA80F0400907B030BD9406002039
:2024C00020A1070010B540F6090486B00023012201A8694601930493029303930593ADF8C5
:2024E00004408DF81120FFF7E9FE012802D0C0B206B010BD0F4801E00138F9D0BDF80630F0
:2025000003F44063B3F5806FF6D1BDF8063003F44063B3F5806F02D0002006B010BD064BE1
:202520001A782AB9054A0599012011601870DFE70120DDE720A10700741A00209406002044
:2025400030B587B005F094FF2F4C0546236819205B699847236812205B6998472B4B1B6851
:20256000DA0715D540F60D04294A2A490023136002A80B60012201A9029305930393049391
:20258000ADF808408DF81520FFF798FE01282CD0FFF798FF2048214B00240121204A04606E
:2025A000196013689B07FCD51E4C012023689B699847236801205B6B98470228F9D1124C18
:2025C000192023681B6A9847236812201B6A9847236819201B699847236812201B6998476B
:2025E0000DB905F049FF07B030BD0F4A01E0013ACED0BDF80A3003F44063B3F5806FF6D13A
:20260000BDF80A30C4E700BFB00100109C21084010100460141004602C200840282008604B
:2026200028200840B801001020A1070008B506F015F8052803460BD003280DD018B101286E
:202640000FD0002008BD094B03221A60012008BD064A0120136008BD044B02221A60012026
:2026600008BD024A0521116008BD00BFD0210840F8B5164A164B1268002814BF00241C468C
:20268000D30700D4F8BD05F0F3FE0646114A1248124F134D00214FF000433B60046011601C
:2026A0002B6819201B6A98472B6812201B6A98472B6819201B6998472B6812201B6998476A
:2026C00006B1F8BDBDE8F84005F0D6BE9C210840000080801010046014100460181004608B
:2026E000B00100100028064B14BF08220222002918BF0023034804491A4303600A607047E3
:20270000000080801010046014100460034B0028034A18BF00231360704700BF0000808007
:2027200014100460014B1868704700BF8C060020014B1860704700BF9006002038B5FEF74B
:20274000B5FE104C0122104BA2701B680F4DDB07A86004D4FFF71CFE012800D038BD0C4BE4
:202760006FF000421A60A378064C002BF6D0FEF79DFE084AAD68936800215B1B184490600B
:20278000A17038BDF81A00209C210840081B002010100460C01A002038B5FEF787FE1B4C6D
:2027A00001221B4BA2701B681A4DD907A86007D41948FFF711F8FFF7EBFD012800D038BDA5
:2027C00005F056FE154B1A68120218D4134B1A6812F00A0F1CBF6FF00A021A6005F04CFED4
:2027E000A3780A4C002BEAD0FEF760FE0C4AAD68936800215B1B18449060A17038BD6FF47E
:2028000000021A60074801F0E9F9DFE7F81A00209C210840081B00203CD100001010046049
:20282000C01A002050000020014B1878704700BF751A002008B500F08BF880B208BD00BF47
:2028400000F02CB938B50C4D04202B685B6998472B6804205B6B984701280446064BF7D11B
:202860001B6840F20140DB699847044B044A1C6013689B07FCD538BDB801001028200860CA
:2028800028200840034B1B68002B14BF01200220704700BF98060020F8B503880446002BB5
:2028A0002ED0B3F5847F05D1184B1B788B4205D00120F8BD002303800320F8BD144D2B68B9
:2028C00073B1144B144A1B6812685B680220174698470026301847F100012B6898472E6052
:2028E0000E4B40F201401B689B6A98470C4B01210C4A196013689B07FCD50B48FFF706FB25
:202900004FF4847323800120F8BD00BF9C02002098060020CC01001004800240B80100105D
:2029200028200860282008406000002008B5064B04201B685B6B9847012803BF034B1868C4
:20294000C0F34000002008BDB80100103C20084070B5274B1B689BB1264C0023224612F8C5
:20296000011B29B90133042BF9D10020014670BD214A002502EBC302E55492E8030070BD73
:20298000FFF7D4FF00282FD01C4A1D4B1268134073B91C4A01211346116018680028FCD1B9
:2029A00002464FF4807106F0ABF8174B01221A6005F05EFD0646114A1368DB07FCD5134B80
:2029C000134A1B6814685B680220984723460022141843F1000516B12046294670BD05F029
:2029E0004BFD2046294670BDFFF72CFFCCE700BF980600209C060020B002002008800240DE
:202A000001000080F09F0240A8025042CC010010048002402DE9F041FEF748FD174D184E3A
:202A20000024184A0127AF70346013681649DFF86880096823F00103C8F8080013604B6925
:202A400031209847204622464FF4807106F058F80E4B3760197822460D4801F06BF8AB7849
:202A60004BB1FEF723FD0B4AD8F808109368AC705B1A18449060BDE8F08100BFF81A002029
:202A8000A80250420C800240B00100109C02002074000020C01A0020081B002010B5074CC4
:202AA0002378802B00D010BD00F0A6FF207000210348BDE8104001F071B800BF9C02002016
:202AC000740000200AB90020704708B508461146FEF79AFE002008BD0FB400B583B004AB9A
:202AE00053F8041B04481A46019300F025F803B05DF804EB04B0704784000020102970B5BB
:202B00000C46054602D80AE0102C0BD92B686868084910229847103C0028F5D070BD0846BB
:202B20000029FBD022462B6868680249BDE87040184700BFE8D100002DE9F04F82460F46ED
:202B40008FB007924FF0000B3B78002B00F0E880252B08BF3E461BD03C4602E0252B04D00F
:202B600014466378621C002BF8D1974216460CD0D51B39462A46DAF80030DAF80400984707
:202B8000002840F079826378AB44002B00F0C88073780136002B00F0C38019460025A1F11F
:202BA0002003102B1BD8DFE803F0171A1A141A1A1A1A1A1A1A111A0E1A1A090045F0100535
:202BC00016F8011FEBE745F00105F9E745F00605F6E745F00805F3E745F00205F0E7A1F1FC
:202BE0003102082A0B46374600F2DC80A1F13002092A4FF000040AD804EB840403EB44048B
:202C000017F8013F303CA3F13002092AF4D92E2B00F0D1804FF0FF366C2B00F03D81682B4D
:202C200000F04281782B00F28180DFE813F079007F007F007F007F007F007F007F007F0010
:202C40007F007F007F007F007F007F007F007F007F007F007F007F007F007F007F007F0084
:202C60007F007F007F007F007F007F007F007F007F007F007F007F00BE027F007F007F0023
:202C80007F007F007F007F007F007F007F007F007F007F007F007F007F007F007F007F0044
:202CA0007F007F007F007F007F007F007F007F00BB027F007F007F00B802B502B2027F003E
:202CC0007F007F007F007F007F007F007F007F007F007F007F007F007F007F007F00AF02D2
:202CE0007F007F007F007F007F007F007F007F00AC027F00A902A602A302A0029D027F00F7
:202D0000A6027F007F007F007F009A0297027D007F007F0091027F008E027F007F00940229
:202D200058460FB0BDE8F08F45F4407505F4E063B3F5806F07F1010700F0CE804FD9B3F543
:202D4000C06F00F0A581B3F5E06F00F09A81B3F5A06F7FF4F9AE079B012C1A6803F104030F
:202D600007938CBF04F1FF340024EB078DF8202000F1D08150462146FFF7C0FE002840F020
:202D80007B81DAF80030DAF8040008A901229847002840F071810BF1010C0CEB040505EB69
:202DA000040BD1E62A2900F08C800B462E2B4FF000047FF42FAF7B78791CA3F13002092A3F
:202DC0007AD80F46002606EB860603EB460617F8013F303EA3F13002092AF4D91CE7B3F541
:202DE000807F00F0B080B3F5407F7FF4ADAE079BC34A1968C34815F4804F03F1040308BFAA
:202E00009046079318BF80460A460023002900F094810DF133094846110941EA03714FEA4A
:202E2000131E02F00F0673460A4618F8061000F8011D52EA0301EFD1B9EB0006034600F032
:202E40007E810336B4424FF030024FF078014FF0230300F8022C8CBFA41B0024EA0700F879
:202E6000011C00F8033CA0F1030800F1A18150462146FFF743FE002840F0FE804146DAF8EC
:202E80000030DAF8040032469847002840F0F4805E4406EB040B57E67B786C2B00F004812B
:202EA000013745F06005BDE67B78682B00F09381013745F04005B5E62A2B00F091810F461A
:202EC000A8E6079B771C1C680433002C0793B8BF45F0010573789AE6079BD3F8009004335D
:202EE0000793B9F1000F00F08F8299F80030002B00F0B2824B4613F8012F002AFBD1C9EBF8
:202F00000308002E02DBB04528BFB04644458CBFC8EB04040024E90700F1E08050462146D8
:202F2000FFF7ECFD002840F0A7804946DAF80030DAF8040042469847002840F09D80D844D4
:202F400008EB040B00E6002EABBF25F0100501230196019315F40053049305F0E00300F0BD
:202F6000A880402B00F07F8200F24181002B00F02D82202B40F05A82079B1A1D079293F9FA
:202F80000020D317002A73F10001C0F22A82CDE902230023059305F4C053B3F5805F00F021
:202FA0009281B3F5C05F00F0BF81B3F5006F00F067810DF136064FF00008019B41F20802BE
:202FC000984541F6080303EA050380F0338101999342C8EB0101019100F0468141F608020B
:202FE00001999342414400F031814FF000094A46049B73B1059B002B40F0838105F00603A3
:20300000022B00F01B824048062B04BF02464FF0010909EB01039C428CBFE41A002415F0A1
:203020000103049306D1E80640F1F681019B2344049C0193B9F1000F07D01146DAF8003068
:20304000DAF804004A469847B0B9019B08EB0B05102B40F291819B4603E0BBF1100F40F2E3
:203060008E81DAF80030DAF80400284910229847ABF1100B0028F0D04FF0FF300FB0BDE876
:20308000F08F079B1A680433C2F800B007935BE5DAF80030DAF804001D49012298470028AA
:2030A000EAD10BF1010B4FE5BB7845F080050237B8E5402B00F0C68100F2A980002B00F07E
:2030C0009881202B40F02181079B049A05921A1D07921A780023CDE902235CE74946DAF8DF
:2030E0000030DAF80400424698470028C4D150462146D844FFF702FD00283FF421AFBBE7CB
:20310000B4D10000A0D10000D8D10000F8D10000E4D10000DAF80030DAF8040008A90122E6
:2031200098470028A8D1504621460BF10105FFF7E5FC00283FF433AE9EE70DF133033022F2
:2031400003F8012C581E04267CE645F41065EDE545F48065EAE545F4C855E7E545F48855A0
:20316000E4E545F4E065E1E545F48135DEE545F40075DBE545F40245D8E545F42455D5E579
:2031800045F4A065D2E545F4C135CFE545F4B245CCE545F4A135C9E545F48445C6E545F4D3
:2031A0004245C3E545F4E135C0E545F4C065BDE54146DAF80030DAF804003246984700280E
:2031C0007FF45AAF504621465E44FFF797FC00283FF45FAE50E7BB7845F02005023721E5E0
:2031E000079ABB78111D07911668023714E5602B00F0EC80802B40F01981079B073323F03A
:20320000070303F108020792D3E90023BAE6602B00F0EF80802B78D1049B0593079B07339D
:2032200023F0070303F108020792D3E90023CDE90223B0E6934200F0EC800022019241F66D
:2032400008020199934241447FF4CFAEDDE9022313433FF4CAAE874B15F4804F864A4FF0DB
:20326000020908BF1A46C3E60B46002908BF01230193019B4FF000094A4603EB0801B7E672
:20328000DDE9028942464B46134300F0E7800DF136031E460693404649460A22002308F087
:2032A00013FD30324046494606F8012D00230A2208F00AFD8046894658EA0903EBD1069BCD
:2032C000C6EB030879E6DDE90223134300F0C6800DF1360306939E46DDE90223D00840EABB
:2032E0004370DE0802F007013346024630310EF8011D52EA0301F1D1069B7646CEEB0308D2
:203300005BE64FF001095D4A83E605F4C053002200200021B3F5805F0592CDE90201D2D02B
:20332000B3F5C05F40F08580DDE90201544A554B15F4804F14BF9046984602460B4613433C
:2033400000F08C800DF1360306931E4602460B46110941EA03714FEA131E02F00F007346C7
:203360000A4618F8001006F8011D52EA0301EFD1069BC6EB030820E6019B9B464BB15A4645
:20338000DAF80030DAF804003F49984700287FF473AE31464246DAF80030DAF804004D44CA
:2033A000984700287FF468AE019B2B441E46049B002B3FF46EAD50462146FFF79FFB002841
:2033C0007FF45AAE06EB040BFFF7BEBB079B1A6804330793002A4FEAE27373F10001BFF63C
:2033E000D6AD524263EB4303CDE9022301230593D1E5049A079B05921A68002110460433CE
:203400000793CDE90201C6E5DFF884904FF0060877E5012301932CE7504621460292FFF7C8
:203420006DFB029A00283FF405AE25E600220023ADE5DDF814800DF13606BEE5134A4FF0B6
:203440000109E6E5079B049A05921A1D07921A880023CDE902239EE5984652E54FF0000871
:203460000DF13606A9E5079B1A1D0792B3F90020D31787E5CCD10000C8D10000D0D1000019
:20348000A0D10000B4D10000F8D10000D4D10000DCD1000010B50446006830B1002100F0B2
:2034A0007DFB54F8040F0028F8D110BDF0B5038883B005465BB14A2B04D188291BD00120B6
:2034C00003B0F0BD00230380032003B0F0BD194800F04EFC044630B1201DA16800F09EF9D0
:2034E0002468002CF8D1144B01221A704A2301202B8003B0F0BD0F48019200F039FC04464D
:203500000028F3D0019A031D9A4205D02468231D002CEBD09A42F9D10648214600F06EFCEC
:20352000064E6269A369376832600BB1E06998473760DBE7A0060020761A0020B0060020A6
:2035400010B5064B002406481C7000F00DFC2146BDE81040034800F021BB00BF761A00207C
:20356000A00600208C00002070B504460D48049D0078A261E361656130B9A1600A4821464C
:20358000BDE8704000F0F6BB084D094B2E68201D2B6000F043F92E602146BDE8704002486E
:2035A00000F0E8BB761A0020A0060020B00600208C00002010B5044C82B024680094FFF723
:2035C000D3FF02B010BD00BFB006002070B5094B04461B783BB1084D084B2E6804302B60C6
:2035E00000F026F92E602146BDE87040044800F0C1BB00BF761A0020B00600208C000020C9
:20360000A006002010B50A4B04461B783BB9C36003612146BDE81040064800F0EFBB0430FA
:2036200000F032F92146BDE81040024800F0E6BB761A0020A0060020084B0948094910B408
:20364000002203F1340443F8042BA34240F8042B01F8012BF7D15DF8044B7047081B0020DB
:20366000C01A0020F81A002038B50B4B1B5C1BB90A4B53F8200038BD0446FDF717FF074A36
:20368000074952F8243051F8245041F824005B1B184442F8240038BDF81A0020C01A0020D1
:2036A000081B0020014B43F820107047C01A002010B50E4C2368B3B1FDF7AEFE226851686E
:2036C000136892681944091A4AB192E8180023441B1A9268994228BF1946002AF5D1044B72
:2036E0000844186010BD024A136010BDA4060020A80600202DE9F041038805467BB1592B48
:2037000008D1872912D0822920D059232B800120BDE8F081002303800320BDE8F081254AF7
:203720000120136059232B80BDE8F081214F3B68002BEAD0D9688A4203D024E0D9688A42CF
:2037400020D19B68002BF9D13B60DEE7194F4FF000083C68002CD8D0002604E0A368264678
:20376000002BD2D01C46204600F084FA0028F5D0E0688821224600F0DDF978B10E4800F0CB
:203780002DFAEBE73B6099680029BED0C86882420BBF89680B4699608968F5E7E060A368CC
:2037A0002EB1B360C4F80880FFF782FFD1E73B60F8E700BFA40600209C00002010B50446D6
:2037C000104800F00BFA1049E3680A684BB142B194420FD0134601E09C420BD09B68002BC1
:2037E000FAD10A4BA2601B680C60E360BDE81040FFF75EBF054B1B68E360BDE81040FFF76C
:2038000057BF00BF9C000020A4060020B0060020014800F0E3B900BF9C00002010B5044618
:2038200000F014FA2046BDE81040FFF7C7BF00BF10B5044600F012FA2046BDE81040FFF798
:20384000BDBF00BF10B5044600F00EFA2046BDE81040FFF7B3BF00BFC068B0FA80F0400919
:20386000704700BF024B1868003018BF01207047A4060020024B186808B1024B1868704752
:20388000A4060020A806002010B5114B04461A68904218D05AB19368834208BF13460AD024
:2038A0002BB19A68A24206D01346002BF9D10023A360E36010BDA2689A60FFF7F9FE0023D8
:2038C000A360E36010BD82681A60FFF7F1FEEEE7A40600202DE9F843DFF8A480274DD8F85D
:2038E00000702E68874247D077B33B4601E0002B3BD01B689842FAD133B3837B89460446FB
:2039000023B3002383736FB1BC424FF0870106D0BB7BDB0703D53846224600F033F83F6865
:20392000002FF1D1A3683BB14C4505D02C6004F10C00832100229847D8F80000844208D198
:203940002368C8F800302E60BDE8F88338468442F6D00028F7D00368A34208D0002BF2D030
:203960001A68A24204D01346F8E7BDE8F883034622681A602E60E7E73B46BDE7B006002011
:20398000B406002070B586687EB104460A4802230460A37304F10C000D46B0470238012822
:2039A00004D9832D02D00123A37370BD20462146BDE87040FFF78EBFB006002070B50C4A8B
:2039C0000C4B146800251D7084B1012601E0246864B1E37B002BFAD0A673E57320468221B7
:2039E0000022FFF7CFFF2468002CF2D170BD00BFB40600207A1A0020024B1878421C1A7027
:203A0000704700BF7B1A0020014B1968FFF762BFB006002070B407480749084A0023084D34
:203A2000084C8A2603700B6013602E70237070BC704700BF791A0020B4060020B0060020FB
:203A40007B1A0020771A00202DE9F8432B4D2B780BB1FFF7B3FF2A4E33781BB3DFF8B4E0D4
:203A600028499EF80040013B04EB4402920088180134895CDFF8A0C04268DFF8A080806882
:203A8000214FDBB204F01F0433708EF80040CCF80000C8F80020397088B1812906D0847BA4
:203AA000E40705D428781844BDE8F88301238373FFF768FF337828781844BDE8F883134A8B
:203AC000134C12682260002AECD0A1460AE020683978837BD8F80020DB0709D40368236000
:203AE000002BE7D02B78002BF1D0FFF767FFEEE7FFF748FFD9F80000F0E700BF7A1A0020CC
:203B0000791A0020BC0600207C1A0020B40600203C080020771A0020AC060020B8060020BB
:203B2000024A034B10781B7818447047791A00207A1A0020F0B50F4E3478202C17D00E4B1C
:203B4000DFF838E01B78DFF838C0234403F01F0303EB4305AD000EEB05070134B8603470BF
:203B60007A608CF800300EF805100020F0BD0120F0BD00BF791A0020771A0020BC060020FC
:203B8000781A002038B5837B034CDB07256801D5FFF7F8FE256038BDB006002070B404464A
:203BA0000D4D2868A04206D038B1034600E023B11B689C42FBD170BC7047002CFBD001264F
:203BC00000232060A673A3810A4620462C60812170BCFFF7D7BF00BFB406002038B1837BE9
:203BE000013B012B03D8024A01231370C37370477A1A0020FDF754BC38B5094C049D22687D
:203C000022B180E82A002060002038BD024680E82A0008462260FDF745FC002038BD00BFF7
:203C20004008002010B5084C206858B100224368816822609847236823B1BDE81040186887
:203C4000FDF730BC10BD00BF4008002010B541600446FDF7E1FB206010BD00BF90E80C0080
:203C600013440360704700BF10B50446FDF7D4FB206010BD10B50446FDF7CEFB23686268D4
:203C8000C3F10103184482422CBF0020012010BDF8B504880546B4F5877F0ED040F22713D6
:203CA0009C421CD01CB1002303800320F8BDFFF7A3FE1F4A1F4B10701C601E4C264604E0CF
:203CC0000A2814D023687E2B2DDD1B4800F0C2F8431CF5D14FF487732B800120F8BD8529F2
:203CE00001D00120F8BD134C00232360E5E7114C124F23680E49002603F1010E3A46097882
:203D00003046FE54C4F800E0FFF714FF0C4B324618688521FFF70EFF0028E5D140F22713F4
:203D20002B800120F8BD05495A1CC8543260CCE7692600204C090020C4080020CC080020D9
:203D4000B006002008B505480549802200F07AF8BDE8084003480021FFF720BFC408002017
:203D600044080020AC00002000230360704700BF00687047026842B1914203D11BE0994216
:203D80000ED01A461368002BF9D100230B6002680AB90EE01A461368002BFBD111607047D2
:203DA0000B68136000230B6000230B600268002AF1D1016070470B680360F3E710B40468B3
:203DC0004CB1A14217D0224602E0994208D01A461368002BF9D10C6001605DF8044B704727
:203DE0000C460B6813600023236004680C6001605DF8044B70470B680360F4E7026842B143
:203E00008A4203D10BE0994204D01A461368002BF9D170471968116000221A607047134643
:203E200012680260F8E700BF03682BB100201B680130002BFBD170471846704700B1006811
:203E4000704700BF0023013A0160027143718371704700BF0346807959791A79091A11427F
:203E600008D010B4411C1C680A40205C9A715DF8044B70474FF0FF30704700BF2DE9F84364
:203E800002FB0105099F1646A8424FF0000204463A609DF820801DD299464FEAD80807E009
:203EA0004946424608F0E8F988B13444AC4207D22378A01C002BF3D13C603444AC42F7D388
:203EC0003B68002B14BF01200220BDE8F8833C60BDE8F8830220BDE8F88300BF2DE9F041DA
:203EE000174D82B0009104460E4690461F4601950346032113482022FFF7C0FF01281BD158
:203F00002B68187020682B68D4F804E0A168E268C3F802002868C3F806E0C3F80A10C3F8EA
:203F20000E20089B86744361099B80F813800777836102B0BDE8F081002002B0BDE8F08151
:203F400054090020401C0020F8B50C4B07461C460B4D03F160062B602378A01C2BB1A27C27
:203F60003946D20808F088F928B12034B4422C60F2D30020F8BD0120F8BD00BF401C002015
:203F80005409002010B5094C82B0802203468DE81400074803212022FFF770FF10B9206879
:203FA00002B010BD002002B010BD00BF580900205C1B00200E4B30B403F1600148F2FE043E
:203FC0000C4D05E09A7C824207D020338B420BD01A78002AF9D0421CF4D15A88A242F4D1C4
:203FE00018462B6030BC70472B60002030BC70475C1B0020580900200E4B30B403F160013D
:2040000048F2FE040C4D05E09A7C824207D020338B420BD01A78002AF9D0421CF4D15A88F0
:20402000A242F4D018462B6030BC70472B60002030BC70475C1B002058090020F0B5114DE3
:2040400083B0802203468DE82400044605210E481222FFF713FF012811D12B6818702068F9
:204060002A686768A668E168C2F802002868C2F80670C2F80A60C2F80E1003B0F0BD002090
:2040800003B0F0BD50090020E01B00202DE9F0410446254D82B080208DE821000F46904696
:2040A0002346224803212022FFF7E8FE012837D12B68187026682B68D4F804E0A168E2687B
:2040C000C3F802602E68C3F806E0C3F80A10C3F80E2086F81380D7B93075154B0022FF21E6
:2040E00001200227B0745F70D872197019735A809A80DA801A819A72627B18465A73E289BC
:20410000DA81FFF79BFF286802B0BDE8F0810023337506F11800394607F084F92E68DCE736
:20412000002002B0BDE8F081580900205C1B00205C09002010B5094C82B0802203468DE84E
:204140001400074805211222FFF798FE10B9206802B010BD002002B010BD00BF500900206F
:20416000E01B0020E8B138B504460E4B0025FF22022001215870D9721A735D809D80DD807A
:204180001D819D721A70E27B18465A73228ADA81FFF7D0FF044B186000B1057000232370F1
:2041A00038BD70475C0900205009002038B5144B144C1846236003F1600504E020682030B3
:2041C000A842206012D20378002BF7D0037D002BF4D1183007F02EF90028EFD02068FFF7E9
:2041E000C1FF20682030A8422060ECD300F0DEF901F036FDBDE838400348FFF719BB00BF22
:204200005C1B002058090020A01C002048F2FE0C2DE9F84F0B88804663453FD00B78FF2B4C
:204220003CD0354A354F00201346814602F1600E3A6003E0203373453B601FD01A78002A00
:20424000F8D09A7C012AF5D15A886245F2D04E1E5D1C002216F801AF15F8014F02F1080B1C
:20426000A2451FD15FFA8BF2802AF3D191459CBF91461846203373453B60DFD140B350F82C
:20428000024F41688268C368C8F80040C8F80410C8F80820C8F80C30BDE8F88F0120FFF714
:2042A00089FEEBE702F1080615468AEA0404F2B2660014F0800F05F1010AF4B21AD15FFA45
:2042C0008AF59542F4D191459CBF91461846D1E7A8F80000A8F80200A8F80400A8F8060019
:2042E000A8F80800A8F80A00A8F80C00A8F80E00BDE8F88F2A46B9E75C1B002058090020BE
:204300000B684A688360037AC26083F002030372704700BF10B5FEF78DFA0446FEF78AFA8F
:20432000054B24029A68A4B22044B0FBF2F302FB130000EB520010BD441B00202DE9F041DB
:20434000344E82B001F0D6FB00F098F800216022314808F09DF830460021F82208F098F885
:204360002E4C2F492F4B4FF0400818224FF4A06520203560B4601A7086F804800870FFF7E5
:20438000C9FF48F2FE0E42F2107C40F2FF27264C002500950195F060A4F800E041462A4672
:2043A0002B4620466580A580E580C6F810C03575FFF794FD1D4A04F108031068516801223D
:2043C00003C3237A294683F0020320462372FFF75DFE4FF480732046E3816580A580E580D8
:2043E00025816581A5812780FFF728FE4FF40073204627806580A580E58025816581A58164
:20440000E381FFF71BFE0A48802102B0BDE8F041FFF704BA441B0020401C0020808D5B0097
:204420003D1C00203C1C00205C090020BC1C0020A01C00202DE9F04105460E48884617461F
:20444000FFF796FC044658B911E000236668284641463A46B0472046FFF7F0FC044630B1B8
:20446000012DF2D80448FFF7DFFC0346EEE7BDE8F08100BFB4090020B009002008B5054874
:2044800006F0E8FF0448FFF76FFCBDE808400348FFF76ABCBC000020B0090020B4090020AC
:2044A00010B504460E48FFF763FC40B1A04202D106E0844204D0FFF7C1FC0028F9D110BDAA
:2044C00021460748FFF79AFC2146064806F0F2FF211D0A46BDE810400120FFF7ABBF00BF3B
:2044E000B0090020BC00002038B505460A48FFF73FFC044628B90DE02046FFF79FFC0446F3
:2045000040B1201D2946102207F0B6FE0028F3D1204638BD002038BDB0090020F8B50F46EA
:204520000546FFF7E1FF0646B8B128686968AA68EB68341D0FC447B901233377002029465E
:204540002A46FFF777FF3046F8BD394606F1140006F068FF00233377F0E7054806F08CFFFB
:2045600006460028EFD003483146FFF727FCDCE7BC000020B009002038B50B48FFF7F8FB8C
:20458000044678B1251D284601F004FB10B190F822302BB92046FFF751FC04460028F1D1AC
:2045A000284638BD0546FBE7B009002010B50D48FFF7DEFB044664B1237F04F1140013B9D3
:2045C00006F038FF30B92046FFF738FC0446002CF2D110BD2046FFF763FF0248FFF7C8FB6E
:2045E0000446E8E7B0090020013A0A44914230B414D20C4625786378023403EB05239BB240
:20460000184480B2834284BF013080B2A242F1D8CB43134423F0010302331944914201D042
:2046200030BC70470B7830BC1B02184480B2834284BF013080B2704730B5134B134D1C7864
:204640002B796A79C4EB0323134483B09BB2ADF80630BDF8063005F108011844202280B292
:20466000FFF7C2FFBDF8062004F12801294492B2FFF7BAFF18B94FF6FF7003B030BD40BA0B
:2046800080B203B030BD00BF7D1A0020C41C0020F0B41B4B1B481D780227283543195C781A
:2046A0003B46E4000734A342174E1DDC5A19815C0244012911D01BD3632906D1527800203B
:2046C000023213443370F0BC704701F0C001802912D0C02910D040290ED0527802321344A7
:2046E000DBB21F46A342E1DD37700020F0BC70470133DBB21F46F5E737700120E3E700BFA8
:204700007D1A0020C41C00207F1A002070B4C278134C0A44D2B2E27083780E0A3344DBB231
:20472000A37045789E4265700078207003D90135EDB265708DB1C9B28A420CDA0133DBB23A
:20474000A370074A3BB953780133DBB2537013B913780133137070BC704701302070EAE72F
:20476000B81C002010B5084C014620681430FFF7CDFF064A2368507814789178D2781C7544
:2047800058759975DA7510BDD4210020B81C00203A20FFF751BF00BF08B5FFF7CFFD06F085
:2047A0001FFF01F095FA104B002103F1280223F8021F9342FBD10D4B0D4803F5F0710022BC
:2047C00083F8252030338B42FAD10A4A0A4B4FF48061118003F5A07100221A8220338B42D9
:2047E000FBD10A23037008BDBE230020D8210020801A0020601A0020EC2300202DE9F041A4
:20480000134E347814B3134F04F127033D88AB4204DB00233B803370BDE8F081DFF838808C
:20482000A5F12802121B04F128012C1B4144A4B208F1280007F0C8FDA4F128031912002261
:204840003C8088F8053088F804103270BDE8F0817D1A0020B01C0020C41C00202DE9F041B1
:20486000DFF8C4802E4E0746B8F800C0308A0CF1010C1FFA8CFCBCF5FA4F26D34FF0100E2F
:204880004FF4805C8645F2D0254C022326462246158E01337545DBB202F12002E7D00B2BE2
:2048A000F6D1A8F800C0DFF884C0A0B301231D46208E5A1C203468B10A2A1346D5B2F7D16F
:2048C0008CF800500020BDE8F0819CFA9CFE1FFA8EFED7E78CF800505C0104EB060CACF865
:2048E00010E0ACF812100E4B67B1654638687968BA68FB680FC50B4A3319127960461A75AB
:20490000BDE8F0810CF108021F51CCF8047042F8047B1760EFE78CF800000346DCE700BF7D
:20492000EC230020441B0020601A0020801A0020F0B40E4E0E4F3288002382423B700FD0ED
:2049400001231D46314631F8024F5A1C844206D0142A1346D5B2F6D13D70F0BC70473D702B
:20496000002226F81320F0BC704700BFC0230020801A00202DE9F04FB64B042887B01D68A7
:204980002BD0B549DFF8F0A2DFF8F0B20328CAF80010CBF800102DD0022800F09D8005280B
:2049A00000F0728111F83C2CA1F13C0402F0F002602A00F0E780A94BA94EDFF8C482DFF82D
:2049C000C4920193019A0023338088F8003089F80030137007B0BDE8F08FA04BA04EA148FB
:2049E00001930388002B40F06A81DFF89482DFF89492E7E795F8252002F00F02032A00F0A8
:204A0000F380022AD7D1A1F13C0404F118030293924B934E019340234FF0020C4FF0040E85
:204A20000020602184F8352084F83CC084F83DE084F83E0084F83F30338084F834102B7D33
:204A4000DFF8308284F830306B7D029F84F83130AB7D84F83230EB7D84F833302B7E84F819
:204A60002C306B7E84F82D30AB7E84F82E30EB7E84F82F302B8A23856B8A638595E80F000B
:204A800087E80F0008F1080008F11801FFF7BEFB95F8253003F0100303F0FF02002B40F09F
:204AA0004F81402388F8362088F8373033886E4A283B1579062100221E1208466371267170
:204AC000E571A17184F83B2084F83A202287FFF7B3FDC043208724E16449614ECB78DFF84D
:204AE000A08101335F480022DBB2CB70328088F80020028063B98B780133DBB28B703BB92D
:204B00004B780133DBB24B7013B90B7801330B7095F8252002F0FD03052B00F08B80002A3F
:204B200000F09380AB8B002B00F03F8395F82630591E85F82610002B40F0878095F827300C
:204B4000082B00F07A83511E012940F27383042B9CBF0321994002F00F0294BFC9B23021CB
:204B60000133541E85F8273085F82610072C6CD8DFE814F0FD0005010C01F3006B00F30065
:204B80006B00F3002279364E6079120235881718AF4200F3DB80257A28300244FF2D328065
:204BA00000F0D480324DDFF8D880DFF8D890A07900223639296088F8002089F80020002828
:204BC00040F019810122019389F80020FFF760FD0128019B00F00081C0F00181022840F09E
:204BE0000A811E4B0193A1E0AB8B002B7FF4E3AE1A4A082301921370194E02F0BDF8194833
:204C0000019B1A7802F0200303F0FF01002B00F0DA82184C002385F825301422038004F1E0
:204C2000180384F8352002933C233380502384F8343004E795F826300133DBB2782B85F8DF
:204C4000263004BF002385F82530044BDFF834900193B7E6D4210020001D0020C4210020D4
:204C6000B01C0020E8230020441B0020B8090020C8210020C41C0020D0210020B41C0020B3
:204C80007D1A00207E1A0020C04A1268128A002A3FF491AEBE4ABF481546BF4E0C3901929A
:204CA0000824002202800290CAF80010CBF800101A6032802C7002F05FF8029891E6B34ACE
:204CC000B64C126803F1080149BA002092F814E0A185E085118A303321859BB2508AA3F1D0
:204CE00028010D124FF0110884F807E0257160853380617184F8068004F118050FCA85E857
:204D00000F00294604F10800FFF780FAA44B04F13C0240461A60FFF78FFCC04380B258B1C7
:204D2000E08500236022227063706380019A0023137007B0BDE8F08F4FF6FF73E385F0E70F
:204D4000002388F8373088F83630AFE6904BDFF85C820193DFF8509234E68D4B8F4C019390
:204D600004F118030293112384F835305CE7884B8A4C019304F11803029312224BE6844B20
:204D8000864C019304F11803029344E6804A042302901370019201F0EFFF02980388DBF86E
:204DA0000020CAF80020002B00F02482AB8B002B00F02082794C3C3318223380A31884F8E5
:204DC0003520029332E71120FFF736FC4FF6FF729042019B00F0FC806D4B0193F2E598F834
:204DE000002002F1280121444878083202EBC002296088F8002001936A4B18460293FFF70E
:204E0000C1F8019B002800F052822A68664FDFF89CC112783C2ADFD801A151F822F000BF73
:204E20005D510000D94D0000D94D0000D94D0000D94D0000D94D000061500000D94D00002F
:204E4000D94D0000D94D0000D94D0000D94D0000D94D0000D94D0000D94D0000D94D000022
:204E6000D94D0000B14F0000D94D0000D94D0000D94D0000D94D0000D94D0000D94D000028
:204E8000D94D0000D94D0000D94D0000D94D0000D94D0000D94D0000D94D0000D94D0000E2
:204EA000D94D0000D94D0000D94D0000D94D0000D94D0000D94D0000D94D0000D94D0000C2
:204EC000D94D0000D94D0000D94D0000574F0000D94D0000D94D0000D94D0000D94D000022
:204EE000D94D0000D94D0000D94D0000D94D0000D94D0000D94D0000D94D0000D94D000082
:204F0000D94D0000D94D0000154F0000D94D00008F5100003A20FFF78FFB4FF6FF73984270
:204F20007FF45AAF98F80030204D2833E05C01F083FD98F800302833E2185178E05C06F0B0
:204F4000E9FA012802D1002333802B703388002B3FF442AF45E699F8002051073FF53CAFA4
:204F600098F8001042F0040001F12802224492F803E03870BEF1000F7FF42EAF50780831B5
:204F800001EBC0018CF800102A6042E7CC210020C4210020E8230020B01C0020C41C0020F4
:204FA000D0210020DC1C00207E1A00207D1A00200193FFF723FC3288B14BE18D303ACAF860
:204FC0000030A3F130053280019B00297FF4FBAEB5F82AC0BCF1000F3FF4FEAEA94AAA4F27
:204FE000A84D3A60228D0396029205F5A074664604E02035A5423D6000F054812A8A002A2C
:20500000F7D09642F5D1B5F812E0A0481022BEF1000F02D002998E45EBD1296829B9696874
:2050200019B9A96809B9E96831B12946019307F023F9019B0028DCD1954C96482546019452
:205040008F4C0022022102800290039ECAF80040CBF8004029701A6001F08EFE0298C0E4A8
:205060000193FFF7CBFB0620FFF7E6FA4FF6FF729042019B7FF4B0AE628D11460192864A46
:2050800000293FF4A9AE128D0492002A3FF4A4AE824DCDF80C9005F5F077C146A04603E018
:2050A0003035BD4200F0588195F82540002CF7D02A8A01998A42F3D16A8A04998A42EFD1E3
:2050C000724829461022059307F0D6F8059B0028E6D1A446444694F835206D4F02F0040191
:2050E000019701F0FF070497694FC8461D60DDF80C903870DFF8A0E1002940F05C849EF803
:2051000034103088090989002838654F401A0CF00F0C80B2BCF1020F03973080397000F0A0
:205120005284BCF1010F00F0058210B9900700F00682B4F82CE0A88A5749864500F07C8349
:20514000910707D5BCF1010F3FF417AEBCF1020F00F07883102384F8353065E599F800206E
:20516000D0073FF539AE42F00102CDF80CC001933A70FFF78DFA0128019BDDF80CC03FF423
:205180002BAE6BD302283FF42CAD2A6841E699F8002091076FD550063FF51EAE42F04002B2
:2051A0003A70CDF80CC00193E3E702F00F02032A7FF44BAD364A082302900192137001F077
:2051C000DBFD02981CE502F0100303F0FF0403B3314C042285F825204FF0010E112304F1CF
:2051E000180285F82710A5F81CE00180029284F8353019E5019B1B7899077FF5F6AB264CFE
:2052000010223C2384F8352004F11802029233800CE503881F494BB1D70740F19680AC83A2
:20522000EA8B934288BF02800388AB83002285F82720B4E5052B7FF48AAC154A002385F84B
:205240002530154C80231370019201F095FD142384F8353004F118030293E5E498F8001036
:2052600001F1280222445078083101EBC0012A6088F80010CDE542F002023A7091E700BF1B
:20528000F41C0020EC230020CC210020CC1C0020C4210020E8230020C41C0020D821002051
:2052A000801A00209B4B039E0193FFF78BBB02980193FEF73FFF019B00287FF4A6AD227E52
:2052C000029BFF2AA3F1180300F0EC8048F2FE00198B814200F0E6801989814200F0E8804B
:2052E00081B95A8972B99A8962B9DA8952B91B8A43B9628A884B2AB99A8A1AB9DB8A002BF0
:205300003FF46AAD228B844B82B95A8B72B99A8B62B9DA8B52B91A8C42B95A8C32B99A8C34
:2053200022B9DB8CB3F5807F3FF456AD3388B3F5A06F3FF651ADE379774A012B7FF64CADF2
:20534000013BD371734B0193F0E4AA8B002A3FF467AF13460A8069E7444694F83520C84653
:2053600002F03F02022ADDF80C905ED0694B019394F83520684B55073FF524AB93F82F003A
:2053800093F833A093F8329093F8318093F82C5093F82E1093F82D2093F830E00130DFF8DB
:2053A00080C1C0B283F82FA083F82E904FF0140A4FF03C0983F82D804FF0500883F8330069
:2053C00083F8321083F831208CF8005083F8305083F82CE083F835A0A6F8009083F8348041
:2053E00060B90131C9B283F8321039B90132D2B283F8312012B9013583F83050B4F828E005
:20540000638D464D029FDFF824C12385A4F82AE095E80F0087E80F00284605F11001ACF83B
:2054200000E0FEF7F3FEFFF741BB3D48002105460A46DFF8F8C02970BDF804100390ACF84B
:205440000010384803E014290A4600F0FF81511C019F30F81220CDB2BA42F4D10398DFF8C3
:20546000D0E00027077039463A463D46704607E04A1C11460A2900F13000D2B200F0928226
:2054800090F82570002F00F0F581072FF0D1002D00F08F8290F8267095F82620974288BF24
:2054A0000546E5E748F2FE03218999427FF494AC2189194B79B9598969B9998959B9D98988
:2054C00049B9198A39B9598A29B9998A19B9DB8A002B3FF481AC218B0F4B81B9598B71B93D
:2054E000998B61B9D98B51B9198C41B9598C31B9998C21B9DB8CB3F5807F3FF46DACFF2A10
:205500003FF46AAC0848FEF71FFD024B0193FFF759BA00BFC4210020C41C0020CC1C00202B
:20552000801A0020C0230020DC1C00205E1A0020D821002002F03F0102297FF4F6ADD2069A
:2055400001D5A98BD1B995F8252002F00F01013907293FF637AA01A050F821F0D35900003D
:20556000B3570000B3560000875600005356000039560000555100001B56000005F11800DE
:205580000593FFF7C3F8B44A94F830001378B34983421F46059BD6D191F831E050787045F9
:2055A000D1D191F832E092F802C0F445CBD191F83310D2788A42C6D195F827102F766876CD
:2055C00085F81AC0EA76F1B995F8242095F8260095F82210121AA2EBD102D2B2D0B2070688
:2055E000114444BF5242D0B295F82320C9B2A2EB92020244D2B285F8221002EBD10185F81C
:20560000241085F8232095F824200198012185F8262000220170AA8395E7019B1A78904B02
:20562000D2077FF5CFA9002285F8252010221A7001F0A2FBFFF7C6B9019B1B78DA077FF57E
:20564000C1A90722002385F8252085F82630FFF7B9B93088DFF814A2002840F0918094F85D
:205660003530DB077FF5AEA90722002385F8252085F826300120FFF775F8019A1023137062
:2056800001F07AFB66E5308808B1FFF76BF894F8353013F0010300F08180019B1B78DF0791
:2056A0006AD50023072285F8252085F82630AB83E0E794F83530DF0721D5D0061FD4AB8B09
:2056C000002B7FF47FA93088013080B2FFF74AF801983188037843F010020270604A11B1C1
:2056E00043F01203137001F047FB012108220023A98385F8252085F82730FFF734BB9906F7
:205700000DD594F83AE094F83B30DAF80010308843EA0E231944C31ACAF80010338030889B
:2057200040B1D20606D4019A137843F002031370FFF718F894F8362094F83730DFF830C142
:2057400003EB02232A8C9BB29342ACF8003000D80BB9ACF80020019BBCF800201B78EA83BA
:205760009B073FF42FA93F4800230380029001F003FB0298FFF744BA062385F8253079E7E5
:20578000FEF7F0FF94F83530D9073FF56DAFBAF80030002B7FF4DEACFFF714B9019A127812
:2057A000D00740F12B810522AB8385F82520FFF709B9019A1278D20706D594F8352027493C
:2057C00002F03F02122A0BD00393019B20221A7001F0D2FA039B00221B6883F82520C7E515
:2057E00091F8343003F0F002502A40F231811909039F1D4B0020053938701A78DDF810E0F0
:20580000019F890004EB0E008E45844680F2438190F83C20002A00F03E81012A00F04281F4
:20582000022A00F0FA809CF83D00002800F0338186445FFA8EFEE5E7C88DE98A88427FF4B5
:205840007FAC7CE642F00202FFF7E5B8044B0193039B1D708CE500BFB81C0020C41C0020C0
:20586000C4210020E8230020811A0020B01C00205E1A00200398302502708D4A05FB01255A
:205880008C491D60BDF8043091F8008091F801E088782B82C978BDF81030874A94F82CA04E
:2058A00094F82D9085F8188085F819E094F82E8094F82FE001276B82A876E9764FF0000B63
:2058C0000FCA85E80F0003230422CDF814C085F8263085F82430384685F82570AF8385F8AB
:2058E00014A085F8159085F8168085F822B085F8232085F827B085F817E0FEF733FF94F835
:205900003430DDF814C003F0F002502A23D91909039A6A4B053982F800B01A78890004EB39
:205920000B008B4507461ADA90F83C207AB1012A08D0022A1BD097F83D0040B183445FFA45
:205940008BFBECE70BF1010B5FFA8BFBE7E71A70039B83F800B05A4B0193FFF70EBA1A7065
:205960005749039B019183F800B0FFF706BA90F83DE0BEF1040FDED190F83F1090F83E7053
:205980001A7041EA07231A46402B0399ACF800304B4B28BF402281F800B0EA832A84019336
:2059A000FFF7EBB903990A70002D7FF469AFFFF713BA05465CE5202385F825003B7001F0AF
:2059C000DBF9FEF7FFBF02F03F0112297FF4ADABB5E5019B1A783A4BD10715D5308803241A
:2059E0004021002285F825401970AA8300283FF4BAAE42221A70FEF7B5FEB4E63388002BB3
:205A00007FF4A8ABFEF7DEBF94F8353003F03F03022B7EF4D7AFFFF7B0B990F83D90B9F185
:205A2000040F7FF400AF90F83F10F44690F83EE003981A7041EA0E231A4601970746402B49
:205A4000204928BF402287F800C00B80EA832A8494F82CE094F82D0094F82E1094F82F20B9
:205A6000032385F814E06875A975EA7585F825300120FEF777FE144800230380AB833380F5
:205A800088F80030019B422202901A7001F074F90298FFF7B5B81A70039B01971A4682F845
:205AA00000E0D5E70EF1010E5FFA8EFEAAE600BFD8210020B8090020CC1C0020811A00204B
:205AC000C42100205E1A0020E823002040BA80B2704700BF50B110B5044601F0D7FF044B36
:205AE0002146BDE81040186803F036BB704700BFC8000020024B0349186803F0D1B900BF33
:205B0000C8000020D55A00002DE9F041124C0646206890461F4603F03DFA0446C0B105468A
:205B2000F36830687168B2680FC50021284684F8218084F8227005F075FC04F1180000215D
:205B400005F070FC002384F82030204601F09EFF2046BDE8F08100BFC8000020024B01464A
:205B6000186803F023BB00BFC800002038B5084D286803F0E3F948B100240146286803F0A5
:205B8000A5F901340028F8D1204638BD0446FBE7C800002070B505460C4E306803F0CEF9B6
:205BA0008DB1044630B90EE02146306803F08EF9044640B120462946102206F05DFB002855
:205BC000F2D1204670BD002070BD00BFC8000020024B0146186803F0A5BA00BFC80000206E
:205BE00008B5FFF7D7FF30B1034B01461868BDE8084003F0DBBA08BDC800002070B5064693
:205C000010200D4603F02AFC1249044603F058FC50B9114B1B78012B07D0204631462A46B4
:205C2000BDE8704001F0F6BE70BDFEF7A5FC0028FAD0FFF7AFFF01460028F5D0074B18680B
:205C400003F0B4FA0446314620462A46BDE8704001F0E0BE84D2000028260020C80000207C
:205C60002DE9F041194D286803F068F9044640B34FF00208032705E02146286803F026F9F5
:205C80000446F0B194F82230012BF5D104F11006304605F0CFFB0028EED02046FEF724FCA8
:205CA000052180B184F82270304605F0BBFB002384F820302146286803F008F90446002812
:205CC000E0D1BDE8F08184F82280D5E7C8000020704700BF08B5064800F09CFE054BAA2214
:205CE00001200021187059709A70DA7008BD00BFE95E0000E80C002010B5114C0220A17980
:205D000003F092FBA379112B0FD0062B0DD03A2B05BF94F8281094F82930002143EA01217C
:205D20000120BDE8104003F07FBB238D618D01209942A8BF1946BDE8104003F075BB00BFE9
:205D4000C41C002070B413780D7A83F002039D42044614D00B891BB94B89B3F57F4F2FD0D7
:205D60001E4A51F8085F13684E68012003F10801A0405E601D601160C0B270BC7047487A19
:205D800053789842E6D1887A93789842E2D1C87AD3789842DED1087B13799842DAD1487BA0
:205DA00053799842D6D1887B93799842D2D1D379CA7B9A42CED1032303FA04F0C0B2DCE7B2
:205DC0008B89FE2BCCD1054DC9892A68022322F8021B03FA04F02A60C0B2CEE7E40C0020A5
:205DE00010B5084C2378012B01D0002010BD01460822A01C06F040FA00280CBF204600202F
:205E000010BD00BFE80C002010B50C4611462046FFF7F4FE044B1B6813B19B682046984748
:205E2000024B1C6010BD00BF000D0020F80C00202DE9F04715090F2D07469A4602F00F04E3
:205E40003FD00F2C34D0A146A84666195DBB0F2E03DD5CB9E5B9BDE8F08707EB0800C6F1EB
:205E60001002002106F014FB002CF3D0DFF87480C9F11000D8F8006038443146224606F0E5
:205E80002DFA022C26D03444C8F80040BDE8F08738465146BDE8F047FEF732BA4546202680
:205EA0004FF010094C462A46384606F017FACEE7A84605F11006002DF2D14FF010094C467A
:205EC000D4E70F2C4FF01008E8D042464546A146A618E9E70A2DD6D8FF22FE23FA723B73F4
:205EE000D1E700BFE40C00202DE9F04FDFF808B3B24D002387B08BF800302B70044603F050
:205F00001FFA03F0D3F9AE4F04213860092003F08BFAAC4B1B680BB1FFF7EEFE0DF1100820
:205F2000002C00F0FF812146404603F0C3FAA64B1B883E2B33D995F80090D7F800A0002370
:205F400009F10209A14E0AF80930A1480AF102033360FFF745FF002800F010810AF10303B2
:205F60003360802302939B4C62782178130943EA0113DBB2980840EA8313DBB210075FFAB5
:205F800083FE63D16088002860D1080740F0FE8012F0F00F40F0FA807823019365E08D4C56
:205FA00095F80090A4463B6809F10106F6B241221E441A7004F1200AE646BEE80F00D64524
:205FC00030607160B260F3600CF1100C06F11006F2D1BCE80300306071609BF8003009F14D
:205FE0002909283385F800908BF800304146102003F028FA784B1B689847734B00289BF8EA
:2060000000601A882D78ACBFC0F17D006520921B401B8242994600F3C0803868A119284417
:2060200006F05CF9B9F800002844801B80B203F037F94146102003F005FA684B1B78002BEE
:2060400040F0B180012007B0BDE8F08F090703D112F0F00F00F0848032682068134610601F
:2060600003F804EB336060230193A379112B00F05E81326802F8013BE3793260402B00F04C
:206080005E81FF2B00F07F81012B64D0326802F8013B326023894F4A3BB953892BB9938930
:2060A0001BB9D389002B00F088814D48FFF798FE4C4B1860002800F0CF8042781AF80930F0
:2060C000042043EA02130AF809304549464AFFF739FE60F03F00C3B20293237EDFF8F4C00F
:2060E000FF2B00F0E6800CF11800CDF80CC0FFF777FE3C4ADDF80CC01060002800F02481BB
:206100001AF809104278029B0A430AF8092043F004030CF11801002042465FFA83FAFFF7C1
:2061200011FED6F800E04AEA00005FFA80FAA3792822112B8BF8002026495FD03B682A7873
:206140009DF80400C3EB0E0E9918985485F800E081F801A04AE7019B43F00103019399E7B0
:20616000316823F03F031343204A0B701288CB1C33606823A1F80120019376E71848FFF756
:206180002FFE00287FF4EAAE0290ECE63368702203F801EB0192336067E704F065FB00203F
:2061A00007B0BDE8F08F124B12489B6800219847FBF704FB012007B0BDE8F08F831A0020A0
:2061C000F40C0020000D0020B01C0020E40C0020DC1C0020C41C00208CD200009D02002041
:2061E000CC1C0020DC0C0020BC1C0020C61C002000D30000095E0000821A00204FF2B002AC
:206200000B8D5BBA9BB223F00F0080B290424A8D52BA92B200F0BC8002F47F42B2F5704FEE
:2062200000F0308103F47F43B3F5704F00F0EF80A54BF0228EF8002018680EF10503CEF849
:2062400001009E46A14B30221B888BF800202EF8023BC6F800E071E748F2FE0322899C49B1
:206260009A420FD14B8B6BB98B8B5BB9CB8B4BB908310420974AFFF765FD029B1843C3B2E1
:2062800002932AE7D6F800C0DFF854E20CF110033360BEE80F00CCF80000CCF80410CCF805
:2062A0000820CCF80C30237EDFF824C2FF2B7FF41AAF029B9CF8190043F0080A02285FFAE0
:2062C0008AFABCF81A3000F0B080002B48D1BCF81C30002B44D1E38B7D49002B40D10B8C91
:2062E00033B94B8C23B991F82430002B00F0D880228C774BA2BB93F822208ABB31680A46E7
:2063000002F8010B53F823EF0298C1F801E01B7940F0090A01F1060E5FFA8AFA1371C6F8EA
:2063200000E004E740466C4903F0C4F8FFE5019B43F004030193E379402B7FF4A2AE019B34
:2063400043F002030193A5E648F2FE03BCF818209A4203D1BCF81A30002B44D0DDF808A055
:20636000D6F80090DFF87CC109F1100EBCE80F00C6F800E0C9F80000C9F80410C9F80820C3
:20638000C9F80C30D3E6019B43F00303019381E622F00F0C84457FF43FAFF3238EF8003054
:2063A0004B8D0A8D1B0A120A03EB021303F5AA638EF801300EF1020343E7138A002B7FF405
:2063C00074AE538A002B7FF470AE938A002B7FF46CAED38A002B7FF468AE029B43F040000C
:2063E000C3B2029379E6BCF81C30002BB6D1BCF81E30002BB2D10CF118014246FFF7A2FCA0
:20640000029BD6F800E018435FFA80FA8FE6F2238EF80030238D314A1B0A8EF80130128822
:206420000EF10403AEF802200BE7002B98D1BCF81C30002B94D1BCF81E30002B7FF44BAFDE
:20644000BCF82030002B7FF446AFBCF82230002B7FF441AFBCF82430002B7FF43CAF9CF8EC
:206460002630002B7FF437AFD6F800E09CF82730029A0EF8013B42F00B0A5FFA8AFAC6F8E9
:2064800000E054E6F122104B8EF800201A880EF10403AEF80120628D120A8EF80320D0E6F5
:2064A0003268134603F8010B31F825CF0298897840F00A0A02F1040EA2F801C05FFA8AFAA9
:2064C000C6F800E0997032E6EC1C0020F21C0020C41C0020BC1C002084D20000EE1C00202F
:2064E000CC1C0020DC1C00202DE9F04FBD4DBE4F002385B03B702B7002F0D8FEBB4EBC4C99
:206500003060042002F098FF326895F800E000B212F80E30206003F0E001602947D0412BDD
:2065200002D005B0BDE8F08FDFF8FC820EF10103C446DBB2D41804F1200AE146206861683E
:20654000A268E368103454450CF1100CA9E80F00F3D13B78206861680EF1290E2833ACE863
:20656000030085F800E03B7002F0B4FE2B789D4C8342D6D802F0AEFE21783B78421AD4183B
:206580009C48802C0260CCD830689B4D014408EB030005F0A3FE994A2B68148023B1FFF740
:2065A000ABFB2B685B68984700F05AFAB9E702EB0E0191F80190924C0EF1020E4FFA89FC4B
:2065C0007244BCF1000F2260BCBF01322260D90623D41A0771D422688A491046884632F8B0
:2065E00001EF9278A1F800E08A7010F804AB18F801294FEA9A0E0EF0300B4BEA8A1A0EF04C
:206600000F0E02F00F024EF0600E4AEA0202206001F801EC88F801200EE003F0080202F092
:20662000FF008AB3DFF800820022602188F8001088F80120A8F8022003F0040202F0FF0A3B
:206640002AB9226812F8011B88F80610226013F003034BD06C4AD35C88F8073019F0400F77
:20666000C9F3011300F0E280BCF1000FC0F2EF800022002B41D065490878012800F04F81A6
:20668000634B00221A606FE72268DFF89C8111461278C2F3830242F0600288F8002011F884
:2066A00001EBA8F802004FEA9E0202F0300242EA8E12216088F80120BEE72168DFF8688173
:2066C0000846602288F8002010F8012B03314FEA920E0EF0300E02F00F024EEA020288F80E
:2066E000012002882160A8F80220A5E7236813F8012B88F807202360B0E70193454A0F204B
:20670000CDF800C012F803B002F0A8FE5A46034601994148FFF78CFBDDF800C009F008037D
:2067200003F0FF0209F0030E002B39D019F0040F10D13A4A0EF1FF331288012BADF80C20DE
:2067400040F2FD80364B374813F80E2003A90023FFF76EFB3A7802F128033B702368BAF172
:20676000000F05D0197801F0F801F02900F0828032689B1A2B7002F0ADFD2A783B78801A3A
:20678000184498F8063028380212112B88F8042088F80500244A7FF4E7AE93889385E3E68C
:2067A00019F0040F59D0BCF1000FC0F2C18017490B78012B7FF464AF4B7893427FF460AF36
:2067C000134A144B102013F80E901160009102F045FE009903464A4602311248FFF728FBD5
:2067E000B8E700BF831A0020821A0020F40C0020E00C0020FC0C0020000D0020B01C002055
:20680000E40C0020C51C002048D20000E80C0020DC0C002060D20000CC1C002044D20000E1
:2068200064D20000DC1C0020C41C00204A4A0F20CDF800C012F803B002F010FE5A4603461C
:2068400046494748FFF7F4FADDF800C066E72A7831680A44927812090BE73F4B102013F8EF
:206860000E9002F0FBFD4A4603463C493D48FFF7DFFA6FE7112188F80610187800F0F3014C
:20688000F03900F00400C0B203293FF66DAEDFE801F03A2F1F02597802330909A1F5756127
:2068A00089B2090241F0F001A8F8281013F8011C01F00F01A1F5756189B2090241F0F0019B
:2068C000A8F82A102360002840D030323A704FE759780433A1F5805189B2090241F0F0010A
:2068E000A8F8281033F8021C2360A8F82A10EAE71D49B3F801E00433A1F800E013F8011C7F
:20690000A1F58051D8E7B3F801E017490533A1F800E033F802EC2360A1F802E0D3E7487823
